:020000040800F2
:1000000068AD01208D0300085F4B000863430008C2
:100010005D4B000815080008A176000800000000EC
:10002000000000000000000000000000C9020008FD
:10003000D90A0008000000002503000899530008B1
:10004000A7030008A7030008A7030008A7030008E8
:10005000A7030008A7030008A7030008A7030008D8
:10006000A7030008A7030008A7030008A7030008C8
:10007000A7030008F9090008A7030008050A0008FB
:10008000A7030008A7030008A7030008A7030008A8
:1000900055080008A7030008A7030008A7030008E5
:1000A000A7030008A7030008A7030008A703000888
:1000B000A7030008A7030008A7030008A703000878
:1000C000A7030008A7030008A7030008A703000868
:1000D000A7030008555B0008A7030008A703000852
:1000E000A7030008A7030008A7030008A703000848
:1000F000A703000879540008A7030008A703000815
:10010000A7030008A7030008A7030008A703000827
:100110005D550008A7030008A7030008A70300080F
:10012000A7030008A7030008110A00081D0A000819
:10013000A70300080000000000000000000000000D
:10014000000000000000000000000000A7030008FD
:10015000A7030008A7030008290A0008A70300084E
:10016000A7030008A7030008A7030008A7030008C7
:10017000A7030008614B0008000000000000000019
:10018000A7030008A7030008A7030008A7030008A7
:10019000A7030008A703000800000000A703000849
:1001A000000000000000000000000000A70300089D
:1001B000A7030008A70300080000000000000000DB
:1001C000000000000000000000000000000000002F
:1001D000000000000000000000000000A70300086D
:1001E00000F002F800F060F80AA090E8000C8244E9
:1001F0008344AAF10107DA4501D100F055F8AFF2C6
:10020000090EBAE80F0013F0010F18BFFB1A43F0F4
:10021000010318471C8700003C8700000A444FF088
:10022000000C10F8013B13F0070408BF10F8014B55
:100230001D1108BF10F8015B641E05D010F8016B9A
:10024000641E01F8016BF9D113F0080F1EBF10F8FE
:10025000014BAD1C0C1B09D16D1E58BF01F801CB21
:10026000FAD505E014F8016B01F8016B6D1EF9D5A4
:100270009142D6D3704700000023002400250026B9
:10028000103A28BF78C1FBD8520728BF30C148BFF9
:100290000B6070471FB508F0F9FA9DE8030000F005
:1002A000DBF91FBD10B510BD00F032FA1146FFF7A3
:1002B000F1FF07F039FA00F050FA03B4FFF7F2FF4C
:1002C00003BC00F081FA00002D4B19680868B0E803
:1002D000F04F80F30988BFF36F8F4FF0000080F379
:1002E000118870470000000008480068006880F32B
:1002F00008884FF0000080F3148862B661B6BFF33F
:100300004F8FBFF36F8F00DF00BF00BF08ED00E02D
:10031000DFF80C00016841F470010160704700BF14
:1003200088ED00E0EFF30980BFF36F8F144B1A687C
:100330001EF0100F08BF20ED108A20E9F04F10606A
:1003400009B44FF0500072B680F31188BFF34F8F9D
:10035000BFF36F8F62B608F0E3F84FF0000080F350
:10036000118809BC19680868B0E8F04F1EF0100F3A
:1003700008BFB0EC108A80F30988BFF36F8F704715
:1003800074000020EFF305807047000009488047A3
:1003900009480047FEE7FEE7FEE7FEE7FEE7FEE767
:1003A000FEE7FEE7FEE7FEE704480549054A064B7F
:1003B0007047000069540008E101000868A30120AB
:1003C00068AD012068A9012068A9012070B5064622
:1003D00000F026F9056806F10B0020F00704B4428E
:1003E0009CBF002070BD2B466A68BAB11068A0425D
:1003F00010D304F1080188423CBF5068586007D30D
:100400005168101941601168091B0160586014603F
:10041000101D70BD13465268002AE7D121462846B8
:1004200000F006F90028DED170BD70B50446051F46
:1004300000F0F6F80068002C14BF446870BD002C72
:1004400018BFAC423CBF20466468F8D301680A1864
:10045000AA4218BF456003D12A68054611440160CD
:1004600028684119A1421CBF6C6070BD6168696059
:1004700021680844286070BD53EA020C00F06980CE
:100480002DE9F04B4FF00006002B1FBFB3FA83F5A8
:1004900003FA05F424FA05F65E4012BF1643B2FAD9
:1004A00082F502FA05F4C5F120051EBF22FA05FC0B
:1004B00044EA0C04203556EA044C4FEA144418BFB1
:1004C000641C4FF000084FF00009904271EB030CE0
:1004D00039D3002919BFB1FA81F701FA07F6B0FA4A
:1004E00080F700FA07F6C7F120071EBF20FA07FCC5
:1004F00046EA0C062037B6FBF4FCA7EB0507103FD5
:1005000007F01F0BCBF120060CFA0BFB2CFA06F6BA
:1005100044BFB3460026202FA4BF5E464FF0000B19
:100520005BEA060C08BF4FF0010B19EB0B09ABFBA4
:10053000027C48EB0608C01B06FB02CC0BFB03CC7D
:1005400071EB0C01C1E70B46024641464846BDE847
:10055000F08B13B54FF000004FF00001AFF30080B7
:10056000BDE81C40704710B5203AC0F00B80B1E8E0
:100570001850203AA0E81850B1E81850A0E81850D8
:10058000BFF4F5AF5FEA027C24BFB1E81850A0E8E1
:10059000185044BF18C918C0BDE810405FEA827CFB
:1005A00024BF51F8043B40F8043B08BF7047D20712
:1005B00028BF31F8023B48BF11F8012B28BF20F8B3
:1005C000023B48BF00F8012B70474FF0000200B516
:1005D000134694469646203922BFA0E80C50A0E866
:1005E0000C50B1F12001BFF4F7AF090728BFA0E814
:1005F0000C5048BF0CC05DF804EB890028BF40F8E0
:10060000042B08BF704748BF20F8022B11F0804F21
:1006100018BF00F8012B7047704770477047000003
:100620000048704710A3012070477047704770471B
:1006300038B504460A4600206946AFF3008000281A
:1006400008BF38BD02460099204600F03FF801205F
:1006500038BD012000F054B8F8B5AFF3008005466E
:1006600000200C46102000BF0646A819A0420DD954
:10067000324669460020AFF30080070008BF00F053
:100680003FF80098A04218BF0546C419FFF7C8FFFD
:1006900005600746F01D20F007004619284600F0C7
:1006A0000AF8B44208BFF8BDA21B31463868BDE85D
:1006B000F84000F00BB800210160C0E9011070475C
:1006C000102070470048704708A301200346406887
:1006D0008C46002818BF88423CBF03464068F8D3C8
:1006E00018681844884207D00CF1030020F0070076
:1006F000001D411A521A0146081D0A60FFF795BEF7
:1007000010B500F039F8BDE8104000F02FB8704780
:100710007546FFF7D7FFAE4605006946534620F001
:100720000700854618B020B5FFF73EFEBDE8204023
:100730004FF000064FF000074FF000084FF0000B9D
:1007400021F00701AC46ACE8C009ACE8C009ACE850
:10075000C009ACE8C0098D46704710B50446AFF338
:1007600000802046BDE81040FFF7A7BD002801D05B
:1007700000F02AB87047000010B5012805D000210C
:1007800003A000F027F8012010BD09A1F8E7000040
:1007900053494752544D454D3A204F7574206F666A
:1007A0002068656170206D656D6F727900000000D2
:1007B0003A2048656170206D656D6F727920636FB6
:1007C000727275707465640001491820ABBEFEE753
:1007D0002600020070B505460C460A2000E06D1C9C
:1007E00000F011F835B128780028F8D102E0641C37
:1007F00000F009F814B120780028F8D1BDE8704065
:100800000A20AFF3008008B569468DF80000032088
:10081000ABBE08BDFEE7000000B58BB00020012193
:1008200005900390CDE906010490CDE908100090F1
:10083000694601900290064800F010FA044800F062
:1008400065FD0348022100F083F90BB000BD0000F4
:10085000DC570120014800F0FABA0000DC57012003
:1008600000207047002070470A4900220A4810B54E
:1008700005F040FB094840F2475190F8E20110FBB7
:1008800001F0044901EB40110348203105F025FB3C
:10089000002010BDDC0100204C990120DC5101201A
:1008A000134870B509884FF40075A0F8E011B0F84E
:1008B000E011A94206D1D0F8E411B0F8E0211144CA
:1008C000C0F8E411B0F8E001E02801D104F050FDD7
:1008D0000848D0F8BC4200F01FF9C4F80402012116
:1008E000024604482B4605F0B0FE40B270BD000041
:1008F000DC5101204C990120002070470B4A0A4B23
:1009000010B5D2F8BC221A60D2F814220AB1012024
:1009100010BD0A460146054805F0ECFABDE8104056
:10092000024805F05DBB0000480100204C99012001
:1009300030B587B00C4B002400F5167000900825E8
:10094000039404950294197069465A709C70DC7087
:100950001C715C719C71044A0448DC7106AB00F0A8
:1009600009F907B030BD000043000020DC5701202A
:1009700070B586B00E4A002410EE103A0825039494
:1009800000F5A060009004950294180A11701E0CE6
:100990005370190E90700123D6701171694654710D
:1009A00094710448D47100F0E5F806B070BD000001
:1009B0003B000020DC57012030B587B00C4B0024F1
:1009C00000F5A06000900825039404950294197026
:1009D00069465A709C70DC701C715C719C71044A91
:1009E0000448DC71012300F0C5F807B030BD0000F9
:1009F0002B000020DC570120014800F015BD00004D
:100A0000F05A0120014800F00FBD0000805901207C
:100A1000014800F009BD0000505B0120014800F0D2
:100A200003BD000020590120014800F0FDBC00007A
:100A3000B05B012001681823CAB2103AB2FBF3F28E
:100A4000054B6FF30901032A9B5CC36500D9091D9F
:100A50008165084670470000EC88000810B583697E
:100A60004FF0C074826A0146002053B1B3F5005FB5
:100A700015D072B1012A0CD0022A0AD0032A09D15A
:100A800004E01AB1012A06D0022A03D1C96AC901B9
:100A900000D5012010BDC96AA142FAD010BD002ABC
:100AA000F7D0012AF2D0022AF3D0032AF3D010BDE6
:100AB00030B50468256825F48025256004686360E6
:100AC0008368402B036803D099600068C26030BD22
:100AD0009A600068C16030BD704772B6FEE700B52D
:100AE00000F004F84AF6C001084400BD084890F838
:100AF000E20150B15FF0000040F2475110FB01F0FD
:100B0000044901EB4010203070470120F4E7000059
:100B1000DC510120DC0100200A4940F247530A4819
:100B200010B520244A68521C4A60D0F8E41190F8AD
:100B3000E201064A10FB03F0114404EB40100844A4
:100B400010BD000004000020DC510120DC01002069
:100B500090F82020012A07D0022A05D0416A41F4EA
:100B60008021416201207047006842690A43426166
:100B700000207047F0B590F820500468A468012D5B
:100B800005D0022D03D0416A41F4802162E014F0C7
:100B9000406F01D1E5005AD50126C4F301644FF43A
:100BA000C075A6401E608B68ABB1CE684F68D0F8A8
:100BB00000C0334305EB041643EAC7034CF8063084
:100BC00007684FF4C27303EB04130E69FE50097DEE
:100BD000012909D00DE00E88CB68076843EA465327
:100BE00005EB0416BB51EBE70168CE5846F480765E
:100BF000CE50D3794FF4C6779679117992F805E003
:100C000041EA03613B1F4FEA064C066807EB0417F5
:100C10004CEA0E2C41EA0C0103EB0413F151D77896
:100C200092F802C0117892F801E0066841EA076282
:100C30004FEA0C4C4CEA0E273A4305EB0411F250F4
:100C40000068425842F0010242500020F0BD416A63
:100C500041F4001141620120F0BD000030B590F870
:100C600020300268012B07D0022B05D0416A41F4E5
:100C700080214162012030BDD2F80032012043F0D2
:100C80000103C2F80032D2F81C320C7D04F01F04BC
:100C9000A0408343C2F81C32CB69B3B9D2F80C32FE
:100CA0008343C2F80C328C894B684D6964F31F434F
:100CB00002EBC504C4F840320C890B684D6964F33B
:100CC0001F4302EBC504C4F84432CB69012B16D193
:100CD000D2F80C320343C2F80C320C884B684D69D1
:100CE00064F31F4302EBC504C4F840320C89CB689F
:100CF0004D6964F31F4302EBC504C4F844328B69A9
:100D0000002BD2F804320FD053EA0003C2F80432A9
:100D10000B69002BD2F8143208D00343C2F8143206
:100D2000096A012904D008E08343EFE78343F5E72C
:100D3000D2F81C120143C2F81C12D2F8000220F0B3
:100D40000100C2F80002002030BD7047F0B590F8F5
:100D50002040012C05D0022C03D0416A41F48021AF
:100D600028E0046809B32469A40720D005684FF47B
:100D7000D87404EB01142D5915F00405956005682D
:100D80002D591AD0ED08556006684FF4DA753459BC
:100D900004F00206D66005EB011405682E5906F032
:100DA0000F06082E0CD308250DE0E468DCE7416A45
:100DB00041F4001141620120F0BD6D0D1560E3E7C3
:100DC0002D5905F00F05156106684FF4DC752F1DD0
:100DD0000029365905EB011507EB0111C6F307266B
:100DE0009661066834594FEA1444546102685259B6
:100DF0001A70026852594FEA12225A700268525908
:100E00004FEA12429A70026852594FEA1262DA703F
:100E1000026852581A71026852584FEA12225A71E7
:100E2000026852584FEA12429A71026851584FEACA
:100E30001161D971006805D0016941F0200101619B
:100E40000020F0BDC16841F02001C160F8E72DE944
:100E5000F05F0546006800244669D0F80490876872
:100E6000D0F80CB0D0F810A0F207D0F8188048D015
:100E7000F90714D001218160BA0703D5284600F094
:100E800072FA0CE0780702D54FF4006407E03807E7
:100E900002D54FF4805402E0284600F063FAF805CA
:100EA00016D52868BA054FF48071816003D52846AD
:100EB00000F05BFA0CE0780502D544F4005407E03A
:100EC000380502D544F4804402E0284600F04CFA8C
:100ED000F80316D52868BA034FF48031816003D532
:100EE000284600F044FA0CE0780302D544F40044AC
:100EF00007E0380302D544F4803402E0284600F0CD
:100F000035FA300707D55FEACB6004D52968102091
:100F100044F40074C86070074FF0080707D55FEA13
:100F20000B7004D52868C760284600F055F9B00753
:100F300006D52868C068800702D0284600F04EF920
:100F4000700607D55FEACA6004D52968102044F40A
:100F500080640861B00607D55FEA0A7004D5286886
:100F60000761284600F0CEF9F00606D5286800692A
:100F7000800702D0284600F0C6F9B00308D55FEA22
:100F8000C96005D5296810204860284600F0BCF9E2
:100F9000F00307D55FEA097004D528684760284642
:100FA00000F0E6F9300446D55FEA497040D5F00517
:100FB00004D55FEAC87001D044F00104B00504D53F
:100FC0005FEA887001D544F00204700504D55FEA39
:100FD000487001D544F00404300529D518F0700F8D
:100FE00026D008F07000402815D006DC102809D063
:100FF00020280AD0302816D10AE050280ED06028C8
:1010000011D10EE044F008040DE044F010040AE0B1
:1010100044F0200407E044F0400404E044F080047D
:1010200001E044F480742868816921F070018161D5
:10103000296804204860002C05D0686A2043686253
:101040002846FFF782FEBDE8F09F70B5040003D08C
:1010500094F8200010B104E0012070BD204600F09B
:1010600081F82068016841F00101016000F086FC10
:101070000526054604E000F081FC401B0A2811D833
:1010800020684068C007F6D02068016821F002019E
:10109000016000F073FC05460BE000F06FFC401BA4
:1010A0000A2806D9606A40F40030606284F8206043
:1010B000D2E7206840688007EFD4207E01282068AE
:1010C00001683DD021F080010160607E0128206828
:1010D000016838D021F040010160A07E012820681D
:1010E000016833D021F020010160E07E01282068F2
:1010F00001682ED041F010010160207F0128206896
:10110000016829D021F008010160607F0128206872
:10111000016824D021F004010160D4E90110D4E970
:1011200003326569491E184323682A43104300228D
:101130000843D8610121626284F82010104670BD16
:1011400041F08001C0E741F04001C5E741F02001D6
:10115000CAE721F01001CFE741F00801D4E741F0E0
:101160000401D9E710B586B0044614216846FFF79C
:101170002CFA16492068884226D11548016841F0AA
:1011800000710160006800F0007005901048103890
:10119000016841F00101016000680221002200F0B5
:1011A00001000590032309244FF4C0508DE81F006F
:1011B0000848694600F0CAFA00220521142000F010
:1011C00013FF142000F002FF06B010BD00640040C1
:1011D00040380240000002407047000070B50068CF
:1011E00088B04449884229D1434B002143486A468C
:1011F000FFF7ACFD009B50203F4CB3FBF0F5B3FB79
:10120000F0F6213C3C4A3E4900FB1533F0B2207019
:101210000E2B13D2DFE803F01207141B22293139F9
:1012200040474E555C6300EB0010136801EB8000F3
:10123000C363117901B1012180F8381008B070BD85
:1012400000EB0010126801EB80004260F6E700EB53
:101250000010126801EB80008260EFE700EB0010E5
:10126000126801EB8000C260E8E700EB001312880F
:1012700001EB830150BA0882E0E700EB001312880B
:1012800001EB830150BA4882D8E700EB00101268E6
:1012900001EB80004261D1E700EB0010126801EB26
:1012A00080008261CAE700EB0010126801EB800049
:1012B000C261C3E700EB0010126801EB800002621C
:1012C000BCE700EB0010126801EB80004262B5E75A
:1012D00000EB0010126801EB80008262AEE712782A
:1012E00002B1012200EB001001EB800080F83820F1
:1012F000A4E70000006400404B000020DC57012000
:1013000044560120704770477047000070B504468E
:1013100090F82000012804D0606A40F40020606248
:1013200018E0022084F820002068016821F0010103
:10133000016000F023FB05460EE000BF00F01EFB3D
:10134000401B0A2808D9616A052041F40031616216
:1013500084F82000012070BD20684068C007EDD1EE
:10136000606270BD70477047704770477047704744
:1013700070472DE9F041876D044600F0FFFA0646FC
:1013800094F835000025022806D0802060650120F1
:1013900084F83450BDE8F0812068016821F016011E
:1013A00001602068416921F080014161206C08B929
:1013B000A06C20B12068016821F00801016020685C
:1013C000016821F0010101600CE000F0D7FA801BF8
:1013D000052807D920216165032084F8350084F8A9
:1013E0003450D7E720680068C007EED194F85C203D
:1013F0003F2001219040B86084F83510002084F827
:101400003450C7E790F83510022903D08021416598
:1014100001207047052180F835100068016821F02F
:1014200001010160002070472DE9F84304464FF0A8
:101430000009644B0820CDF800904FF41652A56DBA
:1014400094F85C101B682E68B3FBF2F700FA01F108
:1014500031420FD021680A6852070BD50A6822F082
:1014600004020A6094F85C108840A860606D40F047
:101470000100606594F85C104FF0010808FA01F073
:10148000304208D021684969090604D5A860606D1A
:1014900040F00200606594F85C10042088403042FF
:1014A00008D021680968890704D5A860606D40F0FC
:1014B0000400606594F85C1010208840304218D019
:1014C00021680968090714D5A860206801684903E4
:1014D00004D50068000308D5A16C07E00168C905C0
:1014E00003D4016821F008010160216C09B1204694
:1014F000884794F85C1020208840304231D0216821
:101500000968C9062DD5A86094F83500052820681B
:10151000016806D0490347D5006800031DD4616CFB
:101520001CE021F0160101602068416921F0800172
:101530004161206C08B9A06C20B12068016821F0DD
:101540000801016094F85C303F229A40AA6084F858
:10155000358084F83490216D1FE0E16B09B120469D
:101560008847606D00282BD0606DC00714D005201F
:1015700084F835002068016821F0010101600098BD
:10158000401C0090B84203D820680068C007F6D11C
:1015900084F8358084F83490E16C002910D001B0D3
:1015A0002046BDE8F04308470168C905D5D4036863
:1015B00023F01003036084F8358084F83490CCE77E
:1015C000BDE8F883700000202DE9F047044600F0E4
:1015D000D5F906465CB10025022084F8350084F870
:1015E00034502068016821F0010101600DE0012004
:1015F000BDE8F08700F0C2F9801B052805D920213D
:101600006165032084F83500F2E720680068C007B0
:10161000F0D1D4E90010D4E90232D4E9046C1843C3
:10162000D4F8188004F11C0389463243096810433A
:10163000C8CB1D4A40EA0C0040EA0800114040EACD
:10164000030040EA0600042F40EA010003D1D4E978
:101650000B1211430843C9F800002068666A40690C
:10166000042E20F0070046EA00060CD1D4E90A0156
:10167000064341B12046FFF7F1F920B140206065F3
:1016800084F83550B3E7206846612046FFF7D2F969
:1016900094F85C303F21012299408160656584F8AF
:1016A00035200020A4E700003F8010E02DE9F04144
:1016B000044690F8340000250128A66D0ED094F859
:1016C00035C00127002084F83470BCF1010F07D029
:1016D000022584F834002846BDE8F0810220FBE7AB
:1016E000022784F8357060652046FFF7E1F994F829
:1016F0005C103F208840B0602068016841F016010E
:1017000001602068416941F080014161206C20B195
:101710002068016841F0080101602068016841F01B
:1017200001010160D7E7000070B5044600F026F91A
:101730000546601C02D004480078044400F01EF9FD
:10174000401BA042FAD370BD640000202DE9F84F81
:10175000DFF8F0B1012403254FF00F0A00220BF14E
:10176000040E00BF0B6804FA02F63340B34278D18E
:101770000F7907F00307012F01D0022F1AD18768D4
:101780004FEA4209D1F80CC005FA09F827EA080720
:101790000CFA09FC4CEA070CC0F808C0476891F83D
:1017A00004C0B743CCF3001C0CFA02FC4CEA070C53
:1017B000C0F804C00E79F643B6070BD0C6684FEAEE
:1017C000420C8F6805FA0CF826EA080607FA0CF7AF
:1017D0003743C7600E7906F00306022E12D1D608F1
:1017E0004FEA427800EB860600960F69D6F8209003
:1017F0004FEAD8660AFA06FCB74029EA0C063743D6
:10180000009E37620F7906684FEA420C07F0030723
:1018100005FA0CF807FA0CF726EA080637430760C2
:101820004E6816F4403F1CD0474E376847F4804757
:101830003760366822F00308970706F48046009662
:10184000424E3F0F4644B146D6F80868DFF80081A3
:101850000AFA07FC404526EA0C0603D14FF0000CBB
:1018600033E068E0DFF8ECC0604502D14FF0010CD6
:101870002BE0DFF8E4C0604502D14FF0020C24E019
:10188000DFF8D8C0604502D14FF0030C1DE0DFF84F
:10189000D0C0604502D14FF0040C16E0DFF8C4C0A0
:1018A000604502D14FF0050C0FE0DFF8BCC0604589
:1018B00002D14FF0060C08E0DFF8B0C0604502D15D
:1018C0004FF0070C01E04FF0080C0CFA07FC4CEA53
:1018D000060CC9F808C84F68DBF80060FF0226EA6A
:1018E000030600D51E437746CBF80060D1F804C04C
:1018F000DEF800605FEA8C2C26EA030600D51E4362
:10190000DFF840C03E60ACF1040C4F68DCF80060CA
:10191000BF0326EA030600D51E430A4FCCF8006039
:10192000083FD1F804C03E685FEACC3C26EA0306D3
:1019300000D51E433E60521C102AFFF413AFBDE8D1
:10194000F88F0000083C014044380240003001405C
:10195000000002400004024000080240000C024067
:10196000001002400014024000180240001C024017
:101970000AB1816170470904FBE7000001488068F3
:10198000704700006400002030B590F84120202A04
:1019900024D190F84020012A20D0012380F8403043
:1019A000242280F84120202300240268156825F0B5
:1019B000010515600268156825F4805515600268F8
:1019C00015680D43156001680A6842F001020A605B
:1019D00080F8413080F84040002030BD022030BD0A
:1019E00030B590F84120202A22D190F84020012AD9
:1019F0001ED0012380F84030242280F8412020248A
:101A000000250268136823F001031360026813685D
:101A100023F4706343EA0121116001680A6842F00F
:101A200001020A6080F8414080F84050002030BD3B
:101A3000022030BD70B5040004D094F841000025A8
:101A400010B106E0012070BD204684F8405000F03F
:101A5000AFF9242084F841002068016821F00101D9
:101A60000160D4E9001020F070600861206881688E
:101A700021F400418160E06821680128A06830D02D
:101A800040F404408860E0680228206841682BD058
:101A900021F40061416020682021154A4368134306
:101AA00043602068C26822F40042C26054F8106BA0
:101AB0000DCC104340EA0320F06054F81C3CD4E9FC
:101AC00000021043186054F81C0D026842F0010235
:101AD0000260656484F84110256384F84250002058
:101AE00070BD40F40040CDE741F40061D2E7000052
:101AF000008000022DE9FF4F83B0044690F84100BA
:101B00009B46DDE91087DDF848A0202876D15FEA02
:101B1000080015D0A7B194F8400001286ED04FF00E
:101B2000010984F84090FFF729FF01220646192396
:101B30000090D103204602F02BFD002872D103E073
:101B40004FF4007060646DE00025C4F82480222109
:101B500084F84110402084F84200656467855B4644
:101B600065632046CDE900A6DDE9041202F094FC8D
:101B700010B184F8405055E0618D4FF080773448C3
:101B80004FF00078FF2905D9A4F828904A463B4633
:101B9000009005E0618D43462185009094F828204F
:101BA0002046049902F0DCFC002253460421204622
:101BB000009602F0EDFCA8BB2068616A406A0870DC
:101BC000606A401C6062208D401E81B22185608D5C
:101BD000401E6085608DE0B1D9B900225346802156
:101BE0002046009602F0D4FCE0B9608DFF2806D9AB
:101BF000A4F828904A463B46009506E026E0608D12
:101C000043462085009594F828202046049902F048
:101C1000A7FC608D0028C7D132465146204602F00D
:101C2000F5FC18B1012007B0BDE8F08F2068202135
:101C3000084AC161206843681340436084F841103A
:101C400084F84250002084F84050ECE70220EAE794
:101C50000024008000E800FE2DE9FF4F83B0044619
:101C600090F841009A469346DDE91087DDF84890E8
:101C7000202871D15FEA080014D09FB194F8400089
:101C8000012869D0012084F84000FFF777FE012287
:101C9000064619230090D103204602F079FC002863
:101CA0006ED103E04FF40070606469E00025C4F871
:101CB0002480212184F84110402084F8420065648A
:101CC0006785534665635A4604992046CDE90096D8
:101CD00002F014FC10B184F8405051E0608DFF27F1
:101CE0004FF08078FF284FF0007A04D927853A46D4
:101CF0004346009505E0608D53462085009594F895
:101D000028202046049902F02BFC32464946204602
:101D100002F0A8FCA0BB606A216800788862606A53
:101D2000401C6062608D401E6085208D401E80B228
:101D30002085618DD9B1D0B900224B468021204643
:101D4000009602F025FCD8B9608DFF2805D92785BB
:101D50003A464346009506E026E0608D53462085CE
:101D6000009594F828202046049902F0F9FB608D34
:101D70000028CAD132464946204602F047FC18B135
:101D8000012007B0BDE8F08F20682021074AC1611B
:101D9000206843681340436084F8411084F842503F
:101DA000002084F84050ECE70220EAE700E800FE5B
:101DB00010B5A6B00446142120A8FEF706FC802129
:101DC0006846FEF702FC1949206888422BD10014AE
:101DD000009000246846179400F014FF08B1FEF745
:101DE0007CFE1348016841F00201016000680DF1BA
:101DF000800C122100F0020025904FF44070042363
:101E00008CE8130003220B48CDE9232320A9FFF718
:101E10009DFC07481030016841F400110160006822
:101E200000F40010259026B010BD000000540040C2
:101E300030380240000402400248816802781144B0
:101E40008160704764000020032010B500F0ECF8BA
:101E50000F2000F005F800F09DF8002010BD0000F4
:101E600030B505461F4887B0016841F480710160B4
:101E7000006806A900F48070009001A801F082F9C2
:101E80000498B0B101F0A4F94000174A0021174BA3
:101E9000B0FBF2F2164840F2E7340360C0E90341B8
:101EA000521EC0E90121816101F03EFE040003D011
:101EB00015E001F08DF9E8E70D4801F067FE040038
:101EC0000DD12D2000F082F8102D07D200222946D6
:101ED0002D2000F089F80748056000E0012407B0D4
:101EE000204630BD4038024040420F0000200040F4
:101EF000105C012068000020154BF0B5083B4278CB
:101F000013491A600B680A1F23F001030B60436832
:101F10001360057BC67A827A437B2D07847B45EA72
:101F20000665C77B90F809C0067A90F800E045EA9C
:101F3000C24040EA834040EA444040EA074040EA69
:101F40000C2040EA460040EA0E000860F0BD0000A8
:101F5000A0ED00E0BFF35F8F044800210368034A4F
:101F600023F48033036070321160704724ED00E089
:101F7000074A40F00100064970321060086840F4DA
:101F800080300860BFF34F8FBFF36F8F7047000042
:101F900024ED00E00C4882B0016841F080510160FE
:101FA000006800F0805000900748001D016841F46F
:101FB00080410160006800220F2100F48040009001
:101FC000901E02B000F010B840380240002809DB33
:101FD000410900F01F028900012001F1E021904039
:101FE000C1F80001704700000E4BF0B41B680D46AD
:101FF000C3F30223C3F10706042E00D90426191DDA
:10200000072901D2002300E0DB1E012404FA06F1B7
:102010009C40491E2940641E994014402143F0BC55
:1020200005F070BB0CED00E0064900F0070210B5AA
:102030004FF6FF040868044B204040EA0220184392
:10204000086010BD0CED00E00000FA0501680123F6
:10205000C0F8D834002280F8CC248869044A40F0C3
:1020600000608861486D104348650020704700009B
:102070000300001070B5164D0446A1B1012911D11D
:102080002068D0F8001E41F00101C0F8001ED4F80D
:10209000DC0404F077FBE07A002803D0286840F0E5
:1020A0000600286070BDE07A28B103F08DF9286839
:1020B00020F0060028602068D0F8001E21F0010101
:1020C000C0F8001ED4F8DC04BDE8704004F0F5BA96
:1020D00010ED00E00068416200207047F0B5036831
:1020E0005D6A39B19F6A4C1E00204FF4827605EB81
:1020F00017450BE045EA0240986210E0471C06EBEA
:10210000800053F800C0F8B205EB1C45A042F5D39F
:102110004FF4807000EB810045EA02421A50002023
:10212000F0BDD0F8DC0404F002BA01EBC10200EB10
:102130008202D0F8DC04126A04F055B901EBC10246
:1021400000EB8202D0F8DC04D2F8602204F0A7B9D8
:10215000D0F8DC0404F0EDB90A0601F00F0101EB40
:10216000C10100EB810101D5143101E001F51571C8
:10217000006805F0E1B801F00F020B0670B502EB44
:10218000C20104464FF001004FF0000504EB81014D
:1021900002D54875143103E081F8555201F51571E7
:1021A0000A7094F89424012A08D084F894042068D2
:1021B00004F0DEFD002084F8945470BD022070BD50
:1021C00070B50279044601F00F00904201D9012058
:1021D00070BD01F00F024FF000050B0602EBC201CB
:1021E0004FF0010204EB810102D54A75143103E07E
:1021F00081F8555201F515718D70087094F89404AA
:10220000012808D084F89424206804F021FF0020DD
:1022100084F8945470BD022070BD01F00F0101EBF1
:10222000C10100EB8100D0F8680270472DE9F04150
:1022300001F00F0604460D064FF0010006EBC60143
:102240004FF0000504EB810102D54875143103E01D
:1022500081F8555201F515714F788A600B710E7037
:1022600007B14E83022B00D14D7194F89424012ABA
:1022700009D084F89404206804F0BAFC284684F855
:102280009454BDE8F0810220FBE770B501F00F0522
:10229000002405EBC50100EB810101F5187181E80F
:1022A0001C0001F80B4C01F80C5D8379012B00D167
:1022B000CA618279006804F023FF002070BD70B508
:1022C0000D460179044605F00F00884201D901202E
:1022D00070BD29064FF000064FF0010206D500EB55
:1022E000C00104EB81014A75143107E005EBC5011B
:1022F00004EB810181F8556201F515718A7008704F
:1023000094F89404012807D084F89424206804F0F9
:10231000CBFE280702D007E0022070BDA17904F2AD
:102320009C42206804F068FE002084F8946470BD2C
:1023300070B501F00F04002504EBC401012600EB89
:102340008101203181E82C0001F80B6C01F80C4D63
:102350008379012B00D1CA618279006804F0D0FE34
:10236000002070BD2DE9FC5F05680446284605F095
:102370007FF800287ED1206805F0A6F8002879D0E3
:10238000D5F80808C0F30D20C4F8D404206805F07F
:102390009BF8800704D52068416901F00201416182
:1023A000206805F091F8C10604F29C40009035D5F4
:1023B0002068816921F0100181612F6A07F00F0107
:1023C000C7F3434001EBC101022804EB810606F587
:1023D000157602D0062812D01BE047F6F0700742AF
:1023E00017D0C7F30A12F1681746284605F070F8AF
:1023F0007169F068394471613844F06009E000990E
:102400000822284605F064F87069C7F30A110844E9
:1024100070612068816941F010018161206805F0D8
:1024200053F800034FF0080B4FF0000A4FF001097A
:102430007CD52068002605F026F8074674E0F807EA
:1024400070D02068F1B205F037F88046C00707D099
:1024500005EB4611C1F8089B3146204602F086FB89
:102460005FEA087024D505EB4611C1F808BBFA49AC
:10247000206800E03EE2026C00EB461001928A42C6
:10248000D0F8081B05D9090403D54FF40041C0F862
:10249000081B204600F04BFBEF490198884207D902
:1024A000A079012804D120680121009A04F0A4FD3C
:1024B0005FEAC86004D505EB46111020C1F8080B8F
:1024C0005FEA88701DD56869000605D5D5F804084F
:1024D00040F48061C5F8041806EBC60004EB8000E8
:1024E00090F8571200F51570012905D180F803A066
:1024F0002046F1B200F004FA05EB46110220C1F8C3
:10250000080B5FEA886004D505EB46112020C1F86E
:10251000080B5FEA884005D505EB46114FF40050E3
:10252000C1F8080B7F08761C002F88D1206804F0C2
:10253000CBFF40036ED5206804F09EFF00260746BF
:1025400066E0F80762D02068F1B204F0A3FF80468D
:10255000C00723D0D5F8342806F00F0105EB461349
:1025600009FA01F18A43C5F83428C3F80899A0791B
:1025700001280FD106EBC60004EB8000D0E907214B
:102580001144016236B9606A20B920680121009ABD
:1025900004F032FD2046F1B2FFF7C7FD5FEA087094
:1025A00003D505EB4611C1F808B95FEAC86004D548
:1025B00005EB46111020C1F808095FEA486004D510
:1025C00005EB46114020C1F808095FEA887016D56E
:1025D0003146284604F021FF06EBC60004EB8000DC
:1025E000C17D1430012905D180F803A02046F1B245
:1025F00000F082F905EB46110220C1F808095FEAF4
:10260000086003D53146204602F016FB7F08761C91
:10261000002F96D1206804F057FF002811DAD5F872
:10262000040820F00101C5F8041894F8CC0401282E
:102630003BD0204600F060FA2068416901F000417B
:102640004161206804F040FF00050BD5D5F808086B
:10265000C00702D0204600F087FA2068416901F4E3
:1026600000614161206804F02FFF00010AD5206855
:10267000416901F00061416194F8CC04E0B1204669
:1026800000F072FA206804F01FFFC00472D5D5F87C
:10269000040820F00101C5F804182068102104F096
:1026A000BCFE00214FF67F322DE00021204684F849
:1026B000CCA4FFF7DFFCBFE784F8CC942068406D22
:1026C0000121C0F38300C4F8D0042046FFF7D2FCF8
:1026D000D8E700BF05EB4110C0F80829D0F8003951
:1026E00023F40013C0F80039C0F8082BD0F8003BE1
:1026F00023F40013C0F8003BD0F8003B43F0006324
:10270000C0F8003B491C20798842E3D8D5F81C0862
:1027100040F00111C5F81C18E07B68B1D5F88408B9
:1027200040F00B01C5F88418D5F8440840F00B01BF
:102730002846C5F844180DE0D5F8140842F22B01DC
:102740000843C5F81408D5F8100840F00B012846D6
:10275000C5F81018D0F8000820F4FE61C5F800187C
:10276000A1792068009A04F047FC2068416901F4CF
:1027700080514161206804F0A7FE800415D52068CF
:1027800004F076FA206804F066FEE07100F01AFDAD
:10279000E2790146206804F0FBFE204600F096F93D
:1027A0002068416901F400514161206804F08CFE09
:1027B000000707D5204600F0A3F92068416901F021
:1027C00008014161206804F07FFE000616D5A86963
:1027D000012620F08001A9610DE000BF06EBC600D4
:1027E00004EB800090F85702012803D12046F1B293
:1027F000FFF7B2FC761C2079B042EFD8206804F0D5
:1028000063FEC0021FD501264F4614E006EBC60149
:1028100005EB461004EB8101D0F800090A7E012A7D
:1028200008D1002806DAF0B2CF7540F080012046CA
:10283000FFF792FC761C2079B042E7D82068416906
:1028400001F480114161206804F03EFE800234D51D
:1028500001204B4629E000000A30544F00EBC00233
:1028600005EB401104EB8202D1F8001B92F858628C
:10287000012E19D1002917DA94F8D46401F48031BB
:1028800006F00106B1420FD182F85732A96941F032
:102890008002AA616969090606D4D5F8040840F4E3
:1028A0000070C5F8040803E0401C21798142D5D8A6
:1028B0002068416901F400114161206804F004FEC0
:1028C000400007D52046FFF72CFC2068416901F045
:1028D00080414161206804F0F7FD40070AD5206877
:1028E0004568680702D52046FFF732FC206841683A
:1028F00029434160BDE8FC9FD0F8DC0403F071BEC1
:10290000D0F8DC0403F081BEF8B5040005D094F8DB
:1029100095040025266810B106E00120F8BD204688
:1029200084F8945400F05CF8032084F89504B6F120
:10293000A04F00D1A571206804F058FB207C8DF8D1
:10294000000094E80F0004F0A1F90226B8BB20684B
:10295000002104F0DDFD90BB002001270DE000BF49
:1029600000EBC001421C04EB81014F750D76CD6177
:102970000D624D620875C885D0B221798142EFD8C9
:10298000002011E000EBC001421C04EB810181F842
:10299000555281F85852C1F85C52C1F86052C1F8E2
:1029A000645281F85402D0B221798142EAD8207C65
:1029B0008DF8000094E80F0004F05CFA10B184F880
:1029C0009564AAE7207B657484F89574012802D188
:1029D0002046FFF73BFB206804F03EFA0020F8BDDC
:1029E0002DE9F04186B0044614216846FDF7EDFD5F
:1029F0003149206888425BD1304C206840F00400A7
:102A00002060206800F004000590206840F001007C
:102A10002060206800F001000590206840F002006E
:102A200020602068022500264FF00A0803270D21A8
:102A300000F0020005908DE8E20121486946FEF7AA
:102A400085FE28211F488DE8E2016946FEF77EFEDB
:102A500043F623411C488DE8E2016946FEF776FE05
:102A6000206840F000502060206800F00050059081
:102A7000206840F080402060206800F08040059091
:102A8000206840F000502060206800F00050059061
:102A9000206840F08040206020680022052100F07E
:102AA000804005904D20FFF79FFA4D20FFF78EFAEA
:102AB00006B0BDE8F081000000000440303802405C
:102AC00000080240000002400004024070B50446C5
:102AD000C079012570B1022801D0FDF7FEFFD4F8BE
:102AE000DC04294603F000FED4F8DC04BDE87040A5
:102AF00003F0B4BD0025F2E7D0F8DC0403F0DDBD3F
:102B0000D0F8DC0403F0E3BD10B5044690F894045B
:102B100001280AD00120617484F89404206804F02C
:102B200026FD002084F8940410BD022010BDD0F8CA
:102B3000DC2400F29C41104603F0E2BD10B50446CF
:102B400090F8940401280CD0012084F894042068A3
:102B500004F041FC206804F071F9002084F894042A
:102B600010BD022010BD000010B50446D0F8DC04F2
:102B700003F008FE2068D0F8001E41F00101C0F803
:102B8000001EE07A002804D00248016841F00601E6
:102B9000016010BD10ED00E01848F8B5016841F083
:102BA000805101600068164C00F080500090206851
:102BB00040F480302060FEF7E1FE4FF47A7605465F
:102BC00005E000BFFEF7DAFE401BB0420FD8606898
:102BD000C003F7D5206840F400302060FEF7CEFE39
:102BE000054606E0FEF7CAFE401BB04201D90320AD
:102BF000F8BD60688003F5D50020F8BD403802407C
:102C0000007000402DE9F84F04460078DFF8189472
:102C10004FF000073E46C0070ED0D9F8001021F44F
:102C20000001C9F80010D9F80010E26A1143C9F890
:102C30000010E06A00B90127FB4D206884350003CD
:102C40000ED5616B286820F4401008432860606B43
:102C5000B0F5801F01D010B102E0012700E001268D
:102C600020684FF4800BC0020CD5A16B286820F4BB
:102C7000400008432860A06B584501D1012701E0BE
:102C800000B901262078800667D5E748383001680A
:102C900041F0805101600068DFF890A300F080509F
:102CA0000090DAF8001041F48071CAF80010FEF7C5
:102CB00065FE804606E000BFFEF760FEA0EB080060
:102CC00064287DD8DAF80000C005F5D5DFF8588310
:102CD00008F16808D8F8000010F440702AD0218D5F
:102CE00001F44071814225D0D8F80010D8F80020B6
:102CF00021F4407142F48032C8F80020D8F8002056
:102D000022F48032C8F80020C8F80010D8F800007B
:102D1000C0070FD0FEF732FE824607E0FEF72EFE18
:102D2000A0EB0A0141F288308142CAD8D8F80000ED
:102D30008007F3D5A06AC0F3012103297ED0D9F81A
:102D4000001021F4F811C9F80010228DD8F80010F5
:102D5000C2F30B021143C8F800102078C00607D553
:102D6000286820F0807028602868216B084328605C
:102D70002188AD488830490405D5E26D016821F409
:102D80004031114301602188090405D5226E016894
:102D900021F44021114301602168C90305D5626E09
:102DA000016821F44011114301602178490605D5DD
:102DB000E26B016821F0030111430160217800E01A
:102DC00009E1090605D5226C016821F00C011143C7
:102DD00001602188C90505D5626C016821F03001C8
:102DE000114301602188890505D5A26C016821F095
:102DF000C001114301602188490505D5E26C0168D5
:102E000021F44071114301602188090505D5226D27
:102E1000016821F44061114301602188C90405D58E
:102E2000626D016821F440511143016021888904D9
:102E300007D5A26D016821F4404100E03DE0114357
:102E4000016021684FF0006A890209D5626F01684C
:102E500021F0006111430160616F514500D10126ED
:102E60002168490305D5E26E016821F040711143E4
:102E700001602168090205D5A26F016821F0805127
:102E8000114301602168490105D5E26F016821F015
:102E9000005111430160DFF89891012F02D02068A2
:102EA00080016ED5D9F800004F4620F08060C9F847
:102EB0000000FEF763FD804610E05E4AD9F800305E
:102EC000104023F4F8120243C9F800203DE700BF88
:102ED000FEF754FDA0EB080064287CD83868000198
:102EE000F6D4217850487C30C9070DD0E16A59B931
:102EF000227A6168D0F800C08B01CCF3036143EA09
:102F0000016141EA0271016021680A0303D5626B25
:102F1000B2F5801F04D0C90214D5A16B594511D157
:102F2000237B626801689201C1F3027142EA036285
:102F300042EA017101602968E26921F01F01521E15
:102F4000114329602168890108D56168227B237AB1
:102F5000890141EA026141EA037101603968B846BA
:102F600041F080613960FEF709FD074605E000BFCA
:102F7000FEF704FDC01B642863D8D8F800000001E8
:102F8000F6D54EB3D9F800004E4620F08050C9F86F
:102F90000000FEF7F3FC074605E000BFFEF7EEFC7D
:102FA000C01B64284DD83068C0438000F6D51E4849
:102FB000216880300A0301D5626B1AB1C90219D5A4
:102FC000A16BB9B923690168227D9B01C1F301415D
:102FD00043EA014101E034E03AE041EA0261016084
:102FE00029686FF0FF03226A21F4F85103EB0222F3
:102FF00011432960216889020DD5616F51450AD1BD
:10300000228B21690368890141EA0242C3F303610B
:1030100042EA01610160306840F080503060FEF7A4
:10302000ADFC044610E0000008380240007000408B
:1030300000380240FFFCFF0FFEF7A0FC001B6428D5
:1030400002D90320BDE8F88F3068C0438000F3D474
:103050000020F7E72DE9F04705000F4663D0444E06
:10306000306800F00F00B84209D2306820F00F003D
:1030700038433060306800F00F00B84253D1286800
:103080003C4C810712D5400703D5206840F4E0503E
:1030900020602878000703D5206840F46040206055
:1030A000A968206820F0F000084320602878C00755
:1030B0002AD0304968680839012810D009680228E8
:1030C00010D0890700292EDA216821F0030101437D
:1030D0002160FEF753FC804641F288390DE0096813
:1030E0008903EFE78901EDE7FEF748FCA0EB080153
:1030F000494502D90320BDE8F0876868216801F0DE
:103100000C01B1EB800FEFD1306800F00F00B84236
:103110000BD9306820F00F0038433060306800F081
:103120000F00B84201D00120E5E72878400705D517
:10313000E968206820F4E050084320602878000700
:1031400006D52869216821F4604141EAC000206069
:1031500000F05EF82168084AC1F30311515CC840D1
:103160000649086006480068FEF77AFE0020C2E7BC
:10317000003C024008380240F4880008700000203B
:10318000680000200D4A0F2330B503604FF4E0546F
:103190000B4B156805F003054560156805F0F00553
:1031A0008560156805F4E055C560126804EAD2022E
:1031B0000261186800F00F00086030BD0838024056
:1031C000003C024001480068704700007000002089
:1031D0000449054809680068044AC1F38221515C2A
:1031E000C840704708380240700000200489000879
:1031F0000449054809680068044AC1F34231515C3A
:10320000C840704708380240700000200489000858
:10321000154910B51548096811F00C0213D014496E
:10322000042A0FD0082A0ED10F4C241F22682368CD
:1032300002F03F025B0207D52068C0F38810A0FBB4
:10324000010106E0084610BD2168C1F38811A1FB09
:1032500000010023FDF710F92168C1F30141491C69
:103260004900B0FBF1F010BD083802400024F40022
:1032700040787D012DE9F84F04004FF000076ED033
:103280002078DFF868A3AAF10408C007A8F10405B4
:103290004CD0DAF800105046C1F38101012908D062
:1032A0000068C0F3810002280AD1D8F8000040026B
:1032B00006D52868800339D560680028DFD035E05E
:1032C0006068B0F5803F0BD010B1B0F5A02F11D0E1
:1032D000286820F480302860286820F4802002E0EC
:1032E000286840F480302860606890B1FEF746FBA3
:1032F00006460AE0286840F480202860F0E700BF16
:10330000FEF73CFB801B642872D828688003F7D541
:103310000CE0FEF733FB064605E000BFFEF72EFB90
:10332000801B6428F0D828688003F7D420788007B1
:1033300042D5DAF80010504611F00C0F08D00068A2
:10334000C0F3810002280BD1D8F80000400207D456
:103350002868800718D5E068012800D114E041E111
:10336000E0680028286817D040F001002860FEF7C8
:1033700005FB064605E000BFFEF700FB801B0228A8
:10338000C2D828688007F7D52069296821F0F8019C
:1033900041EAC00028600FE020F001002860FEF73D
:1033A000EDFA064605E000BFFEF7E8FA801B0228AA
:1033B0001ED828688007F7D42078000729D58B48C5
:1033C00061696C3000298146016812D041F0010129
:1033D0000160FEF7D3FA064605E000BFFEF7CEFA1D
:1033E000801B022804D8D9F800008007F6D510E029
:1033F00089E021F001010160FEF7C0FA064604E011
:10340000FEF7BCFA801B02287DD8D9F8000080079F
:10341000F6D4207840076BD5DFF8D09109F1380950
:10342000D9F80000C0000BD4D9F8001041F0805149
:10343000C9F80010D9F80000012700F08050009072
:103440006B480168C90512D40168834641F4807154
:103450000160FEF793FA064605E000BFFEF78EFA1C
:10346000801B64284FD8DBF80000C005F6D55F4EFE
:10347000A068683601280AD008B1052811D0306844
:1034800020F001003060306820F0040002E0306875
:1034900040F001003060A068A0B1FEF76FFA8346EB
:1034A0000CE0306840F004003060F0E7FEF766FAA8
:1034B000A0EB0B0141F28830814266D8306880076A
:1034C000F4D50EE0FEF75AFA834607E0FEF756FA07
:1034D000A0EB0B0141F28830814256D8306880075A
:1034E000F4D42FB1D9F8001021F08051C9F80010A0
:1034F000A069C8B3DAF80010C1F3810102294BD0EA
:103500000228286800E040E020F08070286003D0A6
:10351000FEF734FA04463BE0FEF730FA064604E0D4
:10352000FEF72CFA801B02282FD828688001F7D4D8
:10353000D4E90962D4E907012E4B570894F82C20EE
:10354000084303EB074343EA8611084340EA02605D
:1035500040F00050C8F80000286840F080702860F3
:10356000FEF70CFA044606E03EE000BFFEF706FA5E
:10357000001B022809D828688001F7D534E000BF75
:10358000FEF7FCF9001B022802D90320BDE8F88FE2
:1035900028688001F4D427E00128D8F8000021D061
:1035A000E16900F480028A421CD1216A00F03F02E6
:1035B0008A4217D1626A47F6C0710140B1EB821F9F
:1035C00010D1A16A4FF0FF3200F4403302EB5101F9
:1035D000B3EB014F06D194F82C1000F07060B0EB03
:1035E000016F01D00120D1E70020CFE70838024069
:1035F000007000400000FFFF704700002DE9F0411F
:1036000004000AD0606A002550B12561C4F8145046
:1036100094F85D00A56248B10DE00120BDE8F0819D
:103620006068B0F5827FF3D0E561F1E7204684F869
:103630005C5000F05DF8022084F85D004FF4E06219
:103640002068016821F040010160E068904201D9E2
:10365000002101E04FF48051B0F5706F02D090422C
:1036600000D0A5622289A088237C02F4044C277D27
:1036700000F4827003F00206228B40EA0C00237FE4
:10368000304394F8206007F001073843278D02F497
:103690000072104303F038031843236806F08002D9
:1036A000104307F4005630431860A069042394F8CF
:1036B000242001F4805194F8346003EA1040A78973
:1036C00002F01002104306F008031843236807F4C1
:1036D00070621043084358602068C16921F4006299
:1036E000C2610121256684F85D10002096E7000084
:1036F0002DE9F04F87B0064614216846FCF765FFB8
:10370000524A0025316802274F48052491424FF064
:1037100003084FF4806A4FF040094FF4006B45D125
:10372000494914310A6842F480520A60096801F478
:1037300080510591016841F001010160016801F0CB
:1037400001010591016841F00201016000688021DA
:10375000CDE9001700F002006946CDE90258CDE935
:1037600004403B48FDF7F2FF08210295CDE9001720
:1037700038486946CDE90384FDF7E8FF364C4FF43D
:103780000053364F4FF0C06C334844F80C7B4FF475
:103790004037A4E8200C84E8A800E56044E905C9A6
:1037A00049E07465A66307B0BDE8F08F2C4A9142EA
:1037B000F9D1254910310A6842F480420A6009684B
:1037C00001F480410591016841F002010160016846
:1037D00001F002010591016841F0010101600068FA
:1037E0004FF44041CDE9001700F001006946CDE9F2
:1037F0000258CDE904401748FDF7A8FF4FF40071C7
:103800000295CDE9001712486946CDE90384FDF71A
:103810009DFF114C4FF40053124F60340E48276047
:103820004FF44037C4E901590C346030A4E8200C4F
:1038300084E8A800E560183CFDF7C6FE0028B0D07B
:10384000FDF74BF9ADE70000303802400030014091
:103850000000024000040240205901205864024048
:1038600000380040706002402DE9F84F044690F89F
:103870005C0000269846012815468A460CD0012790
:1038800084F85C70FEF77AF8814694F85D00B346E0
:10389000012804D00226ABE00220BDE8F88FBAF17F
:1038A000000F78D0002D76D0A2680321C4F838A08C
:1038B000A58784F85D10C4F860B0E587C4F840B00F
:1038C000A4F844B0A4F846B0B2F5004FC4F850B024
:1038D000C4F84CB009D12068016821F040010160B2
:1038E0002068016841F48041016020680168490650
:1038F00003D4016841F040010160E068B0F5E06F79
:10390000606828D908B1012D1FD1A06B21680088FB
:10391000C86006E020688168890709D5A16B09881D
:10392000C160A06B801CA063E08F401EE0870CE0AC
:10393000FEF724F8A0EB0901414503D3B8F1FF3F9E
:1039400003D006E0B8F1000F03D0E08F0028E1D1EA
:103950003AE003264AE008B1012D32D1E08F216818
:103960000128A06B02D90088C8600EE000780873B7
:1039700014E0E08725E020688168890714D5E18F8D
:103980000129A16B08D90988C160A06B801CA063C4
:10399000E08F801EEDE727E009780173A06B401CE3
:1039A000A063E08F401EE4E7FDF7E8FFA0EB09010C
:1039B000414503D3B8F1FF3F03D0CAE7B8F1000F88
:1039C000C7D0E08F0028D6D14A464146204601F0B4
:1039D000D9F908B120202066A06818B92068C1680C
:1039E00080680090206E08B1012601E084F85D70C7
:1039F000304684F85CB050E72DE9F041044690F879
:103A00005C000026012809D094F85D3001200025D3
:103A100084F85C00012B04D0022670E00220BDE88F
:103A2000F08199B192B1A7680323A163A28784F8BA
:103A30005D302566E28725642565E564A4F8445079
:103A4000A4F84650B7F5004F02D00BE0012656E02F
:103A500021680A6822F040020A6021680A6842F47C
:103A600080420A60616D284A0A64626D2749D16309
:103A7000626D2749D164616D0D6521684A6822F441
:103A800080424A60E168B1F5E06F10D8616D8969E4
:103A9000B1F5005F0BD1E18FC90716D021684A68E4
:103AA00042F480424A60E18F00EB5100E087E38FEF
:103AB0002268A16B606D0C32FDF7F8FD68B1206ED5
:103AC000012640F01000206619E02068416821F4CA
:103AD00080414160E08F4008E8E7206801684906BE
:103AE00003D4016841F0400101602068416841F061
:103AF000200141602068416841F002014160304688
:103B000084F85C508BE70000174D0008214D000839
:103B1000F54C0008014900200870704700000020A3
:103B2000704770477047704710B5040003D094F891
:103B30003D0010B107E0012010BD002084F83C00DA
:103B4000204600F022F8022084F83D002068211D64
:103B500001F098FC012084F8480084F83E0084F8C5
:103B60003F0084F8400084F8410084F8420084F863
:103B7000430084F8440084F8450084F8460084F843
:103B8000470084F83D00002010BD704790F83D10BC
:103B9000012901D001207047174A022180F83D1009
:103BA0000168CB6843F00103CB600068904214D0F9
:103BB000B0F1804F11D0114988420ED0104988428F
:103BC0000BD01049884208D00F49884205D00F49D0
:103BD000884202D00E49884207D181680D4A1140BF
:103BE000062906D0B1F5803F03D0016841F00101FC
:103BF0000160002070470000000001400004004008
:103C000000080040000C004000040140004001405A
:103C1000001800400700010070472DE9F0410446FC
:103C200000680027C6680569A90713D5B10711D533
:103C3000FA1E0261012121772068806980072046F1
:103C400002D0FFF7E9FF04E000F08BF8204600F017
:103C500089F82777680716D5700714D522680220DF
:103C60006FF00401116120772068806910F4407FB3
:103C7000204602D0FFF7D0FF04E000F072F82046A3
:103C800000F070F82777280715D5300713D522687C
:103C900004206FF00801116120772068C069800757
:103CA000204602D0FFF7B8FF04E000F05AF82046A3
:103CB00000F058F82777E80616D5F00614D52268E4
:103CC00008206FF01001116120772068C06910F49E
:103CD000407F204602D0FFF79FFF04E000F041F84C
:103CE000204600F03FF82777E80708D0F00706D015
:103CF00021686FF001000861204600F035F82806C1
:103D000001D4A80408D5300606D521686FF4025006
:103D100008612046FFF706FFE80508D5300606D5FE
:103D200021686FF4807008612046FFF7FAFE68068C
:103D300008D5700606D521686FF04000086120465E
:103D400000F01CF8A8060AD5B00608D521686FF067
:103D5000200008612046BDE8F041FFF7E4BEBDE861
:103D6000F08170477047000000680349884201D124
:103D7000FEF762B8704700000020004070477047AF
:103D8000704700002DE9F04102680025044640F626
:103D90000F070226D06911689368384205D183065F
:103DA0007ED58B067CD5A16E1CE1DFF868C203F0DE
:103DB000010701EA0C0C57EA0C0C71D05FEAC07CD9
:103DC0000CD05FEAC15C09D54FF0010CC2F820C0ED
:103DD000D4F8842042F00102C4F88420820709D577
:103DE000DA0707D022681662D4F8842042F0040271
:103DF000C4F8842042070AD5DA0708D023680422D1
:103E00001A62D4F8842042F00202C4F88420020727
:103E10000CD501F020023A4308D0236808221A6228
:103E2000D4F8842042F00802C4F8842002050BD59F
:103E30004A0109D523684FF400621A62D4F884203D
:103E400042F02002C4F88420D4F88420002A36D01E
:103E5000800605D5880603D5A16E09B1204688479E
:103E60002168D4F884008968490602D410F0280F2C
:103E700027D0204601F08AFC2068806840061BD5C8
:103E80002068083050E8001F21F0400140E800128F
:103E9000002AF5D1606F78B15F490165606F00E07D
:103EA00015E0FDF7AFFA002809D0606F016D00E062
:103EB0002046BDE8F04108472046FFF761FFBDE816
:103EC000F0812046FFF75CFFC4F88450F7E7276EC7
:103ED0002023012F7DD1C7067FD5CF067DD51020A9
:103EE000106220688068400643D5616F08684068AA
:103EF0000004000CE3D0B4F858208242DFD9A4F8C3
:103F00005A00C869B0F5807F2BD0216851E8000FB6
:103F100020F4807041E80002002AF6D120680830C1
:103F200050E8001F21F0010140E80012002AF5D1FD
:103F30002068083050E8001F21F0400140E80012DE
:103F4000002AF5D1C4F880302566216851E8000FB9
:103F500020F0100041E80002002AF6D1606FFDF762
:103F600008FA6666B4F85800B4F85A10401A81B2DC
:103F70002DE0B4F85800B4F85A10B4F85A20401A9A
:103F800081B2002A9BD0002999D0226852E8000F04
:103F900020F4907042E80007002FF6D1206800F16D
:103FA000080050E8002F22F0010240E80027002F0F
:103FB000F4D1C4F880302566A566226852E8000F67
:103FC00020F0100042E80003002BF6D16666204680
:103FD00000E002E0FFF7D3FE71E7020606D50A060D
:103FE00004D5E16E00297FF463AF68E74006F3D59E
:103FF0004806F1D52046026852E8001F21F0400132
:1040000042E80014002CF6D1C367C56600F0A8F999
:1040100055E70000200100048B56000810B504008D
:1040200002D0E06F10B107E0012010BD002084F83D
:104030007800204600F026F82420E0672068016818
:1040400021F001010160606A10B1204601F08CFA94
:10405000204601F0CDFB0128E7D02068416821F41B
:10406000904141602068816821F02A0181602068C8
:10407000016841F0010101602046BDE8104001F0F7
:10408000D7BA00002DE9F04FA7B00746142120A8A9
:10409000FCF79BFA80216846FCF797FA59490326FA
:1040A00038680024564D4FF0006988424FF00208EE
:1040B0004FF4806B40D14015129400906846FEF793
:1040C000A1FD08B1FCF709FD4D481030016841F42D
:1040D00000210160006800F400202590286840F06D
:1040E0000100286028680821CDE9206800F001005F
:1040F000CDE92246CDE92410434820A9FDF726FB4F
:10410000424D434B28462B609A15C5E90194C5E9F9
:10411000034B6C61C5E906422C626C62FDF754FAF0
:1041200008B1FCF7DAFC7D6700220621AF6334207A
:10413000FDF75AFF34205DE0364988425CD14FF0EC
:10414000400ACDF800A068460F94FEF75BFD08B169
:10415000FCF7C3FC2A481430016841F010010160EB
:10416000006800F010002590286840F002002860E8
:104170002868C021072200F00200CDE92018CDE90F
:104180002246CDE92420244820A9FDF7DFFA1F4E5E
:10419000C846224BD946603630469A153360C6E988
:1041A0000184C6E9034B7461C6E906423462746255
:1041B000FDF70AFA08B1FCF790FC144D7E67C03594
:1041C000B763164B2846C5E903496C617833AC6187
:1041D000EC612C626C6285E80805FDF7F5F908B121
:1041E000FCF77BFC3D6700220621AF632520FDF72D
:1041F000FBFE2520FDF7EAFE27B0BDE8F08F0000AA
:1042000030380240004C004000000240F05A0120CB
:10421000406002400010014000040240406402403F
:1042200030B4D0F88030202B02D0022030BC704750
:1042300091B18AB10023036603685B681B0208D54D
:10424000046854E8003F43F0806344E80035002DE3
:10425000F6D130BC01F0E4BB0120E7E70068124969
:1042600088421FD111490878802816D1C87B7E2842
:1042700013D10A4649780E4801230129927804D0C7
:10428000022905D0032906D007E00270437004E03C
:104290004271037101E08370C27010220349054826
:1042A000FFF7BEBF7047000000100140C45301205B
:1042B00054000020685A012070472DE9F843044655
:1042C000C06F984616460D46202802D00220BDE851
:1042D000F88395B18EB10021C4F884102120E067E5
:1042E000FDF74CFB8146A068A4F85060A4F852602A
:1042F0002027B0F5805F02D003E00120E7E72069C6
:1043000010B12E46002510E000260EE08021204648
:1043100001F0D6FBC0B9D6B116F8010B216888624E
:10432000B4F85200401EA4F85200B4F852004B46B4
:104330004FF00002CDF800800028E7D14FF0400197
:10434000204601F0BDFB40B1E7670320BFE735F829
:10435000020B2168C0F30800E1E7E7670020B6E739
:104360007047FEE701688A69D243920701D40022B0
:104370008A6200688169C943C90703D0816941F035
:1043800001018161704700002DE9F0470446006893
:104390000026894617464FF0200835468169C90630
:1043A00041D51021C1612FE0B9F1FF3F2CD0FDF7BD
:1043B000E5FAC11B494502D8B9F1000F24D12068A4
:1043C000426894F84210836902F48042DB431B0484
:1043D00015D4B2F5804F12D0202910D0416841F495
:1043E00080414160FDF7CAFA074608E0FDF7C6FACA
:1043F000C01B192803D9012645F0200504E02068D8
:104400008069C0438006F1D420688069C04380067B
:1044100002D5002EC8D003E016B92168C1F81C806F
:10442000012645F0040521688869C20505D54FF4C9
:104430008072CA6145F00105012641050AD521684F
:1044400080054FF4806245F00805CA614FF001060F
:1044500002D40AE0800507D5206801264FF40071D8
:1044600045F00205C16100E08EB12046FFF77AFFFA
:1044700020680021074F43683B404360606C28433D
:10448000606484F8418084F8421084F8401030461B
:10449000BDE8F08700E800FE2DE9F8431746044622
:1044A0001548DAB2DDE908981E4600900023204640
:1044B00000F056F842464946204600F0D3F8B8B915
:1044C000012EFDB208D02068390A81624246494671
:1044D000204600F0C7F858B92068856200224021C4
:1044E0004B462046CDF8008000F052F8002800D05E
:1044F0000120BDE8F8830000002000802DE9F8438A
:104500000446164817461E46DAB20090C3022046FB
:10451000DDE9089800F024F842464946204600F0BC
:10452000A1F8B8B9012EFDB208D02068390A81621D
:1045300042464946204600F095F858B92068856201
:10454000002280214B462046CDF8008000F020F864
:10455000002800D00120BDE8F88300000020008082
:1045600070B50068C1F3090141EA0241074D049C9E
:1045700019434FF480664268214306EA54532B43A3
:104580009A4321F000410A43426070BDFF63FF037C
:104590002DE9F0411D4617460E460446DDF8188009
:1045A00028E0424629462046FFF7EEFE10B10120E2
:1045B000BDE8F081681C1DD0FDF7E0F9A0EB080014
:1045C000A84200D8B5B92068806936EA00000FD04B
:1045D0000020B8420ED1626C002084F840002021F7
:1045E00042F02002626484F8411084F84200DEE761
:1045F0000120EEE72068806936EA000004D0002040
:10460000B842CED00020D3E70120F9E770B51646B6
:104610000D4604461FE0324629462046FFF7B4FE09
:1046200008B1012070BDFDF7A9F9801BA84200D890
:104630008DB920688069C04380060CD5626C00206B
:1046400084F84000202142F02002626484F8411086
:1046500084F84200E5E720688069C0438006DAD428
:10466000002070BD70B516460D46044621E0324666
:1046700029462046FFF788FE08B1012070BD681C5E
:1046800017D0FDF77BF9801BA84200D88DB92068B0
:104690008069C04380070CD5626C002084F840001C
:1046A000202142F02002626484F8411084F8420024
:1046B000E3E720688069C0438007D8D4002070BD3C
:1046C000F0B500230A251C463026372711E000BF2D
:1046D000B5EB107F02D906EB107C01E007EB107CF4
:1046E00001F813C001EB430C00015B1C8CF8014086
:1046F000DBB29342ECD3F0BD1CB506220446432046
:10470000694600F041F8BDF8000040BA2080BDF8CD
:10471000020040BA6080BDF8040040BAA0801CBD11
:1047200008B50020694601228DF80000752000F0D0
:104730002BF89DF80000682801D0002008BD01205A
:1047400008BD00204FF47A7210B50221491C914235
:10475000FCDB401C9042F8DB00216B2000F022F8CB
:104760000721192000F01EF806211A2000F01AF87F
:1047700000211C2000F016F818211B2000F012F870
:10478000BDE8104000F020B80EB54FF47A738DE804
:104790000E00012302460248D021FDF7ABF90EBD01
:1047A0000458012003B583B001224FF47A7304A9A1
:1047B0008DE80E00134602460248D021FDF74CFA60
:1047C00005B000BD0458012004211A2010B5FFF7E0
:1047D000E9FF0421BDE810401C20FFF7E3BF000003
:1047E0000F48002170B50D4E0C2506600122C0E96E
:1047F000015100F10C059304540585E81A00017677
:1048000042768276C27601774277FCF71EFC00285A
:1048100003D0BDE87040FCF760B970BD0064004093
:10482000DC5701201D4808B5016841F48001016092
:10483000016801F480010091016841F400110160F8
:1048400000680022052100F4001000900D20FDF703
:10485000CBFB0D20FDF7BAFB002205210F20FDF751
:10486000C3FB0F20FDF7B2FB002205213A20FDF724
:10487000BBFB3A20FDF7AAFB002205213B20FDF7F8
:10488000B3FB3B20FDF7A2FB002205214620FDF7EC
:10489000ABFBBDE808404620FDF798BB303802402E
:1048A00010B596B011491C226846FBF75CFE00214A
:1048B000684602F0A6FF0E4C1C220C491C31E06039
:1048C00007A8FBF750FE002107A802F09AFF07494E
:1048D0001C2220610EA83831FBF745FE00210EA8EE
:1048E00002F08FFF606116B010BD000098880008CC
:1048F0000C0000202DE9F04387B014216846FBF737
:1049000064FE2448016841F080010160016801F003
:1049100080010591016841F004010160016801F026
:1049200004010591016841F001010160016801F095
:1049300001010591016841F00201016000684FF436
:10494000E076DFF85480002200F002003146059046
:104950004046FDF70DF8DFF844904FF4A0670022C1
:1049600039464846FDF704F80024009601256946BB
:104970004046CDE901540394FCF7E8FE00976946F0
:10498000CDE9015448460394FCF7E0FE07B0BDE8CA
:10499000F08300003038024000080240000002406E
:1049A0001348002110B5114C0123124A0460C0E9DC
:1049B0000121C0E9033141618161C1610162FDF7FB
:1049C00039F808B1FCF789F809480021FCF7DCFF49
:1049D00008B1FCF782F806480021FDF701F800282D
:1049E00003D0BDE81040FCF778B810BD005400407B
:1049F000045801206847402070B511484FF4E06327
:104A00000E4D00214FF482746A15C0E90213016152
:104A10000723C0E90054C0E90512C16108240162FE
:104A20004162C0E90A13C0E90C14FEF7E7FD002853
:104A300003D0BDE87040FCF750B870BD00300140B5
:104A40005858012070B511484FF4E0630E4D002115
:104A50004FF482746A15C0E9021301610723C0E9AB
:104A60000054C0E90512C161082401624162C0E935
:104A70000A13C0E90C14FEF7C1FD002803D0BDE8FD
:104A80007040FCF72AB870BD00380040BC580120C7
:104A90000D48002110B50B4C0C224FF4E13304609B
:104AA000C0E90131C160C0E904128161C1610162E4
:104AB0004162FFF7B3FA002803D0BDE81040FCF7CD
:104AC0000CB810BD004C0040E05901200D480021F9
:104AD00010B50B4C0C224FF4E1330460C0E90131F6
:104AE000C160C0E904128161C16101624162FFF7E6
:104AF00095FA002803D0BDE81040FBF7EEBF10BDCB
:104B000000100140685A012010490122104810B5D8
:104B100001F044FC08B1FBF7E0FF0E490C4801F03E
:104B20005CFE08B1FBF7D9FF0B49094801F0CAF94F
:104B300008B1FBF7D2FF064801F0D4FE002803D0ED
:104B4000BDE81040FBF7C9BF10BD0000D400002035
:104B50004C990120A401002034010020FEE7FEE76B
:104B60000148FDF7FFBB0000289E01202DE9F04120
:104B7000044680790D462027236801284FF400461B
:104B800004F29C4203EB4511D3F840C0D1F8080B66
:104B900009D0DFF89CE0F4453AD1020433D500BFD8
:104BA000C1F8086B40E0234B5FEA007E04D59C45CA
:104BB0003AD90004F4D437E05FEA806E02D5C1F838
:104BC000087B31E010F0280F2ED19C4501D900045C
:104BD000E6D4D1F8101B05EBC50004EB8000C1F34F
:104BE0001201D0F87432A3EB0101C0F8681200F58D
:104BF0001570ADB903691BB1C2681144C1600FE003
:104C0000206801210AE080060AD5C1F8087B07E088
:104C100035B9D4F8640218B90021184602F0ECF94D
:104C20002046E9B2FDF78AFA0020BDE8F0810000D5
:104C30000A31544F0A30544F2DE9F84F0E4605689B
:104C4000814601EBC60100EB8104D4E9092014344C
:104C5000904202D90120BDE8F88FA168101A814264
:104C600000D20846C01C05EB461887081BE000BFB1
:104C7000A268A0EB010A524500D2924699F80610AC
:104C80000AF1030000911FFA8AF3E16887082846B9
:104C9000F2B202F0F1FCE16801EB0A00E060616948
:104CA00001EB0A006061D8F8180980B2B84205D358
:104CB000D4E90401814201D20028D9D1D4E9040108
:104CC000884208D8D5F83418012006F00F02904029
:104CD0008143C5F834180020BDE70000044900BF37
:104CE000B1F8E0218242FBD10020A1F8E001704739
:104CF000DC51012010B5806B012201684B6823F064
:104D000003034B60016E41F01001016680F85D20E5
:104D1000FEF772FC10BD10B5806BFEF701FF10BDF1
:104D200038B5846B0546FCF729FE02462868006802
:104D3000C00523D42068416821F02001416020682B
:104D4000416821F0020141606421204600F01AF818
:104D500018B1206E40F020002066A068002118B92C
:104D60002068C268806800900120E18784F85D00B7
:104D7000206E18B12046FEF73FFC38BD2046FEF7F6
:104D8000C9FE38BDF8B515460E4604460B464FF42D
:104D9000C0510092002200F035F840BB17484FF494
:104DA0007A71174A0068B0FBF2F0484300906068DF
:104DB000B0F5827F08D1002233468021204600953D
:104DC00000F08EF898B908E0009830B1401E0090CD
:104DD00020688068C0430006F6D5002233464FF4B1
:104DE000C0612046009500F00DF8002804D0206E28
:104DF00040F0200020660320F8BD00007000002075
:104E000000366E012DE9FE4F984617460E460446C1
:104E10000C9D4FF0000A8DF804A0FCF7AFFD411B7C
:104E2000A8EB0105FCF7AAFD81462C484FF4C06BA6
:104E300001682068C1EBC1010C30029001EB8100D8
:104E4000000D684342E05E4506D12FB90298007814
:104E50008DF804009DF80400B8F1FF3F37D0FCF74F
:104E60008DFDA0EB0900A84203D215B1009858B3FC
:104E70002BE02068416821F0E00141606068B0F5F6
:104E8000827F0BD1A068B0F5004F02D0B0F5806FE3
:104E900004D12068016821F040010160A06AB0F5EA
:104EA000005F09D12068016821F400510160206889
:104EB000016841F400510160012184F85D10032074
:104EC00084F85CA0BDE8FE8F0025401E009020689D
:104ED00080683040B842B6D10020F3E7700000206F
:104EE0002DE9F8431E46914688460446089DFCF786
:104EF00045FD401B351AFCF741FD07462548006873
:104F0000C0F3CB30684338E0701C37D0FCF736FD77
:104F1000C01BA84203D215B1009860B32CE02068F2
:104F2000416821F0E00141606068B0F5827F0BD1FB
:104F3000A068B0F5004F02D0B0F5806F04D12068B2
:104F4000016821F040010160A06AB0F5005F09D15D
:104F50002068016821F4005101602068016841F473
:104F600000510160012184F85D10002084F85C008C
:104F70000320BDE8F8830025401E0090206881686A
:104F800038EA010004D000214945BDD10020F0E7F6
:104F90000121F9E7700000200178407841EA002003
:104FA000704700000028044801D0002200E00122E0
:104FB0004021FCF7DDBC0000000802400028044846
:104FC00001D0012200E000228021FCF7D1BC0000CA
:104FD00000080240F8B51C4615460E4607462A2032
:104FE00002F06CFB380A8DF800008DF80170310A70
:104FF0008DF802100122042168468DF8036002F04A
:1050000069FB2B2002F05AFB280A8DF800008DF86E
:105010000150210A8DF802100122042168468DF802
:10502000034002F057FBF8BD70B50C460849054631
:10503000012008700AB13C2000E02C2002F03EFB69
:1050400021462846BDE87040002202F043BB000024
:105050000000002070B50C460546A1B22846FBF7BB
:105060004DFC0028F9D170BDFFF74EFD5A4F4FF0AF
:10507000010ADFF868814FF00009594EA7F11805C1
:105080005548FFF739FB5FF00000424637F9101032
:10509000002906DB4FF4FA6311FB03F102EB8003F6
:1050A00005E0504CC1F1010102EB80036143401C5B
:1050B000CC1701EB5441C91300EE101A0328B8EEC7
:1050C000C00A83ED000AE1DBE87800287DD0FBF719
:1050D00006FD434B0446D0F80100C82230649C46CC
:1050E000D4F805004FF4A871C3F88400D4F809007F
:1050F000D050D4F80D00CCF80C01D4F8110041F8D0
:105100000C001846D4F81510C0F8941122780AB192
:10511000012000E000202978884227D0A87810B12B
:10512000012811D022E013210120FBF745FC227851
:1051300013210620FBF740FC227813210320FBF704
:105140003BFC85F802A011E013210420FBF734FC9E
:10515000227813210520FBF72FFC2278132102204F
:10516000FBF72AFC2178297085F80290687810B145
:10517000012815D028E01421012096ED100AFBF734
:10518000F7FB1421022096ED210AFBF7F1FB142115
:10519000032096ED320AFBF7EBFB85F801A013E044
:1051A0001421042096ED430AFBF7E2FB14210520AD
:1051B00096ED540AFBF7DCFB1421062096ED650AF8
:1051C000FBF7D6FB85F8019000E001E085F803903D
:1051D000142002F00AFB53E7240000202856012087
:1051E0004456012030F8FFFF564C0227564EDFF898
:1051F0005C91574DDFF85C81207840B306284DD292
:10520000DFE800F04C030A111B2630780022092148
:10521000FBF78EFB277017E0307800220A21FBF79E
:1052200087FB03200FE0307800220B21FBF780FB87
:10523000042020700A20FCF777FA307800220C2135
:10524000FBF776FB052020700A20FCF76DFA25E0BD
:10525000414881217F23414A0170A0F16001C3735D
:105260003378837003EB031C05EB8C0050F8283C6B
:10527000C1F8633050F8203CC1F867304FF49673A2
:1052800050F81C0CC1F86B0060319068401C9060B5
:1052900033481022FFF711F80020207099F8000021
:1052A00001280BD12F48007800EB001005EB80009F
:1052B000D0ED100A90ED0F0A02F00AFD98F80000F8
:1052C00001283AD1DFF8A0A0284B9AF80000D3F8C3
:1052D00003C000EB001105EB810141F818CCD3F8B5
:1052E00007C041F814CCD3F80B3041F8103C11ED55
:1052F000060A0921FBF73CFB0A20FCF715FA9AF88D
:10530000000000EB001105EB810111ED050A1121F0
:10531000FBF72EFB6420FCF707FA9AF8000000EB7D
:10532000001105EB810111ED040A1221FBF720FBAE
:105330000A20FCF7F9F988F80070322002F055FADB
:105340005AE70000550000205400002056000020BD
:105350004456012058000020345601200C00002043
:10536000685A01205700002059000020C453012032
:10537000084A01210648116090F8E21131B100227B
:1053800080F8E2210021C0F8E41170470122F7E71C
:10539000DC51012004000020502010B572B680F3CB
:1053A0001188BFF34F8FBFF36F8F62B603F0A4F97C
:1053B00018B104494FF080500860002080F3118834
:1053C00010BD000004ED00E030B593B03021684618
:1053D000FBF7FBF814210CA8FBF7F7F8204801684D
:1053E00041F080510160006800F0805011901D482C
:1053F000016841F4404101600068022419230893C8
:1054000000F44040119001204FF4D875820501044A
:10541000CDE90642CDE909540B94CDE90001684677
:10542000FDF728FF08B172B6FEE7FDF7B5FB08B13E
:1054300072B6FEE70EAD00214FF4A0524FF4805338
:1054400085E80E000F20CDE90C0407210CA8FDF71C
:1054500001FE002801D072B6FEE713B030BD000097
:1054600040380240007000400248016841F4700179
:105470000160704788ED00E00148FEF7CEBB0000F8
:10548000105C0120F0B52A4B4FF0804E294D026888
:105490009842294E294F2A4C09D0704507D0A8427E
:1054A00005D0B04203D0B84201D0A04205D1D1F816
:1054B00004C022F070024CEA020298421BD07045F0
:1054C00019D0A84217D0B04215D0B84213D0A0428C
:1054D00011D01C4DA8420ED01B4DA8420BD01B4D25
:1054E000A84208D01A4DA84205D01A4DA84202D0B1
:1054F000194DA84203D1CD6822F440722A434D6968
:1055000022F080022A43026098428A68C2620A68D6
:10551000826201D0A04201D1096901630121416188
:105520000169C90703D0016921F001010161F0BDE2
:10553000000001400004004000080040000C004052
:105540000004014000400140004401400048014087
:1055500000180040001C0040002000400148FEF7F9
:1055600011BC0000E059012090F82410090706D56D
:105570000168436B4A6822F400421A434A6090F87B
:105580002410C90706D00168836A4A6822F40032F1
:105590001A434A6090F82410890706D50168C36A47
:1055A0004A6822F480321A434A6090F8241049076E
:1055B00006D50168036B4A6822F480221A434A60C8
:1055C00090F82410C90606D50168836B8A6822F416
:1055D00080521A438A6090F82410890606D5016823
:1055E000C36B8A6822F400521A438A6090F8241030
:1055F000490611D50168036C4A6822F480121A43E7
:105600004A60016CB1F5801F06D10168436C4A689D
:1056100022F4C0021A434A6090F82410090606D505
:105620000168826C486820F400201043486070478D
:10563000F8B500260446C0F88460FCF79FF90346DD
:10564000206820250068000716D56FF07E40009086
:1056500000222046290400F033FA68B1216851E89D
:10566000000F20F0800041E80002002AF6D1E56733
:10567000032084F87860F8BDE567C4F8805026669A
:105680006666002084F87860F8BD10B5806B002154
:10569000A0F85A10A0F85210FEF772FB10BD70B5BA
:1056A000846B00252168E06FD4F880608968090662
:1056B00006D5212804D1A4F85250204600F08CF8D9
:1056C00020688068400606D5222E04D1A4F85A50DE
:1056D000204600F05BF8D4F8840040F01000C4F8D5
:1056E00084002046FEF74CFB70BD10B5C169002256
:1056F000806BB1F5807F2DD0A0F85A20036853E865
:10570000001F21F4807143E80014002CF6D10168D9
:10571000083151E8003F23F0010341E80034002C38
:10572000F5D10168083151E8003F23F0400341E81A
:105730000034002CF5D12021C0F88010016E012921
:1057400008D1016851E8003F23F0100341E800341C
:10575000002CF6D14266016E012902D0FEF77EFDD3
:1057600010BDB0F85810FEF70AFB10BD10B5806BE5
:1057700001214166016E012902D0FEF79DFD10BD99
:10578000B0F858104908FEF7FAFA10BD016851E860
:10579000002F22F4907241E80023002BF6D101681B
:1057A000083151E8002F22F0010241E80023002BCC
:1057B000F5D1016E012908D1026852E8001F21F0DD
:1057C000100142E80013002BF6D100212022C0F87E
:1057D0008020016681667047026852E8001F21F050
:1057E000C00142E80013002BF6D12021C1677047A9
:1057F0002DE9F04104460368C2698168D4E9045088
:10580000DFF8F0C17C4E29431F68002510437B4A16
:10581000014307EA0C070F431F604FF40040216863
:10582000E7684B6823F440533B434B602768A36908
:10583000216AD7F808C019432CF430630B43BB60CE
:105840002168B1420AD1116811F0030152D0012937
:105850007CD0022971D003296ED184E0684B994233
:105860000AD1116811F00C0167D0042965D008290C
:1058700075D00C2960D176E0624B99420AD111684B
:1058800011F0300159D010296BD0202967D0302970
:1058900052D168E05C4B99420AD1116811F0C00105
:1058A0004BD040295DD0802959D0C02944D15AE03D
:1058B000564B99420DD1116811F440713DD0B1F5AC
:1058C000807F4ED0B1F5007F49D0B1F5407F33D114
:1058D00049E04F4B99420FD1116811F4406109D052
:1058E000B1F5806F3DD0B1F5006F38D0B1F5406FA4
:1058F00022D138E0012120E0464B99420DD11168B8
:1059000011F4405119D0B1F5805F2AD0B1F5005F94
:1059100025D0B1F5405F0FD125E03F4B99420BD127
:10592000116811F4404108D0B1F5804F19D081427F
:1059300015D0B1F5404F16D01021E369374A4FF624
:10594000EF7683422ED1092949D201E009E006E031
:10595000DFE801F00B0E1145134545451600022105
:10596000EBE70421E9E70821E7E7FDF731FC06E072
:10597000FDF73EFC03E0104602E0FDF749FC78B37A
:105980006168400000EB5100B0FBF1F0A0F11001A4
:10599000B14224D84FF6F0732168C0F34202184098
:1059A000104320E009291AD2DFE801F005080B199D
:1059B0000D1919191000FDF70BFC06E0FDF718FC96
:1059C00003E0104602E0FDF723FC48B1616800EBFC
:1059D0005100B0FBF1F0A0F11001B14201D9012555
:1059E00002E0216880B2C8600020A066E066284618
:1059F000BDE8F081F369FFEF0010014090380240EC
:105A00000044004000480040004C0040005000406E
:105A10000014014000780040007C00400024F400A5
:105A200070B50446406F002322256165A4F8582014
:105A3000C4F88430C4F88050D0B11E49C163616F8E
:105A40001D480864616F1D48C864606F0365134694
:105A5000656D2168606F2A462431FBF727FE38B157
:105A60001021C4F884102020C4F88000012070BDEB
:105A7000206940B1216851E8000F40F4807041E88E
:105A80000002002AF6D12068083050E8001F41F0DB
:105A9000010140E80012002AF5D12068083050E8E2
:105AA000001F41F0400140E80012002AF5D100201B
:105AB00070BD0000EB5600086D5700089F560008A7
:105AC0002DE9F047994617460D460446089E4FF0CB
:105AD000000833E0701C31D0FBF750FFA0EB090049
