:020000040800F2
:10000000A0110010A10100085B210008B71F000823
:1000100059210008270300088D3E00080000000059
:10002000000000000000000000000000792400082B
:100030004D04000800000000D72200083925000800
:10004000BB010008BB010008BB010008BB010008A0
:10005000BB010008BB010008BB010008BB01000890
:10006000BB010008BB010008BB010008BB01000880
:10007000BB010008BB010008BB010008BB01000870
:10008000BB010008BB010008BB010008BB01000860
:10009000BB010008BB010008BB010008BB01000850
:1000A000BB010008BB010008BB010008BB01000840
:1000B000BB010008BB010008BB010008BB01000830
:1000C000BB010008BB010008BB010008BB01000820
:1000D000BB010008BB010008BB010008BB01000810
:1000E000BB010008BB010008BB010008BB01000800
:1000F000BB010008DD250008BB010008BB010008AA
:10010000BB010008BB010008BB010008BB010008DF
:10011000BB010008BB010008BB010008BB010008CF
:10012000BB010008BB010008BB0100089D030008DB
:10013000BB010008BB010008BB010008BB010008AF
:10014000BB010008BB010008BB0100085D210008DD
:10015000BB010008BB010008BB010008BB0100088F
:10016000BB010008BB010008BB010008BB0100087F
:10017000BB010008BB010008BB0100080000000033
:10018000BB010008BB010008DFF810D000F08EF8BA
:1001900000480047393F0008AFF30080A01100106D
:1001A0000648804706480047FEE7FEE7FEE7FEE711
:1001B000FEE7FEE7FEE7FEE7FEE7FEE7CD250008E7
:1001C000890100082DE9F05F0546002092469B4614
:1001D00088460646814640241BE02846414647465D
:1001E000224600F053F853465A46C01A914110D3A4
:1001F00011461846224600F03AF82D1A67EB01081E
:100200004F4622460120002100F031F817EB00098B
:100210004E41201EA4F10104DFDC484631462A4647
:100220004346BDE8F09F40EA01039B0703D009E085
:1002300008C9121F08C0042AFAD203E011F8013BD2
:1002400000F8013B521EF9D27047D2B201E000F82B
:10025000012B491EFBD270470022F6E710B513466A
:100260000A4604461946FFF7F0FF204610BD202A33
:1002700004DB203A00FA02F1002070479140C2F1FD
:10028000200320FA03F3194390407047202A04DB2F
:10029000203A21FA02F00021704721FA02F3D040FF
:1002A000C2F120029140084319467047064C074DA1
:1002B00006E0E06840F0010394E807009847103436
:1002C000AC42F6D3FFF764FFA0440008D044000816
:1002D00070B58C1810F8015B15F0070301D110F808
:1002E000013B2A1106D110F8012B03E010F8016B35
:1002F00001F8016B5B1EF9D12B0705D40023521EB8
:100300000DD401F8013BFAE710F8013BCB1A921C1F
:1003100003E013F8015B01F8015B521EF9D5A1421D
:10032000D8D3002070BDFEE7002070470020704742
:1003300010B500220549064802F0C9FA03490448ED
:10034000091F02F0BBFA002010BD00007800001069
:10035000A402001070B50D460C4C0146288824F804
:10036000020C2A6863680A481844FFF75CFF60685B
:1003700029680844606000F06DF80146054802F005
:100380009DFA044802F07FFA002070BDAC510120B4
:1003900020000020A402001000207047014800F057
:1003A00069B80000FC01001001681823CAB2103AB5
:1003B000B2FBF3F2054B6FF30901032A9B5CC365A3
:1003C00000D9091D81650846704700008044000877
:1003D00010B5014600208B698A6A4FF0C07453B192
:1003E000B3F5005F15D072B1012A0CD0022A0AD0F1
:1003F000032A09D104E01AB1012A06D0022A03D146
:10040000C96AC90100D5012010BDC96AA142FAD04C
:1004100010BD002AF7D0012AF2D0022AF3D0032A15
:10042000F3D010BD30B50468256825F4802525601B
:10043000046863608368402B036803D09960006898
:10044000C26030BD9A600068C16030BD704772B64E
:10045000FEE700000648D0F8B011A0F5A83290F8E9
:10046000AC0111444AF6C50250432030084470479D
:10047000005001202DE9F84304464FF00009CDF863
:10048000009063484FF41651A56D0068B0FBF1F77A
:100490002E6894F85C10082000FA01F131420FD068
:1004A00021680A6852070BD50A6822F004020A6024
:1004B00094F85C108840A860606D40F001006065B1
:1004C00094F85C104FF0010808FA01F0304208D0AF
:1004D00021684969090604D5A860606D40F00200F2
:1004E000606594F85C1004208840304208D0216890
:1004F0000968890704D5A860606D40F00400606554
:1005000094F85C1010208840304218D021680968A7
:10051000090714D5A86020680168490304D500685C
:10052000000308D5A16C07E00168C90503D4016880
:1005300021F008010160216C09B12046884794F838
:100540005C1020208840304231D021680968C906FB
:100550002DD5A86094F8350005282068016806D0DC
:10056000490347D5006800031DD4616C1CE021F0ED
:10057000160101602068416921F080014161206C11
:1005800008B9A06C20B12068016821F00801016061
:1005900094F85C103F208840A86084F8358084F887
:1005A0003490216D1FE0E16B09B120468847606DF2
:1005B00000282BD0606DC00714D0052084F83500CA
:1005C0002068016821F0010101600098401C009042
:1005D000B84203D820680068C007F6D184F8358097
:1005E00084F83490E16C002910D001B02046BDE8B9
:1005F000F04308470168C905D5D4016821F010010E
:10060000016084F8358084F83490CCE7BDE8F88345
:100610008C0000102DE9F041044600F0ADF90646CB
:100620005CB1022084F83500002584F8345020683D
:10063000016821F0010101600DE00120BDE8F081B9
:1006400000F09AF9801B052805D920206065032059
:1006500084F83500F2E720680068C007F0D122680E
:10066000116820480140D4E901031843D4E9033656
:100670003343184363691843A3691843E369184374
:10068000236A18430843616A042903D1D4E90B1390
:1006900019430843106020684069666A20F007012A
:1006A00030460E43012704280CD1A06A0643E06AB5
:1006B00040B12046FFF78CFE20B14020606584F8F1
:1006C0003570BAE7206846612046FFF76DFE94F862
:1006D0005C203F2191408160656584F83570002081
:1006E000ACE700003F8010F02DE9F0410446866D34
:1006F00090F83400002501280DD0012084F8340042
:1007000094F835700020012F07D084F834000225BA
:100710002846BDE8F0810220FBE7022784F8357007
:1007200060652046FFF77EFE94F85C103F2088400D
:10073000B0602068016841F016010160206C20B1B2
:100740002068016841F0080101602068016841F0FB
:1007500001010160DCE7000070B5044600F00CF90F
:100760000546601C02D004480078044400F004F9F7
:10077000401BA042FAD370BD7C0000102DE9F84F59
:10078000DFF8BCA1002201250AF1040B03264FF07B
:100790000F090BF1040E00BF0B6805FA02F42340A9
:1007A000A34270D10F7907F00307012F01D0022F68
:1007B00016D187684FEA420806FA08FC27EA0C07B8
:1007C000D1F80CC00CFA08FC4CEA070CC0F808C0C1
:1007D0004768A7430C79C4F3001494403C43446039
:1007E0000C79E443A4070AD0C4684FEA420C06FA25
:1007F0000CF7BC438F6807FA0CF72743C7600C79E6
:1008000004F00304022C12D1D40800EB840CDCF8B1
:1008100020405707FF0E09FA07F824EA0804D1F828
:10082000108008FA07F848EA0408CCF82080046829
:100830004FEA420C06FA0CF7BC430F7907F00307A6
:1008400007FA0CF7274307604C6814F4403F70D058
:100850003C4C276847F480472760246822F0030750
:1008600004F480440094384C07EB040CDCF808488E
:1008700097074FEA177809FA08F7BC43334FB84295
:1008800002D1002724E054E0314FB84201D10127C2
:100890001EE0304FB84201D1022719E02E4FB84276
:1008A00001D1032714E02D4FB84201D104270FE0F6
:1008B0002B4FB84201D105270AE02A4FB84201D197
:1008C000062705E0284FB84201D1072700E0082796
:1008D00007FA08F72743CCF80878DAF800405746BB
:1008E000D1F804C09C435FEACC3C00D51C433C607B
:1008F000DBF800405F46D1F804C09C435FEA8C3CC3
:1009000000D51C433C60DEF800407746D1F804C0B7
:100910009C435FEACC2C00D51C433C60084F0C374D
:100920003C68D1F804C09C435FEA8C2C00D51C4382
:100930003C60521C102AFFF42FAFBDE8F88F000076
:10094000003C0140443802400030014000000240B9
:100950000004024000080240000C02400010024067
:100960000014024000180240001C02400AB18161DC
:1009700070470904FBE700000148806870470000E9
:100980007C00001002488168027811448160704741
:100990007C0000100B4810B5016841F40071016043
:1009A000016841F480610160016841F48071016077
:1009B000032000F089F8002000F006F800F03EF86F
:1009C000002010BD003C024010B5014688B0002256
:1009D0002D2000F059F82D2000F048F8134800248D
:1009E000016841F480710160006805A900F480701D
:1009F0000690684600F0AAFD00F0CEFD0C494000CC
:100A0000B0FBF1F10C480B4A491E026040F2E7329C
:100A1000C0E90324C0E9011401F09EF910B10120DE
:100A200008B010BD044801F0C5F9F9E740380240AC
:100A300040420F00002000405C0200100A4808B548
:100A4000016841F480410160006800F4804000903A
:100A50000548001F016841F080510160006800F006
:100A60008050009008BD000044380240002809DB97
:100A700000F01F02012191404009800000F1E020B8
:100A8000C0F8001170470000F0B40E4B1B680C4614
:100A9000C3F30223C3F10705042D00D90425191D52
:100AA000072901D2002300E0DB1E012606FA05F12A
:100AB000491E214099409E40761E16403143F0BCAD
:100AC00003F01ABA0CED00E0064900F007020868CE
:100AD0004FF6FF03184040EA0220034A1043086023
:100AE000704700000CED00E00000FA057047006858
:100AF000416200207047F0B50368586A39B19C6ABA
:100B00004FF4827600EB144400204D1E0AE040EAC8
:100B1000024098620FE006EB8007DF59401C04EBAF
:100B20001744C0B2A842F6D344EA02404FF48072A0
:100B300002EB810158500020F0BDD0F8040402F00F
:100B40004BB9C1EBC10200EB8202D0F80404926CF5
:100B500002F0B8B8C1EBC10200EB8202D0F8040485
:100B6000D2F8082202F002B9D0F8040402F036B933
:100B700070B504460B0601F00F00C0EBC00104EB9A
:100B800081014FF001024FF0000503D581F83D20AF
:100B90003C3103E081F8FD5101F5FE71087094F8D5
:100BA000BC03012808D084F8BC23206802F0D4FCE0
:100BB00084F8BC53002070BD022070BD70B504469F
:100BC00001F00F006268904201D9012070BD0B0650
:100BD00001F00F01C1EBC10104EB81014FF00102F3
:100BE0004FF0000503D581F83D203C3103E081F84A
:100BF000FD5101F5FE718D70087094F8BC03012859
:100C000008D084F8BC23206802F0A0FE84F8BC530E
:100C1000002070BD022070BD01F00F01C1EBC101C9
:100C200000EB8100D0F8140270472DE9F041044632
:100C30000F0601F00F00C0EBC00104EB81014FF083
:100C400001064FF0000503D581F83D603C3103E01B
:100C500081F8FD5101F5FE7108708A60CB704A7809
:100C600002B1C880022B00D10D7194F8BC03012899
:100C700009D084F8BC63206802F0C6FB284684F8DB
:100C8000BC53BDE8F0810220FBE770B50C4601F0D3
:100C90000F05C5EBC50100EB8101C1F81032C1F8A9
:100CA00008220023C1F8143281F8FD3181F8FC518B
:100CB000036901F5FE71012B00D10A612207027C54
:100CC000006803D002F09AFE002070BD02F086FD9D
:100CD000FAE770B504460D4601F00F0061688842DE
:100CE00001D9012070BD29064FF000064FF0010226
:100CF00007D5C0EBC00104EB810181F83D203C31F8
:100D000007E0C5EBC50104EB810181F8FD6101F548
:100D1000FE718A70087094F8BC03012807D084F82B
:100D2000BC23206802F03EFE280702D007E0022024
:100D300070BD217C04F57172206802F0DBFD84F83F
:100D4000BC63002070BD70B50C4601F00F05C5EB0B
:100D5000C50100EB81010B658A6400234B6501230B
:100D600081F83D3001F83C5F0369012B00D10A6135
:100D70002207027C006803D002F040FE002070BD14
:100D800002F02CFDFAE700002DE9FC5F056804463F
:100D9000284602F064FF00287ED1206802F08BFF15
:100DA000002879D0206802F086FF800704D52168EA
:100DB000486900F002004861206802F07CFFC1062B
:100DC00004F57170009034D52068816921F010011C
:100DD00081612F6A07F00F00C0EBC00004EB8006B2
:100DE000C7F3434006F5FE76022802D0062811D04C
:100DF0001AE047F6F070074216D0C7F30A121746FA
:100E00002846F16802F05BFFF0683844F060B06992
:100E1000384408E008222846009902F050FFB069E3
:100E2000C7F30A110844B0612068816941F01001DC
:100E30008161206802F03FFF00034FF0010A4FF08C
:100E4000080B5BD50026206802F014FF0746DFF888
:100E5000689351E0F8074DD0F1B2206802F023FF0B
:100E60008046C00707D005EB4611C1F808AB3146F4
:100E7000204601F079F95FEA087022D505EB4611AA
:100E8000C1F808BB2068016C00EB46100191D0F856
:100E9000082B494507D900E08BE1110403D54FF435
:100EA0000041C0F8081B204600F076FA019848453A
:100EB00007D92069012804D120680121009A02F095
:100EC00019FD5FEAC86004D505EB46111020C1F892
:100ED000080B5FEA886004D505EB46112020C1F8B5
:100EE000080B5FEA884005D505EB46104FF400512A
:100EF000C0F8081B7F08761C002FABD1206802F0D9
:100F0000DAFE40034FF000095CD5206802F0ABFE2A
:100F10000746002654E0F80750D0F1B2206802F0EE
:100F2000B0FE8046C00723D006F00F020AFA02F096
:100F3000D5F834288243C5F8342805EB4610C0F8AC
:100F400008A9206901280FD1C6EBC60004EB800078
:100F5000D0E911211144816436B9206D20B920688F
:100F60000121009A02F0C6FCF1B22046FFF7E9FD2C
:100F70005FEA087003D505EB4611C1F808B95FEACE
:100F8000C86004D505EB46111020C1F808095FEAD6
:100F9000486004D505EB46114020C1F808095FEA16
:100FA000887004D505EB46110220C1F808095FEAF4
:100FB000086003D53146204601F03CF97F08761CD5
:100FC000002FA8D1206802F076FE002811DAD5F8AB
:100FD000040820F00100C5F8040894F8F40301287F
:100FE00029D0204600F0BCF92068416901F0004199
:100FF0004161206802F05FFE00050BD5D5F80808B6
:10100000C00702D0204600F0EFF92068416901F4E2
:1010100000614161206802F04EFEC00468D5D5F839
:10102000040820F00100C5F804081021206802F02F
:10103000F3FD002127E084F8F49300212046FFF718
:1010400055FDD1E705EB41104FF67F32C0F8082976
:10105000D0F8003923F40013C0F80039D0F8003973
:1010600043F00063C0F80039C0F8082BD0F8002B1B
:1010700022F40012C0F8002BD0F8002B42F00062DE
:10108000C0F8002B491C60688842DBD8D5F81C08E2
:1010900040F00110C5F81C08206B60B1D5F8840839
:1010A00040F00B00C5F88408D5F8440840F00B0068
:1010B000C5F844080CE0D5F8141842F22B0001439F
:1010C000C5F81418D5F8100840F00B00C5F8100842
:1010D000D5F8000820F4FE60C5F80008217C2068DF
:1010E000009A02F007FC2068416901F480514161D7
:1010F000206802F0E0FD800415D5206802F0C4F9F4
:10110000206802F09FFDE06000F040FA0146227B7B
:10111000206802F033FE204600F00CF92068416997
:1011200001F400514161206802F0C5FD000707D5B8
:10113000204600F019F92068416901F00801416179
:10114000206802F0B8FDC00208D50021204600F05A
:1011500035F82068416901F480114161206802F08E
:10116000AAFD800208D50021204600F02BF8206857
:10117000416901F400114161206802F09CFD4000CA
:1011800007D52046FFF7D9FC2068416901F080416E
:101190004161206802F08FFD40070AD5206845684C
:1011A000680702D52046FFF7DFFC20684168294325
:1011B0004160BDE8FC9F00000A30544FD0F80404A1
:1011C00001F05CBED0F8040401F068BE2DE9F041E6
:1011D0008AB0040005D094F8BD032668002520B12C
:1011E00008E001200AB0BDE8F08184F8BC53204635
:1011F00000F05EF8032084F8BD03F06BC00500D456
:101200002561206802F0E4FA04F1100128228846E2
:101210006846FFF708F894E80F0002F043F9022649
:10122000C8BB0021206802F069FD002001270EE004
:10123000C0EBC00104EB810181F83D7001F83C0F67
:10124000C880CD708D60CD60401CC0B24D616168BA
:101250008142EDD8002011E0C0EBC00104EB810118
:1012600081F8FD5181F8FC0181F8FF51C1F8045269
:10127000C1F80852401CC0B2C1F8105261688142E6
:10128000EAD8282241466846FEF7CDFF94E80F00D1
:1012900002F0E4F910B184F8BD63A2E784F8385095
:1012A00084F8BD73206802F0CBF900209AE70000B3
:1012B00010B586B0044614216846FEF7CDFF2068BD
:1012C000B0F1A04F2FD119480021026842F001026D
:1012D0000260006800F0010005904FF4C0500090DB
:1012E0000220CDE90101032003900A200490694601
:1012F0000F48FFF743FA0D48001D016841F08001D7
:1013000001600A481430016841F4804101600068BE
:10131000002200F48040059003214320FFF7B4FB36
:101320004320FFF7A3FB06B010BD00003038024099
:101330000000024070B50446C068012570B1022863
:1013400001D0FFF784F82946D4F8040401F012FE16
:10135000D4F80404BDE8704001F0C5BD0025F2E7F3
:10136000D0F8040401F0ECBDD0F8040401F0F2BDA3
:1013700010B5044690F8BC0301280BD0012084F876
:10138000BC0384F83810206802F0E6FC002084F8E2
:10139000BC0310BD022010BDD0F8042400F571710B
:1013A000104601F0F3BD10B50446006894F8BC1374
:1013B000012906D0012184F8BC13A16A012902D0B9
:1013C00008E0022010BDA169012903D0816B41F41E
:1013D00080318163206802F005FC206802F022F968
:1013E000002084F8BC0310BD10B50446D0F80404F6
:1013F00001F00EFE2068D0F8001E41F00101C0F897
:10140000001E206A002804D00248016841F006014D
:10141000016010BD10ED00E02DE9F0470E4605001B
:1014200065D0DFF81481D8F80000F7B200F00700AB
:10143000B04207D288F80070D8F8000000F007002A
:10144000B04254D128683D4C810712D5400703D5DE
:10145000206840F4E05020602878000703D5206819
:1014600040F4604020602068A96820F0F000084344
:1014700020602878C0072DD03049686808390128D5
:1014800012D0022813D0032811D009688907002937
:101490002DDA216821F0030101432160FFF76CFA86
:1014A000814641F2883A0EE009688903EFE709684E
:1014B0008901ECE7FFF760FAA0EB0901514502D979
:1014C0000320BDE8F0872068696800F00C00B0EBED
:1014D000810FEFD1D8F80010404601F00701B1426A
:1014E00007D90770006800F00700B04201D0012062
:1014F000E7E72878400705D52068E96820F4E05040
:10150000084320602878000706D52068296920F460
:10151000604040EAC100206000F04EF82168084AAF
:10152000C1F30311515CC8400649086006480068D1
:10153000FFF74AFA0020C4E7003C024008380240A6
:10154000884400088C000010800000100F22026008
:101550000C4A136803F003034360136803F0F003BD
:101560008360136803F4E053C36012684FF4E053E0
:1015700003EAD20202610448006800F00700086034
:101580007047000008380240003C024001480068F3
:10159000704700008C000010044805490068096885
:1015A000044AC1F38221515CC84070478C0000108E
:1015B0000838024098440008154810B5006810F03B
:1015C0000C02144813D04110042A0FD0082A0ED15F
:1015D0000F4C241F2268236802F03F025B0207D5EC
:1015E0002068C0F38810A0FB010106E0084610BD8A
:1015F0002168C1F38811A1FB00010023FEF7E2FD81
:101600002168C1F30141491C4900B0FBF1F010BD54
:10161000083802400024F4002DE9F84F04006ED091
:101620002078DFF84C93C007A9F104054AD009F1EE
:1016300004000168C1F38101012908D00068C0F3EA
:10164000810002280AD1D9F80000400206D5286896
:10165000800337D560680028E1D033E06068B0F5DA
:10166000803F10D0B0F5A02F286810D020F4803033
:101670002860286820F4802028606068A8B1FFF7FF
:101680007BF906460DE0286840F48030F4E740F42A
:1016900080202860F7E700BFFFF76EF9801B642801
:1016A00073D828688003F7D50CE0FFF765F9064684
:1016B00005E000BFFFF760F9801B6428F0D82868B8
:1016C0008003F7D42078DFF8AC8280074FF0000A5F
:1016D0003ED5A748001D016811F00C0F08D0006826
:1016E000C0F3810002280BD1D9F80000400207D4D2
:1016F0002868800716D5E068012800D112E033E1A0
:10170000E068B8B10120C8F80000FFF735F90646D7
:1017100005E000BFFFF730F9801B0228C0D8286819
:101720008007F7D52868216920F0F80040EAC10059
:1017300028600DE0C8F800A0FFF71EF9064604E097
:10174000FFF71AF9801B02281FD828688007F7D4F2
:101750002078000722D5864F87486169703771B1BC
:1017600001210160FFF708F9064604E0FFF704F9DC
:10177000801B022809D838688007F7D50EE0C0F82A
:1017800000A0FFF7F9F8064605E082E0FFF7F4F85D
:10179000801B02287DD838688007F7D4207840075E
:1017A00068D5DFF8CCB100270BF13C0BDBF800006B
:1017B000C0000BD4DBF8001041F08051CBF80010D2
:1017C000DBF80000012700F0805000906B4E30687D
:1017D000C00510D4306840F480703060FFF7CCF85A
:1017E000009005E0FFF7C8F80099401A022850D889
:1017F0003068C005F6D55E4EA0686C3601280FD063
:101800000528306810D020F001003060306820F0EA
:1018100004003060A068B8B1FFF7AEF800900FE0A8
:10182000306840F00100F4E740F004003060F7E772
:10183000FFF7A2F80099411A41F28830814266D838
:1018400030688007F4D50EE0FFF796F8009007E0C7
:10185000FFF792F80099411A41F28830814256D838
:1018600030688007F4D42FB1DBF8001021F08051EC
:10187000CBF80010A069C8B33D49091D0968C1F340
:10188000810102294AD00228504607D0C8F86000DA
:1018900000E03CE0FFF770F804463BE04746C8F83C
:1018A0006000FFF769F8064605E000BFFFF764F83F
:1018B000801B02282BD828688001F7D4D4E90701BF
:1018C0000843A16A2E4A490802EB0141626A41EAD3
:1018D0008211084394F82C1040EA0161C9F8001005
:1018E00001203866FFF748F8044606E03EE000BFF6
:1018F000FFF742F8001B022809D828688001F7D5B5
:1019000034E000BFFFF738F8001B022802D903209B
:10191000BDE8F88F28688001F4D427E00128F7D0CB
:10192000D9F80000E26900F4800191421CD1226ADA
:1019300000F03F01914217D147F6C071626A014041
:10194000B1EB821F10D1A26A4FF0FF3300F4403197
:1019500003EB5202B1EB024F06D194F82C1000F0C9
:101960007060B0EB016F01D00120D1E70020CFE71C
:101970000438024000004742800E47420070004099
:101980000000FFFF704770B5040009D0606A0025B1
:1019900040B125616561A56294F8510040B10CE049
:1019A000012070BD6068B0F5827FF4D0E561F2E798
:1019B00084F85050204600F045F8022084F8510089
:1019C0002068016821F040010160A088218900F4AD
:1019D000827001F404410843A18901F400610843C5
:1019E000217C01F002010843217D01F0010108433F
:1019F000218B01F400710843217F01F03801084375
:101A000094F8201001F080010843218D01F4005169
:101A1000084321680860A069042101EA104094F895
:101A2000241001F010010843216848602068C16952
:101A300021F40061C1616565012084F85100002036
:101A400070BD00002DE9F04186B0064614216846BD
:101A5000FEF702FC25493068884244D1244800251D
:101A6000016841F4805101600068214900F4805010
:101A700014390590086840F001000860086800F01B
:101A800001000590086840F0020008600868022420
:101A900000F002000590802003274FF005088DE834
:101AA000B10169461348FEF769FE08208DE8B101CF
:101AB00069461148FEF762FE114C10482060780616
:101AC00060604020C4E902050001C4E90405A56185
:101AD000E561256220466562FEF79CFD08B1FEF7D0
:101AE000B6FCB464A66306B0BDE8F08100300140E6
:101AF00044380240000002400004024058640240A2
:101B0000FC0100102DE9F84F044690F85000002722
:101B10001D461646894601280DD04FF0010B84F86A
:101B200050B0FEF729FF804694F85100BA460128CC
:101B300004D0022793E00220BDE8F88FB9F1000F2E
:101B400073D0002E71D0032084F85100C4F854A043
:101B5000C4F83090A686E686C4F838A0A4F83CA065
:101B6000A4F83EA0C4F844A0C4F840A0A068B0F512
:101B7000004F09D12068016821F040010160206810
:101B8000016841F48041016020680168490603D47E
:101B9000016841F040010160E068B0F5006F6068E5
:101BA00003D030B3012E24D041E008B1012E1CD166
:101BB000206B21680088C86006E02068816889077A
:101BC00009D5216B0988C160206B801C2063E08EE1
:101BD000401EE08609E0FEF7CFFEA0EB0800A84219
:101BE00002D3681C01D031E07DB3E08E0028E4D13F
:101BF00020E0206B21680078087306E02068816887
:101C0000890709D5216B09780173206B401C20637B
:101C1000E08E401EE0860AE0FEF7AEFEA0EB080074
:101C2000A84203D3681C02D010E017E06DB1E08E2B
:101C30000028E3D142462946204600F095FB08B132
:101C400020206065A06818B106E0FFE7032706E0E2
:101C50002068C16880680090606D00B1012784F839
:101C600051B084F850A0384666E700002DE9F041F5
:101C700004463348002603685B1C036094F8500058
:101C8000012809D0012784F8507094F851000025EC
:101C9000012804D002264EE00220BDE8F08189B17F
:101CA00082B1032084F8510065652163A286E28633
:101CB000A56365642564A587E587A068B0F5004F36
:101CC00002D00BE0012636E02068016821F04001D7
:101CD00001602068016841F480410160A16C1948ED
:101CE0000864A16C1848C863A16C1848C864A06C4B
:101CF0000565E38E2268216B0C32A06CFEF7F4FCC4
:101D000038B1606D40F010006065012684F85170B4
:101D100011E020680168490603D4016841F04001E0
:101D200001602068416841F02001416020684168FD
:101D300041F00201416084F850503046ADE70000A8
:101D400088000010FB22000805230008D9220008A3
:101D5000704770477047704710B5040003D094F87F
:101D60003D0010B107E0012010BD002084F83C00C8
:101D7000204600F01EF8022084F83D00211D206856
:101D800000F032FC012084F8460084F83E0084F81C
:101D90003F0084F8400084F8410084F8420084F851
:101DA000430084F8440084F8450084F83D00002096
:101DB00010BD704790F83D10012901D001207047F7
:101DC000022180F83D100168CA6842F00102CA6031
:101DD00000681149884214D0B0F1804F11D00F49EA
:101DE00088420ED00E4988420BD00E49884208D056
:101DF0000D49884205D00D49884202D00C498842DD
:101E000004D1816801F00701062903D0016841F07F
:101E10000101016000207047000001400004004003
:101E200000080040000C0040000401400040014058
:101E300000180040704770B50446006801694FF013
:101E40000005C943890715D4C168C943890711D45E
:101E5000E91E016101202077206880698007204603
:101E600002D0FFF7E7FF04E000F098F8204600F00A
:101E700096F8257720680169C943490717D4C168D6
:101E8000C943490713D46FF0040101610220207790
:101E90002068806910F4407F204602D0FFF7CAFF17
:101EA00004E000F07BF8204600F079F82577206800
:101EB0000169C943090716D4C168C943090712D487
:101EC0006FF008010161042020772068C069800755
:101ED000204602D0FFF7AEFF04E000F05FF8204696
:101EE00000F05DF8257720680169C943C90617D459
:101EF000C168C943C90613D46FF0100101610820FD
:101F000020772068C06910F4407F204602D0FFF798
:101F100091FF04E000F042F8204600F040F82577F9
:101F200020680169C943C90708D1C168C943C90705
:101F300004D1891E0161204600F032F82068016951
:101F4000C943090609D4C168C943090605D46FF01D
:101F5000800101612046FFF7FDFE20680169C94349
:101F6000490609D4C168C943490605D46FF0400148
:101F70000161204600F01EF820680169C943890606
:101F80000BD4C168C943890607D46FF020010161F1
:101F90002046BDE87040FFF7DEBE70BD7047704759
:101FA00000680349884201D1FEF7ECBC704700008D
:101FB000002000407047FEE7F0B500230A243025DA
:101FC00037261F4611E000BFB4EB107F02D905EBA6
:101FD000107C01E006EB107C01F813C001EB430C10
:101FE00000015B1C8CF80170DBB29342ECD3F0BDB6
:101FF000094808B5016841F48001016000680022C9
:1020000000F48000009011463B20FEF73DFDBDE846
:1020100008403B20FEF72ABD30380240F0B587B0BB
:1020200014216846FEF718F922480024016841F09F
:1020300020010160016801F020010591016841F073
:1020400080010160016801F080010591016841F0A3
:1020500001010160016801F001010591016841F091
:10206000020101600068144E00F002004FF4C065E8
:102070000590002229463046FEF778FC0F4F0022DB
:10208000D0213846FEF772FC00950125CDE90154B8
:10209000694630460394FEF771FBD020CDE9000578
:1020A0000320CDE9024069463846FEF767FB07B0DA
:1020B000F0BD00003038024000140240000402402D
:1020C0000F4810B50D4901604FF482714160002145
:1020D0008160C1604FF400720161C0E90512C16105
:1020E0000162416281620A21C162FFF74CFC002853
:1020F00003D0BDE81040FEF7AAB910BD0030014082
:10210000A401001010B500220F49104800F0B5FDE1
:1021100008B1FEF79CF90E490C4800F0A1FF08B188
:10212000FEF795F90B49094800F0C1FB08B1FEF72D
:102130008EF9064801F00EF8002803D0BDE81040E3
:10214000FEF785B910BD000010000010A4020010B9
:102150006C01001060000010FEE7FEE70148FEF78A
:1021600013BE0000940900102DE9F04103680D46EC
:1021700004461E6C03EB4511D1F8080BD4F810E0AF
:102180004FF400474FF0200C04F57172BEF1010FBF
:1021900009D0DFF898E0764539D1020432D500BF86
:1021A000C1F8087B3FE0224B5FEA007E04D59E42E7
:1021B00039D90004F4D436E05FEA806E02D5C1F864
:1021C00008CB30E010F0280F2DD19E4201D9000439
:1021D000E6D4C5EBC50004EB8000D1F8101BD0F8A5
:1021E0000432C1F31201591AC0F81412D0F80812BF
:1021F0001944C0F8081295B9D4F8100278B9012131
:1022000020680AE080060AD5C1F808CB07E035B996
:10221000D4F8100218B90021184601F06BFBE9B29E
:102220002046FEF797FC0020BDE8F0810A31544FAC
:102230000A30544F2DE9F84F0E46C1EBC60100EBB2
:10224000810481460568D4E914103C34884202D9DF
:102250000120BDE8F88F081AA168814200D2084623
:10226000C01C870805EB46181BE000BFA0EB010A65
:10227000A068504500D282460AF10300870899F809
:10228000100000901FFA8AF3F2B22846E16801F0CC
:10229000E9FDE16801EB0A00E060A16901EB0A00D9
:1022A000A061D8F8180980B2B84205D3D4E9050175
:1022B000814201D20028D9D1D4E90501884208D849
:1022C00006F00F0101208840D5F834188143C5F885
:1022D00034180020BDE7704710B5806B01684A686C
:1022E00022F003024A60416D41F010014165012175
:1022F00080F85110FFF746FB10BD10B5806BFFF75B
:1023000028FD10BD38B50546846BFEF735FB024647
:1023100028680068C00523D42068416821F02001A6
:1023200041602068416821F002014160642120463B
:1023300000F01AF818B1606D40F020006065A068E8
:10234000002118B92068C26880680090E1860120E9
:1023500084F85100606D18B12046FFF713FB38BDBB
:102360002046FFF7F5FC38BD38B504461248134B3C
:102370000068B0FBF3F04FF47A7358430090606844
:10238000B0F5827F0DD10B460092002280212046BD
:1023900000F016F870B1606D40F020006065032019
:1023A00038BD009830B1401E009020688068C0435E
:1023B0000006F6D5002038BD8C00001000366E01F6
:1023C0002DE9F8431E46914688460446089DFEF7CF
:1023D000D3FA401B351AFEF7CFFA074625480068A6
:1023E000C0F3CB30684338E0701C37D0FEF7C4FA36
:1023F000C01BA84203D215B1009860B32CE020683E
:10240000416821F0E00141606068B0F5827F0BD146
:10241000A068B0F5004F02D0B0F5806F04D12068FD
:10242000016821F040010160A06AB0F5005F09D1A8
:102430002068016821F4005101602068016841F4BE
:1024400000510160012084F85100002084F8500000
:102450000320BDE8F8830025401E009020688168B5
:1024600038EA010004D000214945BDD10020F0E741
:102470000121F9E78C00001070470178407841EAAB
:1024800000207047044B08B1002200E001224021E7
:102490001846FEF76BBA000000040240044B08B176
:1024A000012200E0002210211846FEF75FBA00006A
:1024B00000040240F8B507461C4615460E462A2081
:1024C00001F0F4FC380A8DF800008DF80170300A34
:1024D0008DF802008DF8036000220421684601F0A7
:1024E000F3FC2B2001F0E2FC280A8DF800008DF8A7
:1024F0000150200A8DF802008DF8034000220421CB
:10250000684601F0E1FCF8BD70B50A4C0D46064680
:102510000AB13C2003E02068401C20602C2001F020
:10252000C5FC00222946304601F0CEFC6068401C04
:10253000606070BD000000107047000030B593B0BF
:1025400030216846FDF788FE14210CA8FDF784FEB3
:102550001C480025016841F080510160006800F0CE
:10256000805011901848016841F480410160006872
:10257000022400F48040119001200090000401909A
:102580008001CDE9064004200890A820CDE9090487
:1025900007200B906846FFF73FF808B172B6FEE7D8
:1025A0000CA90F2081E831004FF4A050CDE90F05B0
:1025B00005210CA8FEF730FF002801D072B6FEE717
:1025C00013B030BD4038024000700040024801683E
:1025D00041F470010160704788ED00E00148FFF7A9
:1025E0002ABC00005C020010F0B50268254C264DA4
:1025F000264E274F274B4FF0804CA04209D0604514
:1026000007D0A84205D0B04203D0B84201D09842CA
:1026100004D122F0700E4A6842EA0E02A0421BD09A
:10262000604519D0A84217D0B04215D0B84213D097
:10263000984211D0184DA8420ED0184DA8420BD088
:10264000174DA84208D0174DA84205D0164DA842F4
:1026500002D0164DA84203D122F44075CA682A431D
:102660004D6922F080022A4302608A68C2620A68C9
:102670008262A04201D0984201D10969016301211F
:102680004161F0BD0000014000040040000800402E
:10269000000C0040000401400040014000440140A3
:1026A0000048014000180040001C0040002000408D
:1026B0002DE9F0410C46D0F8C422D0F8BC12F9B193
:1026C00004EB840300EB83050026AB694BB1C4EB3C
:1026D000C40702EB8702526CB3FBF2F702FB17321E
:1026E00082B1C1F81462D0F8C00203692BB1D1F8ED
:1026F0000802224601F5047198470020BDE8F081E8
:102700000320FBE700231A462146AE6100F089FC56
:10271000F3E770B5D0F8BC4205466CB100F06AFB37
:10272000C4F80C02D5F8C012D4F80402CA6804F543
:1027300003719047002070BD032070BD70B5044642
:10274000812100F0B6FA002525870121204600F0FE
:10275000B0FAA4F878518221204600F0AAFAA4F831
:102760004C50A4F84E50D4F8BC0248B1D4F8C00282
:1027700004F52F7440688047206800F040FE256013
:10278000002070BD10B5D0F8BC4284B1D0F8C012A2
:1027900059B194F80002FF2807D08B6894F8012201
:1027A00021469847FF2084F80002002010BD032036
:1027B00010BD00000A2101800048704794000010FD
:1027C0004321018000487047E4000010432101804C
:1027D00000487047A0000010432101800048704766
:1027E000280100102DE9F04704464FF4077000F06F
:1027F00007FE05004FF0000735D0C4F8BC52207C1E
:102800004FF010084FF40079012680B340230222D4
:102810008121204600F052FB26874023022201211D
:10282000204600F04BFBA4F87861A4F84E80082302
:1028300003228221204600F041FBA4F84C60D4F82A
:10284000C00200688047C5F81472C5F81872207C71
:10285000D5F80422A8B140230121204600F03AFB1C
:102860000020BDE8F0870220C4F8BC72F9E7FFE75A
:102870004B4602228121204600F020FB26874B4652
:10288000CCE74B46E8E710B5D0F8BC1251B1027C5A
:10289000002AD1F8042207D04023012100F01AFBBE
:1028A000002010BD032010BD4FF40073F5E719B1EF
:1028B000C0F8C0120020704703207047D0F8BC0257
:1028C00018B1C0F804120020704703207047D0F8F8
:1028D000BC0228B1C0F81022C0F8081200207047CE
:1028E000032070472DE9FC410646D0F8BC72002059
:1028F0000C468DF80000ADF80400054637B120788D
:1029000010F0600128D0202944D102E00320BDE866
:10291000FC81E288C2B1000660780AD5D6F8C01200
:102920008B6839469847E288072A00D9072239463A
:1029300028E087F80002A07987F80102E28839468A
:10294000304600F051F82AE0D6F8C0126078002234
:102950008B682146984722E0607830B101281ED06C
:102960000A2809D00B2815D110E096F89C020328FC
:1029700010D1022201A905E096F89C02032809D192
:1029800001226946304600F049F808E096F89C02BA
:10299000032804D02146304600F01BF803252846C2
:1029A000B5E710B5D0F8B8220AB1526890470020B8
:1029B00010BD134610B50A46002100F08BFA002026
:1029C00010BD134610B50A46002100F02AFB002076
:1029D00010BD10B50446802100F008FB2046BDE87C
:1029E0001040002100F002BB10B50323C0F8943260
:1029F000C0F858211346C0F85C210A46002100F0B7
:102A000069FA002010BD10B50521C0F8941200230A
:102A10001A46194600F05EFA002010BD10B50223D8
:102A2000C0F8943282611346C2610A46002100F068
:102A3000F8FA002010BD10B50421C0F8941200234C
:102A40001A46194600F0EDFA002010BD10B50A46EE
:102A5000024903A000F0E1F8004810BD7405001021
:102A600043444320436F6E6669670000122008806C
:102A7000004870473000001010B50A46024903A014
:102A800000F0CBF8004810BD74050010434443200B
:102A9000496E7465726661636500000004200880F9
:102AA000004870472C00001010B50A46024903A0E8
:102AB00000F0B3F8004810BD7405001053544D6980
:102AC00063726F656C656374726F6E696373000027
:102AD00010B50A46024903A000F09FF8004810BD57
:102AE0007405001053544D33322056697274756169
:102AF0006C20436F6D506F727400000010B51A2087
:102B000008800A480168001D0468001D0068081854
:102B100009D008220649FFF74FFA0549042210316F
:102B20002046FFF749FA0248801E10BD107AFF1FA9
:102B300046000010F8B504460020ADF800004888B3
:102B40000D46010A08295FD2DFE801F05E0409178B
:102B50005E5E3C45D4F8B412207C0A6819E0207C03
:102B600002260028D4F8B80205D0C16A6846884712
:102B70000146467039E0816AF8E7C0B2062843D2C0
:102B8000DFE800F0030A1014181CD4F8B4024268FD
:102B900005E0694690471CE0D4F8B402826892B31D
:102BA000207CF6E7D4F8B402C268F8E7D4F8B4029F
:102BB0000269F4E7D4F8B4024269F0E7D4F8B40249
:102BC0008269ECE7207CF0B9D4F8B802416B684622
:102BD0008847014609E0207CA8B9D4F8B802016B07
:102BE00068468847014607204870EA888AB1BDF8E0
:102BF000000040B1824200D90246ADF800202046D4
:102C0000FFF70CFFF8BDFFE729462046FFF7E1FE7E
:102C1000F8E72046FFF70FFFF4E770B50023002820
:102C20001ED00025044602E06D1CEDB2641C26781F
:102C3000002EF9D1022404EB450414801278CA5402
:102C40005B1C0322CA5400245B1C06E0CA545B1CB4
:102C5000DAB28C54521CD3B2401C0278002AF5D14F
:102C600070BD01004FF0000004D0012901D00229FD
:102C700001D0032070470120704778B10023C0F8CD
:102C8000B832C0F8C032C0F8CC3209B1C0F8B412C2
:102C9000012180F89C12027000F0B0B80320704748
:102CA00010B5D0F8C402FDF789FFBDE81040FFF76A
:102CB000D8BF10B5D0F8C402FDF75AFFBDE81040E8
:102CC000FFF7CFBF70B51646044621B194F89C02B9
:102CD000032841D048E0D4F8941204F114000025F0
:102CE000022932D1D0E902318B4206D95A1A8260C8
:102CF00031462046FFF765FE0FE0994214D1406847
:102D0000884211D3D4F8981288420DD2002211467D
:102D10002046FFF756FEC4F8985200231A4619467B
:102D2000204600F0D7F810E094F89C02032805D163
:102D3000D4F8B802C16809B12046884780212046EE
:102D400000F054F92046FFF75EFE94F8A002012837
:102D50000AD184F8A05207E0D4F8B80242691AB147
:102D600020469047002800D1002070BD10B51346C2
:102D7000044621B194F89C02032823D02AE0D4F819
:102D8000941204F5AA70032924D1D0E902129142C9
:102D90000AD98A1A8260C068824200D30246194664
:102DA0002046FFF706FE15E094F89C02032805D1A3
:102DB000D4F8B802016909B1204688472046FFF7D8
:102DC0003AFE07E0D4F8B80282691AB1204690476B
:102DD000002800D1002010BD0020704710B501214F
:102DE00080F89C12D0F8B82212B15268017990474D
:102DF000002010BDD0F8C402FDF70EBF10B5017859
:102E000039BB15490222C1F80404C0F8C4124FF0BE
:102E1000A0400860042048600020C1E90320C1E907
:102E2000062008624862C86208630846FEF7CEF9C9
:102E300008B1FDF70CFB80210748FDF758FE402242
:102E400000210548FDF757FE802201210248FDF7C9
:102E500052FE002010BD0000940900100A0601F087
:102E60007F01D0F8C402C1EBC10100EB810002D5A3
:102E700090F83E00704790F8FE01704710B5D0F80A
:102E8000B82222B190F89C32032B02D004E0032038
:102E900010BD126A02B19047002010BD10B5D0F8E5
:102EA000B82222B190F89C32032B02D004E0032018
:102EB00010BD526A02B19047002010BD10B51C46EB
:102EC0001346D0F8C4022246FDF7AFFEBDE810401D
:102ED000FFF7C7BE10B5D0F8C402FDF7D6FEBDE8B7
:102EE0001040FFF7BEBE70B50125044680F89C5225
:102EF0000020C4F894026060C4F8A402D4F8B802B8
:102F0000E0B1D4F8BC1221B1426812B100212046D0
:102F100090470022402311462046FFF7CFFF40266E
:102F2000A4F864513346002280212046C4F8606131
:102F3000FFF7C4FFA5840020266270BD032070BD8A
:102F400090F89C12042903D190F89D1280F89C12ED
:102F50000020704710B5D0F8B81221B190F89C222B
:102F6000032A02D004E0032010BDC96901B18847DB
:102F7000002010BD01740020704710B5D0F8C402C5
:102F8000FEF7F6F9BDE81040FFF76BBE70B50446DA
:102F900000F2AA20054600F04DF80120C4F8940282
:102FA000B4F8B002C4F8980294F8AA0210F01F0115
:102FB0000AD001290ED0022912D000F0800120464B
:102FC000BDE8704000F012B829462046BDE87040C8
:102FD00000F0C2B829462046BDE8704000F0E6B9CE
:102FE00029462046BDE8704000F040B910B5D0F841
:102FF000C402FDF76EFEBDE81040FFF732BE10B50B
:10300000D0F8C402FEF7CFF9BDE81040FFF729BEA3
:1030100090F89C1280F89D12042180F89C120020E8
:10302000704710B5D0F8C402FDF78DFEBDE8104022
:10303000FFF717BE70B5054611F8010B2870087828
:1030400068704C1C2046FFF718FA6880A41C2046C4
:10305000FFF713FAA880A01CFFF70FFAE88070BDF5
:1030600038B504460020ADF8000049B1C4F8B812E4
:10307000C96A19B168468847C4F8CC02002038BD37
:10308000032038BD02460320D2F8B832002B02D00C
:103090001B681046184770472DE9F0410F462C4E2B
:1030A0008978002504463170012906D93946204621
:1030B000FFF78FFC0320BDE8F08194F89C02022802
:1030C0000CD003281DD039462046FFF782FC31780A
:1030D0002046FFF766FC03252846ECE799B3204617
:1030E0006160FFF7CFFF050004D039462046FFF7A7
:1030F00070FCF1E72046FFF79EFC032084F89C0259
:10310000EAE74FF00208C1B1606888421BD0C1B243
:103110002046FFF746FC317820466160FFF7B2FF9A
:10312000050010D039462046FFF753FC2179204690
:10313000FFF737FC84F89C82CEE784F89C82204617
:103140006160FFF72EFC2046FFF775FCC4E7000026
:1031500090000010FFF753BF2DE9F0410A780025D9
:1031600012F0600208D0202A01D0402A71D1D0F894
:10317000B8229268904731E04B78002201260A2B52
:1031800067D2DFE803F0415E6658660805662D29C0
:10319000FFF7D0FC5FE004468888D8B9C888C8B972
:1031A0004888802816D200F07F0794F89C020328F4
:1031B00010D084F89E7239462046FFF7DEFE204686
:1031C000FFF739FC1FB1022084F89C0243E084F829
:1031D0009C6240E020463CE0FFF75EFF05463AE097
:1031E000CB88012B35D190F89C32012B04D0022BD7
:1031F00002D0032B2DD104E08260012200F10801EE
:1032000016E00122011D13E090F89C22012A03D050
:10321000022A01D0032A1CD1CA88022A19D1C66009
:10322000D0F8A41209B10321C160022200F10C01FF
:10323000FFF7F4FB0FE0498801290CD1C0F8A46224
:1032400011E090F89C32012B08D0022B06D0032B02
:1032500004D0FFF7BEFB2846BDE8F081498801296C
:10326000F9D1C0F8A422FFF7E6FBF4E72DE9F0411D
:103270000D46044628780026097910F060000BD02E
:10328000202801D040286DD1D4F8B80229468268A0
:1032900020469047064686E06878A8B3012822D0E9
:1032A00003287CD194F89C02022802D0032876D10E
:1032B0000BE0002973D0802971D02046FFF796FEDD
:1032C00080212046FFF792FE6DE0688838B931B161
:1032D000802904D0E88810B92046FFF787FE2046F1
:1032E000FFF7A9FB5FE094F89C020228E1D00328D5
:1032F00055D16888A8BB480602D02046FFF7D0FC0D
:103300002046FFF798FBBFE7FFE794F89C020027F1
:10331000022802D0032842D111E009B180293ED110
:10332000080601F07F0000EB800004EB800101D56E
:10333000143101E001F5AA7102220F602BE00806AA
:1033400001F00F0000EB800004EB80000BD5808CB7
:1033500040B101F07F0000EB800004EB80051435E4
:103360000CE020E01BE0B0F86401C0B101F07F0088
:1033700000EB800004EB800505F5AA7541B18029BA
:1033800006D02046FFF76AFD10B10120286000E05A
:103390002F60022229462046FFF740FB03E0294622
:1033A0002046FFF716FB3046BDE8F08170B50646B3
:1033B000087800240D4610F0600003D0202801D0CA
:1033C000402817D196F89C02012803D0022801D08A
:1033D00003280FD1287901280CD8D6F8B8028268C2
:1033E000304690470446E888204306D13046FFF730
:1033F00022FB02E03046FFF7ECFA204670BD704732
:10340000004870477407001070B50A78012302F075
:103410000F054E78AB401B4CD0F81C58012E17D02E
:1034200045EA0343C0F81C3800EB4210D0F8002BEB
:1034300012040BD4D0F8002B0B89C978C3F30A030C
:103440001A4344EA81410A43C0F8002B002070BDB2
:103450009BB21D43C0F81C5800EB4210D0F8003955
:103460001B04F3D4D0F800390D89C978C5F30A05D7
:1034700089042B4341EA82510B432343C0F80039AE
:10348000E4E7000000800010D0F800196FF30A0193
:10349000C0F80019D0F8041841F48071C0F804187D
:1034A0000020704770B5044606990A9E049D0D9849
:1034B000012916D0E06840F04000E060204600F0AE
:1034C0002BF8A16B1EB321F48031A163012D07D12C
:1034D000A16841F00601A160A16841F02001A1604E
:1034E00070BDA16B21F48031A163E168094A1140EC
:1034F000E160E16821F44011E160012803D1E06856
:1035000040F48010E060204600F006F8DEE741F469
:103510008031DAE7BFFFBDFF08B500220D490092F8
:10352000009B5B1C00938B420CD80369002BF7DADD
:103530000092026942F001020261009A521C00925C
:103540008A4201D9032008BD0269D207F5D10020C3
:1035500008BD0000400D030030B54C780A78012307
:1035600000EB4212012C2CD0D2F8004B002C0BDACD
:10357000D2F8004B44F00064C2F8004BD2F8004B84
:1035800044F08044C2F8004BD0F83C580C7804F06A
:103590000F0403FA04F425EA0444C0F83C48D0F8C8
:1035A0001C48097801F00F018B4024EA0341C0F860
:1035B0001C18D2F8000B19490840C2F8000B002073
:1035C00030BDD2F80049002C0BDAD2F8004944F0A3
:1035D0000064C2F80049D2F8004944F08044C2F8BF
:1035E0000049D0F83C480D7805F00F0503FA05F5C1
:1035F000ADB2AC43C0F83C48D0F81C48097801F0A3
:103600000F018B4099B28C43C0F81C48D2F80009D6
:1036100003490840C2F80009D1E700000078F3EF41
:10362000007833ECD0F8001E21F00301C0F8001E32
:10363000D0F8041821F00201C0F8041800207047E7
:10364000D0F8001E21F00301C0F8001ED0F80418C5
:1036500041F00201C0F80418002070472DE9F04F36
:1036600000250E460446DDF82CC0DDF824B0109F7E
:103670002846294604EB8002C2F80411401C0F289A
:10368000F8D32046C7B1806B20F40012A263A06B70
:1036900040F40022A26308468846C4F8000ED4F81D
:1036A00000182046C4F80018BCF1010F16D0D0F85D
:1036B000001841F0030116E0D0F8040840F00202BF
:1036C000C4F80428A06B40F40012A263A06B20F49D
:1036D0000022A263A06B20F48022DBE7D0F8001860
:1036E0000BB141F00101C0F80018102100F094FA6C
:1036F00000B10125204600F07BFA00B101254046CB
:10370000C4F81088C4F81488C4F81C8800214FF04D
:1037100000694FF0904A4FF67F3314E004EB4112FA
:10372000D2F800C9BCF1000F06DA11B1C2F800A945
:1037300004E0C4F8009901E0C2F80009C2F81009D9
:10374000C2F80839491C8E42E8D8002115E000BFB4
:1037500004EB4112D2F800CBBCF1000F06DA11B134
:10376000C2F800AB04E0C4F8009B01E0C2F8000B13
:10377000C2F8100BC2F8083B491C8E42E8D8D4F8B6
:10378000101821F48072C4F81028A0616FF08040F6
:103790006061BBF1000F03D1A06940F01000A0618F
:1037A000A06909490843A0610C9818B1A06940F0CC
:1037B0000800A061012F03D1A06904490843A0615A
:1037C0002846BDE8F08F000000383C80040000402F
:1037D000816821F0010181600020704770B50D788B
:1037E0004E78434CEBB200EB4313012E1FD0D3F8BD
:1037F000100B6FF31200C3F8100BD3F8100B20401E
:10380000C3F8100B486908B188684861D3F8100BF9
:1038100040F40020C3F8100BD3F8100B8C68C4F3ED
:1038200012042043C3F8100B012A55D058E04E690A
:10383000002ED3F8106932D06FF31206C3F8106966
:10384000D3F810692640C3F810694E698C68A64207
:1038500000D94C61D3F8104944F40024C3F810494E
:10386000D3F810494E69C6F312063443C3F8104921
:10387000012A22D000EB4512D2F8003943F004436C
:10388000C2F800394A6932B3D0F83428097801F017
:103890000F03012199400A43C0F8342826E026404E
:1038A000C3F81069D3F8104944F40024C3F8104950
:1038B000D3F810496FF31204D8E7096919B100EB86
:1038C0004512C2F8141900EB4510D0F8001941F068
:1038D0000441C0F8001909E0C86808B1C3F8140B26
:1038E000D3F8000B40F00440C3F8000B002070BD7B
:1038F000FFFF07E010B5036C134CA34203D9D0F8C7
:10390000003B002B1EDB0023C0F8103BD0F8103B1F
:1039100043F40023C0F8103BD0F8103B43F01803E9
:10392000C0F8103BD0F8103B43F0C043C0F8103B48
:10393000012907D1C0F8142BD0F8001B41F08021D9
:10394000C0F8001B002010BD0A30544F4A780B7895
:10395000012A00EB43100BD0D0F8002B22F4001208
:10396000C0F8002BC978032914D0022912D017E01F
:10397000D0F8002922F40012C0F80029C9780329E0
:1039800001D002290CD1D0F8001941F08051C0F8C3
:10399000001905E0D0F8001B41F08051C0F8001B71
:1039A000002070470A784B78D1B200EB4110012B10
:1039B00012D0D0F8001B002906DB2AB1D0F8001B7A
:1039C00021F08041C0F8001BD0F8001B41F4001129
:1039D000C0F8001B00207047D0F80019002906DB52
:1039E0002AB1D0F8001921F08041C0F80019D0F8B0
:1039F000001941F40011C0F80019EBE7F8B50C7894
:103A00004F78774DE3B26FF0604600EB4313012F20
:103A100026D0D3F8104B6FF31204C3F8104BD3F831
:103A2000104B2C40C3F8104B4C69002C74D08D689F
:103A30002C44641EB4FBF5F4D3F8105BA4B206EA80
:103A4000C4463543C3F8105BD3F8105B8E686643F9
:103A5000C6F312042543C3F8105B012A71D0A6E017
:103A60004F691FB3D3F810796FF31207C3F81079B9
:103A7000D3F810792F40C3F810794F698D682F441F
:103A80007F1EB7FBF5F506EAC545D3F81069354347
:103A9000C3F81059D3F810594E69C6F312063543CE
:103AA000C3F81059CD78012D10D01BE0D3F8106960
:103AB0002E40C3F81069D3F8105945F40025C3F817
:103AC0001059D3F810596FF3120509E0D3F81059C3
:103AD00025F0C045C3F81059D3F8105945F00055EA
:103AE000C3F81059012A18D000EB4413D3F8004949
:103AF00044F00444C3F80049CC78012C2FD04A6923
:103B000062B3D0F83428097801F00F0301219940FD
:103B10000A43C0F8342860E036E00A691AB100EBC5
:103B20004413C3F81429C97801290FD1D0F8081813
:103B3000C90500EB4411D1F8002903D442F000522A
:103B400002E030E042F08052C1F8002900EB44105E
:103B5000D0F8001941F00441C0F800193DE0D0F858
:103B60000848E405D3F8004902D444F0005401E0C9
:103B700044F08054C3F8004900928A8A93B20A78CC
:103B8000C96800F06FF928E0D3F8104B8D68C5F3D1
:103B900012052C43C3F8104BD3F8104B44F4002407
:103BA000C3F8104B59E7CA680AB1C3F8142BC97897
:103BB00001290CD1D0F80808C005D3F8000B02D4B5
:103BC00040F0005001E040F08050C3F8000BD3F803
:103BD000000B40F00440C3F8000B0020F8BD0000CB
:103BE000FFFF07E0816841F001018160002070471C
:103BF00008B500210091102101610649009A521C6C
:103C000000928A4201D9032008BD0269D206F5D488
:103C1000002008BD400D030008B5002200922022BC
:103C200042EA811101610649009A521C00928A42BF
:103C300001D9032008BD02699206F5D4002008BD11
:103C4000400D0300D0F8080810F0060004D0022848
:103C500003D0062801D00F2070470220704740692A
:103C600000F001007047D0F81818D0F81C08084080
:103C700080B27047D0F81818D0F81C080840000C23
:103C8000704710B5D0F81038D0F8342801F00F0480
:103C900000EB4110E24002F00102D0F8080943EACB
:103CA000C212104010BD00EB4111D1F8081BD0F832
:103CB000140808407047416980690840704730B572
:103CC00003460846940802F00301002203F58053DE
:103CD00003E01D6840F8045B521CA242F9D300299E
:103CE0000BD01C680022D50024FA05F3491E521C93
:103CF000090400F8013B090CF5D130BD70B504464C
:103D0000C068002520F0C040E060012901D079B1F1
:103D100020E0E06840F00050E0600120FCF71CFD6E
:103D200060696D1C10F0010F10D1322DF5D30DE03C
:103D3000E06840F08040E0600120FCF70DFD606924
:103D40006D1C10F0010F01D0322DF5D3322D01D0B2
:103D5000002070BD012070BDD0F8002822F4FE6262
:103D6000C0F80028D0F800284FF4FE6303EA0111E0
:103D70000A43C0F80028002070470000022A3ED104
:103D8000264A274B0A449A4201D20F2138E0254A9D
:103D9000254B0A449A4201D20E2131E0234A244B9A
:103DA0000A449A4201D20D212AE0224A224B0A44B7
:103DB0009A4201D20C2123E0204A214B0A449A4224
:103DC00001D20B211CE01F4A1F4B0A449A4201D228
:103DD0000A2115E01D4A1E4B0A449A420FD31D4A80
:103DE0001D4B0A449A4201D2082109E01B4A1144A2
:103DF0001B4A914201D2072102E0062100E009217D
:103E0000C26822F47052C260C2684FF4705303EA71
:103E100081210A43C260002070470000405327FF01
:103E200000350C00401E1BFF40420F0000DC0BFF62
:103E3000804F1200808CF9FE20D6130060B6E5FE9C
:103E400060E3160000D3CEFE40771B00C05BB3FEDC
:103E5000C091210000CA91FE20753800E05459FE3F
:103E6000E09C410010B5029C74B9DB1C9C0800EB7F
:103E70000230002300F5805004E000BF51F8042B0D
:103E800002605B1CA342F9D3002010BDFEE70000D6
:103E900001B50120FEF702FB6423012269460248B6
:103EA000FDF730FE08BD0000A401001001B50020A0
:103EB000FEF7F4FA6423012269460248FDF722FE68
:103EC00008BD0000A401001070B5064615460C465A
:103ED0000120FEF7E3FAA2B22DB13146BDE87040F1
:103EE0000448FDF7C3BE3146BDE870400A230148CF
:103EF000FDF708BEA40100100907090E002804DB25
:103F000000F1E02080F80014704700F00F0000F18D
:103F1000E02080F8141D704702E008C8121F08C195
:103F2000002AFAD170477047002001E001C1121F3A
:103F3000002AFBD170470000FCF72CFDFEF7FEFACB
:103F4000FEF76CF8FEF754F8FEF7BAF8FEF7DAF869
:103F5000022000F03BF8EF23002219461046FEF73E
:103F6000A9FA1948174E4FF0000800F5A8344AF690
:103F7000C00700F1200930680028FCD1002500E0CE
:103F800075B9706804280BD1D4F8B001394688425D
:103F900005D100224846FEF7B7FAC4F8B0810125E2
:103FA000D4F8B0013946884208D101224846FEF7CC
:103FB000ABFA7068401E7060C4F8B0816D1C042DAF
:103FC000D9DADDE7080000100000002010B5044633
:103FD00000228021FE48FCF7C9FC0520FCF7BCFB51
:103FE0000120FEF74FFA0A20FCF7B6FB0020FEF78F
:103FF00049FA7820FCF7B0FBEF20FFF757FFEB20E2
:10400000FFF754FF1420FFF743FFFE20FFF74EFF9A
:10401000EF20FFF74BFFEB20FFF748FF1420FFF7DF
:1040200037FF8420FFF742FF4020FFF731FF852054
:10403000FFF73CFFFF20FFF72BFF8620FFF736FF3F
:10404000FF20FFF725FF8720FFF730FFFF20FFF756
:104050001FFF8820FFF72AFF0A20FFF719FF89209A
:10406000FFF724FF2120FFF713FF8A20FFF71EFF31
:104070000020FFF70DFF8B20FFF718FF8020FFF7D0
:1040800007FF8C20FFF712FF0120FFF701FF8D20B3
:10409000FFF70CFF0120FFF7FBFE8E20FFF706FF66
:1040A000FF20FFF7F5FE8F20FFF700FFFF20FFF74F
:1040B000EFFEB620FFF7FAFE0020FFF7E9FE002032
:1040C000FFF7E6FE3620FFF7F1FE34B1012C06D0F3
:1040D000022C7DD0032C05D1D0E1182000E028204F
:1040E000FFF7D6FE3A20FFF7E1FE0620FFF7D0FEED
:1040F0009020FFF7DBFE0820FFF7CAFE0820FFF73D
:10410000C7FE0820FFF7C4FE0820FFF7C1FEBD2050
:10411000FFF7CCFE0620FFF7BBFEBC20FFF7C6FE74
:104120000020FFF7B5FEFF20FFF7C0FE6020FFF77D
:10413000AFFE0120FFF7ACFE0420FFF7A9FEC3206D
:10414000FFF7B4FE1320FFF7A3FEC420FFF7AEFE77
:104150001320FFF79DFEC920FFF7A8FE2220FFF7DE
:1041600097FEBE20FFF7A2FE1120FFF791FEE1208F
:10417000FFF79CFE1020FFF78BFE0E20FFF788FE56
:10418000DF20FFF793FE2120FFF782FE0C20FFF7D0
:104190007FFE0220FFF77CFEF020FFF787FE452020
:1041A000FFF776FE0920FFF773FE0820FFF770FE89
:1041B0000820FFF76DFE2620FFF76AFE2A20FFF792
:1041C00067FEF120FFF772FE4320FFF761FE00E07B
:1041D00052E17020FFF75CFE7220FFF759FE362097
:1041E000FFF756FE3720FFF753FE6F20FFF750FE14
:1041F000F220FFF75BFE4520FFF74AFE0920FFF79C
:1042000047FE0820FFF744FE0820FFF741FE262066
:10421000FFF73EFE2A20FFF73BFEF320FFF746FEA6
:104220004320FFF735FE7020FFF732FE7220FFF7C4
:104230002FFE3620FFF72CFE3720FFF729FE6F20D8
:10424000FFF726FEED20FFF731FE1B20FFF720FED3
:104250000B20FFF71DFEAE20FFF728FE7720FFF7AB
:1042600017FECD20FFF722FE6320FFF711FE70201E
:10427000FFF71CFE0720FFF70BFE0720FFF708FEE5
:104280000420FFF705FE0E20FFF702FE0F20FFF7C8
:10429000FFFD0920FFF7FCFD0720FFF7F9FD0820CF
:1042A000FFF7F6FD0320FFF7F3FDE820FFF7FEFD23
:1042B0003420FFF7EDFD6220FFF7F8FD1820FFF72F
:1042C000E7FD0D20FFF7E4FD7120FFF7E1FDED2094
:1042D000FFF7DEFD7020FFF7DBFD7020FFF7D8FD54
:1042E0001820FFF7D5FD0F20FFF7D2FD7120FFF753
:1042F000CFFDEF20FFF7CCFD7020FFF7C9FD702048
:10430000FFF7C6FD6320FFF7D1FD1820FFF7C0FDC2
:104310001120FFF7BDFD7120FFF7BAFDF120FFF777
:10432000B7FD7020FFF7B4FD7020FFF7B1FD182036
:10433000FFF7AEFD1320FFF7ABFD7120FFF7A8FDDF
:10434000F320FFF7A5FD7020FFF7A2FD7020FFF717
:104350009FFD6420FFF7AAFD2820FFF799FD292083
:10436000FFF796FDF120FFF793FD0120FFF790FD89
:10437000F120FFF78DFD0020FFF78AFD0720FFF7F2
:1043800087FD6620FFF792FD3C20FFF781FD0020AE
:10439000FFF77EFDCD20FFF77BFD6720FFF778FD5F
:1043A0004520FFF775FD4520FFF772FD1020FFF750
:1043B0006FFD0020FFF76CFD0020FFF769FD002076
:1043C000FFF766FD6720FFF771FD002002E00000A7
:1043D00000040240FFF75CFD3C20FFF759FD002080
:1043E000FFF756FD0020FFF753FD0020FFF750FDBB
:1043F0000120FFF74DFD5420FFF74AFD1020FFF785
:1044000047FD3220FFF744FD9820FFF741FD74205F
:10441000FFF74CFD1020FFF73BFD8520FFF738FD2F
:104420008020FFF735FD0020FFF732FD0020FFF769
:104430002FFD4E20FFF72CFD0020FFF729FD9820CF
:10444000FFF734FD3E20FFF723FD0720FFF720FD97
:104450003520FFF72BFD2120FFF728FD1120FFF766
:1044600025FD7820FCF778F92920FFF71FFDBDE82E
:1044700010401420FCF770B9482031E688202FE660
:1044800000061016000610160000000000000000D4
:1044900001020304060708090000000001020304EA
:1044A000D044000800000010A4010000D002000861
:1044B000D044000800000020B4510100283F00084B
:1044C00098450008A4010010FC0F0000283F0008D8
:1044D000C13204136D2A1B089D041AA9041AD104C1
:1044E0001AFD041A4D041A79041704030904120171
:1044F0001402020216400110405726020102030175
:10450000031A1A031331031B082D041A29041A5520
:10451000041A990481193B11C2105324F4130A069A
:1045200032022A40201C09024367111CC032099E36
:104530001B01020B130524161001052401100901AB
:1045400004240202052406170107058203081C1033
:1045500009049D320A1D07050102432C0705810746
:104560000938442A40072A8107112B0907440A3BCE
:10457000044413E5271B083D0413E52842081A8567
:104580000C13B1261B081308C11ACD101AC1041A46
:08459000D9041AB50400000073
:040000050800018965
:00000001FF
