:020000040800F2
:10000000904900204503000895270008492400086E
:10001000932700089F050008F13000080000000049
:100020000000000000000000000000008102000845
:100030005D06000800000000DD020008F92A000843
:100040005F0300085F0300085F0300085F03000808
:100050005F0300085F0300085F0300085F030008F8
:100060005F0300085F0300085F0300085F030008E8
:100070005F0300085F0300085F030008A105000894
:100080005F0300085F0300085F0300085F030008C8
:100090005F0300085F0300085F0300085F030008B8
:1000A0005F0300085F0300085F0300085F030008A8
:1000B0005F0300085F0300085F0300085F03000898
:1000C0005F0300085F0300085F0300085F03000888
:1000D0005F0300085F0300085F0300085F03000878
:1000E0005F0300085F0300085F0300085F03000868
:1000F0005F030008D92B00085F0300085F030008B6
:100100005F0300085F0300085F0300085F03000847
:100110005F0300085F0300085F0300085F03000837
:100120005F0300085F0300085F030008AD050008D7
:100130005F03000800000000000000000000000055
:100140000000000000000000000000005F03000845
:100150005F0300085F0300085F0300085F030008F7
:100160005F0300085F0300085F0300085F030008E7
:100170005F0300085F0300080000000000000000AB
:100180005F0300085F0300085F0300085F030008C7
:100190005F0300085F030008000000005F03000821
:1001A0000000000000000000000000005F030008E5
:1001B0005F0300085F03000800000000000000006B
:1001C000000000000000000000000000000000002F
:1001D0000000000000000000000000005F030008B5
:1001E00000F002F800F03CF80AA090E8000C82440D
:1001F0008344AAF10107DA4501D100F031F8AFF2EA
:10020000090EBAE80F0013F0010F18BFFB1A43F0F4
:10021000010318478C860500AC860500103A24BF00
:1002200078C878C1FAD8520724BF30C830C144BF5B
:1002300004680C607047000000230024002500269D
:10024000103A28BF78C1FBD8520728BF30C148BF39
:100250000B6070471FB503F0E5FF1FBD10B510BD63
:1002600000F063F91146FFF7F5FF02F084FF00F09C
:1002700081F903B4FFF7F2FF03BC00F089F9000035
:100280002D4B19680868B0E8F04F80F30988BFF378
:100290006F8F4FF0000080F311887047000000005E
:1002A00008480068006880F308884FF0000080F379
:1002B000148862B661B6BFF34F8FBFF36F8F00DF54
:1002C00000BF00BF08ED00E0DFF80C00016841F45A
:1002D00070010160704700BF88ED00E0EFF3098016
:1002E000BFF36F8F144B1A681EF0100F08BF20ED7C
:1002F000108A20E9F04F106009B44FF0500072B638
:1003000080F31188BFF34F8FBFF36F8F62B603F096
:10031000D3FD4FF0000080F3118809BC196808680C
:10032000B0E8F04F1EF0100F08BFB0EC108A80F359
:100330000988BFF36F8F704728000020EFF3058016
:10034000704700000948804709480047FEE7FEE77C
:10035000FEE7FEE7FEE7FEE7FEE7FEE7FEE7FEE775
:1003600004480549054A064B70470000C92B0008A0
:10037000E1010008904300209049002090450020B2
:100380009045002053EA020C00F069802DE9F04B03
:100390004FF00006002B1FBFB3FA83F503FA05F4F4
:1003A00024FA05F65E4012BF1643B2FA82F502FA4D
:1003B00005F4C5F120051EBF22FA05FC44EA0C0431
:1003C000203556EA044C4FEA144418BF641C4FF021
:1003D00000084FF00009904271EB030C39D300295B
:1003E00019BFB1FA81F701FA07F6B0FA80F700FAFF
:1003F00007F6C7F120071EBF20FA07FC46EA0C06E5
:100400002037B6FBF4FCA7EB0507103F07F01F0BE6
:10041000CBF120060CFA0BFB2CFA06F644BFB346D0
:100420000026202FA4BF5E464FF0000B5BEA060CAF
:1004300008BF4FF0010B19EB0B09ABFB027C48EB3B
:100440000608C01B06FB02CC0BFB03CC71EB0C01B6
:10045000C1E70B46024641464846BDE8F08B13B55E
:100460004FF000004FF00001AFF30080BDE81C40EA
:10047000704710B5203AC0F00B80B1E81850203A10
:10048000A0E81850B1E81850A0E81850BFF4F5AF34
:100490005FEA027C24BFB1E81850A0E8185044BFBE
:1004A00018C918C0BDE810405FEA827C24BF51F82B
:1004B000043B40F8043B08BF7047D20728BF31F81F
:1004C000023B48BF11F8012B28BF20F8023B48BF70
:1004D00000F8012B70474FF0000200B51346944618
:1004E0009646203922BFA0E80C50A0E80C50B1F18C
:1004F0002001BFF4F7AF090728BFA0E80C5048BFA0
:100500000CC05DF804EB890028BF40F8042B08BF3D
:10051000704748BF20F8022B11F0804F18BF00F839
:10052000012B7047704770477047754600F02CF8F4
:10053000AE4605006946534620F00700854618B0D0
:1005400020B5FFF70DFFBDE820404FF000064FF04B
:1005500000074FF000084FF0000B21F00701AC46F8
:10056000ACE8C009ACE8C009ACE8C009ACE8C00917
:100570008D46704710B50446AFF300802046BDE8B5
:100580001040FFF776BE0000004870472C43002063
:1005900001491820ABBEFEE7260002007047FEE7C7
:1005A000014800F01DB9000080040020014800F05F
:1005B00017B900002004002001681823CAB2103ABD
:1005C000B2FBF3F2054B6FF30901032A9B5CC36591
:1005D00000D9091D81650846704700006888050834
:1005E00010B583694FF0C074826A0146002053B190
:1005F000B3F5005F15D072B1012A0CD0022A0AD0DF
:10060000032A09D104E01AB1012A06D0022A03D133
:10061000C96AC90100D5012010BDC96AA142FAD03A
:1006200010BD002AF7D0012AF2D0022AF3D0032A03
:10063000F3D010BD30B50468256825F48025256009
:10064000046863608368402B036803D09960006886
:10065000C26030BD9A600068C16030BD704772B63C
:10066000FEE770B5040003D094F8200010B104E058
:10067000012070BD204600F081F82068016841F03B
:100680000101016000F056FB0526054604E000F07C
:1006900051FB401B0A2811D820684068C007F6D0DB
:1006A0002068016821F00201016000F043FB05466B
:1006B0000BE000F03FFB401B0A2806D9606A40F4BB
:1006C0000030606284F82060D2E7206840688007CC
:1006D000EFD4207E0128206801683DD021F0800100
:1006E0000160607E01282068016838D021F0400157
:1006F0000160A07E01282068016833D021F020012C
:100700000160E07E0128206801682ED041F01001D0
:100710000160207F01282068016829D021F00801AC
:100720000160607F01282068016824D021F0040165
:100730000160D4E90110D4E903326569491E184308
:1007400023682A43104300220843D86101216262D2
:1007500084F82010104670BD41F08001C0E741F0E0
:100760004001C5E741F02001CAE721F01001CFE7C1
:1007700041F00801D4E741F00401D9E710B586B093
:10078000044614216846FFF7A6FE124920688842F5
:100790001ED11148016841F000710160006800F04D
:1007A000007005900C481038016841F001010160AB
:1007B00000680221002200F00100059003230924B3
:1007C0004FF4C0508DE81F000448694600F09AF9C4
:1007D00006B010BD006400404038024000000240F6
:1007E0002DE9F84304464FF00009644B0820CDF88A
:1007F00000904FF41652A56D94F85C101B682E689B
:10080000B3FBF2F700FA01F131420FD021680A6818
:1008100052070BD50A6822F004020A6094F85C10B3
:100820008840A860606D40F00100606594F85C103D
:100830004FF0010808FA01F0304208D021684969F8
:10084000090604D5A860606D40F00200606594F868
:100850005C1004208840304208D02168096889076C
:1008600004D5A860606D40F00400606594F85C10E9
:1008700010208840304218D021680968090714D533
:10088000A86020680168490304D50068000308D502
:10089000A16C07E00168C90503D4016821F00801D3
:1008A0000160216C09B12046884794F85C10202033
:1008B0008840304231D021680968C9062DD5A8602A
:1008C00094F8350005282068016806D0490347D50B
:1008D000006800031DD4616C1CE021F0160101606A
:1008E0002068416921F080014161206C08B9A06C49
:1008F00020B12068016821F00801016094F85C30A3
:100900003F229A40AA6084F8358084F83490216DA3
:100910001FE0E16B09B120468847606D00282BD0AD
:10092000606DC00714D0052084F835002068016888
:1009300021F0010101600098401C0090B84203D8EA
:1009400020680068C007F6D184F8358084F83490B8
:10095000E16C002910D001B02046BDE8F043084703
:100960000168C905D5D4036823F01003036084F837
:10097000358084F83490CCE7BDE8F883240000206B
:100980002DE9F047044600F0D5F906465CB1002594
:10099000022084F8350084F834502068016821F082
:1009A000010101600DE00120BDE8F08700F0C2F90F
:1009B000801B052805D920216165032084F83500B6
:1009C000F2E720680068C007F0D1D4E90010D4E94C
:1009D0000232D4E9046C1843D4F8188004F11C03E3
:1009E0008946324309681043C8CB1D4A40EA0C00CF
:1009F00040EA0800114040EA030040EA0600042FE4
:100A000040EA010003D1D4E90B1211430843C9F8AD
:100A100000002068666A4069042E20F0070046EA5C
:100A200000060CD1D4E90A01064341B12046FFF784
:100A3000D7FD20B14020606584F83550B3E72068C9
:100A400046612046FFF7B8FD94F85C303F21012253
:100A500099408160656584F835200020A4E7000096
:100A60003F8010E02DE9F041044690F83400002565
:100A70000128A66D0ED094F835C00127002084F817
:100A80003470BCF1010F07D0022584F834002846E9
:100A9000BDE8F0810220FBE7022784F8357060652D
:100AA0002046FFF7C7FD94F85C103F208840B060F7
:100AB0002068016841F0160101602068416941F039
:100AC00080014161206C20B12068016841F008017B
:100AD00001602068016841F001010160D7E7000072
:100AE00070B5044600F026F90546601C02D00448A3
:100AF0000078044400F01EF9401BA042FAD370BDF8
:100B0000180000202DE9F84FDFF8F0B1012403258B
:100B10004FF00F0A00220BF1040E00BF0B6804FA1D
:100B200002F63340B34278D10F7907F00307012F63
:100B300001D0022F1AD187684FEA4209D1F80CC0C0
:100B400005FA09F827EA08070CFA09FC4CEA070C31
:100B5000C0F808C0476891F804C0B743CCF3001C44
:100B60000CFA02FC4CEA070CC0F804C00E79F643FC
:100B7000B6070BD0C6684FEA420C8F6805FA0CF82E
:100B800026EA080607FA0CF73743C7600E7906F025
:100B90000306022E12D1D6084FEA427800EB8606F1
:100BA00000960F69D6F820904FEAD8660AFA06FC3C
:100BB000B74029EA0C063743009E37620F79066872
:100BC0004FEA420C07F0030705FA0CF807FA0CF796
:100BD00026EA0806374307604E6816F4403F1CD0EB
:100BE000474E376847F480473760366822F003087D
:100BF000970706F480460096424E3F0F4644B146A2
:100C0000D6F80868DFF800810AFA07FC404526EAB2
:100C10000C0603D14FF0000C33E068E0DFF8ECC0C5
:100C2000604502D14FF0010C2BE0DFF8E4C06045D5
:100C300002D14FF0020C24E0DFF8D8C0604502D1A9
:100C40004FF0030C1DE0DFF8D0C0604502D14FF03B
:100C5000040C16E0DFF8C4C0604502D14FF0050C6B
:100C60000FE0DFF8BCC0604502D14FF0060C08E091
:100C7000DFF8B0C0604502D14FF0070C01E04FF043
:100C8000080C0CFA07FC4CEA060CC9F808C84F68B7
:100C9000DBF80060FF0226EA030600D51E43774614
:100CA000CBF80060D1F804C0DEF800605FEA8C2C5D
:100CB00026EA030600D51E43DFF840C03E60ACF1D3
:100CC000040C4F68DCF80060BF0326EA030600D579
:100CD0001E430A4FCCF80060083FD1F804C03E68BC
:100CE0005FEACC3C26EA030600D51E433E60521C58
:100CF000102AFFF413AFBDE8F88F0000083C014054
:100D0000443802400030014000000240000402402C
:100D100000080240000C0240001002400014024093
:100D200000180240001C02400AB1816170470904AA
:100D3000FBE70000014880687047000018000020B1
:100D400030B590F84120202A24D190F84020012A83
:100D500020D0012380F84030242280F84120202335
:100D600000240268156825F0010515600268156801
:100D700025F480551560026815680D4315600168FB
:100D80000A6842F001020A6080F8413080F8404071
:100D9000002030BD022030BD30B590F84120202A1F
:100DA00022D190F84020012A1ED0012380F8403043
:100DB000242280F84120202400250268136823F0B3
:100DC000010313600268136823F4706343EA01218E
:100DD000116001680A6842F001020A6080F841402F
:100DE00080F84050002030BD022030BD70B50400B6
:100DF00004D094F84100002510B106E0012070BD38
:100E0000204684F8405000F051F8242084F8410036
:100E10002068016821F001010160D4E9001020F090
:100E2000706008612068816821F400418160E06899
:100E300021680128A06830D040F404408860E06850
:100E40000228206841682BD021F4006141602068AD
:100E50002021154A4368134343602068C26822F486
:100E60000042C26054F8106B0DCC104340EA0320DE
:100E7000F06054F81C3CD4E900021043186054F8A8
:100E80001C0D026842F001020260656484F84110A2
:100E9000256384F84250002070BD40F40040CDE747
:100EA00041F40061D2E700000080000210B5A6B056
:100EB0000446142120A8FFF70EFB80216846FFF7A7
:100EC0000AFB1949206888422BD1001400900024A5
:100ED0006846179400F06EF908B1FFF7C0FB13489D
:100EE000016841F00201016000680DF1800C1221DF
:100EF00000F0020025904FF4407004238CE81300AA
:100F000003220B48CDE9232320A9FFF7FBFD074867
:100F10001030016841F400110160006800F4001015
:100F2000259026B010BD000000540040303802402B
:100F300000040240024881680278114481607047D1
:100F400018000020032010B500F0ECF80F2000F08E
:100F500005F800F09DF8002010BD000030B50546F2
:100F60001F4887B0016841F480710160006806A9DC
:100F700000F48070009001A800F0DCFB0498B0B190
:100F800000F0F8FB4000174A0021174BB0FBF2F2CB
:100F9000164840F2E7340360C0E90341521EC0E93D
:100FA0000121816101F085F8040003D015E000F013
:100FB000E1FBE8E70D4801F0AFF804000DD12D206A
:100FC00000F082F8102D07D2002229462D2000F0D3
:100FD00089F80748056000E0012407B0204630BDCD
:100FE0004038024040420F0000200040F005002041
:100FF0001C000020154BF0B5083B427813491A60DD
:101000000B680A1F23F001030B6043681360057B24
:10101000C67A827A437B2D07847B45EA0665C77BC7
:1010200090F809C0067A90F800E045EAC24040EA2C
:10103000834040EA444040EA074040EA0C2040EA4E
:10104000460040EA0E000860F0BD0000A0ED00E0A0
:10105000BFF35F8F044800210368034A23F4803301
:10106000036070321160704724ED00E0074A40F0E1
:101070000100064970321060086840F48030086052
:10108000BFF34F8FBFF36F8F7047000024ED00E078
:101090000C4882B0016841F080510160006800F0A6
:1010A000805000900748001D016841F480410160B4
:1010B000006800220F2100F480400090901E02B0D2
:1010C00000F010B840380240002809DB410900F068
:1010D0001F028900012001F1E0219040C1F80001C8
:1010E000704700000E4BF0B41B680D46C3F302239B
:1010F000C3F10706042E00D90426191D072901D2C1
:10110000002300E0DB1E012404FA06F19C40491E86
:101110002940641E994014402143F0BC02F01AB8E3
:101120000CED00E0064900F0070210B54FF6FF0491
:101130000868044B204040EA02201843086010BDB4
:101140000CED00E00000FA051848F8B5016841F020
:10115000805101600068164C00F0805000902068BB
:1011600040F480302060FFF7E5FD4FF47A760546C5
:1011700005E000BFFFF7DEFD401BB0420FD86068FE
:10118000C003F7D5206840F400302060FFF7D2FD9F
:10119000054606E0FFF7CEFD401BB04201D9032013
:1011A000F8BD60688003F5D50020F8BD40380240E6
:1011B000007000402DE9F84F04460078DFF81894DD
:1011C0004FF000073E46C0070ED0D9F8001021F4BA
:1011D0000001C9F80010D9F80010E26A1143C9F8FB
:1011E0000010E06A00B90127FB4D20688435000338
:1011F0000ED5616B286820F4401008432860606BAE
:10120000B0F5801F01D010B102E0012700E00126F7
:1012100020684FF4800BC0020CD5A16B286820F425
:10122000400008432860A06B584501D1012701E028
:1012300000B901262078800667D5E7483830016874
:1012400041F0805101600068DFF890A300F0805009
:101250000090DAF8001041F48071CAF80010FFF72E
:1012600069FD804606E000BFFFF764FDA0EB0800C3
:1012700064287DD8DAF80000C005F5D5DFF858837A
:1012800008F16808D8F8000010F440702AD0218DC9
:1012900001F44071814225D0D8F80010D8F8002020
:1012A00021F4407142F48032C8F80020D8F80020C0
:1012B00022F48032C8F80020C8F80010D8F80000E6
:1012C000C0070FD0FFF736FD824607E0FFF732FD7B
:1012D000A0EB0A0141F288308142CAD8D8F8000058
:1012E0008007F3D5A06AC0F3012103297ED0D9F885
:1012F000001021F4F811C9F80010228DD8F8001060
:10130000C2F30B021143C8F800102078C00607D5BD
:10131000286820F0807028602868216B08432860C6
:101320002188AD488830490405D5E26D016821F473
:101330004031114301602188090405D5226E0168FE
:1013400021F44021114301602168C90305D5626E73
:10135000016821F44011114301602178490605D547
:10136000E26B016821F0030111430160217800E084
:1013700009E1090605D5226C016821F00C01114331
:1013800001602188C90505D5626C016821F0300132
:10139000114301602188890505D5A26C016821F0FF
:1013A000C001114301602188490505D5E26C01683F
:1013B00021F44071114301602188090505D5226D92
:1013C000016821F44061114301602188C90405D5F9
:1013D000626D016821F44051114301602188890444
:1013E00007D5A26D016821F4404100E03DE01143C2
:1013F000016021684FF0006A890209D5626F0168B7
:1014000021F0006111430160616F514500D1012657
:101410002168490305D5E26E016821F0407111434E
:1014200001602168090205D5A26F016821F0805191
:10143000114301602168490105D5E26F016821F07F
:10144000005111430160DFF89891012F02D020680C
:1014500080016ED5D9F800004F4620F08060C9F8B1
:101460000000FFF767FC804610E05E4AD9F80030C4
:10147000104023F4F8120243C9F800203DE700BFF2
:10148000FFF758FCA0EB080064287CD838680001FE
:10149000F6D4217850487C30C9070DD0E16A59B99B
:1014A000227A6168D0F800C08B01CCF3036143EA73
:1014B000016141EA0271016021680A0303D5626B90
:1014C000B2F5801F04D0C90214D5A16B594511D1C2
:1014D000237B626801689201C1F3027142EA0362F0
:1014E00042EA017101602968E26921F01F01521E80
:1014F000114329602168890108D56168227B237A1C
:10150000890141EA026141EA037101603968B84624
:1015100041F080613960FFF70DFC074605E000BF30
:10152000FFF708FCC01B642863D8D8F8000000014E
:10153000F6D54EB3D9F800004E4620F08050C9F8D9
:101540000000FFF7F7FB074605E000BFFFF7F2FBDF
:10155000C01B64284DD83068C0438000F6D51E48B3
:10156000216880300A0301D5626B1AB1C90219D50E
:10157000A16BB9B923690168227D9B01C1F30141C7
:1015800043EA014101E034E03AE041EA02610160EE
:1015900029686FF0FF03226A21F4F85103EB02225D
:1015A00011432960216889020DD5616F51450AD127
:1015B000228B21690368890141EA0242C3F3036176
:1015C00042EA01610160306840F080503060FFF70E
:1015D000B1FB044610E000000838024000700040F3
:1015E00000380240FFFCFF0FFFF7A4FB001B64283C
:1015F00002D90320BDE8F88F3068C0438000F3D4DF
:101600000020F7E72DE9F04705000F4663D0444E70
:10161000306800F00F00B84209D2306820F00F00A7
:1016200038433060306800F00F00B84253D128686A
:101630003C4C810712D5400703D5206840F4E050A8
:1016400020602878000703D5206840F460402060BF
:10165000A968206820F0F000084320602878C007BF
:101660002AD0304968680839012810D00968022852
:1016700010D0890700292EDA216821F003010143E7
:101680002160FFF757FB804641F288390DE0096879
:101690008903EFE78901EDE7FFF74CFBA0EB0801B9
:1016A000494502D90320BDE8F0876868216801F048
:1016B0000C01B1EB800FEFD1306800F00F00B842A1
:1016C0000BD9306820F00F0038433060306800F0EC
:1016D0000F00B84201D00120E5E72878400705D582
:1016E000E968206820F4E05008432060287800076B
:1016F00006D52869216821F4604141EAC0002060D4
:1017000000F058F82168084AC1F30311515CC84041
:101710000649086006480068FFF720FC0020C2E781
:10172000003C024008380240708805082400002070
:101730001C0000200D4A0F2330B503604FF4E05425
:101740000B4B156805F003054560156805F0F005BD
:101750008560156805F4E055C560126804EAD20298
:101760000261186800F00F00086030BD08380240C0
:10177000003C02400449054809680068044AC1F376
:101780008221515CC8407047083802402400002084
:10179000808805080449054809680068044AC1F3BF
:1017A0004231515CC8407047083802402400002094
:1017B00080880508154910B51548096811F00C0214
:1017C00013D01449042A0FD0082A0ED10F4C241F1D
:1017D0002268236802F03F025B0207D52068C0F34D
:1017E0008810A0FB010106E0084610BD2168C1F386
:1017F0008811A1FB00010023FEF7C4FD2168C1F39D
:101800000141491C4900B0FBF1F010BD083802400D
:101810000024F40040787D012DE9F84F04004FF0DA
:1018200000076ED02078DFF868A3AAF10408C0078B
:10183000A8F104054CD0DAF800105046C1F381013C
:10184000012908D00068C0F3810002280AD1D8F825
:101850000000400206D52868800339D5606800285A
:10186000DFD035E06068B0F5803F0BD010B1B0F547
:10187000A02F11D0286820F480302860286820F438
:10188000802002E0286840F480302860606890B1D1
:10189000FFF750FA06460AE0286840F480202860E6
:1018A000F0E700BFFFF746FA801B642872D828686B
:1018B0008003F7D50CE0FFF73DFA064605E000BFD0
:1018C000FFF738FA801B6428F0D828688003F7D423
:1018D0002078800742D5DAF80010504611F00C0F3E
:1018E00008D00068C0F3810002280BD1D8F80000AE
:1018F000400207D42868800718D5E068012800D185
:1019000014E041E1E0680028286817D040F00100A9
:101910002860FFF70FFA064605E000BFFFF70AFA56
:10192000801B0228C2D828688007F7D5206929685B
:1019300021F0F80141EAC00028600FE020F001002A
:101940002860FFF7F7F9064605E000BFFFF7F2F958
:10195000801B02281ED828688007F7D4207800074B
:1019600029D58B4861696C3000298146016812D005
:1019700041F001010160FFF7DDF9064605E000BF17
:10198000FFF7D8F9801B022804D8D9F80000800797
:10199000F6D510E089E021F001010160FFF7CAF9F6
:1019A000064604E0FFF7C6F9801B02287DD8D9F867
:1019B00000008007F6D4207840076BD5DFF8D0917F
:1019C00009F13809D9F80000C0000BD4D9F800108B
:1019D00041F08051C9F80010D9F80000012700F04B
:1019E000805000906B480168C90512D40168834695
:1019F00041F480710160FFF79DF9064605E000BFE4
:101A0000FFF798F9801B64284FD8DBF80000C00569
:101A1000F6D55F4EA068683601280AD008B10528BF
:101A200011D0306820F001003060306820F00400F0
:101A300002E0306840F001003060A068A0B1FFF71C
:101A400079F983460CE0306840F004003060F0E73C
:101A5000FFF770F9A0EB0B0141F28830814266D8A4
:101A600030688007F4D50EE0FFF764F9834607E09D
:101A7000FFF760F9A0EB0B0141F28830814256D8A4
:101A800030688007F4D42FB1D9F8001021F08051CC
:101A9000C9F80010A069C8B3DAF80010C1F38101D9
:101AA00002294BD00228286800E040E020F0807036
:101AB000286003D0FFF73EF904463BE0FFF73AF910
:101AC000064604E0FFF736F9801B02282FD8286865
:101AD0008001F7D4D4E90962D4E907012E4B5708F5
:101AE00094F82C20084303EB074343EA861108438C
:101AF00040EA026040F00050C8F80000286840F05A
:101B000080702860FFF716F9044606E03EE000BF4B
:101B1000FFF710F9001B022809D828688001F7D5C3
:101B200034E000BFFFF706F9001B022802D90320AA
:101B3000BDE8F88F28688001F4D427E00128D8F8A0
:101B4000000021D0E16900F480028A421CD1216AA0
:101B500000F03F028A4217D1626A47F6C071014025
:101B6000B1EB821F10D1A16A4FF0FF3200F4403375
:101B700002EB5101B3EB014F06D194F82C1000F0A9
:101B80007060B0EB016F01D00120D1E70020CFE7FA
:101B900008380240007000400000FFFF704700005E
:101BA0002DE9F04104000AD0606A002550B125619A
:101BB000C4F8145094F85D00A56248B10DE001200E
:101BC000BDE8F0816068B0F5827FF3D0E561F1E7B0
:101BD000204684F85C5000F05DF8022084F85D0037
:101BE0004FF4E0622068016821F040010160E06884
:101BF000904201D9002101E04FF48051B0F5706F9F
:101C000002D0904200D0A5622289A088237C02F4F1
:101C1000044C277D00F4827003F00206228B40EA18
:101C20000C00237F304394F8206007F0010738430D
:101C3000278D02F40072104303F038031843236821
:101C400006F08002104307F4005630431860A06984
:101C5000042394F8242001F4805194F8346003EABA
:101C60001040A78902F01002104306F00803184341
:101C7000236807F470621043084358602068C16904
:101C800021F40062C2610121256684F85D10002004
:101C900096E700002DE9F04F87B00546142168460D
:101CA000FEF719FC4F4A0024296803264B480527F4
:101CB000DFF82CB191424FF4806A4FF002084FF0E8
:101CC000400943D1454914310A6842F480520A6000
:101CD000096801F480510591016841F0010101603A
:101CE000016801F001010591016841F00201016004
:101CF0000068C021CDE9001800F002006946CDE976
:101D00000246CDE904705846FEF7FCFE082136482D
:101D100002AACDE90018694682E8D000FEF7F2FE7B
:101D2000324E4FF0C063324A30469715C6E90294EE
:101D3000C6E904A4C6E9064734627462C6E9002312
:101D400044E06E65B56307B0BDE8F08F294A914263
:101D5000F9D1224910310A6842F480420A600968C8
:101D600001F480410591016841F0020101600168C0
:101D700001F002010591016841F001010160006874
:101D80004FF40041CDE9001800F001006946CDE9AB
:101D90000246CDE904701448FEF7B4FE4FF400711A
:101DA000584602AACDE90018694682E8D000FEF73D
:101DB000A9FE0E4E104A6036304686E81402C6E987
:101DC000034A7461B461F46134627462FEF7D8FD51
:101DD0000028B6D0FEF743FCB3E7000030380240DD
:101DE00000000240003001400004024020040020B6
:101DF0005864024000380040706002402DE9F84FFE
:101E0000044690F85C0000269846012815468A464C
:101E10000CD0012784F85C70FEF78CFF814694F8A3
:101E20005D00B346012804D00226ABE00220BDE8E5
:101E3000F88FBAF1000F78D0002D76D0A268032178
:101E4000C4F838A0A58784F85D10C4F860B0E587B1
:101E5000C4F840B0A4F844B0A4F846B0B2F5004FBE
:101E6000C4F850B0C4F84CB009D12068016821F022
:101E7000400101602068016841F4804101602068F0
:101E80000168490603D4016841F040010160E0683F
:101E9000B0F5E06F606828D908B1012D1FD1A06BA3
:101EA00021680088C86006E020688168890709D534
:101EB000A16B0988C160A06B801CA063E08F401EED
:101EC000E0870CE0FEF736FFA0EB0901414503D3A4
:101ED000B8F1FF3F03D006E0B8F1000F03D0E08F68
:101EE0000028E1D13AE003264AE008B1012D32D1C1
:101EF000E08F21680128A06B02D90088C8600EE03D
:101F00000078087314E0E08725E02068816889077D
:101F100014D5E18F0129A16B08D90988C160A06B94
:101F2000801CA063E08F801EEDE727E00978017335
:101F3000A06B401CA063E08F401EE4E7FEF7FAFEB2
:101F4000A0EB0901414503D3B8F1FF3F03D0CAE735
:101F5000B8F1000FC7D0E08F0028D6D14A464146DD
:101F6000204600F061FC08B120202066A06818B966
:101F70002068C16880680090206E08B1012601E0E9
:101F800084F85D70304684F85CB050E72DE9F0418C
:101F9000044690F85C000026012809D094F85D30D2
:101FA0000120002584F85C00012B04D0022670E09B
:101FB0000220BDE8F08199B192B1A7680323A16323
:101FC000A28784F85D302566E28725642565E5648F
:101FD000A4F84450A4F84650B7F5004F02D00BE0E7
:101FE000012656E021680A6822F040020A60216852
:101FF0000A6842F480420A60616D284A0A64626D90
:102000002749D163626D2749D164616D0D652168EF
:102010004A6822F480424A60E168B1F5E06F10D866
:10202000616D8969B1F5005F0BD1E18FC90716D0E9
:1020300021684A6842F480424A60E18F00EB510017
:10204000E087E38F2268A16B606D0C32FEF70AFD1A
:1020500068B1206E012640F01000206619E020686B
:10206000416821F480414160E08F4008E8E7206842
:102070000168490603D4016841F04001016020680D
:10208000416841F0200141602068416841F002014F
:102090004160304684F85C508BE70000B9270008A7
:1020A000C32700089727000870477047704770479C
:1020B000704710B5040003D094F83D0010B107E05C
:1020C000012010BD002084F83C00204600F022F8DA
:1020D000022084F83D002068211D00F083FD0120CE
:1020E00084F8480084F83E0084F83F0084F84000FB
:1020F00084F8410084F8420084F8430084F84400E6
:1021000084F8450084F8460084F8470084F83D00D0
:10211000002010BD7047000090F83D10012901D04B
:1021200001207047174A022180F83D100168CB68F2
:1021300043F00103CB600068904214D0B0F1804FAF
:1021400011D0114988420ED0104988420BD0104955
:10215000884208D00F49884205D00F49884202D0F2
:102160000E49884207D181680D4A1140062906D0E0
:10217000B1F5803F03D0016841F00101016000200A
:1021800070470000000001400004004000080040CB
:10219000000C0040000401400040014000180040D5
:1021A0000700010070472DE9F04104460068002750
:1021B000C6680569A90713D5B10711D5FA1E0261D2
:1021C00001212177206880698007204602D0FFF72F
:1021D000E9FF04E000F08BF8204600F089F827774B
:1021E000680716D5700714D5226802206FF0040125
:1021F000116120772068806910F4407F204602D06A
:10220000FFF7D0FF04E000F072F8204600F070F80D
:102210002777280715D5300713D5226804206FF0DB
:102220000801116120772068C0698007204602D02C
:10223000FFF7B8FF04E000F05AF8204600F058F825
:102240002777E80616D5F00614D5226808206FF027
:102250001001116120772068C06910F4407F20468A
:1022600002D0FFF79FFF04E000F041F8204600F0A5
:102270003FF82777E80708D0F00706D021686FF00D
:1022800001000861204600F035F8280601D4A804B2
:1022900008D5300606D521686FF402500861204643
:1022A000FFF705FFE80508D5300606D521686FF46D
:1022B000807008612046FFF7F9FE680608D57006B1
:1022C00006D521686FF040000861204600F01CF838
:1022D000A8060AD5B00608D521686FF0200008616D
:1022E0002046BDE8F041FFF7E3BEBDE8F08170474E
:1022F0007047000000680349884201D1FEF71ABE0A
:102300007047000000200040704710B5040002D064
:10231000E06F10B107E0012010BD002084F87800C4
:10232000204600F025F82420E0672068016821F0AD
:1023300001010160606A10B1204600F0BFFC204638
:1023400000F074FD0128E7D02068416821F4904135
:1023500041602068816821F02A018160206801685D
:1023600041F0010101602046BDE8104000F00ABDC7
:10237000F0B5A7B00546142120A8FEF7ACF88021DF
:102380006846FEF7A8F82C49032628680227294C3E
:102390000025884223D14015129500906846FEF72B
:1023A00009FF08B1FEF75BF922481030016841F4DB
:1023B00000210160006800F400202590206840F0B2
:1023C00001002060206820A9229500F001002590DE
:1023D0000820CDE92067CDE92360184826E0184998
:1023E000884225D140200F9500906846FEF7E2FE16
:1023F00008B1FEF734F90F481430016841F01001BC
:102400000160006800F010002590206840F0020094
:10241000206020680721229500F002002590C0204E
:10242000CDE92361CDE92007064820A9FEF76AFB24
:1024300027B0F0BD30380240004C004000000240A0
:102440000010014000040240FEE700000E48002199
:1024500010B50C4C4FF4702205230460C0E9013123
:10246000C0E903124161017641768176C176017738
:102470004177FEF7F6F8002803D0BDE81040FEF7DC
:10248000EEB810BD00640040DC020020114808B521
:10249000016841F480010160016801F4800100914C
:1024A000016841F40011016000680022052100F478
:1024B000001000900F20FEF715FE0F20FEF704FE1F
:1024C000002205213B20FEF70DFEBDE808403B2021
:1024D000FEF7FABD3038024010B58EB00B491C2211
:1024E0006846FDF7C6FF0021684600F0A1FE084CD3
:1024F0001C2206491C31A06007A8FDF7BAFF002185
:1025000007A800F095FEE0600EB010BD3088050809
:10251000080000202DE9F04F87B014216846FDF730
:10252000DAFF3D48016841F080010160016801F077
:1025300080010591016841F004010160016801F02A
:1025400004010591016841F001010160016801F099
:1025500001010591016841F00201016000684FF43A
:102560008048DFF8B8A0002200F002004146059044
:102570005046FEF7D9FBDFF8A8B00022C02158462C
:10258000FEF7D2FB4FF4A069264800224946FEF729
:10259000CBFB022569460D2002AACDE900050024E7
:1025A000584603260A2782E8D000FEF7ABFA282017
:1025B000694602AACDE900051A4882E8D000FEF774
:1025C000A1FA02AA43F62340CDE900056946504628
:1025D00082E8D000FEF796FA0125CDF80080CDE91B
:1025E0000154694650460394FEF78CFAC0200090CF
:1025F000CDE90154694658460394FEF783FACDF8B5
:1026000000906946CDE9015406480394FEF77AFA32
:1026100007B0BDE8F08F00003038024000040240EF
:1026200000080240000002401348002110B5114C80
:102630000123124A0460C0E90121C0E9033141616C
:102640008161C1610162FEF7D1FB08B1FEF707F8B5
:1026500009480021FEF774FB08B1FEF700F80648B0
:102660000021FEF799FB002803D0BDE81040FDF7DC
:10267000F6BF10BD0054004004030020684740200E
:1026800070B511484FF4E0630E4D00214FF4827491
:102690006A15C0E9021301610723C0E90054C0E9CB
:1026A0000512C161082401624162C0E90A13C0E950
:1026B0000C14FFF775FA002803D0BDE87040FDF751
:1026C000CEBF70BD003001405803002070B51148E6
:1026D0004FF4E0630E4D00214FF482746A15C0E997
:1026E000021301610723C0E90054C0E90512C1616A
:1026F000082401624162C0E90A13C0E90C14FFF723
:102700004FFA002803D0BDE87040FDF7A8BF70BDA8
:1027100000380040BC0300200D48002110B50B4CD0
:102720000C224FF4E1330460C0E90131C160C0E91B
:1027300004128161C16101624162FFF7E6FD002878
:1027400003D0BDE81040FDF78ABF10BD004C00402B
:10275000E00400200D48002110B50B4C0C224FF472
:10276000E1330460C0E90131C160C0E90412816154
:10277000C16101624162FFF7C8FD002803D0BDE8D6
:102780001040FDF76CBF10BD00100140680500202F
:102790007047FEE7FEE710B5806B012201684B68C9
:1027A00023F003034B60016E41F01001016680F8D5
:1027B0005D20FFF7F3F910BD10B5806BFFF775FCD6
:1027C00010BD38B5846B0546FEF7B4FA024628689A
:1027D0000068C00523D42068416821F020014160D1
:1027E0002068416821F0020141606421204600F028
:1027F0001BF818B1206E40F020002066A068002170
:1028000018B92068C268806800900120E18784F8C8
:102810005D00206E18B12046FFF7C0F938BD204694
:10282000FFF742FC38BD0000F8B515460E460446D9
:102830000B464FF4C0510092002200F035F840BB27
:1028400017484FF47A71174A0068B0FBF2F048431A
:1028500000906068B0F5827F08D100223346802165
:102860002046009500F08EF898B908E0009830B145
:10287000401E009020688068C0430006F6D5002204
:1028800033464FF4C0612046009500F00DF8002853
:1028900004D0206E40F0200020660320F8BD000028
:1028A0002400002000366E012DE9FE4F98461746A1
:1028B0000E4604460C9D4FF0000A8DF804A0FEF76A
:1028C00039FA411BA8EB0105FEF734FA81462C4882
:1028D0004FF4C06B01682068C1EBC1010C3002905D
:1028E00001EB8100000D684342E05E4506D12FB93F
:1028F000029800788DF804009DF80400B8F1FF3FBD
:1029000037D0FEF717FAA0EB0900A84203D215B1A1
:10291000009858B32BE02068416821F0E001416045
:102920006068B0F5827F0BD1A068B0F5004F02D08F
:10293000B0F5806F04D12068016821F0400101608A
:10294000A06AB0F5005F09D12068016821F4005148
:1029500001602068016841F400510160012184F8A0
:102960005D10032084F85CA0BDE8FE8F0025401EAA
:102970000090206880683040B842B6D10020F3E76C
:10298000240000202DE9F8431E469146884604465F
:10299000089DFEF7CFF9401B351AFEF7CBF9074625
:1029A00025480068C0F3CB30684338E0701C37D04E
:1029B000FEF7C0F9C01BA84203D215B1009860B35E
:1029C0002CE02068416821F0E00141606068B0F5CA
:1029D000827F0BD1A068B0F5004F02D0B0F5806FB8
:1029E00004D12068016821F040010160A06AB0F5BF
:1029F000005F09D12068016821F40051016020685E
:102A0000016841F400510160012184F85D1000204B
:102A100084F85C000320BDE8F8830025401E009088
:102A20002068816838EA010004D000214945BDD101
:102A30000020F0E70121F9E72400002000280448E5
:102A400001D0002200E001224021FEF76DB9000014
:102A5000000802400028044801D0012200E00022C2
:102A60008021FEF761B9000000080240F8B51C465D
:102A700015460E4607462A2000F048FB380A8DF816
:102A800000008DF80170310A8DF802100122042136
:102A900068468DF8036000F045FB2B2000F036FB04
:102AA000280A8DF800008DF80150210A8DF80210D7
:102AB0000122042168468DF8034000F033FBF8BD85
:102AC00070B50A4C0D4606460AB13C2003E020686A
:102AD000401C20602C2000F019FB002229463046C3
:102AE00000F020FB6068401C606070BD00000020AA
:102AF000012000F091FBFBE7502010B572B680F387
:102B00001188BFF34F8FBFF36F8F62B601F0C0FA29
:102B100018B104494FF080500860002080F31188FC
:102B200010BD000004ED00E030B593B030216846E0
:102B3000FDF7D1FC14210CA8FDF7CDFC204801685D
:102B400041F080510160006800F0805011901D48F4
:102B5000016841F440410160006802241923089390
:102B600000F44040119001204FF4D8758205010413
:102B7000CDE90642CDE909540B94CDE90001684640
:102B8000FEF74AFE08B172B6FEE7FEF7DDFA08B1BD
:102B900072B6FEE70EAD00214FF4A0524FF4805301
:102BA00085E80E000F20CDE90C0407210CA8FEF7E4
:102BB00029FD002801D072B6FEE713B030BD000039
:102BC00040380240007000400248016841F4700142
:102BD0000160704788ED00E00148FFF7E4BA0000AB
:102BE000F0050020F0B52A4B4FF0804E294D0268C9
:102BF0009842294E294F2A4C09D0704507D0A84247
:102C000005D0B04203D0B84201D0A04205D1D1F8DE
:102C100004C022F070024CEA020298421BD07045B8
:102C200019D0A84217D0B04215D0B84213D0A04254
:102C300011D01C4DA8420ED01B4DA8420BD01B4DED
:102C4000A84208D01A4DA84205D01A4DA84202D079
:102C5000194DA84203D1CD6822F440722A434D6930
:102C600022F080022A43026098428A68C2620A689F
:102C7000826201D0A04201D1096901630121416151
:102C80000169C90703D0016921F001010161F0BDAB
:102C9000000001400004004000080040000C00401B
:102CA0000004014000400140004401400048014050
:102CB00000180040001C00400020004090F8241044
:102CC000090706D50168436B4A6822F400421A439B
:102CD0004A6090F82410C90706D00168836A4A68E0
:102CE00022F400321A434A6090F82410890706D56E
:102CF0000168C36A4A6822F480321A434A6090F835
:102D00002410490706D50168036B4A6822F4802223
:102D10001A434A6090F82410C90606D50168836BEF
:102D20008A6822F480521A438A6090F82410890637
:102D300006D50168C36B8A6822F400521A438A6080
:102D400090F82410490611D50168036C4A6822F4F2
:102D500080121A434A60016CB1F5801F06D10168E8
:102D6000436C4A6822F4C0021A434A6090F8241067
:102D7000090606D50168826C486820F400201043DB
:102D800048607047F8B500260446C0F88460FDF737
:102D9000D1FF0346206820250068000716D56FF094
:102DA0007E40009000222046290400F057F968B1C7
:102DB000216851E8000F20F0800041E80002002A5D
:102DC000F6D1E567032084F87860F8BDE567C4F8BC
:102DD000805026666666002084F87860F8BD016839
:102DE00051E8002F22F4907241E80023002BF6D125
:102DF0000168083151E8002F22F0010241E8002368
:102E0000002BF5D1016E012908D1026852E8001F9C
:102E100021F0100142E80013002BF6D100212022FE
:102E2000C0F8802001668166704700002DE9F041FE
:102E300004460368C2698168D4E90450DFF8F0C130
:102E40007C4E29431F68002510437B4A014307EA53
:102E50000C070F431F604FF400402168E7684B6880
:102E600023F440533B434B602768A369216AD7F89A
:102E700008C019432CF430630B43BB602168B14296
:102E80000AD1116811F0030152D001297CD0022926
:102E900071D003296ED184E0684B99420AD1116840
:102EA00011F00C0167D0042965D0082975D00C29D0
:102EB00060D176E0624B99420AD1116811F030017D
:102EC00059D010296BD0202967D0302952D168E021
:102ED0005C4B99420AD1116811F0C0014BD04029D6
:102EE0005DD0802959D0C02944D15AE0564B99422F
:102EF0000DD1116811F440713DD0B1F5807F4ED0F5
:102F0000B1F5007F49D0B1F5407F33D149E04F4B57
:102F100099420FD1116811F4406109D0B1F5806F69
:102F20003DD0B1F5006F38D0B1F5406F22D138E017
:102F3000012120E0464B99420DD1116811F4405116
:102F400019D0B1F5805F2AD0B1F5005F25D0B1F579
:102F5000405F0FD125E03F4B99420BD1116811F42E
:102F6000404108D0B1F5804F19D0814215D0B1F55C
:102F7000404F16D01021E369374A4FF6EF7683426F
:102F80002ED1092949D201E009E006E0DFE801F08D
:102F90000B0E11451345454516000221EBE70421B0
:102FA000E9E70821E7E7FEF7E5FB06E0FEF7F2FBBD
:102FB00003E0104602E0FEF7FDFB78B361684000D5
:102FC00000EB5100B0FBF1F0A0F11001B14224D8A8
:102FD0004FF6F0732168C0F342021840104320E01E
:102FE00009291AD2DFE801F005080B190D19191982
:102FF0001000FEF7BFFB06E0FEF7CCFB03E0104637
:1030000002E0FEF7D7FB48B1616800EB5100B0FB6E
:10301000F1F0A0F11001B14201D9012502E02168CF
:1030200080B2C8600020A066E0662846BDE8F08156
:10303000F369FFEF00100140903802400044004067
:1030400000480040004C0040005000400014014087
:1030500000780040007C00400024F4002DE9F04797
:10306000994617460D460446089E4FF0000833E087
:10307000701C31D0FDF75EFEA0EB0900B04218D8FD
:10308000BEB120680168490726D5802D24D0402D87
:1030900022D0C169C94309070DD40825056220461D
:1030A000FFF79DFEC4F88450012084F87880BDE8C5
:1030B000F0870320FBE7C069C04300050CD42168FA
:1030C0004FF4006008622046FFF789FE2021C4F813
:1030D000841084F87880ECE72068C06935EA000045
:1030E00004D00020B842C3D00020E0E70120F9E777
:1030F000FEE7000001B50120FFF7ACFC0248012209
:103100006946FEF743FF08BDBC03002001B500205F
:10311000FFF7A0FC024801226946FEF737FF08BD11
:10312000BC03002070B515460C4606460120FFF78B
:1031300091FCA2B22DB131460548BDE87040FEF7C2
:1031400025BF31460248BDE870401423FEF756BE45
:10315000BC030020090700284FEA116104DB00F1DD
:10316000E02080F80014704700F00F0000F1E0202C
:1031700080F8141D70471FB5002400940194029438
:103180000394FDF765FF01208DF80C001F218DF8D9
:10319000081087228DF809208DF80D008DF80000A9
:1031A00068468DF80A408DF80E408DF80140019474
:1031B0008DF80B408DF80F40FDF71CFF0420FDF744
:1031C00055FFFDF7BFFEFFF7AFFCFFF7A3F9FFF7D1
:1031D0005DF9FFF73BF9FFF727FAFFF79DFAFFF7D5
:1031E000B9FAFFF7D5FAFFF74BFAFFF76FFA0220AB
:1031F00000F084FAEF23002219461046FFF736FC50
:10320000FFF76AF900F00FF8FEE7842801464FF057
:10321000000000D0C81C704710B500B9012000F0B4
:10322000E3FD002010BD10B500F006FE002010BD2B
:103230007FB50D4641690446B0F9080081B1A16926
:1032400071B1FFF7E2FFD4E905122B468DE80700C4
:103250002269D4E9001000F0ECFE039004B070BDC8
:10326000FFF7D3FF03A92B46CDE90001228AD4E959
:10327000001092B200F0B0FE012801D00020EDE76E
:103280000398EBE72DE9F041184C0F4605466669B7
:103290002068001D00F0D8FC38B922680121A0691F
:1032A00092F82C2091408843A061681C07D137B167
:1032B0002168BDE8F0410E48091D00F00BBD2068F3
:1032C0003544B5424560216805D2A068091DBDE8B6
:1032D000F04100F0E7BC6068091D00F0E3FC206BE2
:1032E000854200D22563BDE8F0810000280000205F
:1032F000180700202DE9F041054600F0F7FC2E4CA0
:103300002E4F2069401C2061206810B1E06940B355
:103310002DE025602069012829D1002606EB8600D2
:1033200007EB800000F0B0FC761C072EF6D3234894
:103330008C3000F0A9FC2148A03000F0A5FC1F480B
:10334000B43000F0A1FC1D48C83000F09DFC1B48C3
:10335000DC3000F099FC19488C3060601430A060BB
:1033600005E0E86A2168C96A814200D82560012029
:10337000E16A491CE162E96AA26988401043A061E0
:1033800001EB8100291D07EB800000F0A3FC00F099
:10339000D1FCE06900280CD02068E96AC06A884244
:1033A00007D207494FF080500860BFF34F8FBFF33B
:1033B0006F8FBDE8F0810000280000203C0600204F
:1033C00004ED00E010B5044690F8510068B1012802
:1033D0000ED0022811D0502072B680F31188BFF3AE
:1033E0004F8FBFF36F8F62B6FEE7206B00F0B8FC23
:1033F0002046BDE8104000F0B3BC10BD11484FF4AA
:10340000705110B5420706D00E49C01D20F00700CC
:10341000411AC1F570510C4C002301440839A4F144
:10342000100221F00701C4E900030C1A11604B607F
:103430000B60C0E9001494604FF000415460D1600B
:1034400010BD00002C07002074000020144E4FF027
:103450008058144CDFF85090A6F1C80712E000BF66
:1034600000F044FCF068C568281D00F0EDFB206901
:10347000401E2061E068401EE06000F05BFC2846D2
:10348000FFF7A0FFE0680028EAD138680128F9D9E1
:10349000C9F80080BFF34F8FBFF36F8FF2E70000D2
:1034A000040700202800002004ED00E02DE9F0478B
:1034B0009A4681466FF00303DDE9098403EB82023B
:1034C000089E206B104420F00707780709D0502091
:1034D00072B680F31188BFF34F8FBFF36F8F62B660
:1034E000FEE74FF0000561B1002023180A5C83F865
:1034F00034200A5C12B1401C1028F6D384F84350E3
:1035000001E084F83450072E00D30626E662201D21
:10351000C4E9116500F0C3FB04F1180000F0BFFB23
:10352000E564C6F10700A06184F85050524624615A
:1035300049463846646200F0C9F8B8F1000F2060CF
:1035400001D0C8F80040BDE8F087000030B511494F
:1035500000E011460A688242FBD34B685C18844243
:1035600003D14468084623444B6043681D189542C4
:1035700009D1084C103C2468A24209D052681A4470
:1035800042600A6812680260814200D0086030BD63
:103590000460F9E77400002006484168096829B111
:1035A0004168C968C9684968016370474FF0FF31D5
:1035B000FAE70000280000200A484068401C4FF04D
:1035C000500072B680F3118805D0BFF34F8FBFF360
:1035D0006F8F62B6FEE7BFF34F8FBFF36F8F62B698
:1035E000FEE700007C0000202DE9F04100270446A2
:1035F00000F05AFC344E306808B9FFF7FFFEF0685F
:1036000004424FD1E4B30834600710D004F007003F
:10361000C0F108000444600709D0502072B680F35E
:103620001188BFF34F8FBFF36F8F62B6FEE73CB3D5
:103630007068844236D82448103001460D6801E095
:1036400028460D466968A14202D229680029F7D1AF
:1036500031688D4226D0076829680160083768689C
:10366000011B102911D9281942070AD0502072B61F
:1036700080F31188BFF34F8FBFF36F8F62B6FEE701
:1036800010E041606C60FFF761FF69687068401A84
:103690007060B268904200D2B0600020F2681143BE
:1036A000C5E9000100F05AFD780709D0502072B634
:1036B00080F31188BFF34F8FBFF36F8F62B6FEE7C1
:1036C0003846BDE8F08100006400002070B5041F9A
:1036D000094E231F4FF0807521F0010125601C1F4A
:1036E0001960A0F120010B1F266044380A606FF0BA
:1036F00002051D6070BD0000B935000810B500223C
:103700000446FF484FF48061FDF70EFB0520FDF7EE
:10371000E7F90120FFF792F90A20FDF7E1F900200F
:10372000FFF78CF97820FDF7DBF9EF20FFF7EEFCCF
:10373000EB20FFF7EBFC1420FFF7DCFCFE20FFF78B
:10374000E5FCEF20FFF7E2FCEB20FFF7DFFC1420A5
:10375000FFF7D0FC8420FFF7D9FC4020FFF7CAFC1C
:103760008520FFF7D3FCFF20FFF7C4FC8620FFF77E
:10377000CDFCFF20FFF7BEFC8720FFF7C7FCFF2032
:10378000FFF7B8FC8820FFF7C1FC0A20FFF7B2FC66
:103790008920FFF7BBFC2120FFF7ACFC8A20FFF754
:1037A000B5FC0020FFF7A6FC8B20FFF7AFFC8020C4
:1037B000FFF7A0FC8C20FFF7A9FC0120FFF79AFC83
:1037C0008D20FFF7A3FC0120FFF794FC8E20FFF76C
:1037D0009DFCFF20FFF78EFC8F20FFF797FCFF205A
:1037E000FFF788FCB620FFF791FC0020FFF782FC72
:1037F0000020FFF77FFC3620FFF788FC34B1012C56
:1038000006D0022C7ED0032C05D1CFE1182000E099
:103810002820FFF76FFC3A20FFF778FC0620FFF71F
:1038200069FC9020FFF772FC0820FFF763FC08207A
:10383000FFF760FC0820FFF75DFC0820FFF75AFC4B
:10384000BD20FFF763FC0620FFF754FCBC20FFF708
:103850005DFC0020FFF74EFCFF20FFF757FC6020C7
:10386000FFF748FC0120FFF745FC0420FFF742FC6E
:10387000C320FFF74BFC1320FFF73CFCC420FFF7ED
:1038800045FC1320FFF736FCC920FFF73FFC222040
:10389000FFF730FCBE20FFF739FC1120FFF72AFCB0
:1038A000E120FFF733FC1020FFF724FC0E20FFF788
:1038B00021FCDF20FFF72AFC2120FFF71BFC0C2056
:1038C000FFF718FC0220FFF715FCF020FFF71EFCA5
:1038D0004520FFF70FFC0920FFF70CFC0820FFF73D
:1038E00009FC0820FFF706FC2620FFF703FC2A202E
:1038F000FFF700FCF120FFF709FC4320FFF7FAFB7C
:10390000702000E050E1FFF7F5FB7220FFF7F2FBBB
:103910003620FFF7EFFB3720FFF7ECFB6F20FFF7B8
:10392000E9FBF220FFF7F2FB4520FFF7E3FB09205C
:10393000FFF7E0FB0820FFF7DDFB0820FFF7DAFBCD
:103940002620FFF7D7FB2A20FFF7D4FBF320FFF751
:10395000DDFB4320FFF7CEFB7020FFF7CBFB72208F
:10396000FFF7C8FB3620FFF7C5FB3720FFF7C2FB88
:103970006F20FFF7BFFBED20FFF7C8FB1B20FFF711
:10398000B9FB0B20FFF7B6FBAE20FFF7BFFB77209C
:10399000FFF7B0FBCD20FFF7B9FB6320FFF7AAFBD1
:1039A0007020FFF7B3FB0720FFF7A4FB0720FFF70A
:1039B000A1FB0420FFF79EFB0E20FFF79BFB0F20CF
:1039C000FFF798FB0920FFF795FB0720FFF792FB15
:1039D0000820FFF78FFB0320FFF78CFBE820FFF7A1
:1039E00095FB3420FFF786FB6220FFF78FFB182042
:1039F000FFF780FB0D20FFF77DFB7120FFF77AFBBF
:103A0000ED20FFF777FB7020FFF774FB7020FFF7C6
:103A100071FB1820FFF76EFB0F20FFF76BFB712087
:103A2000FFF768FBEF20FFF765FB7020FFF762FBF5
:103A30007020FFF75FFB6320FFF768FB1820FFF79C
:103A400059FB1120FFF756FB7120FFF753FBF120C4
:103A5000FFF750FB7020FFF74DFB7020FFF74AFB8C
:103A60001820FFF747FB1320FFF744FB7120FFF7F7
:103A700041FBF320FFF73EFB7020FFF73BFB70207C
:103A8000FFF738FB6420FFF741FB2820FFF732FBEC
:103A90002920FFF72FFBF120FFF72CFB0120FFF778
:103AA00029FBF120FFF726FB0020FFF723FB07206F
:103AB000FFF720FB6620FFF729FB3C20FFF71AFBEE
:103AC0000020FFF717FBCD20FFF714FB6720FFF75F
:103AD00011FB4520FFF70EFB4520FFF70BFB1020E5
:103AE000FFF708FB0020FFF705FB0020FFF702FBB4
:103AF0000020FFF7FFFA6720FFF708FB002001E036
:103B000000000240FFF7F6FA3C20FFF7F3FA00202E
:103B1000FFF7F0FA0020FFF7EDFA0020FFF7EAFACE
:103B20000120FFF7E7FA5420FFF7E4FA1020FFF72F
:103B3000E1FA3220FFF7DEFA9820FFF7DBFA742073
:103B4000FFF7E4FA1020FFF7D5FA8520FFF7D2FA45
:103B50008020FFF7CFFA0020FFF7CCFA0020FFF714
:103B6000C9FA4E20FFF7C6FA0020FFF7C3FA9820E3
:103B7000FFF7CCFA3E20FFF7BDFA0720FFF7BAFAAD
:103B80003520FFF7C3FA2120FFF7C0FA1120FFF715
:103B9000BDFA7820FCF7A4FF2920FFF7B7FABDE8AB
:103BA00010401420FCF79CBF482032E6882030E605
:103BB000214D4AF6C0064FF002082868401C2860D4
:103BC000686810B1012816D02CE01C4F00E02CB919
:103BD0001A4800223146FEF773FF012440F2A32069
:103BE00001223146604307EB8010FEF769FF641C39
:103BF000042CECDB14E0124F00E02CB9104800223A
:103C00003146FEF75DFF012440F2A3200122314638
:103C1000604307EB8010FEF753FF641C042CECDBC1
:103C2000C5F80480012207481102FDF77DF8012044
:103C3000FFF7F2FAC1E70000080000202EE50208B5
:103C40002E42000800000240D0E9013201699A606A
:103C5000D0E901235A604A68824201D182684A60F1
:103C6000002202610868401E086008687047000072
:103C700010B5044C8023046004F154000860136004
:103C800010BD0000880000204FF0FF3300F1080154
:103C90000022C0E901130260C16001617047002188
:103CA0000161704730B50B685A1C02D000F1080260
:103CB00002E0026904E02246546825689D42FAD970
:103CC00053684B6099608A60516008610168491CC3
:103CD000016030BD42684A6093688B6093685960A8
:103CE000916008610168491C01607047502072B6FC
:103CF00080F31188BFF34F8FBFF36F8F0B4962B60C
:103D00004868401C486001280ED10948006810F03E
:103D1000FF0F09D0502072B680F31188BFF34F8F88
:103D2000BFF36F8F62B6FEE7704700007C00002093
:103D300004ED00E00949486828B1401E486001D1FF
:103D400080F311887047502072B680F31188BFF35A
:103D50004F8FBFF36F8F62B6FEE700007C0000203C
:103D600070B500282BD0164DA0F108046068E968F2
:103D7000084209D1502072B680F31188BFF34F8FEB
:103D8000BFF36F8F62B6FEE722684AB1502072B669
:103D900080F31188BFF34F8FBFF36F8F62B6FEE7DA
:103DA0008843606000F080F8606869680844686073
:103DB0002046FFF7CBFBBDE8704000F0CFB970BDE7
:103DC000640000204FF0E020002101614FF47A727E
:103DD0008161072303490968B1FBF2F1491E416182
:103DE0000361704724000020020010B516D010486F
:103DF000806B48B1502072B680F31188BFF34F8FAB
:103E0000BFF36F8F62B6FEE700F04EF80021104658
:103E1000FFF738FA00F0A2F9002807D105494FF062
:103E200080500860BFF34F8FBFF36F8F10BD00004D
:103E30002800002004ED00E010B586B0002405AA9B
:103E400004A9039403A80494FFF712FFDDE903011A
:103E500000940023CDE9011011480FA1059A00F04C
:103E6000E8F810490028486313D0502072B680F358
:103E70001188BFF34F8FBFF36F8F62B601224FF0EF
:103E8000FF300863CA614C6106B0BDE8104000F025
:103E900043B806B010BD000049444C450000000086
:103EA0004D340008280000200248816B491C8163C2
:103EB00070470000280000201548816B11B10121D6
:103EC000416270470021416212498269B2FA82F26E
:103ED000C2F11F0202EB820251F822306BB101EBFA
:103EE000820101F108034A6852684A609A4201D18E
:103EF00052684A60D16801607047502072B680F302
:103F00001188BFF34F8FBFF36F8F62B6FEE70000DB
:103F1000280000203C0600202B49FF201CB50A7811
:103F20000192087008788DF800009DF800209DF837
:103F3000000002F0F002824209D0502072B680F3F5
:103F40001188BFF34F8FBFF36F8F62B6FEE79DF806
:103F5000002007201D4C02F050022270A06005E0F6
:103F60009DF8002052008DF80020401E9DF8002092
:103F70001206F5D40328A06009D0502072B680F351
:103F80001188BFF34F8FBFF36F8F62B6FEE74FF418
:103F90004070A060019808700D48016841F47001FC
:103FA0000160016841F070410160FFF70BFF0020E4
:103FB0006060FCF789F90748016841F04041016001
:103FC000FCF76EF900201CBD00E400E07C0000203E
:103FD00020ED00E034EF00E02DE9FF5F9946164642
:103FE0008A4683469000DDE90E87FFF7FDFA05005B
:103FF0001CD05420FFF7F8FA040014D000202563E9
:1040000084F851004B46CDE90087CDE902403246A5
:1040100051465846FFF74AFA2046FFF76BF9012050
:1040200004B0BDE8F09F2846FFF79AFE4FF0FF303E
:10403000F6E7F0B585B0DDE90B740A9DA7B1ECB1E8
:1040400054262763022684F85160002703970DF158
:10405000100C0095CDE901C4FFF728FA2046FFF7C0
:1040600049F9049805B0F0BD502072B680F311886C
:10407000BFF34F8FBFF36F8F62B6FEE7502072B66B
:1040800080F31188BFF34F8FBFF36F8F62B6FEE7E7
:104090002DE9F0412F4CA06B002740B1206A401C55
:1040A0002062606A00B101273846BDE8F081666988
:1040B000761C666115D16068006848B1502072B600
:1040C00080F31188BFF34F8FBFF36F8F62B6FEE7A7
:1040D0006068A1686160A060A06A401CA062FFF7F0
:1040E0005BFADFF87480206B864209D36068006851
:1040F00080B16068C068C568686886420DD2206378
:104100002068C06A00EB800158F821000128C8D956
:104110000127C6E74FF0FF30F1E7281DFFF794FDB8
:10412000A86A18B105F11800FFF78EFDE86A0121B1
:10413000A26981401143A16100EB800108EB81007D
:10414000291DFFF7C7FD2068E96AC06A8142CDD307
:104150000127CBE7280000203C0600202DE9F0478E
:104160002D4DA86B0024264638B1FFF7BFFDA86B84
:10417000401EA863A86B50B149E0502072B680F38E
:104180001188BFF34F8FBFF36F8F62B6FEE7234FE7
:1041900001202969D9B3A7F1B40980463868E8B18C
:1041A000F868C46804F11800FFF74EFD201DFFF702
:1041B0004BFDE16AAA6908FA01F01043A86101EB1E
:1041C000810109EB8100211DFFF784FD2968E06A68
:1041D000C96A8842E2D3C5F82480DFE70CB1FFF753
:1041E000DBF92C6A44B14746FFF752FF00B16F621A
:1041F000641EF9D100202862686A40B1084901268E
:104200004FF080500860BFF34F8FBFF36F8FFFF701
:1042100091FD3046BDE8F08728000020F006002020
:1042200004ED00E04FF04070E1EE100A7047F0FC42
:10423000FCF0FCFCF4FCFCF0FCFCF4FCFCF0F8FCF6
:10424000F0F8FCF4FCFCF4FCFCF4FCFCF4FCFCF4E6
:10425000FCFCF4FCFCF4FCFCF4FCFCF4FCFCF8F8C6
:10426000FCF8F8FCF0F8FCECF8FCECF8FCECF8F8E6
:10427000ECF8FCF0F4FCF0F4FCF0F0FCF0F0FCECFA
:10428000F0FCECF4FCECF4FCE8F4FCE8F4FCE8F4FE
:10429000FCE8F4FCE8F4FCE4F4FCE4F4FCE4F0F8FE
:1042A000E8F0F8E8F0F8E4F0F8E4F0F8E4F0F8E822
:1042B000F0F8E8F0F8E8F0F8E8F0F8E4F0F8E4F006
:1042C000FCE4F0FCE4F0FCE4F0FCE4F0FCE0F0FCE6
:1042D000E0F0FCE0F0FCE0F0FCE0F0FCE0F0FCE002
:1042E000F0FCE0F0FCE0F0FCE0F0FCE4F0F8E4F0DE
:1042F000F8E4ECF8E0F0FCDCF0FCDCF0FCDCF0FCDA
:10430000E0ECFCE4ECFCE4F0FCE0F0F8E0ECFCDCDD
:10431000F0FCD8F0FCDCF0FCECE4ECFCDCD4A46CAD
:10432000509C6444E8BC9CECCCB0ECCCB0E8C8AC8D
:10433000E8C4ACF0D0B4F0D4B8F0D8BCF0D8BCF03D
:10434000D4BCF4D0BCF4CCB0F0C4A4F0C8A4D0A8C1
:1043500084D0A884ECC098E8BC90E8B890E4B48C11
:10436000ECB894E8B494ECB89CECB49CE8B098E455
:10437000B494E8B490E4B48CE4B888E4B88CECB4B9
:1043800094F0BCA8E4B8ACC4A49C98807C78646029
:104390005C484448383044302C4834384C3C405019
:1043A000384068484C8C606090585470342C884079
:1043B00044D89C98FCE4D8F4F4E8DCECECD8ECF4B9
:1043C000E8F0FCE0E8FCE4ECFCECE8F8F0C8CC80B9
:1043D000483888481CB06C38D89068D08460D88C35
:1043E00068D89468D09C74D4A474E8AC80E09C78BD
:1043F00078341C845850ECECF0D8F0FCD8ECFCDCA1
:10440000F0FCDCF4F8DCF4F4E4F4F8E8F4F8E8F4B4
:10441000FCECF0FCECF0FCF0F4FCF0F4FCF0F4FC50
:10442000F4F4FCF4F4FCF0F4FCF0F0FCF4F8FCF030
:10443000F8F8F0F8FCF0F8F8E4F0F0F4FCFCE8F43C
:10444000F8ECF8FCE8F0F8F4F8FCECE8FC9890A440
:1044500040304428142858404C7458648868708C44
:104460006870986874A86C7CB46C84B86C80B87000
:1044700084BC7480B86C6CC47870C07874BC7C7C6C
:10448000A870785C2830D4A0A0804438985434D4E4
:10449000947084503CA07C7CECDCF8D4D4F8D4D864
:1044A000F0D0D8ECD0D8F4D4DCF8D4DCFCD4DCFCEC
:1044B000D4D8FCD8D8FCDCD8F8E4D8F0F4DCECFC98
:1044C000D8DCECC0B4C4907CA064488C482C8C44EC
:1044D00028945030A06040A87450B88864CC9C7870
:1044E000DCB08CE8B894E8B090F0B894ECB08CEC08
:1044F000B490E8AC88ECB490E8B890E4B48CF0FCEC
:10450000FCF0FCFCF0FCFCF0FCFCF4FCFCF0F8FC27
:10451000F0F8FCF4FCFCF4F8FCF4F8FCF4FCFCF41B
:10452000FCFCF4FCFCF4FCFCF4FCFCF4FCFCF8F8F3
:10453000FCF4F8FCF0F8FCF0F8FCECF8FCECF8FC0F
:10454000F0F8FCF0F4FCF0F4FCF0F4FCF0F4FCF017
:10455000F4FCECF4FCECF4FCECF4FCECF4FCE8F41F
:10456000FCE8F4FCE8F4FCE8F4FCE8F4FCE8F4FC17
:10457000E8F0FCE8F0FCE8F0FCE8F0FCE8F0FCE82F
:10458000F0FCE8F0FCE8F0FCE8F0FCE4F4FCE4F01B
:10459000FCE4F0FCE4F0FCE4F0FCE4F0FCE0F0FC13
:1045A000E0F0FCE0F0FCE0F0FCE0F0FCE0F0FCE02F
:1045B000F0FCE0F0FCE0F0FCE0F0FCE4F0FCE4F007
:1045C000F8E4F0F8E0F0FCE0F0FCDCF0FCE0F0FCFB
:1045D000E4ECFCE4ECFCE4F0FCE0ECF8E0F0F8E007
:1045E000F0FCD8F0FCDCF0FCF0E8ECECCCC0945C27
:1045F00044A46848ECC0A0ECC8ACECC8B0E8C8ACB7
:10460000ECC8B0F0CCB0F0D4B8F0D8B8F0D4BCF06E
:10461000D4BCF4D0BCF4CCB0F0C4A4ECC4A0E0B4DE
:1046200094D8AC88E8BC94E8BC94ECBC94E8B8900E
:10463000E8B890ECB894F0B89CE0AC90E8B898E892
:10464000B89CE0B494E0B494E0B48CE0B894E8C0D2
:10465000A8C4A494846C643C2C28100408080004AA
:104660000C04080C00081C10181008101008141472
:10467000081414040C20080C401C1C542828602C1E
:1046800030744444987C74D8CCC0F4F4F4E8ECF46E
:10469000E0ECFCE4F0FCE8F4FCE4E0F0FCE0E490A6
:1046A0005C4C74340CA86434D48C64DC8C6CDC8C6E
:1046B00068D88C6CCC9470D4A074ECB088E8A884D2
:1046C0008C48306C3C30DCD0D8E0ECFCE0F4FCDC16
:1046D000F0FCDCF0FCE0F0F8E8F4FCE4F0F8E8F4DE
:1046E000FCECF4FCECF4FCECF4FCF0F4FCF0F8FC76
:1046F000F0F4FCF0F4FCF4F8FCF8FCFCF0F4FCEC56
:10470000F4F8F0F8F8ECF8F8ECF8F8E8F0F4F0F871
:10471000FCF0F8FCF0F4FCB4B0C04840501C102091
:10472000443448705C70745C707C60748464748C15
:1047300064749C6478A4687CB06880B87084BC742D
:1047400088C07C84AC6060C07470C47878C4808099
:10475000AC747C744048945C5C703424C07858E439
:10476000A4808450388C6C68E0D8F0D4D8FCD0D8C1
:10477000F0D4DCF4D8E0F8D4DCF4D4D4F0D8D8F415
:10478000E0DCF8E8DCF4F0DCF0E4C8D4BC989C8C05
:104790006058744034884C38A4684CB87858C47C4D
:1047A00060CC8C6CD89C78DCA884E0B08CE4B490AD
:1047B000E4B894E4B490E8B490DCA484E8AC8CF061
:1047C000B494ECB090E8B08CE8B48CE0B088ECF82D
:1047D000FCF0F8FCF0FCFCF0FCFCF0FCFCF0FCFC59
:1047E000F0F8FCF0F8FCF4FCFCF4FCFCF4FCFCF449
:1047F000FCFCF4FCFCF4FCFCF4FCFCF4FCFCF8F821
:10480000FCF4F8FCF0F8FCF0F8FCF0F8FCF0F8FC34
:10481000F0F8FCF0F8FCF0F4FCF0F4FCF0F4FCEC44
:10482000F8FCECF8FCECF8FCECF8FCECF8FCE8F834
:10483000FCE8F8FCECF4FCECF4FCE8F4FCE8F4FC38
:10484000E8F4FCE8F4FCE8F4FCE8F4FCE8F4FCE848
:10485000F4FCE8F4FCE8F4FCE8F0FCE4F4FCE4F03C
:10486000FCE4F0FCE4F0FCE4F0FCE4F0FCE4F0FC3C
:10487000E0F0FCE0F0FCE0F0FCE0F0FCE0F0FCE05C
:10488000F0FCE4F0FCE4F0FCE4F0FCE4F0FCE8F024
:10489000FCE8F0FCE0F0FCE0F0FCE0F4FCE0F0FC14
:1048A000E4F0FCE8ECFCE4F0FCE0ECF8E4F0FCDC28
:1048B000F0FCD8F0FCE0F0FCF8ECECD0A8A08850BC
:1048C00038B07454F0C4A4ECC8ACECC8ACE8C8ACC4
:1048D000F0CCB4F0CCB0F0D4B4F0D8B8F0D4BCF094
:1048E000D4BCF4D0BCF4CCB0ECC4A4ECC4A0ECC4F4
:1048F000A4E0B490E4B894E8BC98F0C098E8B8900C
:10490000E8B890ECBC94E8B890E4B490E4B494E4D3
:10491000B89CD4AC94DCB49CE0BCA8B0988450485B
:104920003C10181000000400101818283818283CF3
:1049300020284030384C2C304C242844202C48244B
:10494000304C2030401C2430181C201410141C0C37
:1049500018482C34603C38806058C4A8A4ECDCE0D3
:10496000E8F0FCDCECFCDCECFCECECFCFCECF0B48B
:1049700084746C340CA05830D08460DC8868DC8887
:104980006CD48C6CCC8C6CD49874ECA888F4AC8C03
:10499000B0644C5C2014C4ACB0ECECFCE4F0FCDC87
:1049A000ECFCE4F0FCE4F0FCE8F0FCE8F0F8E8F4FF
:1049B000FCE8F8FCE8F8FCECF8FCECF8FCECF8FCA3
:1049C000F0F8FCF0F8FCECF4F8F0F8FCF0F8FCEC93
:1049D000F4F8F0F4FCF4F8FCF4F8FCF0F4FCF0F477
:1049E000FCBCC0D4645C6C24182434283064545C4F
:1049F0006C5C68605060705C707C5C7C845C8094F3
:104A00006084A06084A46080A8647CB46C84BC745E
:104A100088B8707CB46868BC6C6CC8787CC07C80DA
:104A2000BC808C743844602824945040D8906CD852
:104A3000987084543C907874D8E0F4C8DCFCCCDCEA
:104A4000F8D4E0F8D8E0F4DCDCF0E8DCE8E8D4DC2A
:104A5000D8B8BCC49C9C9C6C648048387C402CA01A
:104A60006048C48064C88868CC8C68D89474E8A412
:104A700084ECAC8CF0B490ECB894E8B894E4B894BE
:104A8000E4B490E0B08CE8B08CC48C6CD49878F02E
:104A9000B490F0B490E8B08CE4B48CE4B48CECF84E
:104AA000FCECF8F8F0F8FCF0FCFCF0F8FCF0F8FC9A
:104AB000F0F8FCF0F8FCF0F8FCF0F8FCF4FCFCF486
:104AC000FCFCF4FCFCF4FCFCF4FCFCF4FCFCF4FC4E
:104AD000FCF4F8FCF0F8FCF0F8FCF0F8FCF0F8FC62
:104AE000F0F8FCF0F8FCECF8FCF0F8FCF0F8FCF066
:104AF000F8FCF0F8FCECF8FCECF8FCECF8FCE8F85E
:104B0000FCE8F8FCECF4FCECF4FCECF4FCECF4FC5D
:104B1000E8F4FCE8F4FCE8F4FCE8F4FCE8F4FCE875
:104B2000F4FCE8F0FCE8F0FCE8F0FCE4F0FCE4F075
:104B3000FCE4F0FCE4F0FCE4F0FCE4F0FCE4F0FC69
:104B4000E4F0FCE4F0FCE0F0FCE0F0FCE0F0FCE47D
:104B5000F0FCE4F0FCE4F0FCE4F0FCE4F0FCE8F051
:104B6000FCE8F0FCE0F0FCE0F4FCE0F4FCE0F4FC39
:104B7000E8F0FCE8F0FCE4F0FCE0F0F8E4F4FCE041
:104B8000F0FCD8F0FCE4F0F8F8E8E8B08880884C55
:104B900034BC8060F4C8A8ECC8ACECC8B0E8C8ACC1
:104BA000F0CCB4F0CCB0F0D4B4F0D8B8F0D4BCF0C1
:104BB000D4BCF4D0BCF4CCB0ECC4A4ECC4A0F4CC11
:104BC000ACE8C09CE4B898E8BC98F0C09CECBC94FD
:104BD000E8B890ECBC94ECBC94E4B890DCB494D805
:104BE000B498E4C4B4C4A89C604440180C0C0008F9
:104BF0000C10242C1C344418344C183450203858D1
:104C00002034541C2C4C2030502434542034581C54
:104C100034541C3450243850283848242C3C242444
:104C20003814081838181C5C34306C4440A8888844
:104C3000E4DCE4E8F0FCDCE8FCECF0FCF8ECF0E0B0
:104C4000C0B4703820884020C47454E08C6CD8887C
:104C500068D88C6CD08C70D49074E09C7CF0AC8C58
:104C6000D4886C602414A47C7CF4E8F4E0E8F8D8E0
:104C7000ECFCE8F4FCE4F0FCE8F0FCECF4FCE8F418
:104C8000FCE4F8FCE4F8FCE8F8FCE8F8FCE8F8FCE4
:104C9000ECFCFCECF8FCECF8F8ECF8FCF0F8FCF0C0
:104CA000F8FCF0F4FCF0F0FCF0F0FCE8E8F88484A8
:104CB0009C2C284020142C58485C685464604C5C40
:104CC0006C586C745C74745474805C80885C848CE4
:104CD0005880985C80A06480A86C80AC7080B470B0
:104CE00080C07884B87074A05458B87074BC7C8448
:104CF000A0686C541C20642820BC7860D89470D4C0
:104D000094707C4C349C8078E0E0F0D8E0F8E4E4E7
:104D1000F8D8D0E0C8B8C4B0989C98787484544C43
:104D2000743C2C6C3018884428AC6444C88460D02F
:104D30008C68D0906CDC9C78E8AC8CF0B490ECB0D3
:104D40008CECB090E8B08CE4B08CE0B08CE0B08C2F
:104D5000E4B490E8B090E4AC8CBC8060B47454E4EB
:104D6000A888ECB08CECB490E0AC84E8B890E8F49F
:104D7000F8E8F8F8ECF8FCECF8FCF0F8FCF0F8FCDB
:104D8000F0F8FCF0F8FCF0F8FCF0F8FCF0F8FCF0BF
:104D9000F8FCF0F8FCF4FCFCF4FCFCF4FCFCF0FC8B
:104DA000FCF0FCFCF0F8FCF4F8FCF4F8FCF4F8FC83
:104DB000F0F8FCF0F8FCECF8FCECF8FCECFCFCEC9B
:104DC000FCFCECFCFCECF8FCECF8FCECF8FCECF487
:104DD000FCECF4FCECF4FCECF4FCECF4FCE8F4FC8F
:104DE000E8F4FCE8F4FCE8F4FCE8F4FCE8F4FCE8A3
:104DF000F4FCE8F0FCE8F0FCE4F0FCE4F0FCE4F0A7
:104E0000FCE4F0FCE4F0FCE4F0FCE4F0FCE4F0FC96
:104E1000E4F0FCE4F0FCE0F0FCE0F0FCE4F0FCE4A6
:104E2000F0FCE4F0FCE4F0FCE4F0FCE4F0FCE8F07E
:104E3000FCE4F0FCE4F0FCE0F4FCE0F4FCE0F4FC66
:104E4000E8F0FCE8F0FCE8F0FCE4F0F8E8F4FCE062
:104E5000ECF8DCF0FCE8F0F8F4E0DC9C70648C50DA
:104E600038C48868F4C8A8ECC8ACECCCB0E8C8ACCE
:104E7000F0CCB0F0CCB0F0D4B8F0D8B8F0D4BCF0EE
:104E8000D4BCF4D0BCF4CCB0ECC4A4E8C09CF4CC4A
:104E9000A8F0C4A4E8BC9CE8BC9CECBC98ECBC9812
:104EA000ECBC94E8BC90E4BC90E8C49CE0C09CCC12
:104EB000B49C846C642010140C000C181028242856
:104EC00048202C4C20345420385C2034581C30545A
:104ED00020305420345420305024345424345C2462
:104EE000345C243458242C50282C4C2C304C28284A
:104EF00044343044201424240C14542C2C68403C9A
:104F00008C7070D4C8D0F8F8FCE0E8F4E4ECF0F46D
:104F1000E4E0906054782C18B46040E4906CD4883D
:104F200064D4906CD49070D09070D89874E8A884B1
:104F3000ECA480803C247C4C40F4DCE0E4E8F4DC2D
:104F4000ECFCE4F0FCE4F0FCE4F0F8ECF4FCE8F455
:104F5000FCE8F4FCE8F8FCE8F8FCE8F8FCE8F8F811
:104F6000ECF8F8ECF8F8ECF8F8F0FCFCE4ECF4F011
:104F7000F8FCF0F4FCF0F4FCCCCCDC48445C1814F5
:104F80002C403854584C685448645C4864685070ED
:104F9000705074744C747C5078845880885C80881D
:104FA0005C7C90647C94687C98687498606CA86C55
:104FB00078A46874AC707CA46C7878444C6C3C40E9
:104FC000501C18501C109C6448D49474D49070D019
:104FD0009070703824CCA098F8D8E0D8BCC4AC80CD
:104FE00080844C4474382C884C388C483478301881
:104FF000904424C07454D48864D08C64D49470E0F9
:10500000A880E4B490E4B898E0B898E0B494E8B428
:1050100090ECB490E8B490E8B490E4B490E4B49028
:10502000E4B490E8B490ECB090C484649C603CCC50
:10503000906CECB08CECB490E0AC84E4B48CE4F014
:10504000F8E4F4F8E8F4FCE8F8FCECF8FCECF8FC24
:10505000F0F8FCF0F8FCF0F8FCF0F8FCF0F8FCF0EC
:10506000F8FCF0F8FCF0F8FCF0F8FCF0FCFCF0FCCC
:10507000FCF0FCFCF0F8FCF4F8FCF4F8FCF4F8FCB0
:10508000F0F8FCECF8F8E8F8F8ECFCFCECF8FCECD8
:10509000F8FCECF8FCECF8FCECF8FCECF8FCECF4BC
:1050A000FCECF4FCECF4FCECF4FCE8F4FCE8F4FCC0
:1050B000E8F4FCE8F4FCE8F4FCE8F4FCE8F4FCE8D0
:1050C000F4FCE8F0FCE8F0FCE4F0FCE4F0FCE4F0D4
:1050D000FCE4F0FCE4F0FCE4F0FCE4F0FCE4F0FCC4
:1050E000E4F0FCE4F0FCE4F0FCE4F0FCE4F0FCE4CC
:1050F000F0FCE4F0FCE4F0FCE4F0FCE4F0FCE8F0AC
:10510000FCE4F0FCE4F0FCE0F0FCE0F4FCE4F0FC97
:10511000E8F0FCE8F0FCE8F0FCE4ECF8E8F0FCE493
:10512000ECF8E0F0F8ECF0F8E8D0CC946454945843
:105130003CC88C6CF4C4A8ECC8ACECCCB0E8C8ACEF
:10514000ECC8B0F4D0B4F0D4B8F0D8B8F0D4BCF017
:10515000D0BCF8D0BCF4CCB0ECC4A4E8C09CECC487
:10516000A4F4CCACECC0A0E8BC9CE8B898ECBC982B
:10517000E8BC94E8BC94E0BC94E0C4A0C0A88C58FF
:1051800048380C000414081C2420402C2C582830CB
:105190005C2430602034642034641C34601C305C37
:1051A0002034582438582438582034581C2C541C87
:1051B0002C582434602834602C305C34345C303417
:1051C0005434344C38344C2C2030280C0C402018EB
:1051D000684444806464CCB8C4F4ECF8E4F0F4F0BF
:1051E000F0F0C8A0A068241C9C4C2CD88460D48CFF
:1051F00064D0906CD09070D08C6CD89874E4A47CFF
:10520000F4B088A86444602818D8B8B4ECF0F4DC92
:10521000F0FCDCECFCE4F0FCE4F0FCE8F0FCE8F48E
:10522000FCECF4FCECF4FCECF8FCECF8FCECF8F82E
:10523000ECF8F8ECF8F8ECF8F8F0F8FCF0F8FCF022
:10524000F4FCF0F4FC9494AC181C3424203C443C52
:105250006054486C50486C50486860507468507492
:105260006C4C7478507C784C748054788058788476
:105270005C788460708460688860689468709C6CF6
:105280007898687488586C68384858283478484446
:10529000703C2C7C4428C08460D0906CD09070C04E
:1052A0008064743828C4887C9C686070342C844086
:1052B0002CB86C50C474589C5034904020B4644056
:1052C000D0845CD08860DC9870E8A880F0B890E862
:1052D000B894E0B490DCB894E0BC9CE0BC9CE8B42A
:1052E00094E8B490E8B490E8B890E8B890E4B4904A
:1052F000E4B090E8B090F0B490C48464A06040B48E
:105300007450E4A884ECB08CE8B48CE8B48CE0F081
:10531000F8E0F0F8E4F4FCE8F8FCE8F8FCECF8FC61
:10532000ECF8FCECF8FCF0F8FCF0F8FCF0F8FCF021
:10533000F8FCF0F8FCF0F8FCF0F8FCECF8FCECFC05
:10534000F8E8F8F8F0F8F8F4F4FCF4F4FCF4F4FC01
:10535000F0F4FCE8F8F8E8F8F8E8F8F8E8F8F8E825
:10536000F8F8ECF8FCECF4FCECF4FCECF4FCECF4F9
:10537000FCECF4FCECF4FCE8F4FCE8F4FCE8F4FCF1
:10538000E8F4FCE8F4FCE8F4FCE8F0FCE4F0FCE40D
:10539000F0FCE4F0FCE4F0FCE4F0FCE4F0FCE4F00D
:1053A000FCE4F0FCE4F0FCE4F0FCE4F0FCE4F0FCF1
:1053B000E4F0FCE4F0FCE4F0FCE4F0FCE4F0FCE4F9
:1053C000F0FCE4F0FCE4F0FCE4F0FCE4F0FCE8F0D9
:1053D000FCE4F0FCE4F0FCE0F4FCE0F4FCE4F0FCC1
:1053E000E8F0FCE8F0FCE8F0FCE4F0F8E8F0F8E8BD
:1053F000F0F8E0F0F8ECF0F4DCBCB4905C4C9C5CB1
:1054000040CC8C70F4C8A8ECC8ACE8C8ACECC8AC14
:10541000ECC8ACF4D0B4F4D4B8F0D8B8F0D4BCF044
:10542000D0BCF8D0BCF4C8B0ECC0A0E8C09CECC0C4
:10543000A0F8CCACECC0A0ECC09CE8BC98E8BC9850
:10544000E8BC98E4C09CE8C8ACAC94783C281C0448
:1054500000001410242020402028542030641830EC
:10546000641834681834681834681C34681C346054
:105470001C345C1C30541C305424385C2038601CB4
:10548000305C2034602030601C2C6024305C303470
:105490005430304C342C4C383048343438281C1CB0
:1054A00034181470444488585CD4B8BCE4F0F0EC70
:1054B000F4F8ECD4E080484C7C3018C4704CD890A0
:1054C00068D4906CD08C74D08C70D89474DC9C7838
:1054D000F0AC84D08C6C702C18A87C74ECE8F0E0F4
:1054E000F0FCD8ECFCE0F0FCE4F0FCE8F0FCECF0C4
:1054F000FCECF0FCECF0FCF0F4FCF0F4F8F0F4F868
:10550000F0F4F8F0F4F8F4F8FCE8ECF4F4F8FCD873
:10551000E0F050546C0008242C3454383C60484867
:105520006C48446C4C486C544C705850705C5070D3
:105530006450706850707858787C587478546C78DF
:105540005068805868845C6488606488686C7458AB
:1055500064482C3C442838805868B88C9084504863
:10556000743820BC7C58DC9870E09C78DC987C9C7B
:1055700058445C1808803C24A05C44DC9074E49897
:1055800078AC603C883C18A05834C8805CD89470D3
:10559000E0A07CE8AC8CECB490ECB894ECB494E46F
:1055A000B494E8B894ECBC9CECBC9CE4B494ECBC23
:1055B00098E8B894E8B890E8B890E8B890E4B49067
:1055C000E8B08CECB090ECAC8CC48464B47450A49F
:1055D0006444D49474ECB08CECB48CE8B488DCF003
:1055E000F8E0F0F8E4F4FCE8F4FCE8F4FCE8F8FC9B
:1055F000ECF4FCECF4FCECF8FCECF8FCECF8FCEC67
:10560000F8FCECF8FCECF8FCECF8FCECF8F8E8F84A
:10561000F8E8F8F8ECF8F8F0F4FCF4F4FCF4F4FC36
:10562000ECF8FCE8F8FCE8F8FCE8F8F8E8F8F8EC46
:10563000F4F8ECF4F8ECF4FCECF4FCECF4FCECF432
:10564000FCECF4FCECF4FCE8F4FCE8F4FCE8F4FC1E
:10565000E8F4FCE8F4FCE8F0FCE4F0FCE4F0FCE442
:10566000F0FCE4F0FCE4F0FCE4F0FCE4F0FCE4F03A
:10567000FCE4F0FCE4F0FCE4F0FCE4F0FCE4F0FC1E
:10568000E4F0FCE4F0FCE4F0FCE4F0FCE4F0FCE426
:10569000F0FCE4F0FCE4F0FCE4F0FCE4F0FCE8F006
:1056A000FCE4F0FCE4F0FCE4F4FCE4F4FCE4F4FCE2
:1056B000E8F0FCE8F0FCE8F4FCE8F0F8E8F0F8E8E2
:1056C000F0F8E4F0F8F0ECECD4B0A4905844A05C0E
:1056D00040CC9070F8CCACECC8ACE4C4A8ECC8AC3E
:1056E000E8C4ACF4D0B4F4D4B8F4D8BCF0D4BCF46E
:1056F000D4BCF8D0BCF4CCB0ECC0A0E8C09CECC0EA
:10570000A0F8D0ACECC0A0ECC0A0E8BC9CE4BC9C71
:10571000E4C0A0E0C4A8AC94803424180400001CA9
:105720001C282028401C28502434641C3468183459
:105730006818386C1838681834641834641C386475
:105740002034601C345C20345C20345C1830581CDD
:10575000305C2438642038601C345C243860283085
:1057600050383C5838385430304438404834343459
:105770002814184420207C4C48744C48CCC8C0E8FD
:10578000ECE8FCF0FCC4A0A85C1C089C5030D8904D
:105790006CD49070D09070D08870D89074D8906C81
:1057A000ECA87CF0AC84884028804C40E4D8DCE055
:1057B000ECF8DCF0FCDCF0FCE0ECFCE8F0FCE8F001
:1057C000FCE8F0FCECF0FCECF0FCF0F0FCF0F0F8A5
:1057D000F0F0F8F0F0F8F0F0FCFCFCFCB0B4C820FD
:1057E0002840040C282C38582C3860384068404039
:1057F0006C44446C4C486C4C486C504C6C54506C31
:105800005C546C64546C6850686C50686C4C60708C
:105810005064846070846474644C58442C38302024
:1058200030645460C4A4B0D8B0B88C5854743424D4
:10583000B07050D4946CE09C74DC9874D89478A8C0
:105840006048BC7458DC9478F4A884C47850843CD4
:10585000149C542CB87450D49470E4A480E4AC8CA0
:10586000E8B494ECB898ECBC9CE8B898E8B898EC2C
:10587000B898ECB898E8B894ECB494ECB894E8B85C
:1058800094E4B890E4B890E4B890E4B490E4B08CB8
:10589000E4AC88E8AC8CE8AC88C48464C48460A8B8
:1058A0006444C0805CF0B088E8B088E8AC84DCF088
:1058B000F8E0F0F8E0F0FCE4F4FCE8F4FCE8F4FCD8
:1058C000E8F4FCE8F4FCECF4FCECF4FCECF8FCECA4
:1058D000F8FCECF8FCECF4F8ECF8FCECF8FCE4F880
:1058E000F8E4F8F8ECF4FCF0F4FCF4F0FCF0F4FC70
:1058F000ECF4FCE8F8FCE8F8FCE0F4F4E8F4F4EC90
:10590000F4F4F0F4FCF4F8FCE8ECF8ECF4FCECF45F
:10591000FCECF4FCECF4FCECF4FCE8F4FCE8F4FC47
:10592000E8F4FCE8F0FCE4F0FCE4F0FCE4F0FCE477
:10593000F0FCE4F0FCE4F0FCE4F0FCE4F0FCE4F067
:10594000FCE4F0FCE4F0FCE4F0FCE4F0FCE4F0FC4B
:10595000E4F4FCE4F4FCE4F0FCE4F0FCE4F0FCE44B
:10596000F0FCE4F0FCE4F0FCE4F0FCE4F4FCE8F02F
:10597000FCE4F0FCE4F4FCE4F4FCE0F4F8E4F4FC13
:10598000ECF0FCECF0FCE8F4FCE8F4FCE8F0F8F0F7
:10599000F8FCE4ECF4F8F0F0B89484985C44A0606F
:1059A00044D09474ECC0A0ECCCB0E8C4A8E8C4AC7B
:1059B000ECC8ACF4D0B4F4D4B8F4D8BCF0D4BCF493
:1059C000D4BCF8D0BCF4CCB0F0C4A4ECC09CE8C00B
:1059D0009CF0C4A0FCD0B0E4BC9CE8C0A0E0C0A097
:1059E000E0C4ACC4A89830201810080C1C1828205B
:1059F00024401C2C4C2434601830601C3868183843
:105A00006014385C18385C1C38601C345C1C345CD6
:105A10001C345C20386020346020345C20345820F2
:105A200034582034542034542038542438542834E2
:105A30005830385434384C3438443838443C3C4876
:105A400034303C20101C54302C805448785040DCBA
:105A5000C4BCF0F0F0F4E8EC8854506C2410C47826
:105A600058D48C68D49070DC9474D48868DC906CC2
:105A7000E4A070F0B084C880605C2414C8B0B0E8C2
:105A8000ECF4D8ECFCE4F4FCE0ECF8E8F0FCE8F42E
:105A9000FCE0ECFCECF4FCE8F0FCECF0FCF0F0FCDE
:105AA000F0F0FCF4F0FCF0F0FC808098080C280882
:105AB000103030385C2C3C602C3C682C38643C3C0A
:105AC000644C487048446C444064504C6C54507072
:105AD0005450645C546458485464505C785C6880EA
