:020000040800F2
:10000000B8AB01208D030008833E0008ED3A0008DC
:10001000813E000815080008756500080000000012
:10002000000000000000000000000000C9020008FD
:10003000810A000800000000250300083D44000874
:10004000A7030008A7030008A7030008A7030008E8
:10005000A7030008A7030008A7030008A7030008D8
:10006000A7030008A7030008A7030008A7030008C8
:10007000A7030008A7030008A7030008C509000894
:10008000A7030008A7030008A7030008A7030008A8
:1000900055080008A7030008A7030008A7030008E5
:1000A000A7030008A7030008A7030008A703000888
:1000B000A7030008A7030008A7030008A703000878
:1000C000A7030008A7030008A7030008A703000868
:1000D000A7030008A7030008A7030008A703000858
:1000E000A7030008A7030008A7030008A703000848
:1000F000A70300081D450008A7030008A703000880
:10010000A7030008A7030008A7030008A703000827
:10011000A7030008A7030008A7030008A703000817
:10012000A7030008A7030008A7030008D1090008D7
:10013000A70300080000000000000000000000000D
:10014000000000000000000000000000A7030008FD
:10015000A7030008A7030008A7030008A7030008D7
:10016000A7030008A7030008A7030008A7030008C7
:10017000A7030008853E0008000000000000000002
:10018000A7030008A7030008A7030008A7030008A7
:10019000A7030008A703000800000000A703000849
:1001A000000000000000000000000000A70300089D
:1001B000A7030008A70300080000000000000000DB
:1001C000000000000000000000000000000000002F
:1001D000000000000000000000000000A70300086D
:1001E00000F002F800F060F80AA090E8000C8244E9
:1001F0008344AAF10107DA4501D100F055F8AFF2C6
:10020000090EBAE80F0013F0010F18BFFB1A43F0F4
:100210000103184714750000347500000A444FF0BC
:10022000000C10F8013B13F0070408BF10F8014B55
:100230001D1108BF10F8015B641E05D010F8016B9A
:10024000641E01F8016BF9D113F0080F1EBF10F8FE
:10025000014BAD1C0C1B09D16D1E58BF01F801CB21
:10026000FAD505E014F8016B01F8016B6D1EF9D5A4
:100270009142D6D3704700000023002400250026B9
:10028000103A28BF78C1FBD8520728BF30C148BFF9
:100290000B6070471FB507F009FA9DE8030000F0F6
:1002A000DBF91FBD10B510BD00F032FA1146FFF7A3
:1002B000F1FF06F0A2F900F050FA03B4FFF7F2FFE5
:1002C00003BC00F081FA00002D4B19680868B0E803
:1002D000F04F80F30988BFF36F8F4FF0000080F379
:1002E000118870470000000008480068006880F32B
:1002F00008884FF0000080F3148862B661B6BFF33F
:100300004F8FBFF36F8F00DF00BF00BF08ED00E02D
:10031000DFF80C00016841F470010160704700BF14
:1003200088ED00E0EFF30980BFF36F8F144B1A687C
:100330001EF0100F08BF20ED108A20E9F04F10606A
:1003400009B44FF0500072B680F31188BFF34F8F9D
:10035000BFF36F8F62B606F0F3FF4FF0000080F33B
:10036000118809BC19680868B0E8F04F1EF0100F3A
:1003700008BFB0EC108A80F30988BFF36F8F704715
:1003800050000020EFF305807047000009488047C7
:1003900009480047FEE7FEE7FEE7FEE7FEE7FEE767
:1003A000FEE7FEE7FEE7FEE704480549054A064B7F
:1003B000704700000D450008E1010008B8A10120C8
:1003C000B8AB0120B8A70120B8A7012070B5064638
:1003D00000F026F9056806F10B0020F00704B4428E
:1003E0009CBF002070BD2B466A68BAB11068A0425D
:1003F00010D304F1080188423CBF5068586007D30D
:100400005168101941601168091B0160586014603F
:10041000101D70BD13465268002AE7D121462846B8
:1004200000F006F90028DED170BD70B50446051F46
:1004300000F0F6F80068002C14BF446870BD002C72
:1004400018BFAC423CBF20466468F8D301680A1864
:10045000AA4218BF456003D12A68054611440160CD
:1004600028684119A1421CBF6C6070BD6168696059
:1004700021680844286070BD53EA020C00F06980CE
:100480002DE9F04B4FF00006002B1FBFB3FA83F5A8
:1004900003FA05F424FA05F65E4012BF1643B2FAD9
:1004A00082F502FA05F4C5F120051EBF22FA05FC0B
:1004B00044EA0C04203556EA044C4FEA144418BFB1
:1004C000641C4FF000084FF00009904271EB030CE0
:1004D00039D3002919BFB1FA81F701FA07F6B0FA4A
:1004E00080F700FA07F6C7F120071EBF20FA07FCC5
:1004F00046EA0C062037B6FBF4FCA7EB0507103FD5
:1005000007F01F0BCBF120060CFA0BFB2CFA06F6BA
:1005100044BFB3460026202FA4BF5E464FF0000B19
:100520005BEA060C08BF4FF0010B19EB0B09ABFBA4
:10053000027C48EB0608C01B06FB02CC0BFB03CC7D
:1005400071EB0C01C1E70B46024641464846BDE847
:10055000F08B13B54FF000004FF00001AFF30080B7
:10056000BDE81C40704710B5203AC0F00B80B1E8E0
:100570001850203AA0E81850B1E81850A0E81850D8
:10058000BFF4F5AF5FEA027C24BFB1E81850A0E8E1
:10059000185044BF18C918C0BDE810405FEA827CFB
:1005A00024BF51F8043B40F8043B08BF7047D20712
:1005B00028BF31F8023B48BF11F8012B28BF20F8B3
:1005C000023B48BF00F8012B70474FF0000200B516
:1005D000134694469646203922BFA0E80C50A0E866
:1005E0000C50B1F12001BFF4F7AF090728BFA0E814
:1005F0000C5048BF0CC05DF804EB890028BF40F8E0
:10060000042B08BF704748BF20F8022B11F0804F21
:1006100018BF00F8012B7047704770477047000003
:10062000004870475CA101207047704770477047D1
:1006300038B504460A4600206946AFF3008000281A
:1006400008BF38BD02460099204600F03FF801205F
:1006500038BD012000F054B8F8B5AFF3008005466E
:1006600000200C46102000BF0646A819A0420DD954
:10067000324669460020AFF30080070008BF00F053
:100680003FF80098A04218BF0546C419FFF7C8FFFD
:1006900005600746F01D20F007004619284600F0C7
:1006A0000AF8B44208BFF8BDA21B31463868BDE85D
:1006B000F84000F00BB800210160C0E9011070475C
:1006C000102070470048704754A10120034640683D
:1006D0008C46002818BF88423CBF03464068F8D3C8
:1006E00018681844884207D00CF1030020F0070076
:1006F000001D411A521A0146081D0A60FFF795BEF7
:1007000010B500F039F8BDE8104000F02FB8704780
:100710007546FFF7D7FFAE4605006946534620F001
:100720000700854618B020B5FFF73EFEBDE8204023
:100730004FF000064FF000074FF000084FF0000B9D
:1007400021F00701AC46ACE8C009ACE8C009ACE850
:10075000C009ACE8C0098D46704710B50446AFF338
:1007600000802046BDE81040FFF7A7BD002801D05B
:1007700000F02AB87047000010B5012805D000210C
:1007800003A000F027F8012010BD09A1F8E7000040
:1007900053494752544D454D3A204F7574206F666A
:1007A0002068656170206D656D6F727900000000D2
:1007B0003A2048656170206D656D6F727920636FB6
:1007C000727275707465640001491820ABBEFEE753
:1007D0002600020070B505460C460A2000E06D1C9C
:1007E00000F011F835B128780028F8D102E0641C37
:1007F00000F009F814B120780028F8D1BDE8704065
:100800000A20AFF3008008B569468DF80000032088
:10081000ABBE08BDFEE7000000B58BB00020012193
:1008200005900390CDE906010490CDE908100090F1
:10083000694601900290064800F0E4F9044800F08F
:1008400039FD0348022100F057F90BB000BD00004C
:1008500048570120014800F0CEBA00004857012057
:1008600000207047002070470A4900220A4810B54E
:1008700004F0AAFA094840F2475190F8E20110FB4F
:1008800001F0044901EB40110348203104F08FFAD4
:10089000002010BDBC01002098970120BC51012010
:1008A000154870B509884FF40075A0F8E011B0F84C
:1008B000E011A94206D1D0F8E411B0F8E0211144CA
:1008C000C0F8E411B0F8E001E02801D103F0A2FD86
:1008D0000A48D0F8BC4200F0F3F8C4F8040202461B
:1008E00007482B460168491C01600448012104F0B7
:1008F00016FE40B270BD0000BC5101209897012047
:1009000024010020002070470B4A0A4B10B5D2F892
:10091000BC225A60D2F814220AB1012010BD0A4646
:100920000146054804F050FABDE81040024804F0C2
:10093000C1BA0000240100209897012070B586B04C
:100940000E4A002410EE103A0825039400F5A0602A
:10095000009004950294180A11701E0C5370190E21
:1009600090700123D67011716946547194710448D6
:10097000D47100F0D3F806B070BD00002D00002047
:100980004857012030B587B00C4B002400F5A0601B
:1009900000900825039404950294197069465A70D2
:1009A0009C70DC701C715C719C71044A0448DC71A1
:1009B000012300F0B3F807B030BD00001D00002097
:1009C00048570120014800F0A9BC0000EC58012064
:1009D000014800F0A3BC00008C58012001681823D6
:1009E000CAB2103AB2FBF3F2054B6FF30901032AC6
:1009F0009B5CC36500D9091D8165084670470000EE
:100A0000F076000810B583694FF0C074826A014621
:100A1000002053B1B3F5005F15D072B1012A0CD09C
:100A2000022A0AD0032A09D104E01AB1012A06D009
:100A3000022A03D1C96AC90100D5012010BDC96AC3
:100A4000A142FAD010BD002AF7D0012AF2D0022A22
:100A5000F3D0032AF3D010BD30B50468256825F41F
:100A600080252560046863608368402B036803D099
:100A700099600068C26030BD9A600068C16030BD96
:100A8000704772B6FEE700B500F004F84AF6C00100
:100A9000084400BD084890F8E20150B15FF0000042
:100AA00040F2475110FB01F0044901EB40102030A7
:100AB00070470120F4E70000BC510120BC01002078
:100AC0000A4940F247530A4810B520244A68521C8C
:100AD0004A60D0F8E41190F8E201064A10FB03F0F6
:100AE000114404EB4010084410BD00000400002035
:100AF000BC510120BC01002090F82020012A07D021
:100B0000022A05D0416A41F48021416201207047E8
:100B1000006842690A43426100207047F0B590F8CE
:100B200020500468A468012D05D0022D03D0416A2D
:100B300041F4802162E014F0406F01D1E5005AD504
:100B40000126C4F301644FF4C075A6401E608B6893
:100B5000ABB1CE684F68D0F800C0334305EB041644
:100B600043EAC7034CF8063007684FF4C27303EB3F
:100B700004130E69FE50097D012909D00DE00E888D
:100B8000CB68076843EA465305EB0416BB51EBE715
:100B90000168CE5846F48076CE50D3794FF4C677AC
:100BA0009679117992F805E041EA03613B1F4FEA1B
:100BB000064C066807EB04174CEA0E2C41EA0C01C0
:100BC00003EB0413F151D77892F802C0117892F830
:100BD00001E0066841EA07624FEA0C4C4CEA0E2736
:100BE0003A4305EB0411F2500068425842F001020A
:100BF00042500020F0BD416A41F4001141620120E1
:100C0000F0BD000030B590F820300268012B07D00D
:100C1000022B05D0416A41F480214162012030BDA0
:100C2000D2F80032012043F00103C2F80032D2F8BA
:100C30001C320C7D04F01F04A0408343C2F81C3218
:100C4000CB69B3B9D2F80C328343C2F80C328C8929
:100C50004B684D6964F31F4302EBC504C4F840328E
:100C60000C890B684D6964F31F4302EBC504C4F89B
:100C70004432CB69012B16D1D2F80C320343C2F8AF
:100C80000C320C884B684D6964F31F4302EBC504BA
:100C9000C4F840320C89CB684D6964F31F4302EB02
:100CA000C504C4F844328B69002BD2F804320FD04B
:100CB00053EA0003C2F804320B69002BD2F8143255
:100CC00008D00343C2F81432096A012904D008E0AD
:100CD0008343EFE78343F5E7D2F81C120143C2F8E0
:100CE0001C12D2F8000220F00100C2F8000200201D
:100CF00030BD7047F0B590F82040012C05D0022C93
:100D000003D0416A41F4802128E0046809B32469D2
:100D1000A40720D005684FF4D87404EB01142D59B2
:100D200015F00405956005682D591AD0ED08556039
:100D300006684FF4DA75345904F00206D66005EB04
:100D4000011405682E5906F00F06082E0CD308254D
:100D50000DE0E468DCE7416A41F4001141620120E2
:100D6000F0BD6D0D1560E3E72D5905F00F05156118
:100D700006684FF4DC752F1D0029365905EB011567
:100D800007EB0111C6F307269661066834594FEA4E
:100D900014445461026852591A70026852594FEA59
:100DA00012225A70026852594FEA12429A7002682F
:100DB00052594FEA1262DA70026852581A71026888
:100DC00052584FEA12225A71026852584FEA1242A0
:100DD0009A71026851584FEA1161D971006805D0C3
:100DE000016941F0200101610020F0BDC16841F0BE
:100DF0002001C160F8E72DE9F05F05460068002496
:100E00004669D0F804908768D0F80CB0D0F810A0EC
:100E1000F207D0F8188048D0F90714D0012181607A
:100E2000BA0703D5284600F072FA0CE0780702D51D
:100E30004FF4006407E0380702D54FF4805402E015
:100E4000284600F063FAF80516D52868BA054FF46D
:100E50008071816003D5284600F05BFA0CE07805CC
:100E600002D544F4005407E0380502D544F4804428
:100E700002E0284600F04CFAF80316D52868BA03B9
:100E80004FF48031816003D5284600F044FA0CE02D
:100E9000780302D544F4004407E0380302D544F453
:100EA000803402E0284600F035FA300707D55FEAC3
:100EB000CB6004D52968102044F40074C860700722
:100EC0004FF0080707D55FEA0B7004D52868C760A4
:100ED000284600F055F9B00706D52868C068800795
:100EE00002D0284600F04EF9700607D55FEACA60C6
:100EF00004D52968102044F480640861B00607D541
:100F00005FEA0A7004D528680761284600F0CEF928
:100F1000F00606D528680069800702D0284600F050
:100F2000C6F9B00308D55FEAC96005D52968102065
:100F30004860284600F0BCF9F00307D55FEA097065
:100F400004D528684760284600F0E6F9300446D505
:100F50005FEA497040D5F00504D55FEAC87001D05A
:100F600044F00104B00504D55FEA887001D544F06F
:100F70000204700504D55FEA487001D544F004040A
:100F8000300529D518F0700F26D008F070004028E1
:100F900015D006DC102809D020280AD0302816D118
:100FA0000AE050280ED0602811D10EE044F0080469
:100FB0000DE044F010040AE044F0200407E044F09F
:100FC000400404E044F0800401E044F480742868A4
:100FD000816921F070018161296804204860002C3A
:100FE00005D0686A204368622846FFF782FEBDE8A4
:100FF000F09F70B5040003D094F8200010B104E015
:10100000012070BD204600F081F82068016841F0A1
:101010000101016000F02CFC0526054604E000F00B
:1010200027FC401B0A2811D820684068C007F6D06A
:101030002068016821F00201016000F019FC0546FA
:101040000BE000F015FC401B0A2806D9606A40F44A
:101050000030606284F82060D2E720684068800732
:10106000EFD4207E0128206801683DD021F0800166
:101070000160607E01282068016838D021F04001BD
:101080000160A07E01282068016833D021F0200192
:101090000160E07E0128206801682ED041F0100137
:1010A0000160207F01282068016829D021F0080113
:1010B0000160607F01282068016824D021F00401CC
:1010C0000160D4E90110D4E903326569491E18436F
:1010D00023682A43104300220843D8610121626239
:1010E00084F82010104670BD41F08001C0E741F047
:1010F0004001C5E741F02001CAE721F01001CFE728
:1011000041F00801D4E741F00401D9E710B586B0F9
:10111000044614216846FFF758FA164920688842A9
:1011200026D11548016841F000710160006800F0A7
:101130000070059010481038016841F0010101600D
:1011400000680221002200F0010005900323092419
:101150004FF4C0508DE81F000848694600F070FA4F
:1011600000220521142000F05BFD142000F04AFD50
:1011700006B010BD0064004040380240000002404C
:101180007047000070B5006888B04449884229D192
:10119000434B002143486A46FFF7ACFD009B5020BB
:1011A0003F4CB3FBF0F5B3FBF0F6193C3C4A3E492B
:1011B00000FB1533F0B220700E2B13D2DFE803F0E2
:1011C0001207141B2229313940474E555C63C0EB8E
:1011D000C000136801EBC0000363117901B1012164
:1011E00080F82C1008B070BDC0EBC000126801EB95
:1011F000C0004260F6E7C0EBC000126801EBC0001F
:101200008260EFE7C0EBC000126801EBC000C26073
:10121000E8E7C0EBC003128801EBC30150BA0882B3
:10122000E0E7C0EBC003128801EBC30150BA48826B
:10123000D8E7C0EBC000126801EBC0004261D1E703
:10124000C0EBC000126801EBC0008261CAE7C0EBCE
:10125000C000126801EBC000C261C3E7C0EBC00070
:10126000126801EBC0000262BCE7C0EBC00012686C
:1012700001EBC0004262B5E7C0EBC000126801EBB1
:10128000C0008262AEE7127802B10122C0EBC0005A
:1012900001EBC00080F82C20A4E7000000640040AF
:1012A0003500002048570120F8550120704770474D
:1012B0007047000070B5044690F82000012804D063
:1012C000606A40F40020606218E0022084F8200088
:1012D0002068016821F00101016000F0C9FA0546AB
:1012E0000EE000BF00F0C4FA401B0A2808D9616A6A
:1012F000052041F40031616284F82000012070BDB6
:1013000020684068C007EDD1606270BD70477047CB
:101310007047704770477047704700002DE9F843E9
:1013200004464FF00009644B0820CDF800904FF4BC
:101330001652A56D94F85C101B682E68B3FBF2F78B
:1013400000FA01F131420FD021680A6852070BD52B
:101350000A6822F004020A6094F85C108840A860D1
:10136000606D40F00100606594F85C104FF001087A
:1013700008FA01F0304208D021684969090604D50D
:10138000A860606D40F00200606594F85C10042075
:101390008840304208D021680968890704D5A860D0
:1013A000606D40F00400606594F85C101020884087
:1013B000304218D021680968090714D5A860206850
:1013C0000168490304D50068000308D5A16C07E053
:1013D0000168C90503D4016821F008010160216C8E
:1013E00009B12046884794F85C102020884030429C
:1013F00031D021680968C9062DD5A86094F8350058
:1014000005282068016806D0490347D50068000315
:101410001DD4616C1CE021F0160101602068416957
:1014200021F080014161206C08B9A06C20B12068D6
:10143000016821F00801016094F85C303F229A4075
:10144000AA6084F8358084F83490216D1FE0E16B48
:1014500009B120468847606D00282BD0606DC00719
:1014600014D0052084F835002068016821F00101BE
:1014700001600098401C0090B84203D820680068C2
:10148000C007F6D184F8358084F83490E16C0029E7
:1014900010D001B02046BDE8F04308470168C905F7
:1014A000D5D4036823F01003036084F8358084F8F2
:1014B0003490CCE7BDE8F8834C0000202DE9F047DC
:1014C000044600F0D5F906465CB10025022084F8F8
:1014D000350084F834502068016821F00101016072
:1014E0000DE00120BDE8F08700F0C2F9801B05285F
:1014F00005D920216165032084F83500F2E72068D2
:101500000068C007F0D1D4E90010D4E90232D4E970
:10151000046C1843D4F8188004F11C038946324344
:1015200009681043C8CB1D4A40EA0C0040EA080095
:10153000114040EA030040EA0600042F40EA01009F
:1015400003D1D4E90B1211430843C9F80000206805
:10155000666A4069042E20F0070046EA00060CD1B6
:10156000D4E90A01064341B12046FFF74BFA20B106
:101570004020606584F83550B3E720684661204616
:10158000FFF72CFA94F85C303F21012299408160EA
:10159000656584F835200020A4E700003F8010E056
:1015A0002DE9F041044690F8340000250128A66D8D
:1015B0000ED094F835C00127002084F83470BCF1B7
:1015C000010F07D0022584F834002846BDE8F081D9
:1015D0000220FBE7022784F8357060652046FFF79C
:1015E0003BFA94F85C103F208840B06020680168A6
:1015F00041F0160101602068416941F080014161BC
:10160000206C20B12068016841F008010160206869
:10161000016841F001010160D7E7000070B50446A0
:1016200000F026F90546601C02D004480078044406
:1016300000F01EF9401BA042FAD370BD400000200C
:101640002DE9F84FDFF8F0B1012403254FF00F0A20
:1016500000220BF1040E00BF0B6804FA02F63340BF
:10166000B34278D10F7907F00307012F01D0022F81
:101670001AD187684FEA4209D1F80CC005FA09F877
:1016800027EA08070CFA09FC4CEA070CC0F808C066
:10169000476891F804C0B743CCF3001C0CFA02FC75
:1016A0004CEA070CC0F804C00E79F643B6070BD01D
:1016B000C6684FEA420C8F6805FA0CF826EA08065D
:1016C00007FA0CF73743C7600E7906F00306022EBF
:1016D00012D1D6084FEA427800EB860600960F69D1
:1016E000D6F820904FEAD8660AFA06FCB74029EAF5
:1016F0000C063743009E37620F7906684FEA420CAA
:1017000007F0030705FA0CF807FA0CF726EA0806B3
:10171000374307604E6816F4403F1CD0474E376889
:1017200047F480473760366822F00308970706F4CD
:1017300080460096424E3F0F4644B146D6F80868B0
:10174000DFF800810AFA07FC404526EA0C0603D1BF
:101750004FF0000C33E068E0DFF8ECC0604502D1E8
:101760004FF0010C2BE0DFF8E4C0604502D14FF0F0
:10177000020C24E0DFF8D8C0604502D14FF0030C22
:101780001DE0DFF8D0C0604502D14FF0040C16E038
:10179000DFF8C4C0604502D14FF0050C0FE0DFF860
:1017A000BCC0604502D14FF0060C08E0DFF8B0C0C5
:1017B000604502D14FF0070C01E04FF0080C0CFA25
:1017C00007FC4CEA060CC9F808C84F68DBF8006053
:1017D000FF0226EA030600D51E437746CBF80060D9
:1017E000D1F804C0DEF800605FEA8C2C26EA03061C
:1017F00000D51E43DFF840C03E60ACF1040C4F68DA
:10180000DCF80060BF0326EA030600D51E430A4F3A
:10181000CCF80060083FD1F804C03E685FEACC3CD9
:1018200026EA030600D51E433E60521C102AFFF430
:1018300013AFBDE8F88F0000083C01404438024077
:101840000030014000000240000402400008024055
:10185000000C024000100240001402400018024038
:10186000001C02400AB1816170470904FBE70000D7
:1018700001488068704700004000002030B590F8B3
:101880004120202A24D190F84020012A20D0012391
:1018900080F84030242280F8412020230024026870
:1018A000156825F0010515600268156825F4805556
:1018B0001560026815680D43156001680A6842F0FA
:1018C00001020A6080F8413080F84040002030BDBD
:1018D000022030BD30B590F84120202A22D190F866
:1018E0004020012A1ED0012380F84030242280F8B5
:1018F0004120202400250268136823F001031360AF
:101900000268136823F4706343EA012111600168DF
:101910000A6842F001020A6080F8414080F84050B5
:10192000002030BD022030BD70B5040004D094F812
:101930004100002510B106E0012070BD204684F86A
:10194000405000F051F8242084F8410020680168DC
:1019500021F001010160D4E9001020F070600861FD
:101960002068816821F400418160E06821680128D5
:10197000A06830D040F404408860E0680228206805
:1019800041682BD021F40061416020682021154A74
:101990004368134343602068C26822F40042C26077
:1019A00054F8106B0DCC104340EA0320F06054F85B
:1019B0001C3CD4E900021043186054F81C0D026866
:1019C00042F001020260656484F84110256384F8E6
:1019D0004250002070BD40F40040CDE741F400616A
:1019E000D2E700000080000210B5A6B00446142122
:1019F00020A8FEF7EAFD80216846FEF7E6FD1949BA
:101A0000206888422BD10014009000246846179467
:101A100000F014FF08B1FFF734F81348016841F0F3
:101A20000201016000680DF1800C122100F002003B
:101A300025904FF4407004238CE8130003220B48D8
:101A4000CDE9232320A9FFF7FBFD074810300168EB
:101A500041F400110160006800F40010259026B0E8
:101A600010BD000000540040303802400004024025
:101A7000024881680278114481607047400000206C
:101A8000032010B500F0ECF80F2000F005F800F08E
:101A90009DF8002010BD000030B505461F4887B0F6
:101AA000016841F480710160006806A900F480704B
:101AB000009001A801F082F90498B0B101F0A4F9F6
:101AC0004000174A0021174BB0FBF2F2164840F2D3
:101AD000E7340360C0E90341521EC0E9012181617E
:101AE00001F03AFE040003D015E001F08DF9E8E7BB
:101AF0000D4801F063FE04000DD12D2000F082F8A6
:101B0000102D07D2002229462D2000F089F8074821
:101B1000056000E0012407B0204630BD4038024097
:101B200040420F00002000405C5A01204400002089
:101B3000154BF0B5083B427813491A600B680A1F31
:101B400023F001030B6043681360057BC67A827A39
:101B5000437B2D07847B45EA0665C77B90F809C067
:101B6000067A90F800E045EAC24040EA834040EA45
:101B7000444040EA074040EA0C2040EA460040EA80
:101B80000E000860F0BD0000A0ED00E0BFF35F8F25
:101B9000044800210368034A23F480330360703251
:101BA0001160704724ED00E0074A40F0010006494B
:101BB00070321060086840F480300860BFF34F8FC7
:101BC000BFF36F8F7047000024ED00E00C4882B037
:101BD000016841F080510160006800F08050009081
:101BE0000748001D016841F480410160006800223F
:101BF0000F2100F480400090901E02B000F010B859
:101C000040380240002809DB410900F01F0289002A
:101C1000012001F1E0219040C1F80001704700006F
:101C20000E4BF0B41B680D46C3F30223C3F1070645
:101C3000042E00D90426191D072901D2002300E033
:101C4000DB1E012404FA06F19C40491E2940641E53
:101C5000994014402143F0BC04F0BEBC0CED00E000
:101C6000064900F0070210B54FF6FF040868044B60
:101C7000204040EA02201843086010BD0CED00E04F
:101C80000000FA0501680123C0F8D834002280F86A
:101C9000CC248869044A40F000608861486D104394
:101CA00048650020704700000300001070B5164D15
:101CB0000446A1B1012911D12068D0F8001E41F0DD
:101CC0000101C0F8001ED4F8DC0403F0C5FCE07A82
:101CD000002803D0286840F00600286070BDE07A34
:101CE00028B102F0C3FB286820F0060028602068B5
:101CF000D0F8001E21F00101C0F8001ED4F8DC0469
:101D0000BDE8704003F043BC10ED00E000684162A4
:101D100000207047F0B503685D6A39B19F6A4C1EB8
:101D200000204FF4827605EB17450BE045EA0240B0
:101D3000986210E0471C06EB800053F800C0F8B230
:101D400005EB1C45A042F5D34FF4807000EB8100F9
:101D500045EA02421A500020F0BDD0F8DC0403F03E
:101D600050BB01EBC10200EB8202D0F8DC04126A26
:101D700003F0A3BA01EBC10200EB8202D0F8DC044D
:101D8000D2F8602203F0F5BAD0F8DC0403F03BBBD4
:101D90000A0601F00F0101EBC10100EB810101D541
:101DA000143101E001F51571006804F02FBA01F05B
:101DB0000F020B0670B502EBC20104464FF00100A2
:101DC0004FF0000504EB810102D54875143103E0A2
:101DD00081F8555201F515710A7094F89424012A7E
:101DE00008D084F89404206803F02CFF002084F8C5
:101DF000945470BD022070BD70B50279044601F0A4
:101E00000F00904201D9012070BD01F00F024FF088
:101E100000050B0602EBC2014FF0010204EB810149
:101E200002D54A75143103E081F8555201F5157158
:101E30008D70087094F89404012808D084F89424D4
:101E4000206804F06FF8002084F8945470BD0220DC
:101E500070BD01F00F0101EBC10100EB8100D0F872
:101E6000680270472DE9F04101F00F0604460D06A7
:101E70004FF0010006EBC6014FF0000504EB8101B5
:101E800002D54875143103E081F8555201F51571FA
:101E90004F788A600B710E7007B14E83022B00D110
:101EA0004D7194F89424012A09D084F89404206890
:101EB00003F008FE284684F89454BDE8F08102201F
:101EC000FBE770B501F00F05002405EBC50100EB41
:101ED000810101F5187181E81C0001F80B4C01F833
:101EE0000C5D8379012B00D1CA618279006804F00E
:101EF00071F8002070BD70B50D460179044605F0FB
:101F00000F00884201D9012070BD29064FF000065C
:101F10004FF0010206D500EBC00104EB81014A75C8
:101F2000143107E005EBC50104EB810181F855622E
:101F300001F515718A70087094F89404012807D08F
:101F400084F89424206804F019F8280702D007E0E8
:101F5000022070BDA17904F29C42206803F0B6FF14
:101F6000002084F8946470BD70B501F00F04002562
:101F700004EBC401012600EB8101203181E82C0033
:101F800001F80B6C01F80C4D8379012B00D1CA616B
:101F90008279006804F01EF8002070BD2DE9FC5F16
:101FA00005680446284604F0CDF900287ED1206853
:101FB00004F0F4F9002879D0D5F80808C0F30D2012
:101FC000C4F8D404206804F0E9F9800704D5206837
:101FD000416901F002014161206804F0DFF9C106A6
:101FE00004F29C40009035D52068816921F01001F1
:101FF00081612F6A07F00F01C7F3434001EBC10174
:10200000022804EB810606F5157602D0062812D0C8
:102010001BE047F6F070074217D0C7F30A12F168C9
:102020001746284604F0BEF97169F06839447161B9
:102030003844F06009E000990822284604F0B2F91B
:102040007069C7F30A11084470612068816941F022
:1020500010018161206804F0A1F900034FF0080B22
:102060004FF0000A4FF001097CD52068002604F0EB
:1020700074F9074674E0F80770D02068F1B204F0F4
:1020800085F98046C00707D005EB4611C1F8089BCB
:102090003146204601F0FCFE5FEA087024D505EBCE
:1020A0004611C1F808BBFA49206800E03EE2026C24
:1020B00000EB461001928A42D0F8081B05D90904AA
:1020C00003D54FF40041C0F8081B204600F04BFB3D
:1020D000EF490198884207D9A079012804D12068E6
:1020E0000121009A03F0F2FE5FEAC86004D505EB17
:1020F00046111020C1F8080B5FEA88701DD5686989
:10210000000605D5D5F8040840F48061C5F8041828
:1021100006EBC60004EB800090F8571200F515702E
:10212000012905D180F803A02046F1B200F004FA9D
:1021300005EB46110220C1F8080B5FEA886004D560
:1021400005EB46112020C1F8080B5FEA884005D551
:1021500005EB46114FF40050C1F8080B7F08761CC0
:10216000002F88D1206804F019F940036ED520684B
:1021700004F0ECF80026074666E0F80762D0206815
:10218000F1B204F0F1F88046C00723D0D5F8342826
:1021900006F00F0105EB461309FA01F18A43C5F871
:1021A0003428C3F80899A07901280FD106EBC6009E
:1021B00004EB8000D0E907211144016236B9606A5E
:1021C00020B920680121009A03F080FE2046F1B278
:1021D000FFF7C7FD5FEA087003D505EB4611C1F8AC
:1021E00008B95FEAC86004D505EB46111020C1F8B4
:1021F00008095FEA486004D505EB46114020C1F8A4
:1022000008095FEA887016D53146284604F06FF851
:1022100006EBC60004EB8000C17D1430012905D116
:1022200080F803A02046F1B200F082F905EB4611D8
:102230000220C1F808095FEA086003D5314620464C
:1022400001F08CFE7F08761C002F96D1206804F0E8
:10225000A5F8002811DAD5F8040820F00101C5F826
:10226000041894F8CC0401283BD0204600F060FA12
:102270002068416901F000414161206804F08EF856
:1022800000050BD5D5F80808C00702D0204600F09D
:1022900087FA2068416901F400614161206804F017
:1022A0007DF800010AD52068416901F000614161B3
:1022B00094F8CC04E0B1204600F072FA206804F0F3
:1022C0006DF8C00472D5D5F8040820F00101C5F8F6
:1022D00004182068102104F00AF800214FF67F321C
:1022E0002DE00021204684F8CCA4FFF7DFFCBFE7F7
:1022F00084F8CC942068406D0121C0F38300C4F8B9
:10230000D0042046FFF7D2FCD8E700BF05EB411010
:10231000C0F80829D0F8003923F40013C0F80039B8
:10232000C0F8082BD0F8003B23F40013C0F8003BA2
:10233000D0F8003B43F00063C0F8003B491C207913
:102340008842E3D8D5F81C0840F00111C5F81C18E4
:10235000E07B68B1D5F8840840F00B01C5F884181B
:10236000D5F8440840F00B012846C5F844180DE0A4
:10237000D5F8140842F22B010843C5F81408D5F823
:10238000100840F00B012846C5F81018D0F80008D6
:1023900020F4FE61C5F80018A1792068009A03F0C6
:1023A00095FD2068416901F480514161206803F086
:1023B000F5FF800415D5206803F0C4FB206803F006
:1023C000B4FFE07100F01AFDE2790146206804F0E4
:1023D00049F8204600F096F92068416901F400515F
:1023E0004161206803F0DAFF000707D5204600F0BE
:1023F000A3F92068416901F008014161206803F0F8
:10240000CDFF000616D5A869012620F08001A9613C
:102410000DE000BF06EBC60004EB800090F8570209
:10242000012803D12046F1B2FFF7B2FC761C2079D7
:10243000B042EFD8206803F0B1FFC0021FD50126DB
:102440004F4614E006EBC60105EB461004EB810194
:10245000D0F800090A7E012A08D1002806DAF0B275
:10246000CF7540F080012046FFF792FC761C207962
:10247000B042E7D82068416901F4801141612068C9
:1024800003F08CFF800234D501204B4629E0000088
:102490000A30544F00EBC00205EB401104EB8202FE
:1024A000D1F8001B92F85862012E19D1002917DAD1
:1024B00094F8D46401F4803106F00106B1420FD1E2
:1024C00082F85732A96941F08002AA616969090658
:1024D00006D4D5F8040840F40070C5F8040803E0F9
:1024E000401C21798142D5D82068416901F400114E
:1024F0004161206803F052FF400007D52046FFF7F6
:102500002CFC2068416901F080414161206803F0A2
:1025100045FF40070AD520684568680702D5204670
:10252000FFF732FC2068416829434160BDE8FC9F09
:10253000D0F8DC0402F0BFBFD0F8DC0402F0CFBF5B
:10254000F8B5040005D094F895040025266810B16C
:1025500006E00120F8BD204684F8945400F05CF8B1
:10256000032084F89504B6F1A04F00D1A57120682E
:1025700003F0A6FC207C8DF8000094E80F0003F027
:10258000EFFA0226B8BB2068002103F02BFF90BBB6
:10259000002001270DE000BF00EBC001421C04EB4E
:1025A00081014F750D76CD610D624D620875C8854C
:1025B000D0B221798142EFD8002011E000EBC001B8
:1025C000421C04EB810181F8555281F85852C1F840
:1025D0005C52C1F86052C1F8645281F85402D0B222
:1025E00021798142EAD8207C8DF8000094E80F0020
:1025F00003F0AAFB10B184F89564AAE7207B657408
:1026000084F89574012802D12046FFF73BFB20682F
:1026100003F08CFB0020F8BD2DE9F04186B00446A4
:1026200014216846FDF7D1FF3149206888425BD10B
:10263000304C206840F004002060206800F0040066
:102640000590206840F001002060206800F0010043
:102650000590206840F002002060206802250026D6
:102660004FF00A0803270D2100F0020005908DE8C5
:10267000E20121486946FEF7E3FF28211F488DE863
:10268000E2016946FEF7DCFF43F623411C488DE872
:10269000E2016946FEF7D4FF206840F00050206058
:1026A000206800F000500590206840F080402060D5
:1026B000206800F080400590206840F000502060C5
:1026C000206800F000500590206840F080402060B5
:1026D00020680022052100F0804005904D20FFF782
:1026E0009FFA4D20FFF78EFA06B0BDE8F08100009A
:1026F0000000044030380240000802400000024060
:102700000004024070B50446C079012570B102286A
:1027100001D0FEF7B6F9D4F8DC04294602F04EFFEA
:10272000D4F8DC04BDE8704002F002BF0025F2E7F7
:10273000D0F8DC0402F02BBFD0F8DC0402F031BF8B
:1027400010B5044690F8940401280AD00120617461
:1027500084F89404206803F074FE002084F8940444
:1027600010BD022010BDD0F8DC2400F29C411046C0
:1027700002F030BF10B5044690F8940401280CD044
:10278000012084F89404206803F08FFD206803F092
:10279000BFFA002084F8940410BD022010BD000090
:1027A00010B50446D0F8DC0402F056FF2068D0F8DB
:1027B000001E41F00101C0F8001EE07A002804D09C
:1027C0000248016841F00601016010BD10ED00E013
:1027D0001848F8B5016841F0805101600068164C56
:1027E00000F080500090206840F480302060FFF7B7
:1027F0003FF84FF47A76054605E000BFFFF738F85A
:10280000401BB0420FD86068C003F7D5206840F481
:1028100000302060FFF72CF8054606E0FFF728F8A7
:10282000401BB04201D90320F8BD60688003F5D594
:102830000020F8BD40380240007000402DE9F84FFC
:1028400004460078DFF818944FF000073E46C007B2
:102850000ED0D9F8001021F40001C9F80010D9F801
:102860000010E26A1143C9F80010E06A00B90127BC
:10287000FB4D2068843500030ED5616B286820F479
:10288000401008432860606BB0F5801F01D010B184
:1028900002E0012700E0012620684FF4800BC0020F
:1028A0000CD5A16B286820F4400008432860A06B79
:1028B000584501D1012701E000B9012620788006A2
:1028C00067D5E7483830016841F080510160006801
:1028D000DFF890A300F080500090DAF8001041F487
:1028E0008071CAF80010FEF7C3FF804606E000BF03
:1028F000FEF7BEFFA0EB080064287DD8DAF80000E0
:10290000C005F5D5DFF8588308F16808D8F800004D
:1029100010F440702AD0218D01F44071814225D0FD
:10292000D8F80010D8F8002021F4407142F4803229
:10293000C8F80020D8F8002022F48032C8F800201F
:10294000C8F80010D8F80000C0070FD0FEF790FFBD
:10295000824607E0FEF78CFFA0EB0A0141F28830C7
:102960008142CAD8D8F800008007F3D5A06AC0F326
:10297000012103297ED0D9F8001021F4F811C9F8FB
:102980000010228DD8F80010C2F30B021143C8F8D2
:1029900000102078C00607D5286820F080702860D5
:1029A0002868216B084328602188AD488830490495
:1029B00005D5E26D016821F44031114301602188A1
:1029C000090405D5226E016821F4402111430160FC
:1029D0002168C90305D5626E016821F440111143D5
:1029E00001602178490605D5E26B016821F00301F9
:1029F00011430160217800E009E1090605D5226C48
:102A0000016821F00C01114301602188C90505D539
:102A1000626C016821F03001114301602188890551
:102A200005D5A26C016821F0C00111430160218825
:102A3000490505D5E26C016821F44071114301603C
:102A40002188090505D5226D016821F440611143F3
:102A500001602188C90405D5626D016821F44051E7
:102A6000114301602188890407D5A26D016821F412
:102A7000404100E03DE01143016021684FF0006AF1
:102A8000890209D5626F016821F00061114301607C
:102A9000616F514500D101262168490305D5E26ED9
:102AA000016821F04071114301602168090205D5D8
:102AB000A26F016821F08051114301602168490132
:102AC00005D5E26F016821F0005111430160DFF884
:102AD0009891012F02D0206880016ED5D9F80000AE
:102AE0004F4620F08060C9F80000FEF7C1FE804626
:102AF00010E05E4AD9F80030104023F4F812024387
:102B0000C9F800203DE700BFFEF7B2FEA0EB0800C9
:102B100064287CD838680001F6D4217850487C308D
:102B2000C9070DD0E16A59B9227A6168D0F800C0AE
:102B30008B01CCF3036143EA016141EA0271016058
:102B400021680A0303D5626BB2F5801F04D0C90265
:102B500014D5A16B594511D1237B6268016892019C
:102B6000C1F3027142EA036242EA0171016029681D
:102B7000E26921F01F01521E114329602168890179
:102B800008D56168227B237A890141EA026141EA22
:102B9000037101603968B84641F080613960FEF721
:102BA00067FE074605E000BFFEF762FEC01B642813
:102BB00063D8D8F800000001F6D54EB3D9F800006C
:102BC0004E4620F08050C9F80000FEF751FE07463F
:102BD00005E000BFFEF74CFEC01B64284DD83068EE
:102BE000C0438000F6D51E48216880300A0301D515
:102BF000626B1AB1C90219D5A16BB9B92369016811
:102C0000227D9B01C1F3014143EA014101E034E02F
:102C10003AE041EA0261016029686FF0FF03226A2D
:102C200021F4F85103EB0222114329602168890243
:102C30000DD5616F51450AD1228B21690368890145
:102C400041EA0242C3F3036142EA01610160306874
:102C500040F080503060FEF70BFE044610E00000AC
:102C6000083802400070004000380240FFFCFF0FAF
:102C7000FEF7FEFD001B642802D90320BDE8F88F93
:102C80003068C0438000F3D40020F7E72DE9F04717
:102C900005000F4663D0444E306800F00F00B84284
:102CA00009D2306820F00F0038433060306800F0FF
:102CB0000F00B84253D128683C4C810712D5400719
:102CC00003D5206840F4E05020602878000703D541
:102CD000206840F460402060A968206820F0F0007F
:102CE000084320602878C0072AD03049686808392E
:102CF000012810D00968022810D0890700292EDA8F
:102D0000216821F0030101432160FEF7B1FD8046F7
:102D100041F288390DE009688903EFE78901EDE7A1
:102D2000FEF7A6FDA0EB0801494502D90320BDE846
:102D3000F0876868216801F00C01B1EB800FEFD1DA
:102D4000306800F00F00B8420BD9306820F00F0057
:102D500038433060306800F00F00B84201D00120E5
:102D6000E5E72878400705D5E968206820F4E050B9
:102D7000084320602878000706D52869216821F4D7
:102D8000604141EAC000206000F05EF82168084A16
:102D9000C1F30311515CC840064908600648006849
:102DA000FEF77AFE0020C2E7003C024008380240ED
:102DB000F87600084C000020440000200D4A0F2344
:102DC00030B503604FF4E0540B4B156805F0030574
:102DD0004560156805F0F0058560156805F4E05557
:102DE000C560126804EAD2020261186800F00F00A0
:102DF000086030BD08380240003C024001480068CD
:102E0000704700004C00002004490548096800682C
:102E1000044AC1F38221515CC8407047083802401F
:102E20004C0000200877000804490548096800683C
:102E3000044AC1F34231515CC8407047083802402F
:102E40004C00002008770008154910B5154809689E
:102E500011F00C0213D01449042A0FD0082A0ED105
:102E60000F4C241F2268236802F03F025B0207D543
:102E70002068C0F38810A0FB010106E0084610BDE1
:102E80002168C1F38811A1FB00010023FDF7F4FACA
:102E90002168C1F30141491C4900B0FBF1F010BDAC
:102EA000083802400024F40040787D012DE9F84FF5
:102EB00004004FF000076ED02078DFF868A3AAF175
:102EC0000408C007A8F104054CD0DAF800105046F9
:102ED000C1F38101012908D00068C0F381000228F4
:102EE0000AD1D8F80000400206D52868800339D5F9
:102EF00060680028DFD035E06068B0F5803F0BD017
:102F000010B1B0F5A02F11D0286820F480302860CF
:102F1000286820F4802002E0286840F4803028608F
:102F2000606890B1FEF7A4FC06460AE0286840F409
:102F300080202860F0E700BFFEF79AFC801B642821
:102F400072D828688003F7D50CE0FEF791FC06469E
:102F500005E000BFFEF78CFC801B6428F0D82868D1
:102F60008003F7D42078800742D5DAF80010504665
:102F700011F00C0F08D00068C0F3810002280BD1BB
:102F8000D8F80000400207D42868800718D5E06808
:102F9000012800D114E041E1E0680028286817D03A
:102FA00040F001002860FEF763FC064605E000BF24
:102FB000FEF75EFC801B0228C2D828688007F7D580
:102FC0002069296821F0F80141EAC00028600FE07B
:102FD00020F001002860FEF74BFC064605E000BF2C
:102FE000FEF746FC801B02281ED828688007F7D40D
:102FF0002078000729D58B4861696C30002981460B
:10300000016812D041F001010160FEF731FC064673
:1030100005E000BFFEF72CFC801B022804D8D9F87D
:1030200000008007F6D510E089E021F00101016081
:10303000FEF71EFC064604E0FEF71AFC801B022881
:103040007DD8D9F800008007F6D4207840076BD5EA
:10305000DFF8D09109F13809D9F80000C0000BD48D
:10306000D9F8001041F08051C9F80010D9F80000DB
:10307000012700F0805000906B480168C90512D408
:103080000168834641F480710160FEF7F1FB06465A
:1030900005E000BFFEF7ECFB801B64284FD8DBF88F
:1030A0000000C005F6D55F4EA068683601280AD03A
:1030B00008B1052811D0306820F001003060306878
:1030C00020F0040002E0306840F001003060A068A9
:1030D000A0B1FEF7CDFB83460CE0306840F0040061
:1030E0003060F0E7FEF7C4FBA0EB0B0141F2883043
:1030F000814266D830688007F4D50EE0FEF7B8FB51
:10310000834607E0FEF7B4FBA0EB0B0141F28830E9
:10311000814256D830688007F4D42FB1D9F8001016
:1031200021F08051C9F80010A069C8B3DAF8001086
:10313000C1F3810102294BD00228286800E040E059
:1031400020F08070286003D0FEF792FB04463BE03D
:10315000FEF78EFB064604E0FEF78AFB801B022882
:103160002FD828688001F7D4D4E90962D4E907018F
:103170002E4B570894F82C20084303EB074343EAEF
:103180008611084340EA026040F00050C8F8000091
:10319000286840F080702860FEF76AFB044606E06D
:1031A0003EE000BFFEF764FB001B022809D8286838
:1031B0008001F7D534E000BFFEF75AFB001B022860
:1031C00002D90320BDE8F88F28688001F4D427E0F5
:1031D0000128D8F8000021D0E16900F480028A4279
:1031E0001CD1216A00F03F028A4217D1626A47F679
:1031F000C0710140B1EB821F10D1A16A4FF0FF32C4
:1032000000F4403302EB5101B3EB014F06D194F8C7
:103210002C1000F07060B0EB016F01D00120D1E7FD
:103220000020CFE708380240007000400000FFFF98
:10323000704700002DE9F04104000AD0606A0025C3
:1032400050B12561C4F8145094F85D00A56248B1EE
:103250000DE00120BDE8F0816068B0F5827FF3D019
:10326000E561F1E7204684F85C5000F05DF802204B
:1032700084F85D004FF4E0622068016821F04001AD
:103280000160E068904201D9002101E04FF48051D3
:10329000B0F5706F02D0904200D0A5622289A0885C
:1032A000237C02F4044C277D00F4827003F00206B4
:1032B000228B40EA0C00237F304394F8206007F013
:1032C00001073843278D02F40072104303F03803DE
:1032D0001843236806F08002104307F40056304379
:1032E0001860A069042394F8242001F4805194F814
:1032F000346003EA1040A78902F01002104306F080
:1033000008031843236807F47062104308435860A9
:103310002068C16921F40062C2610121256684F838
:103320005D10002096E700002DE9F04F87B00646BB
:1033300014216846FDF749F9514A002431680325F4
:103340004D480527DFF834B191424FF4806A4FF0C1
:1033500002084FF0400943D1474914310A6842F44A
:1033600080520A60096801F480510591016841F0BA
:1033700001010160016801F001010591016841F05E
:10338000020101600068C021CDE9001800F00200D0
:103390006946CDE90245CDE904705846FEF750F97B
:1033A0000821384802AACDE90018694682E8B00031
:1033B000FEF746F9344D4FF0C063344A284697155E
:1033C000C5E90294C5E904A4C5E906472C626C620C
:1033D000C5E9002349E07565AE6307B0BDE8F08F2D
:1033E0002B4A9142F9D1244910310A6842F48042B3
:1033F0000A60096801F480410591016841F0020109
:103400000160016801F002010591016841F00101CC
:10341000016000684FF40041CDE9001800F00100A0
:103420006946CDE90245CDE904701648FEF708F972
:103430004FF40071584602AACDE90018694682E8A7
:10344000B000FEF7FDF8104D124A60352846D3143F
:103450002A604FF44032C5E901499F00C5E9034A9B
:10346000C5E907426C62C5E90537FEF727F8002871
:10347000B1D0FDF706FBAEE7303802400000024055
:1034800000300140000402408C5801205864024082
:1034900000380040706002402DE9F84F044690F873
:1034A0005C0000269846012815468A460CD0012764
:1034B00084F85C70FEF7DCF9814694F85D00B34651
:1034C000012804D00226ABE00220BDE8F88FBAF153
:1034D000000F78D0002D76D0A2680321C4F838A060
:1034E000A58784F85D10C4F860B0E587C4F840B0E3
:1034F000A4F844B0A4F846B0B2F5004FC4F850B0F8
:10350000C4F84CB009D12068016821F04001016085
:103510002068016841F48041016020680168490623
:1035200003D4016841F040010160E068B0F5E06F4C
:10353000606828D908B1012D1FD1A06B21680088CF
:10354000C86006E020688168890709D5A16B0988F1
:10355000C160A06B801CA063E08F401EE0870CE080
:10356000FEF786F9A0EB0901414503D3B8F1FF3F0F
:1035700003D006E0B8F1000F03D0E08F0028E1D1BE
:103580003AE003264AE008B1012D32D1E08F2168EC
:103590000128A06B02D90088C8600EE0007808738B
:1035A00014E0E08725E020688168890714D5E18F61
:1035B0000129A16B08D90988C160A06B801CA06398
:1035C000E08F801EEDE727E009780173A06B401CB7
:1035D000A063E08F401EE4E7FEF74AF9A0EB090183
:1035E000414503D3B8F1FF3F03D0CAE7B8F1000F5C
:1035F000C7D0E08F0028D6D14A464146204600F089
:1036000053FD08B120202066A06818B92068C16861
:1036100080680090206E08B1012601E084F85D709A
:10362000304684F85CB050E72DE9F041044690F84C
:103630005C000026012809D094F85D3001200025A7
:1036400084F85C00012B04D0022670E00220BDE863
:10365000F08199B192B1A7680323A163A28784F88E
:103660005D302566E28725642565E564A4F844504D
:10367000A4F84650B7F5004F02D00BE0012656E003
:1036800021680A6822F040020A6021680A6842F450
:1036900080420A60616D284A0A64626D2749D163DD
:1036A000626D2749D164616D0D6521684A6822F415
:1036B00080424A60E168B1F5E06F10D8616D8969B8
:1036C000B1F5005F0BD1E18FC90716D021684A68B8
:1036D00042F480424A60E18F00EB5100E087E38FC3
:1036E0002268A16B606D0C32FDF75AFF68B1206E45
:1036F000012640F01000206619E02068416821F49E
:1037000080414160E08F4008E8E720680168490691
:1037100003D4016841F0400101602068416841F034
:10372000200141602068416841F00201416030465B
:1037300084F85C508BE700003B40000845400008DF
:10374000194000080149002008707047000000205F
:10375000704770477047704710B5040003D094F865
:103760003D0010B107E0012010BD002084F83C00AE
:10377000204600F022F8022084F83D002068211D38
:1037800000F0D2FE012084F8480084F83E0084F85E
:103790003F0084F8400084F8410084F8420084F837
:1037A000430084F8440084F8450084F8460084F817
:1037B000470084F83D00002010BD704790F83D1090
:1037C000012901D001207047174A022180F83D10DD
:1037D0000168CB6843F00103CB600068904214D0CD
:1037E000B0F1804F11D0114988420ED01049884263
:1037F0000BD01049884208D00F49884205D00F49A4
:10380000884202D00E49884207D181680D4A114092
:10381000062906D0B1F5803F03D0016841F00101CF
:1038200001600020704700000000014000040040DB
:1038300000080040000C004000040140004001402E
:10384000001800400700010070472DE9F0410446D0
:1038500000680027C6680569A90713D5B10711D507
:10386000FA1E0261012121772068806980072046C5
:1038700002D0FFF7E9FF04E000F08BF8204600F0EB
:1038800089F82777680716D5700714D522680220B3
:103890006FF00401116120772068806910F4407F87
:1038A000204602D0FFF7D0FF04E000F072F8204677
:1038B00000F070F82777280715D5300713D5226850
:1038C00004206FF00801116120772068C06980072B
:1038D000204602D0FFF7B8FF04E000F05AF8204677
:1038E00000F058F82777E80616D5F00614D52268B8
:1038F00008206FF01001116120772068C06910F472
:10390000407F204602D0FFF79FFF04E000F041F81F
:10391000204600F03FF82777E80708D0F00706D0E8
:1039200021686FF001000861204600F035F8280694
:1039300001D4A80408D5300606D521686FF40250DA
:1039400008612046FFF706FFE80508D5300606D5D2
:1039500021686FF4807008612046FFF7FAFE680660
:1039600008D5700606D521686FF040000861204632
:1039700000F01CF8A8060AD5B00608D521686FF03B
:10398000200008612046BDE8F041FFF7E4BEBDE835
:10399000F08170477047000000680349884201D1F8
:1039A000FEF766B87047000000200040704710B571
:1039B000040002D0E06F10B107E0012010BD00202C
:1039C00084F87800204600F025F82420E06720687D
:1039D000016821F001010160606A10B1204600F029
:1039E0000FFE204600F0C4FE0128E7D020684168A1
:1039F00021F4904141602068816821F02A018160B2
:103A00002068016841F0010101602046BDE81040D6
:103A100000F05ABEF0B5A7B00546142120A8FCF767
:103A2000D4FD80216846FCF7D0FD2C490326286888
:103A30000227294C0025884223D140151295009079
:103A40006846FEF7FBFE08B1FDF71BF82248103070
:103A5000016841F400210160006800F40020259015
:103A6000206840F001002060206820A9229500F025
:103A7000010025900820CDE92067CDE92360184892
:103A800026E01849884225D140200F9500906846CD
:103A9000FEF7D4FE08B1FCF7F4FF0F4814300168BC
:103AA00041F010010160006800F0100025902068CE
:103AB00040F00200206020680721229500F00200FB
:103AC0002590C020CDE92361CDE92007064820A933
:103AD000FDF7B6FD27B0F0BD30380240004C004085
:103AE000000002400010014000040240FEE7000018
:103AF000F0B500230A251C463026372711E000BF09
:103B0000B5EB107F02D906EB107C01E007EB107CCF
:103B100001F813C001EB430C00015B1C8CF8014061
:103B2000DBB29342ECD3F0BD0F48002170B50D4ECF
:103B30000C2506600122C0E9015100F10C05930437
:103B4000540585E81A00017642768276C2760177BE
:103B50004277FDF74EFA002803D0BDE87040FCF72D
:103B600090BF70BD0064004048570120114808B55F
:103B7000016841F480010160016801F48001009155
:103B8000016841F40011016000680022052100F481
:103B9000001000900F20FEF743F80F20FEF732F8D8
:103BA000002205213B20FEF73BF8BDE808403B2002
:103BB000FEF728B83038024010B58EB00B491C22F1
:103BC0006846FCF7D0FC0021684602F073FD084C03
:103BD0001C2206491C31A06007A8FCF7C4FC002188
:103BE00007A802F067FDE0600EB010BDB8760008CF
:103BF0000C0000202DE9F04786B014216846FCF740
:103C0000E4FC2C48016841F080010160016801F08A
:103C100080010591016841F004010160016801F033
:103C200004010591016841F001010160016801F0A2
:103C300001010591016841F00201016000684FF443
:103C40008046DFF87480002200F0020031460590C3
:103C50004046FDF707FEDFF864900022C021484689
:103C6000FDF700FEDFF858A04FF4A06700223946A8
:103C70005046FDF7F7FD00240096012569464046B1
:103C8000CDE901540394FDF7DBFCC0200090CDE9A1
:103C90000154694648460394FDF7D2FC00976946F3
:103CA000CDE9015450460394FDF7CAFC06B0BDE8C7
:103CB000F087000030380240000402400008024053
:103CC000000002401348002110B5114C0123124A94
:103CD0000460C0E90121C0E9033141618161C16132
:103CE0000162FDF721FE08B1FCF7CBFE0948002177
:103CF000FDF7C4FD08B1FCF7C4FE06480021FDF73E
:103D0000E9FD002803D0BDE81040FCF7BABE10BDA5
:103D100000540040705701206847402070B511489A
:103D20004FF4E0630E4D00214FF482746A15C0E930
:103D3000021301610723C0E90054C0E90512C16103
:103D4000082401624162C0E90A13C0E90C14FFF7BC
:103D500071FA002803D0BDE87040FCF792BE70BD38
:103D600000300140C457012070B511484FF4E063A2
:103D70000E4D00214FF482746A15C0E902130161EF
:103D80000723C0E90054C0E90512C161082401629B
:103D90004162C0E90A13C0E90C14FFF74BFA00288E
:103DA00003D0BDE87040FCF76CBE70BD0038004029
:103DB000285801200D48002110B50B4C0C224FF45F
:103DC000E1330460C0E90131C160C0E904128161DE
:103DD000C16101624162FFF7EAFD002803D0BDE83E
:103DE0001040FCF74EBE10BD004C00404C59012065
:103DF0000D48002110B50B4C0C224FF4E133046048
:103E0000C0E90131C160C0E904128161C161016290
:103E10004162FFF7CCFD002803D0BDE81040FCF75D
:103E200030BE10BD00100140D459012010490122BC
:103E3000104810B501F01CFA08B1FCF722FE0E493B
:103E40000C4801F034FC08B1FCF71BFE0B49094893
:103E500000F0A2FF08B1FCF714FE064801F0ACFC2C
:103E6000002803D0BDE81040FCF70BBE10BD0000D9
:103E7000B00000209897012084010020100100204C
:103E8000FEE7FEE70148FEF789B80000749C0120B8
:103E90002DE9F041044680790D462027236801284A
:103EA0004FF4004604F29C4203EB4511D3F840C0A6
:103EB000D1F8080B09D0DFF89CE0F4453AD10204B0
:103EC00033D500BFC1F8086B40E0234B5FEA007EAA
:103ED00004D59C453AD90004F4D437E05FEA806EFB
:103EE00002D5C1F8087B31E010F0280F2ED19C4597
:103EF00001D90004E6D4D1F8101B05EBC50004EB92
:103F00008000C1F31201D0F87432A3EB0101C0F8B4
:103F1000681200F51570ADB903691BB1C268114490
:103F2000C1600FE0206801210AE080060AD5C1F8CF
:103F3000087B07E035B9D4F8640218B900211846A7
:103F400001F0C4FF2046E9B2FDF714FF0020BDE8F0
:103F5000F08100000A31544F0A30544F2DE9F84FD8
:103F60000E460568814601EBC60100EB8104D4E9E9
:103F700009201434904202D90120BDE8F88FA168CD
:103F8000101A814200D20846C01C05EB461887086B
:103F90001BE000BFA268A0EB010A524500D2924686
:103FA00099F806100AF1030000911FFA8AF3E168FC
:103FB00087082846F2B202F0C9FAE16801EB0A006C
:103FC000E060616901EB0A006061D8F8180980B20D
:103FD000B84205D3D4E90401814201D20028D9D1E5
:103FE000D4E90401884208D8D5F83418012006F035
:103FF0000F0290408143C5F834180020BDE700004F
:10400000044900BFB1F8E0218242FBD10020A1F8B1
:10401000E0017047BC51012010B5806B012201689E
:104020004B6823F003034B60016E41F01001016601
:1040300080F85D20FFF7FCF810BD10B5806BFFF72E
:1040400087FB10BD38B5846B0546FDF711FC0246B1
:1040500028680068C00523D42068416821F0200149
:1040600041602068416821F00201416064212046DE
:1040700000F01AF818B1206E40F020002066A06809
:10408000002118B92068C268806800900120E1878B
:1040900084F85D00206E18B12046FFF7C9F838BDDE
:1040A0002046FFF74FFB38BDF8B515460E460446CF
:1040B0000B464FF4C0510092002200F035F840BB8F
:1040C00017484FF47A71174A0068B0FBF2F0484382
:1040D00000906068B0F5827F08D1002233468021CD
:1040E0002046009500F08EF898B908E0009830B1AD
:1040F000401E009020688068C0430006F6D500226C
:1041000033464FF4C0612046009500F00DF80028BA
:1041100004D0206E40F0200020660320F8BD00008F
:104120004C00002000366E012DE9FE4F98461746E0
:104130000E4604460C9D4FF0000A8DF804A0FDF7D2
:1041400097FB411BA8EB0105FDF792FB81462C482C
:104150004FF4C06B01682068C1EBC1010C300290C4
:1041600001EB8100000D684342E05E4506D12FB9A6
:10417000029800788DF804009DF80400B8F1FF3F24
:1041800037D0FDF775FBA0EB0900A84203D215B1AB
:10419000009858B32BE02068416821F0E0014160AD
:1041A0006068B0F5827F0BD1A068B0F5004F02D0F7
:1041B000B0F5806F04D12068016821F040010160F2
:1041C000A06AB0F5005F09D12068016821F40051B0
:1041D00001602068016841F400510160012184F808
:1041E0005D10032084F85CA0BDE8FE8F0025401E12
:1041F0000090206880683040B842B6D10020F3E7D4
:104200004C0000202DE9F8431E469146884604469E
:10421000089DFDF72DFB401B351AFDF729FB0746CE
:1042200025480068C0F3CB30684338E0701C37D0B5
:10423000FDF71EFBC01BA84203D215B1009860B366
:104240002CE02068416821F0E00141606068B0F531
:10425000827F0BD1A068B0F5004F02D0B0F5806F1F
:1042600004D12068016821F040010160A06AB0F526
:10427000005F09D12068016821F4005101602068C5
:10428000016841F400510160012184F85D100020B3
:1042900084F85C000320BDE8F8830025401E0090F0
:1042A0002068816838EA010004D000214945BDD169
:1042B0000020F0E70121F9E74C0000200178407868
:1042C00041EA0020704700000028044801D0002285
:1042D00000E001224021FDF7C5BA000000080240BD
:1042E0000028044801D0012200E000228021FDF7CF
:1042F000B9BA000000080240F8B51C4615460E4643
:1043000007462A2002F044F9380A8DF800008DF89B
:104310000170310A8DF802100122042168468DF8DF
:10432000036002F041F92B2002F032F9280A8DF8DF
:1043300000008DF80150210A8DF80210012204219D
:1043400068468DF8034002F02FF9F8BD70B50C46B1
:1043500008490546012008700AB13C2000E02C20E5
:1043600002F016F921462846BDE87040002202F00E
:104370001BB900000000002070B50C460546A1B234
:104380002846FCF7C1FA0028F9D170BDFFF74EFDB1
:104390001E4C1F4D6068401C6060207890B3FCF795
:1043A00072FBD0F80110696302780AB1012000E0C5
:1043B0000020617888421DD0132162700120FCF733
:1043C000E1FA627813210620FCF7DCFA6278132107
:1043D0000320FCF7D7FA627813210420FCF7D2FA05
:1043E000627813210520FCF7CDFA627813210220B0
:1043F000FCF7C8FA1421012095ED0D0AFCF79EFA8E
:1044000000202070012002F049F9C3E70C000020D1
:10441000F8550120084A01210648116090F8E21180
:1044200031B1002280F8E2210021C0F8E411704788
:104430000122F7E7BC51012004000020502010B5F4
:1044400072B680F31188BFF34F8FBFF36F8F62B6E0
:1044500003F062F818B104494FF080500860002062
:1044600080F3118810BD000004ED00E030B593B07A
:1044700030216846FCF7A9F814210CA8FCF7A5F830
:104480002048016841F080510160006800F08050D0
:1044900011901D48016841F4404101600068022408
:1044A0001923089300F44040119001204FF4D8756F
:1044B00082050104CDE90642CDE909540B94CDE90A
:1044C00000016846FEF7F2FC08B172B6FEE7FEF79F
:1044D0007FF908B172B6FEE70EAD00214FF4A0528D
:1044E0004FF4805385E80E000F20CDE90C0407211E
:1044F0000CA8FEF7CBFB002801D072B6FEE713B084
:1045000030BD0000403802400070004002480168A1
:1045100041F470010160704788ED00E00148FFF749
:1045200094B900005C5A0120F0B52A4B4FF0804E40
:10453000294D02689842294E294F2A4C09D07045CE
:1045400007D0A84205D0B04203D0B84201D0A04263
:1045500005D1D1F804C022F070024CEA0202984260
:104560001BD0704519D0A84217D0B04215D0B84220
:1045700013D0A04211D01C4DA8420ED01B4DA84212
:104580000BD01B4DA84208D01A4DA84205D01A4D99
:10459000A84202D0194DA84203D1CD6822F440723E
:1045A0002A434D6922F080022A43026098428A68B9
:1045B000C2620A68826201D0A04201D10969016326
:1045C000012141610169C90703D0016921F001019D
:1045D0000161F0BD000001400004004000080040FF
:1045E000000C004000040140004001400044014034
:1045F0000048014000180040001C0040002000401E
:1046000090F82410090706D50168436B4A6822F424
:1046100000421A434A6090F82410C90706D0016886
:10462000836A4A6822F400321A434A6090F82410E0
:10463000890706D50168C36A4A6822F480321A43A2
:104640004A6090F82410490706D50168036B4A6850
:1046500022F480221A434A6090F82410C90606D535
:104660000168836B8A6822F480521A438A6090F84A
:104670002410890606D50168C36B8A6822F40052AB
:104680001A438A6090F82410490611D50168036C1A
:104690004A6822F480121A434A60016CB1F5801F07
:1046A00006D10168436C4A6822F4C0021A434A608A
:1046B00090F82410090606D50168826C486820F439
:1046C0000020104348607047F8B500260446C0F843
:1046D0008460FDF7CDF803462068202500680007B8
:1046E00016D56FF07E40009000222046290400F08D
:1046F00057F968B1216851E8000F20F0800041E8C7
:104700000002002AF6D1E567032084F87860F8BD3E
:10471000E567C4F8805026666666002084F87860F5
:10472000F8BD016851E8002F22F4907241E800239F
:10473000002BF6D10168083151E8002F22F0010268
:1047400041E80023002BF5D1016E012908D1026850
:1047500052E8001F21F0100142E80013002BF6D1AF
:1047600000212022C0F88020016681667047000089
:104770002DE9F04104460368C2698168D4E9045018
:10478000DFF8F0C17C4E29431F68002510437B4AA7
:10479000014307EA0C070F431F604FF400402168F4
:1047A000E7684B6823F440533B434B602768A36999
:1047B000216AD7F808C019432CF430630B43BB605F
:1047C0002168B1420AD1116811F0030152D00129C8
:1047D0007CD0022971D003296ED184E0684B9942C4
:1047E0000AD1116811F00C0167D0042965D008299D
:1047F00075D00C2960D176E0624B99420AD11168DC
:1048000011F0300159D010296BD0202967D0302900
:1048100052D168E05C4B99420AD1116811F0C00195
:104820004BD040295DD0802959D0C02944D15AE0CD
:10483000564B99420DD1116811F440713DD0B1F53C
:10484000807F4ED0B1F5007F49D0B1F5407F33D1A4
:1048500049E04F4B99420FD1116811F4406109D0E2
:10486000B1F5806F3DD0B1F5006F38D0B1F5406F34
:1048700022D138E0012120E0464B99420DD1116848
:1048800011F4405119D0B1F5805F2AD0B1F5005F25
:1048900025D0B1F5405F0FD125E03F4B99420BD1B8
:1048A000116811F4404108D0B1F5804F19D0814210
:1048B00015D0B1F5404F16D01021E369374A4FF6B5
:1048C000EF7683422ED1092949D201E009E006E0C2
:1048D000DFE801F00B0E1145134545451600022196
:1048E000EBE70421E9E70821E7E7FEF78DFA06E0A8
:1048F000FEF79AFA03E0104602E0FEF7A5FA78B355
:104900006168400000EB5100B0FBF1F0A0F1100134
:10491000B14224D84FF6F0732168C0F34202184028
:10492000104320E009291AD2DFE801F005080B192D
:104930000D1919191000FEF767FA06E0FEF774FA70
:1049400003E0104602E0FEF77FFA48B1616800EB31
:104950005100B0FBF1F0A0F11001B14201D90125E5
:1049600002E0216880B2C8600020A066E0662846A8
:10497000BDE8F081F369FFEF00100140903802407C
:104980000044004000480040004C004000500040FF
:104990000014014000780040007C00400024F40036
:1049A0002DE9F047994617460D460446089E4FF0FC
:1049B000000833E0701C31D0FCF75AFFA0EB09006F
:1049C000B04218D8BEB120680168490726D5802DAD
:1049D00024D0402D22D0C169C94309070DD4082530
:1049E00005622046FFF79DFEC4F88450012084F83C
:1049F0007880BDE8F0870320FBE7C069C04300056D
:104A00000CD421684FF4006008622046FFF789FE4D
:104A10002021C4F8841084F87880ECE72068C0690D
:104A200035EA000004D00020B842C3D00020E0E7FF
:104A30000120F9E72DE9F0410C46D0F8D412D0F866
:104A4000C83200EB8101D1F8C01229B304F00F0283
:104A5000002702EB820500EB8506B5694DB102EB3C
:104A6000C20203EB8202D269B5FBF2F302FB1352DE
:104A7000A2B1C1F81472D0F8D42200EB8200D0F8B1
:104A8000C40203692BB1D1F8080201F50471224672
:104A900098470020BDE8F0810320FBE70023214672
:104AA0001A46B76100F0E5FDF3E770B50546D0F8AA
:104AB000D40205EB8000D0F8C04294B1284600F043
:104AC000B2FCC4F80C02D5F8D40205EB8000D0F893
:104AD000C412D4F80402CA6804F503719047002098
:104AE00070BD032070BD000070B5224D04462978CA
:104AF00000F0DAFB2878002600F00F0000EB8000C1
:104B000004EB800086842046697800F0CDFB68784D
:104B100000F00F0000EB800004EB8000A0F864615F
:104B20002046A97800F0C0FBA87800F00F0000EB49
:104B3000800004EB80008684C684D4F8D40204EBA1
:104B40008000D0F8C01299B1D0F8C4024068804704
:104B5000D4F8D40204EB8000D0F8C002FBF765FC67
:104B6000D4F8D40204EB8000C0F8C062C4F8BC6280
:104B7000002070BD3001002010B5D0F8D41200EB39
:104B80008100D0F8C04284B1D0F8C41259B194F871
:104B90000002FF2807D08B68214694F8012298472D
:104BA000FF2084F80002002010BD032010BD00008B
:104BB0000A210180004870473401002070B582212D
:104BC00006460D4800F076FA012105460A4800F035
:104BD00071FA81210446084800F06CFA0DB11021E9
:104BE000A9714FF0400104B1A18000B18180432040
:104BF0003080014870BD00004001002070B5822166
:104C000006460D4800F056FA012105460A4800F014
:104C100051FA81210446084800F04CFA0DB11021E8
:104C2000A9714FF4007104B1A18000B181804320CB
:104C30003080014870BD00004001002070B5822125
:104C400006460D4800F036FA012105460A4800F0F4
:104C500031FA81210446084800F02CFA0DB11021E8
:104C6000A9714FF0400104B1A18000B181804320BF
:104C70003080014870BD0000400100202DE9F04760
:104C80004FF4077504462846FBF7A0FB06004FF0DB
:104C9000000965D02946FBF798FCD4F8D402012717
:104CA0003C4D4FF4007A4FF0100804EB8000C0F840
:104CB000C062C4F8BC62207CF0B329784023022291
:104CC000204600F020FC2878402300F00F0000EB85
:104CD000800004EB8000878402226978204600F07F
:104CE00012FC697808230322204601F00F0101EB32
:104CF000810104EB8101A1F86471A97801F00F0131
:104D000001EB810104EB8101A1F82680A97800F074
:104D1000FAFBA978C84601F00F0101EB810104EB11
:104D200081018F84C6F80492D4F8D40204EB800089
:104D3000D0F8C402006800E01AE006F5017680476A
:104D4000C6F81080C6F8148032687AB1207CF8B1B9
:104D500040236978204600F0E2FB0020BDE8F087A0
:104D6000D4F8D41204EB8101C1F8C0920220F5E717
:104D7000297802225346204600F0C5FB2878534686
:104D800000F00F0000EB800004EB80008784A3E7B5
:104D90005346DEE73001002039B1D0F8D42200EBD1
:104DA0008200C0F8C4120020704703207047D0F87A
:104DB000D42200EB8200D0F8C00218B1C0F804126F
:104DC0000020704703207047D0F8D43200EB8300F6
:104DD000D0F8C00228B1C0F81022C0F80812002094
:104DE0007047032070472DE9FC410646D0F8D402F5
:104DF0000C46002106EB80000D46D0F8C0728DF8FD
:104E00000010ADF8041037B1217811F060022CD0F9
:104E1000202A48D102E00320BDE8FC81E288E2B10B
:104E200009060BD5D0F8C4023946836860789847E4
:104E3000E288072A00D9072239462CE0607887F8F3
:104E40000002E088402800D340203946C2B23046F4
:104E500087F8012200F07FF82AE0D0F8C40200228F
:104E6000214683686078984722E0607830B1012855
:104E70001ED00A2809D00B2815D110E096F89C0204
:104E8000032810D1022201A905E096F89C0203280C
:104E900009D101226946304600F077F808E096F81B
:104EA0009C02032804D02146304600F049F803252F
:104EB0002846B1E710B5D0F8D41200EB81020121E9
:104EC000D2F8C0221AB1D2F8143213B116E003207E
:104ED00010BD0B490123C2F81432D2F81032097800
:104EE00001F00F0404EB840400EB8404A361D2F806
:104EF0001032D2F8082200F0BCFB0021084610BD99
:104F00003001002010B5D0F8B82200245268904734
:104F100000B10324204610BD0020704700207047D8
:104F200013460A46002110B500F0F9FA002010BD22
:104F300013460A46002110B500F09BFB002010BD6F
:104F400010B58021044600F075FB2046BDE81040F6
:104F5000002100F06FBB10B5C0F858210323C0F842
:104F60009432C0F85C2113460A46002100F0D7FABB
:104F7000002010BD10B50521C0F8941200231A4678
:104F8000194600F0CCFA002010BD10B58261022352
:104F9000C0F89432C26113460A46002100F069FB52
:104FA000002010BD10B50421C0F8941200231A4649
:104FB000194600F05EFB002010BDF8B504460D4612
:104FC0000020ADF800004888010A062947D006DC19
:104FD00001290FD0022912D0032962D11DE007292F
:104FE00046D00F295DD1D4F8B402C26920E06946E9
:104FF00090473BE0D4F8B412207C0A68F7E7207CA5
:1050000002260028D4F8B80205D0C16A684688474D
:105010000146467036E0816AF8E7C0B2062840D201
:10502000DFE800F003090D111519D4F8B402426845
:10503000B2B3207CDBE7D4F8B4028268F8E7D4F896
:10504000B402C268F4E7D4F8B4020269F0E7D4F815
:10505000B4024269ECE7D4F8B4028269E8E7207C44
:10506000F0B9D4F8B802416B68468847014609E0B8
:10507000207CA8B9D4F8B802016B6846884701467D
:1050800007204870EA888AB1BDF8000040B182422A
:1050900000D902462046ADF80020FFF776FFF8BDA4
:1050A000FFE729462046FFF74BFFF8E72046FFF7CA
:1050B00079FFF4E778B542880D460178002604466A
:1050C0008A4212D9ADF800100AE0694600F019F8DA
:1050D0004178052904D181780646A94205D00026E9
:1050E0006188BDF800209142EFD8304678BD00219C
:1050F00002E0491C401CC9B20278002AF9D10846D6
:1051000070470A8803781A440A8001780844704777
:1051100070B5002816460D4620D00446FFF7E7FF7D
:1051200002220146100202EB4101814204D82046CE
:10513000FFF7DDFF4000801C308033780321022020
:105140002B700022697006E0431C2954D8B2411C20
:10515000641C2A54C8B221780029F5D170BD010021
:105160004FF0000004D0012901D0022901D0032012
:10517000704701207047000004A00A46024910B59C
:10518000FFF7C6FF004810BD749A01204344432036
:10519000436F6E6669670000122008800048704700
:1051A000D400002004A00A46024910B5FFF7B0FF62
:1051B000004810BD749A012043444320496E746531
:1051C0007266616365000000042008800048704733
:1051D000D000002004A00A46024910B5FFF798FF4E
:1051E000004810BD749A012053544D6963726F6575
:1051F0006C656374726F6E696373000004A00A4685
:10520000024910B5FFF784FF004810BD749A0120D1
:1052100053544D3332205669727475616C20436F5C
:105220006D506F727400000010B51A2008800B4892
:105230000A490830021F096800681468081809D074
:1052400007490822FEF754FC054904222046103184
:10525000FEF74EFC0248801E10BD0000107AF01FC1
:10526000F60000200C20088000487047E80000206D
:1052700078B10023C0F8B832C0F8C432C0F8D032D8
:1052800009B1C0F8B4120121027080F89C1200F03C
:10529000CFB80320704710B5D0F8C802FCF7ACFDBA
:1052A000BDE81040FFF75BBF10B5D0F8C802FCF7AF
:1052B0007EFDBDE81040FFF752BF2DE9F0411746D3
:1052C00004464FF0000521B194F89C02032842D017
:1052D0004CE0D4F8941204F11400022935D1D0E93D
:1052E00002639E4206D9F21A394682602046FFF7D1
:1052F0001FFE0FE0B34214D14068984211D3D4F896
:10530000981288420DD2002220461146FFF710FE67
:10531000C4F8985200231A461946204600F0FFF8B8
:1053200013E094F89C02032808D1D4F8B802C168AD
:1053300021B1C4F8D452C168204688478021204654
:1053400000F078F92046FFF715FE94F8A00268B146
:1053500084F8A0520AE0D4F8B802426932B1C4F825
:10536000D452426920469047002800D10020BDE871
:10537000F08170B5134604464FF0000221B194F855
:105380009C02032830D03AE0D4F8941204F5AA70B5
:10539000032934D1D0E902518D420AD96A1A8260B8
:1053A0000846824200D3024619462046FFF7B8FD60
:1053B00025E094F8AA0210F01F0003D0012802D0C3
:1053C000022800D0002294F89C02032808D1D4F8C7
:1053D000B802016921B1C4F8D42201692046884786
:1053E0002046FFF7DFFD0AE0D4F8B802836933B145
:1053F000C4F8D422826920469047002800D10020BA
:1054000070BD0020704710B5D0F8B812012280F8A6
:105410009C22002429B103794A68D9B2904700B18F
:105420000324204610BDD0F8C802FCF712BD0000CE
:1054300070B50178012928D115490924154B00229E
:105440000125C1F8DC04C0F8C81208460B600C71D5
:105450008A714D728A72CA720A738A73CA730A7425
:10546000FDF76EF808B1FBF70CFB09484FF400712B
:10547000FCF74CFC064880220021FCF74BFC04485A
:1054800001214FF4BA72FCF745FC002070BD00000A
:10549000749C012000000440D0F8C82201F07F0075
:1054A0000B0600EBC00002EB800001D5807D704749
:1054B00090F85602704710B5D0F8D42200EB820263
:1054C000D2F8B82222B190F89C32032B02D004E02B
:1054D000032010BD126A02B19047002010BD10B524
:1054E000D0F8D42200EB8202D2F8B82222B190F890
:1054F0009C32032B02D004E0032010BD526A02B19B
:105500009047002010BD10B51C46D0F8C8021346C5
:105510002246FCF7A7FCBDE81040FFF720BE10B5FF
:10552000D0F8C802FCF7CDFCBDE81040FFF717BE6D
:105530002DE9F041044601250020D4F8B8120646B2
:1055400084F89C52C4F894026060C4F8A40284F801
:10555000A00231B14A6822B100212046904700B133
:1055600003262046002240231146FFF7CCFF4027A8
:10557000A4F8645100223B4680212046C4F86071A3
:10558000FFF7C1FFA58430462762BDE8F08190F89F
:105590009C12042903D190F89D1280F89C120020DF
:1055A000704710B590F89C12032905D1D0F8B812B5
:1055B00011B1C96901B18847002010BD01740020F4
:1055C000704710B5D0F8C802FDF7BAF8BDE8104032
:1055D000FFF7C5BD70B5044600F2AA20054600F0ED
:1055E00051F894F8AA020123B4F8B01210F01F0287
:1055F000C4F89432C4F898120AD0012A0ED0022AB4
:1056000012D000F080012046BDE8704000F012B8D2
:1056100029462046BDE8704000F0D0B82946204613
:10562000BDE8704000F013BA29462046BDE870403E
:1056300000F05BB910B5D0F8C802FCF75CFCBDE81F
:105640001040FFF78CBD10B5D0F8C802FDF792F8F6
:10565000BDE81040FFF783BD90F89C12042903D0E9
:1056600090F89C1280F89D12042180F89C12002072
:10567000704710B5D0F8C802FCF776FCBDE81040C2
:10568000FFF76DBD70B5054608788C1C287048780A
:1056900068702046FEF712FEA41C68802046FEF7C4
:1056A0000DFEA880A01CFEF709FEE88070BD38B58D
:1056B00004460020ADF80000A1B1C4F8B812D4F837
:1056C000D40204EB8000D0F8B802C16A19B1684670
:1056D0008847C4F8D002D4F8D802401CC4F8D802D5
:1056E000002038BD032038BDD0F8B8320246002073
:1056F000002B02D01B681046184770472DE9F04177
:105700002C4E0446887800258846C1B201293170A4
:1057100006D941462046FFF713FC0320BDE8F0817F
:1057200094F89C02022702280CD003281DD0414681
:105730002046FFF705FC31782046FFF7E3FB032501
:105740002846EBE789B320466160FFF7CDFF0500EF
:1057500004D041462046FFF7F3FB1DE02046FFF74B
:1057600021FC032084F89C02EAE7C1B1606888420A
:105770001BD0C1B22046FFF7C5FB317820466160DF
:10578000FFF7B2FF050010D041462046FFF7D8FBD7
:1057900021792046FFF7B6FB84F89C72D0E7616060
:1057A00084F89C722046FFF7ADFB2046FFF7FAFB1A
:1057B000C6E700002C010020FFF745BF2DE9F041AE
:1057C0000A784FF0000512F060020CD0202A01D0B8
:1057D000402A7DD1D0F8D42200EB8202D2F8B82240
:1057E0009268904731E04B78002201260A2B6FD255
:1057F000DFE803F041666E586E08056E2D29FFF74D
:10580000DCFB67E004468888D8B9C888C8B94888EE
:10581000802816D294F89C2200F07F07032A10D02B
:105820003946204684F89E72FFF7CBFE2046FFF7EC
:10583000B9FB1FB1022084F89C024BE084F89C6203
:1058400048E0204644E0FFF759FF054642E0CB8898
:10585000012B3DD190F89C32012B04D0022B02D0B9
:10586000032B35D104E000F108018260012216E02B
:105870000122011D13E090F89C22012A03D0022A84
:1058800001D0032A24D1CA88022A21D1D0F8A41237
:10589000C66009B10321C160022200F10C01FFF7CB
:1058A00074FB17E04A88012A02D0022A03D00FE0D5
:1058B000C0F8A46216E08988090A80F8A01211E0F5
:1058C00090F89C32012B08D0022B06D0032B04D079
:1058D000FFF736FB2846BDE8F08149880129F9D158
:1058E000C0F8A422FFF75EFBF4E72DE9F0410A7847
:1058F0000E460979054612F060004FF00008CCB260
:105900000BD0202801D040286AD121462846FFF735
:1059100003FBFF2800D0D8B396E07078C8B3012805
:1059200024D003285CD195F89C02022802D00328D9
:1059300056D10CE0002C53D0802C51D02146284663
:10594000FFF778FE80212846FFF774FE7CE0708820
:1059500040B93CB1802C05D0F08818B921462846C2
:10596000FFF768FE2846FFF71DFB6DE095F89C02E7
:105970000228DFD0032863D1708880BB600603D083
:1059800021462846FFF787FC2846FFF70BFBBCE7BC
:1059900000E00AE0C5F8D402D5F8B8028268F2B196
:1059A00031462846904780464EE095F89C020027F5
:1059B000022802D0032843D113E00CB1802C3FD140
:1059C000200604F07F0000EB800005EB800101D58C
:1059D000143101E001F5AA7102220F602CE033E0DE
:1059E0002EE0200604F00F0000EB800005EB8000A5
:1059F00009D5808C20B304F07F0000EB800005EB1C
:105A0000800614360AE0B0F86401C8B104F07F00E3
:105A100000EB800005EB800606F5AA764CB1802CE1
:105A200007D021462846FFF737FD10B1012030602E
:105A300000E03760022231462846FFF7A6FA03E06D
:105A400031462846FFF77CFA4046BDE8F08170B544
:105A5000054608780E464FF0000410F0600003D0B1
:105A6000202801D0402827D195F89C02012803D096
:105A7000022801D003281FD1B088C1B201291AD849
:105A8000C1B22846FFF74AFAFF280CD058B9D5F81A
:105A9000B8128A683AB1C5F8D40228468A683146F5
:105AA0009047044600E00324F088204307D12846AD
:105AB000FFF778FA03E031462846FFF741FA20461F
:105AC00070BD000070B54D7801230A78012D1C4C83
:105AD00002F00F0503FA05F3D0F81C5817D000EBBD
