:020000040800F2
:10000000C0040020A10100082313000837120008D3
:1000100021130008AD020008FD16000800000000D2
:10002000000000000000000000000000C9140008EB
:10003000D702000800000000251300088115000801
:10004000BB010008BB010008BB010008BB010008A0
:10005000BB010008BB010008BB010008BB01000890
:10006000BB010008BB010008BB010008BB01000880
:10007000BB010008BB010008BB010008BB01000870
:10008000BB010008BB010008BB010008BB01000860
:10009000BB010008BB010008BB010008BB01000850
:1000A000BB010008BB010008BB010008BB01000840
:1000B000BB010008BB010008BB010008BB01000830
:1000C000BB010008BB010008BB010008BB01000820
:1000D000BB010008BB010008BB010008BB01000810
:1000E000BB010008BB010008BB010008BB01000800
:1000F000BB01000829160008BB010008BB0100086D
:10010000BB010008BB010008BB010008BB010008DF
:10011000BB010008BB010008BB010008BB010008CF
:10012000BB010008BB010008BB010008BB010008BF
:10013000BB010008BB010008BB010008BB010008AF
:10014000BB010008BB010008BB010008BB0100089F
:10015000BB010008BB010008BB010008BB0100088F
:10016000BB010008BB010008BB010008BB0100087F
:10017000BB010008BB010008BB0100080000000033
:10018000BB010008BB010008DFF810D000F07CF8CC
:1001900000480047A9170008AFF30080C004002002
:1001A0000648804706480047FEE7FEE7FEE7FEE711
:1001B000FEE7FEE7FEE7FEE7FEE7FEE719160008AA
:1001C000890100082DE9F05F0546002092469B4614
:1001D00088460646814640241BE02846414647465D
:1001E000224600F041F853465A46C01A914110D3B6
:1001F00011461846224600F028F82D1A67EB010830
:100200004F4622460120002100F01FF817EB00099D
:100210004E41201EA4F10104DFDC484631462A4647
:100220004346BDE8F09FD2B201E000F8012B491E21
:10023000FBD270470022F6E710B513460A46044683
:100240001946FFF7F0FF204610BD202A04DB203AB4
:1002500000FA02F1002070479140C2F1200320FA19
:1002600003F3194390407047202A04DB203A21FA17
:1002700002F00021704721FA02F3D040C2F12002BF
:100280009140084319467047064C074D06E0E06868
:1002900040F0010394E8070098471034AC42F6D3CD
:1002A000FFF776FF0463050824630508FEE730B511
:1002B0000468256825F480252560046863608368E8
:1002C000402B036803D099600068C26030BD9A601B
:1002D0000068C16030BD704772B6FEE72DE9F0419D
:1002E0000446866D90F83400002501280DD00120C9
:1002F00084F8340094F835700020012F07D084F87A
:10030000340002252846BDE8F0810220FBE70227E1
:1003100084F8357060652046FFF7C9FF94F85C10DB
:100320003F208840B0602068016841F016010160FC
:10033000206C20B12068016841F00801016020684C
:10034000016841F001010160DCE7000070B504467E
:1003500000F00CF90546601C02D004480078044403
:1003600000F004F9401BA042FAD370BD0C0000203D
:100370002DE9F84FDFF8BCA1002201250AF1040B9A
:1003800003264FF00F090BF1040E00BF0B6805FAAE
:1003900002F42340A34270D10F7907F00307012F25
:1003A00001D0022F16D187684FEA420806FA08FCEE
:1003B00027EA0C07D1F80CC00CFA08FC4CEA070C31
:1003C000C0F808C04768A7430C79C4F300149440F0
:1003D0003C4344600C79E443A4070AD0C4684FEA64
:1003E000420C06FA0CF7BC438F6807FA0CF7274358
:1003F000C7600C7904F00304022C12D1D40800EB7E
:10040000840CDCF820405707FF0E09FA07F824EAAD
:100410000804D1F8108008FA07F848EA0408CCF874
:10042000208004684FEA420C06FA0CF7BC430F79AF
:1004300007F0030707FA0CF7274307604C6814F42A
:10044000403F70D03C4C276847F4804727602468C1
:1004500022F0030704F480440094384C07EB040CAA
:10046000DCF8084897074FEA177809FA08F7BC4301
:10047000334FB84202D1002724E054E0314FB84254
:1004800001D101271EE0304FB84201D1022719E007
:100490002E4FB84201D1032714E02D4FB84201D1AD
:1004A00004270FE02B4FB84201D105270AE02A4F5D
:1004B000B84201D1062705E0284FB84201D10727ED
:1004C00000E0082707FA08F72743CCF80878DAF89D
:1004D00000405746D1F804C09C435FEACC3C00D5AD
:1004E0001C433C60DBF800405F46D1F804C09C43ED
:1004F0005FEA8C3C00D51C433C60DEF80040774648
:10050000D1F804C09C435FEACC2C00D51C433C606E
:10051000084F0C373C68D1F804C09C435FEA8C2C30
:1005200000D51C433C60521C102AFFF42FAFBDE8DD
:10053000F88F0000003C0140443802400030014088
:10054000000002400004024000080240000C02408B
:10055000001002400014024000180240001C02403B
:100560000AB1816170470904FBE700000148806817
:10057000704700000C000020024881680278114496
:10058000816070470C0000200B4810B5016841F4F1
:1005900000710160016841F480610160016841F40B
:1005A00080710160032000F089F8002000F006F857
:1005B00000F03EF8002010BD003C024010B501469E
:1005C00088B000222D2000F059F82D2000F048F8C6
:1005D00013480024016841F480710160006805A996
:1005E00000F480700690684600F014F900F032F9CB
:1005F0000C494000B0FBF1F10C480B4A491E026067
:1006000040F2E732C0E90324C0E9011400F0E4FC41
:1006100010B1012008B010BD044800F00BFDF9E74F
:100620004038024040420F0000200040740000208B
:100630000A4808B5016841F480410160006800F48F
:10064000804000900548001F016841F08051016022
:10065000006800F08050009008BD0000443802405F
:10066000002809DB00F01F020121914040098000B1
:1006700000F1E020C0F8001170470000F0B40E4B0C
:100680001B680C46C3F30223C3F10705042D00D9F0
:100690000425191D072901D2002300E0DB1E0126D5
:1006A00006FA05F1491E214099409E40761E1640EB
:1006B0003143F0BC01F058B80CED00E0064900F001
:1006C000070208684FF6FF03184040EA0220034A79
:1006D00010430860704700000CED00E00000FA05D0
:1006E0002DE9F0470E46050065D0DFF81481D8F8F3
:1006F0000000F7B200F00700B04207D288F800709F
:10070000D8F8000000F00700B04254D128683D4CF2
:10071000810712D5400703D5206840F4E0502060DF
:100720002878000703D5206840F4604020602068E6
:10073000A96820F0F000084320602878C0072DD079
:10074000304968680839012812D0022813D00328DC
:1007500011D00968890700292DDA216821F00301E9
:1007600001432160FFF702FF814641F2883A0EE023
:1007700009688903EFE709688901ECE7FFF7F6FEEE
:10078000A0EB0901514502D90320BDE8F08720689C
:10079000696800F00C00B0EB810FEFD1D8F80010C1
:1007A000404601F00701B14207D90770006800F028
:1007B0000700B04201D00120E7E72878400705D5BF
:1007C0002068E96820F4E05008432060287800079A
:1007D00006D52068296920F4604040EAC100206005
:1007E00000F048F82168084AC1F30311515CC84081
:1007F0000649086006480068FFF7E0FE0020C4E7ED
:10080000003C024008380240EC6205081800002055
:10081000100000200F2202600C4A136803F003034B
:100820004360136803F0F0038360136803F4E0533C
:10083000C36012684FF4E05303EAD2020261044835
:10084000006800F0070008607047000008380240A8
:10085000003C02400448054900680968044AC1F3A5
:100860008221515CC84070471800002008380240BF
:10087000FC620508154810B5006810F00C02144819
:1008800013D04110042A0FD0082A0ED10F4C241F78
:100890002268236802F03F025B0207D52068C0F39C
:1008A0008810A0FB010106E0084610BD2168C1F3D5
:1008B0008811A1FB00010023FFF784FC2168C1F32C
:1008C0000141491C4900B0FBF1F010BD083802405D
:1008D0000024F4002DE9F84F04006ED02078DFF8F2
:1008E0004C93C007A9F104054AD009F1040001683E
:1008F000C1F38101012908D00068C0F381000228FA
:100900000AD1D9F80000400206D52868800337D5FF
:1009100060680028E1D033E06068B0F5803F10D017
:10092000B0F5A02F286810D020F480302860286807
:1009300020F4802028606068A8B1FFF717FE064603
:100940000DE0286840F48030F4E740F4802028600F
:10095000F7E700BFFFF70AFE801B642873D82868FA
:100960008003F7D50CE0FFF701FE064605E000BF67
:10097000FFF7FCFD801B6428F0D828688003F7D4BB
:100980002078DFF8AC8280074FF0000A3ED5A748F8
:10099000001D016811F00C0F08D00068C0F3810041
:1009A00002280BD1D9F80000400207D4286880073C
:1009B00016D5E068012800D112E033E1E068B8B153
:1009C0000120C8F80000FFF7D1FD064605E000BF92
:1009D000FFF7CCFD801B0228C0D828688007F7D518
:1009E0002868216920F0F80040EAC10028600DE085
:1009F000C8F800A0FFF7BAFD064604E0FFF7B6FD11
:100A0000801B02281FD828688007F7D420780007A9
:100A100022D5864F87486169703771B10121016025
:100A2000FFF7A4FD064604E0FFF7A0FD801B0228A7
:100A300009D838688007F7D50EE0C0F800A0FFF7A6
:100A400095FD064605E082E0FFF790FD801B022839
:100A50007DD838688007F7D42078400768D5DFF85C
:100A6000CCB100270BF13C0BDBF80000C0000BD42D
:100A7000DBF8001041F08051CBF80010DBF80000EB
:100A8000012700F0805000906B4E3068C00510D4F4
:100A9000306840F480703060FFF768FD009005E03A
:100AA000FFF764FD0099401A022850D83068C0054D
:100AB000F6D55E4EA0686C3601280FD00528306848
:100AC00010D020F001003060306820F00400306069
:100AD000A068B8B1FFF74AFD00900FE0306840F021
:100AE0000100F4E740F004003060F7E7FFF73EFD57
:100AF0000099411A41F28830814266D830688007F7
:100B0000F4D50EE0FFF732FD009007E0FFF72EFD71
:100B10000099411A41F28830814256D830688007E6
:100B2000F4D42FB1DBF8001021F08051CBF8001085
:100B3000A069C8B33D49091D0968C1F381010229B3
:100B40004AD00228504607D0C8F8600000E03CE0D8
:100B5000FFF70CFD04463BE04746C8F86000FFF78E
:100B600005FD064605E000BFFFF700FD801B0228DB
:100B70002BD828688001F7D4D4E907010843A16A7B
:100B80002E4A490802EB0141626A41EA8211084398
:100B900094F82C1040EA0161C9F800100120386671
:100BA000FFF7E4FC044606E03EE000BFFFF7DEFC92
:100BB000001B022809D828688001F7D534E000BF5F
:100BC000FFF7D4FC001B022802D90320BDE8F88FF0
:100BD00028688001F4D427E00128F7D0D9F8000074
:100BE000E26900F4800191421CD1226A00F03F01C9
:100BF000914217D147F6C071626A0140B1EB821F82
:100C000010D1A26A4FF0FF3300F4403103EB5202DF
:100C1000B1EB024F06D194F82C1000F07060B0EBED
:100C2000016F01D00120D1E70020CFE70438024056
:100C300000004742800E4742007000400000FFFF66
:100C4000704770B5040009D0606A002540B1256185
:100C50006561A56294F8510040B10CE0012070BDBF
:100C60006068B0F5827FF4D0E561F2E784F8505017
:100C7000204600F045F8022084F851002068016801
:100C800021F040010160A088218900F4827001F404
:100C900004410843A18901F400610843217C01F06B
:100CA00002010843217D01F001010843218B01F479
:100CB00000710843217F01F03801084394F82010A7
:100CC00001F080010843218D01F40051084321689F
:100CD0000860A069042101EA104094F8241001F092
:100CE00010010843216848602068C16921F400614F
:100CF000C1616565012084F85100002070BD0000CD
:100D0000F0B587B0044614216846FFF793FA1C49F2
:100D10002068884232D11B480024016841F4805188
:100D20000160006800F4805005901648143801688E
:100D300041F001010160016801F0010105910168C4
:100D400041F0020101600068022500F002000590F8
:100D50008020CDE9000502AA0326052782E8D000FD
:100D600069460948FFF704FB0820CDE9000502AAFF
:100D7000694682E8D0000548FFF7FAFA07B0F0BDEF
:100D800000300140443802400000024000040240AC
:100D90002DE9F84F044690F8500000271D461646EE
:100DA000894601280DD04FF0010B84F850B0FFF7B1
:100DB000DDFB804694F85100BA46012804D0022792
:100DC00093E00220BDE8F88FB9F1000F73D0002E38
:100DD00071D0032084F85100C4F854A0C4F83090B6
:100DE000A686E686C4F838A0A4F83CA0A4F83EA0E5
:100DF000C4F844A0C4F840A0A068B0F5004F09D1E1
:100E00002068016821F0400101602068016841F418
:100E10008041016020680168490603D4016841F0FF
:100E200040010160E068B0F5006F606803D030B346
:100E3000012E24D041E008B1012E1CD1206B216885
:100E40000088C86006E020688168890709D5216BA1
:100E50000988C160206B801C2063E08E401EE08604
:100E600009E0FFF783FBA0EB0800A84202D3681C4F
:100E700001D031E07DB3E08E0028E4D120E0206B8A
:100E800021680078087306E020688168890709D521
:100E9000216B09780173206B401C2063E08E401E9B
:100EA000E0860AE0FFF762FBA0EB0800A84203D34C
:100EB000681C02D010E017E06DB1E08E0028E3D18D
:100EC00042462946204600F077FA08B120206065A6
:100ED000A06818B106E0FFE7032706E02068C168B4
:100EE00080680090606D00B1012784F851B084F8EB
:100EF00050A0384666E700002DE9F041044690F81E
:100F000050000026012809D0012784F8507094F879
:100F100051000025012804D002264EE00220BDE841
:100F2000F08189B182B1032084F8510065652163A5
:100F3000A286E286A56365642564A587E587A06827
:100F4000B0F5004F02D00BE0012636E020680168C2
:100F500021F0400101602068016841F48041016096
:100F6000A16C18480864A16C1748C863A16C1748A5
:100F7000C864A06C0565E38E2268216B0C32A06CFE
:100F8000FFF7ACF938B1606D40F0100060650126E4
:100F900084F8517011E020680168490603D40168A3
:100FA00041F0400101602068416841F0200141604A
:100FB0002068416841F00201416084F85050304699
:100FC000ADE7000049130008531300082713000879
:100FD000704770477047704710B5040003D094F80D
:100FE0003D0010B107E0012010BD002084F83C0056
:100FF000204600F01EF8022084F83D00211D2068E4
:1010000000F018FB012084F8460084F83E0084F8C4
:101010003F0084F8400084F8410084F8420084F8DE
:10102000430084F8440084F8450084F83D00002023
:1010300010BD704790F83D10012901D00120704784
:10104000022180F83D100168CA6842F00102CA60BE
:1010500000681149884214D0B0F1804F11D00F4977
:1010600088420ED00E4988420BD00E49884208D0E3
:101070000D49884205D00D49884202D00C4988426A
:1010800004D1816801F00701062903D0016841F00D
:101090000101016000207047000001400004004091
:1010A00000080040000C00400004014000400140E6
:1010B00000180040704770B50446006801694FF0A1
:1010C0000005C943890715D4C168C943890711D4EC
:1010D000E91E016101202077206880698007204691
:1010E00002D0FFF7E7FF04E000F098F8204600F098
:1010F00096F8257720680169C943490717D4C16864
:10110000C943490713D46FF004010161022020771D
:101110002068806910F4407F204602D0FFF7CAFFA4
:1011200004E000F07BF8204600F079F8257720688D
:101130000169C943090716D4C168C943090712D414
:101140006FF008010161042020772068C0698007E2
:10115000204602D0FFF7AEFF04E000F05FF8204623
:1011600000F05DF8257720680169C943C90617D4E6
:10117000C168C943C90613D46FF01001016108208A
:1011800020772068C06910F4407F204602D0FFF726
:1011900091FF04E000F042F8204600F040F8257787
:1011A00020680169C943C90708D1C168C943C90793
:1011B00004D1891E0161204600F032F820680169DF
:1011C000C943090609D4C168C943090605D46FF0AB
:1011D000800101612046FFF7FDFE20680169C943D7
:1011E000490609D4C168C943490605D46FF04001D6
:1011F0000161204600F01EF820680169C943890694
:101200000BD4C168C943890607D46FF0200101617E
:101210002046BDE87040FFF7DEBE70BD70477047E6
:1012200000680349884201D1FFF7A6B97047000062
:10123000002000407047FEE7F0B587B014216846F3
:10124000FEF7F8FF22480024016841F02001016008
:10125000016801F020010591016841F08001016001
:10126000016801F080010591016841F00101016010
:10127000016801F001010591016841F0020101607E
:101280000068144E00F002004FF4C0650590002283
:1012900029463046FFF764F90F4F0022D021384627
:1012A000FFF75EF900950125CDE901546946304606
:1012B0000394FFF75DF8D020CDE900050320CDE9C8
:1012C000024069463846FFF753F807B0F0BD00000A
:1012D0003038024000140240000402400F4810B5AC
:1012E0000D4901604FF48271416000218160C1604D
:1012F0004FF400720161C0E90512C16101624162EF
:1013000081620A21C162FFF79CFC002803D0BDE87E
:101310001040FEF7E1BF10BD003001401C0000206E
:10132000FEE7FEE7704710B5806B01684A6822F05F
:1013300003024A60416D41F010014165012180F8CE
:101340005110FFF77DFC10BD10B5806BFFF741FE1B
:1013500010BD38B50546846BFFF708F902462868CA
:101360000068C00523D42068416821F02001416055
:101370002068416821F0020141606421204600F0AC
:101380001BF818B1606D40F020006065A068002176
:1013900018B92068C26880680090E186012084F84E
:1013A0005100606D18B12046FFF74AFC38BD204659
:1013B000FFF70EFE38BD000038B504461248134B47
:1013C0000068B0FBF3F04FF47A7358430090606804
:1013D000B0F5827F0DD10B4600920022802120467D
:1013E00000F016F870B1606D40F0200060650320D9
:1013F00038BD009830B1401E009020688068C0431E
:101400000006F6D5002038BD1800002000366E0119
:101410002DE9F8431E46914688460446089DFFF78D
:10142000A5F8401B351AFFF7A1F8074625480068C4
:10143000C0F3CB30684338E0701C37D0FFF796F824
:10144000C01BA84203D215B1009860B32CE02068FD
:10145000416821F0E00141606068B0F5827F0BD106
:10146000A068B0F5004F02D0B0F5806F04D12068BD
:10147000016821F040010160A06AB0F5005F09D168
:101480002068016821F4005101602068016841F47E
:1014900000510160012084F85100002084F85000C0
:1014A0000320BDE8F8830025401E00902068816875
:1014B00038EA010004D000214945BDD10020F0E701
:1014C0000121F9E71800002070470000044B08B123
:1014D000002200E0012240211846FFF741B8000039
:1014E00000040240044B08B1012200E00022102158
:1014F0001846FFF735B8000000040240F8B507466B
:101500001C4615460E462A2000F008F9380A8DF8C8
:1015100000008DF80170300A8DF802008DF803602C
:1015200000220421684600F007F92B2000F0F6F8AD
:10153000280A8DF800008DF80150200A8DF802006D
:101540008DF8034000220421684600F0F5F8F8BD4C
:1015500070B50A4C0D4606460AB13C2003E02068EF
:10156000401C20602C2000F0D9F80022294630468B
:1015700000F0E2F86068401C606070BD040000206C
:101580007047000030B593B030216846FEF752FE38
:1015900014210CA8FEF74EFE1D480025016841F0FD
:1015A00080510160006800F0805011901948016876
:1015B00041F4804101600068022400F480401190F1
:1015C00001200090000401908001CDE9064008AAA6
:1015D0000420A82182E813000B906846FFF77AF9EF
:1015E00008B172B6FEE70CA90F2081E831004FF474
:1015F000A0500F904FF48050109005210CA8FFF7D9
:101600006FF8002801D072B6FEE713B030BD0000BD
:1016100040380240007000400248016841F4700107
:101620000160704788ED00E00148FFF744BD00000D
:1016300074000020F0B50268254C264D264E274F39
:10164000274B4FF0804CA04209D0604507D0A842FC
:1016500005D0B04203D0B84201D0984204D122F064
:10166000700E4A6842EA0E02A0421BD0604519D0B3
:10167000A84217D0B04215D0B84213D0984211D02A
:10168000184DA8420ED0184DA8420BD0174DA842B5
:1016900008D0174DA84205D0164DA84202D0164DCD
:1016A000A84203D122F44075CA682A434D6922F04A
:1016B00080022A4302608A68C2620A688262A0428B
:1016C00001D0984201D10969016301214161F0BD56
:1016D000000001400004004000080040000C0040F1
:1016E0000004014000400140004401400048014026
:1016F00000180040001C004000200040FEE70000F1
:1017000001B50120FFF7EEFE64230122694602487D
:10171000FFF73EFB08BD00001C00002001B50020C3
:10172000FFF7E0FE6423012269460248FFF730FB21
:1017300008BD00001C00002070B5064615460C468A
:101740000120FFF7CFFEA2B22DB13146BDE87040B7
:101750000448FFF7D1BB3146BDE87040642301481F
:10176000FFF716BB1C0000200907090E002804DB48
:1017700000F1E02080F80014704700F00F0000F145
:10178000E02080F8141D704702E008C8121F08C14D
:10179000002AFAD170477047002001E001C1121FF2
:1017A000002AFBD170470000FEF7EEFEFFF7EAFECD
:1017B000FFF742FDFFF792FD022000F03DF8EF2316
:1017C000002219461046FFF799FE184F4AF6C00549
:1017D000386808B1164E16E0164E00E02CB900220B
:1017E00029461448FFF7B4FE012440F2A3206043C9
:1017F00006EB801001222946FFF7AAFE641C042C88
:10180000E6DAEBE72CB9002229460948FFF7A0FEEB
:10181000012440F2A320604306EB801001222946F8
:10182000FFF796FE641C042CD2DAEBE700000020E0
:10183000EC1C0008ECBF020810B504460022802111
:10184000FE48FEF78DFE0520FEF780FD0120FFF724
:101850003DFE0A20FEF77AFD0020FFF737FE7820D4
:10186000FEF774FDEF20FFF759FFEB20FFF756FF5F
:101870001420FFF745FFFE20FFF750FFEF20FFF792
:101880004DFFEB20FFF74AFF1420FFF739FF8420BC
:10189000FFF744FF4020FFF733FF8520FFF73EFFAF
:1018A000FF20FFF72DFF8620FFF738FFFF20FFF70F
:1018B00027FF8720FFF732FFFF20FFF721FF882057
:1018C000FFF72CFF0A20FFF71BFF8920FFF726FFF9
:1018D0002120FFF715FF8A20FFF720FF0020FFF7E8
:1018E0000FFF8B20FFF71AFF8020FFF709FF8C20E6
:1018F000FFF714FF0120FFF703FF8D20FFF70EFF16
:101900000120FFF7FDFE8E20FFF708FFFF20FFF705
:10191000F7FE8F20FFF702FFFF20FFF7F1FEB62052
:10192000FFF7FCFE0020FFF7EBFE0020FFF7E8FECC
:101930003620FFF7F3FE34B1012C06D0022C7DD007
:10194000032C05D1D0E1182000E02820FFF7D8FEB5
:101950003A20FFF7E3FE0620FFF7D2FE9020FFF7C4
:10196000DDFE0820FFF7CCFE0820FFF7C9FE0820A7
:10197000FFF7C6FE0820FFF7C3FEBD20FFF7CEFE2F
:101980000620FFF7BDFEBC20FFF7C8FE0020FFF7D2
:10199000B7FEFF20FFF7C2FE6020FFF7B1FE012077
:1019A000FFF7AEFE0420FFF7ABFEC320FFF7B6FE45
:1019B0001320FFF7A5FEC420FFF7B0FE1320FFF7AA
:1019C0009FFEC920FFF7AAFE2220FFF799FEBE2046
:1019D000FFF7A4FE1120FFF793FEE120FFF79EFE24
:1019E0001020FFF78DFE0E20FFF78AFEDF20FFF7A5
:1019F00095FE2120FFF784FE0C20FFF781FE0220D8
:101A0000FFF77EFEF020FFF789FE4520FFF778FE06
:101A10000920FFF775FE0820FFF772FE0820FFF788
:101A20006FFE2620FFF76CFE2A20FFF769FEF120EB
:101A3000FFF774FE4320FFF763FE00E052E17020E1
:101A4000FFF75EFE7220FFF75BFE3620FFF758FEC1
:101A50003720FFF755FE6F20FFF752FEF220FFF709
:101A60005DFE4520FFF74CFE0920FFF749FE0820E8
:101A7000FFF746FE0820FFF743FE2620FFF740FE53
:101A80002A20FFF73DFEF320FFF748FE4320FFF733
:101A900037FE7020FFF734FE7220FFF731FE36204C
:101AA000FFF72EFE3720FFF72BFE6F20FFF728FEF3
:101AB000ED20FFF733FE1B20FFF722FE0B20FFF780
:101AC0001FFEAE20FFF72AFE7720FFF719FECD207C
:101AD000FFF724FE6320FFF713FE7020FFF71EFEC2
:101AE0000720FFF70DFE0720FFF70AFE0420FFF78F
:101AF00007FE0E20FFF704FE0F20FFF701FE09206E
:101B0000FFF7FEFD0720FFF7FBFD0820FFF7F8FDBC
:101B10000320FFF7F5FDE820FFF700FE3420FFF774
:101B2000EFFD6220FFF7FAFD1820FFF7E9FD0D2019
:101B3000FFF7E6FD7120FFF7E3FDED20FFF7E0FD85
:101B40007020FFF7DDFD7020FFF7DAFD1820FFF7AA
:101B5000D7FD0F20FFF7D4FD7120FFF7D1FDEF2057
:101B6000FFF7CEFD7020FFF7CBFD7020FFF7C8FD1B
:101B70006320FFF7D3FD1820FFF7C2FD1120FFF708
:101B8000BFFD7120FFF7BCFDF120FFF7B9FD70200C
:101B9000FFF7B6FD7020FFF7B3FD1820FFF7B0FD8B
:101BA0001320FFF7ADFD7120FFF7AAFDF320FFF72B
:101BB000A7FD7020FFF7A4FD7020FFF7A1FD6420B2
:101BC000FFF7ACFD2820FFF79BFD2920FFF798FDCC
:101BD000F120FFF795FD0120FFF792FDF120FFF7BF
:101BE0008FFD0020FFF78CFD0720FFF789FD6620A1
:101BF000FFF794FD3C20FFF783FD0020FFF780FDF9
:101C0000CD20FFF77DFD6720FFF77AFD4520FFF728
:101C100077FD4520FFF774FD1020FFF771FD0020D0
:101C2000FFF76EFD0020FFF76BFD0020FFF768FD5A
:101C30006720FFF773FD002002E00000000402406F
:101C4000FFF75EFD3C20FFF75BFD0020FFF758FD2E
:101C50000020FFF755FD0020FFF752FD0120FFF7A0
:101C60004FFD5420FFF74CFD1020FFF749FD3220B7
:101C7000FFF746FD9820FFF743FD7420FFF74EFD68
:101C80001020FFF73DFD8520FFF73AFD8020FFF78C
:101C900037FD0020FFF734FD0020FFF731FD4E2017
:101CA000FFF72EFD0020FFF72BFD9820FFF736FDF4
:101CB0003E20FFF725FD0720FFF722FD3520FFF727
:101CC0002DFD2120FFF72AFD1120FFF727FD7820A9
:101CD000FEF73CFB2920FFF721FDBDE81040142052
:101CE000FEF734BB482031E688202FE6F0FCFCF0FC
:101CF000FCFCF4FCFCF0FCFCF4FCFCF0F8FCF0F860
:101D0000FCF4FCFCF4FCFCF4FCFCF4FCFCF4FCFC3B
:101D1000F4FCFCF4FCFCF4FCFCF4FCFCF8F8FCF82F
:101D2000F8FCF0F8FCECF8FCECF8FCECF8F8ECF85B
:101D3000FCF0F4FCF0F4FCF0F0FCF0F0FCECF0FC57
:101D4000ECF4FCECF4FCE8F4FCE8F4FCE8F4FCE86B
:101D5000F4FCE8F4FCE4F4FCE4F4FCE4F0F8E8F06F
:101D6000F8E8F0F8E4F0F8E4F0F8E4F0F8E8F0F877
:101D7000E8F0F8E8F0F8E8F0F8E4F0F8E4F0FCE473
:101D8000F0FCE4F0FCE4F0FCE4F0FCE0F0FCE0F05B
:101D9000FCE0F0FCE0F0FCE0F0FCE0F0FCE0F0FC4B
:101DA000E0F0FCE0F0FCE0F0FCE4F0F8E4F0F8E453
:101DB000ECF8E0F0FCDCF0FCDCF0FCDCF0FCE0EC4F
:101DC000FCE4ECFCE4F0FCE0F0F8E0ECFCDCF0FC23
:101DD000D8F0FCDCF0FCECE4ECFCDCD4A46C509C13
:101DE0006444E8BC9CECCCB0ECCCB0E8C8ACE8C433
:101DF000ACF0D0B4F0D4B8F0D8BCF0D8BCF0D4BCBF
:101E0000F4D0BCF4CCB0F0C4A4F0C8A4D0A884D062
:101E1000A884ECC098E8BC90E8B890E4B48CECB826
:101E200094E8B494ECB89CECB49CE8B098E4B49416
:101E3000E8B490E4B48CE4B888E4B88CECB494F0E2
:101E4000BCA8E4B8ACC4A49C98807C7864605C486E
:101E50004448383044302C4834384C3C40503840AA
:101E600068484C8C606090585470342C884044D83A
:101E70009C98FCE4D8F4F4E8DCECECD8ECF4E8F062
:101E8000FCE0E8FCE4ECFCECE8F8F0C8CC80483876
:101E900088481CB06C38D89068D08460D88C68D8DA
:101EA0009468D09C74D4A474E8AC80E09C787834B6
:101EB0001C845850ECECF0D8F0FCD8ECFCDCF0FCC6
:101EC000DCF4F8DCF4F4E4F4F8E8F4F8E8F4FCEC1E
:101ED000F0FCECF0FCF0F4FCF0F4FCF0F4FCF4F4B6
:101EE000FCF4F4FCF0F4FCF0F0FCF4F8FCF0F8F88E
:101EF000F0F8FCF0F8F8E4F0F0F4FCFCE8F4F8ECAE
:101F0000F8FCE8F0F8F4F8FCECE8FC9890A4403019
:101F10004428142858404C7458648868708C687041
:101F2000986874A86C7CB46C84B86C80B87084BCFD
:101F30007480B86C6CC47870C07874BC7C7CA870F9
:101F4000785C2830D4A0A0804438985434D494705D
:101F500084503CA07C7CECDCF8D4D4F8D4D8F0D00D
:101F6000D8ECD0D8F4D4DCF8D4DCFCD4DCFCD4D865
:101F7000FCD8D8FCDCD8F8E4D8F0F4DCECFCD8DCF5
:101F8000ECC0B4C4907CA064488C482C8C44289449
:101F90005030A06040A87450B88864CC9C78DCB005
:101FA0008CE8B894E8B090F0B894ECB08CECB490B5
:101FB000E8AC88ECB490E8B890E4B48CF0FCFCF0A9
:101FC000FCFCF0FCFCF0FCFCF4FCFCF0F8FCF0F891
:101FD000FCF4FCFCF4F8FCF4F8FCF4FCFCF4FCFC71
:101FE000F4FCFCF4FCFCF4FCFCF4FCFCF8F8FCF461
:101FF000F8FCF0F8FCF0F8FCECF8FCECF8FCF0F87D
:10200000FCF0F4FCF0F4FCF0F4FCF0F4FCF0F4FC74
:10201000ECF4FCECF4FCECF4FCECF4FCE8F4FCE890
:10202000F4FCE8F4FCE8F4FCE8F4FCE8F4FCE8F088
:10203000FCE8F0FCE8F0FCE8F0FCE8F0FCE8F0FC80
:10204000E8F0FCE8F0FCE8F0FCE4F4FCE4F0FCE48C
:10205000F0FCE4F0FCE4F0FCE4F0FCE0F0FCE0F088
:10206000FCE0F0FCE0F0FCE0F0FCE0F0FCE0F0FC78
:10207000E0F0FCE0F0FCE0F0FCE4F0FCE4F0F8E47C
:10208000F0F8E0F0FCE0F0FCDCF0FCE0F0FCE4EC6C
:10209000FCE4ECFCE4F0FCE0ECF8E0F0F8E0F0FC50
:1020A000D8F0FCDCF0FCF0E8ECECCCC0945C44A490
:1020B0006848ECC0A0ECC8ACECC8B0E8C8ACECC850
:1020C000B0F0CCB0F0D4B8F0D8B8F0D4BCF0D4BCF8
:1020D000F4D0BCF4CCB0F0C4A4ECC4A0E0B494D868
:1020E000AC88E8BC94E8BC94ECBC94E8B890E8B840
:1020F00090ECB894F0B89CE0AC90E8B898E8B89C44
:10210000E0B494E0B494E0B48CE0B894E8C0A8C41F
:10211000A494846C643C2C281004080800040C046B
:10212000080C00081C1018100810100814140814CB
:1021300014040C20080C401C1C542828602C3074FB
:102140004444987C74D8CCC0F4F4F4E8ECF4E0ECAB
:10215000FCE4F0FCE8F4FCE4E0F0FCE0E4905C4C2F
:1021600074340CA86434D48C64DC8C6CDC8C68D83B
:102170008C6CCC9470D4A074ECB088E8A8848C48A3
:10218000306C3C30DCD0D8E0ECFCE0F4FCDCF0FC63
:10219000DCF0FCE0F0F8E8F4FCE4F0F8E8F4FCEC47
:1021A000F4FCECF4FCECF4FCF0F4FCF0F8FCF0F4DF
:1021B000FCF0F4FCF4F8FCF8FCFCF0F4FCECF4F8B3
:1021C000F0F8F8ECF8F8ECF8F8E8F0F4F0F8FCF0D7
:1021D000F8FCF0F4FCB4B0C04840501C102044346B
:1021E00048705C70745C707C60748464748C64741B
:1021F0009C6478A4687CB06880B87084BC7488C023
:102200007C84AC6060C07470C47878C48080AC7426
:102210007C744048945C5C703424C07858E4A4809A
:102220008450388C6C68E0D8F0D4D8FCD0D8F0D486
:10223000DCF4D8E0F8D4DCF4D4D4F0D8D8F4E0DC82
:10224000F8E8DCF4F0DCF0E4C8D4BC989C8C60586E
:10225000744034884C38A4684CB87858C47C60CC3E
:102260008C6CD89C78DCA884E0B08CE4B490E4B8A2
:1022700094E4B490E8B490DCA484E8AC8CF0B4941A
:10228000ECB090E8B08CE8B48CE0B088ECF8FCF0EE
:10229000F8FCF0FCFCF0FCFCF0FCFCF0FCFCF0F8C2
:1022A000FCF0F8FCF4FCFCF4FCFCF4FCFCF4FCFC9E
:1022B000F4FCFCF4FCFCF4FCFCF4FCFCF8F8FCF48E
:1022C000F8FCF0F8FCF0F8FCF0F8FCF0F8FCF0F8A2
:1022D000FCF0F8FCF0F4FCF0F4FCF0F4FCECF8FC9E
:1022E000ECF8FCECF8FCECF8FCECF8FCE8F8FCE8AA
:1022F000F8FCECF4FCECF4FCE8F4FCE8F4FCE8F4A6
:10230000FCE8F4FCE8F4FCE8F4FCE8F4FCE8F4FC99
:10231000E8F4FCE8F4FCE8F0FCE4F4FCE4F0FCE4B1
:10232000F0FCE4F0FCE4F0FCE4F0FCE4F0FCE0F0B1
:10233000FCE0F0FCE0F0FCE0F0FCE0F0FCE0F0FCA5
:10234000E4F0FCE4F0FCE4F0FCE4F0FCE8F0FCE891
:10235000F0FCE0F0FCE0F0FCE0F4FCE0F0FCE4F089
:10236000FCE8ECFCE4F0FCE0ECF8E4F0FCDCF0FC75
:10237000D8F0FCE0F0FCF8ECECD0A8A0885038B025
:102380007454F0C4A4ECC8ACECC8ACE8C8ACF0CC55
:10239000B4F0CCB0F0D4B4F0D8B8F0D4BCF0D4BC25
:1023A000F4D0BCF4CCB0ECC4A4ECC4A0ECC4A4E065
:1023B000B490E4B894E8BC98F0C098E8B890E8B855
:1023C00090ECBC94E8B890E4B490E4B494E4B89C85
:1023D000D4AC94DCB49CE0BCA8B0988450483C10C9
:1023E000181000000400101818283818283C20285D
:1023F0004030384C2C304C242844202C4824304C7D
:102400002030401C2430181C201410141C0C1848B8
:102410002C34603C38806058C4A8A4ECDCE0E8F0C0
:10242000FCDCECFCDCECFCECECFCFCECF0B48474D0
:102430006C340CA05830D08460DC8868DC886CD4A4
:102440008C6CCC8C6CD49874ECA888F4AC8CB06494
:102450004C5C2014C4ACB0ECECFCE4F0FCDCECFC18
:10246000E4F0FCE4F0FCE8F0FCE8F0F8E8F4FCE868
:10247000F8FCE8F8FCECF8FCECF8FCECF8FCF0F804
:10248000FCF0F8FCECF4F8F0F8FCF0F8FCECF4F8F4
:10249000F0F4FCF4F8FCF4F8FCF0F4FCF0F4FCBC10
:1024A000C0D4645C6C24182434283064545C6C5CA4
:1024B00068605060705C707C5C7C845C809460843C
:1024C000A06084A46080A8647CB46C84BC7488B868
:1024D000707CB46868BC6C6CC8787CC07C80BC8044
:1024E0008C743844602824945040D8906CD89870EC
:1024F00084543C907874D8E0F4C8DCFCCCDCF8D48C
:10250000E0F8D8E0F4DCDCF0E8DCE8E8D4DCD8B8CB
:10251000BCC49C9C9C6C648048387C402CA0604867
:10252000C48064C88868CC8C68D89474E8A484ECAF
:10253000AC8CF0B490ECB894E8B894E4B894E4B4FB
:1025400090E0B08CE8B08CC48C6CD49878F0B490E7
:10255000F0B490E8B08CE4B48CE4B48CECF8FCEC0F
:10256000F8F8F0F8FCF0FCFCF0F8FCF0F8FCF0F8FF
:10257000FCF0F8FCF0F8FCF0F8FCF4FCFCF4FCFCDB
:10258000F4FCFCF4FCFCF4FCFCF4FCFCF4FCFCF4BB
:10259000F8FCF0F8FCF0F8FCF0F8FCF0F8FCF0F8CF
:1025A000FCF0F8FCECF8FCF0F8FCF0F8FCF0F8FCBF
:1025B000F0F8FCECF8FCECF8FCECF8FCE8F8FCE8D3
:1025C000F8FCECF4FCECF4FCECF4FCECF4FCE8F4CB
:1025D000FCE8F4FCE8F4FCE8F4FCE8F4FCE8F4FCC7
:1025E000E8F0FCE8F0FCE8F0FCE4F0FCE4F0FCE4EB
:1025F000F0FCE4F0FCE4F0FCE4F0FCE4F0FCE4F0DB
:10260000FCE4F0FCE0F0FCE0F0FCE0F0FCE4F0FCCA
:10261000E4F0FCE4F0FCE4F0FCE4F0FCE8F0FCE8BE
:10262000F0FCE0F0FCE0F4FCE0F4FCE0F4FCE8F0AA
:10263000FCE8F0FCE4F0FCE0F0F8E4F4FCE0F0FC92
:10264000D8F0FCE4F0F8F8E8E8B08880884C34BCB6
:102650008060F4C8A8ECC8ACECC8B0E8C8ACF0CC5A
:10266000B4F0CCB0F0D4B4F0D8B8F0D4BCF0D4BC52
:10267000F4D0BCF4CCB0ECC4A4ECC4A0F4CCACE872
:10268000C09CE4B898E8BC98F0C09CECBC94E8B856
:1026900090ECBC94ECBC94E4B890DCB494D8B498BE
:1026A000E4C4B4C4A89C604440180C0C00080C108E
:1026B000242C1C344418344C1834502038582034FE
:1026C000541C2C4C2030502434542034581C345486
:1026D0001C3450243850283848242C3C24243814E6
:1026E000081838181C5C34306C4440A88888E4DC36
:1026F000E4E8F0FCDCE8FCECF0FCF8ECF0E0C0B462
:10270000703820884020C47454E08C6CD88868D815
:102710008C6CD08C70D49074E09C7CF0AC8CD488A1
:102720006C602414A47C7CF4E8F4E0E8F8D8ECFCB9
:10273000E8F4FCE4F0FCE8F0FCECF4FCE8F4FCE485
:10274000F8FCE4F8FCE8F8FCE8F8FCE8F8FCECFC41
:10275000FCECF8FCECF8F8ECF8FCF0F8FCF0F8FC19
:10276000F0F4FCF0F0FCF0F0FCE8E8F884849C2C39
:10277000284020142C58485C685464604C5C6C58A9
:102780006C745C74745474805C80885C848C588035
:10279000985C80A06480A86C80AC7080B47080C0AD
:1027A0007884B87074A05458B87074BC7C84A068E5
:1027B0006C541C20642820BC7860D89470D4947029
:1027C0007C4C349C8078E0E0F0D8E0F8E4E4F8D881
:1027D000D0E0C8B8C4B0989C98787484544C743CC9
:1027E0002C6C3018884428AC6444C88460D08C6851
:1027F000D0906CDC9C78E8AC8CF0B490ECB08CECB5
:10280000B090E8B08CE4B08CE0B08CE0B08CE4B474
:1028100090E8B090E4AC8CBC8060B47454E4A888B8
:10282000ECB08CECB490E0AC84E8B890E8F4F8E854
:10283000F8F8ECF8FCECF8FCF0F8FCF0F8FCF0F838
:10284000FCF0F8FCF0F8FCF0F8FCF0F8FCF0F8FC18
:10285000F0F8FCF4FCFCF4FCFCF4FCFCF0FCFCF0F8
:10286000FCFCF0F8FCF4F8FCF4F8FCF4F8FCF0F8EC
:10287000FCF0F8FCECF8FCECF8FCECFCFCECFCFCF0
:10288000ECFCFCECF8FCECF8FCECF8FCECF4FCECFC
:10289000F4FCECF4FCECF4FCECF4FCE8F4FCE8F400
:1028A000FCE8F4FCE8F4FCE8F4FCE8F4FCE8F4FCF4
:1028B000E8F0FCE8F0FCE4F0FCE4F0FCE4F0FCE41C
:1028C000F0FCE4F0FCE4F0FCE4F0FCE4F0FCE4F008
:1028D000FCE4F0FCE0F0FCE0F0FCE4F0FCE4F0FCF4
:1028E000E4F0FCE4F0FCE4F0FCE4F0FCE8F0FCE4F0
:1028F000F0FCE4F0FCE0F4FCE0F4FCE0F4FCE8F0D4
:10290000FCE8F0FCE8F0FCE4F0F8E8F4FCE0ECF8BB
:10291000DCF0FCE8F0F8F4E0DC9C70648C5038C427
:102920008868F4C8A8ECC8ACECCCB0E8C8ACF0CC73
:10293000B0F0CCB0F0D4B8F0D8B8F0D4BCF0D4BC7F
:10294000F4D0BCF4CCB0ECC4A4E8C09CF4CCA8F0A7
:10295000C4A4E8BC9CE8BC9CECBC98ECBC98ECBC67
:1029600094E8BC90E4BC90E8C49CE0C09CCCB49CCF
:10297000846C642010140C000C18102824284820A3
:102980002C4C20345420385C2034581C30542030D7
:102990005420345420305024345424345C24345C87
:1029A000243458242C50282C4C2C304C28284434C7
:1029B0003044201424240C14542C2C68403C8C707B
:1029C00070D4C8D0F8F8FCE0E8F4E4ECF0F4E4E00B
:1029D000906054782C18B46040E4906CD48864D42F
:1029E000906CD49070D09070D89874E8A884ECA4BF
:1029F00080803C247C4C40F4DCE0E4E8F4DCECFC3B
:102A0000E4F0FCE4F0FCE4F0F8ECF4FCE8F4FCE8BE
:102A1000F4FCE8F8FCE8F8FCE8F8FCE8F8F8ECF876
:102A2000F8ECF8F8ECF8F8F0FCFCE4ECF4F0F8FC66
:102A3000F0F4FCF0F4FCCCCCDC48445C18142C40E2
:102A40003854584C685448645C48646850707050FE
:102A500074744C747C5078845880885C80885C7C6A
:102A600090647C94687C98687498606CA86C78A476
:102A70006874AC707CA46C7878444C6C3C40501CFE
:102A800018501C109C6448D49474D49070D09070EA
:102A9000703824CCA098F8D8E0D8BCC4AC8080842E
:102AA0004C4474382C884C388C4834783018904416
:102AB00024C07454D48864D08C64D49470E0A8800A
:102AC000E4B490E4B898E0B898E0B494E8B490EC3A
:102AD000B490E8B490E8B490E4B490E4B490E4B472
:102AE00090E8B490ECB090C484649C603CCC906C52
:102AF000ECB08CECB490E0AC84E4B48CE4F0F8E49A
:102B0000F4F8E8F4FCE8F8FCECF8FCECF8FCF0F87D
:102B1000FCF0F8FCF0F8FCF0F8FCF0F8FCF0F8FC45
:102B2000F0F8FCF0F8FCF0F8FCF0FCFCF0FCFCF039
:102B3000FCFCF0F8FCF4F8FCF4F8FCF4F8FCF0F819
:102B4000FCECF8F8E8F8F8ECFCFCECF8FCECF8FC31
:102B5000ECF8FCECF8FCECF8FCECF8FCECF4FCEC2D
:102B6000F4FCECF4FCECF4FCE8F4FCE8F4FCE8F431
:102B7000FCE8F4FCE8F4FCE8F4FCE8F4FCE8F4FC21
:102B8000E8F0FCE8F0FCE4F0FCE4F0FCE4F0FCE449
:102B9000F0FCE4F0FCE4F0FCE4F0FCE4F0FCE4F035
:102BA000FCE4F0FCE4F0FCE4F0FCE4F0FCE4F0FC19
:102BB000E4F0FCE4F0FCE4F0FCE4F0FCE8F0FCE41D
:102BC000F0FCE4F0FCE0F0FCE0F4FCE4F0FCE8F005
:102BD000FCE8F0FCE8F0FCE4ECF8E8F0FCE4ECF8ED
:102BE000E0F0F8ECF0F8E8D0CC94645494583CC889
:102BF0008C6CF4C4A8ECC8ACECCCB0E8C8ACECC8A5
:102C0000B0F4D0B4F0D4B8F0D8B8F0D4BCF0D0BCA4
:102C1000F8D0BCF4CCB0ECC4A4E8C09CECC4A4F4E0
:102C2000CCACECC0A0E8BC9CE8B898ECBC98E8BC84
:102C300094E8BC94E0BC94E0C4A0C0A88C58483888
:102C40000C000414081C2420402C2C5828305C2430
:102C500030602034642034641C34601C305C2034C8
:102C6000582438582438582034581C2C541C2C58BC
:102C70002434602834602C305C34345C3034543478
:102C8000344C38344C2C2030280C0C40201868442C
:102C900044806464CCB8C4F4ECF8E4F0F4F0F0F0F0
:102CA000C8A0A068241C9C4C2CD88460D48C64D010
:102CB000906CD09070D08C6CD89874E4A47CF4B0F4
:102CC00088A86444602818D8B8B4ECF0F4DCF0FCB0
:102CD000DCECFCE4F0FCE4F0FCE8F0FCE8F4FCECF8
:102CE000F4FCECF4FCECF8FCECF8FCECF8F8ECF898
:102CF000F8ECF8F8ECF8F8F0F8FCF0F8FCF0F4FC7C
:102D0000F0F4FC9494AC181C3424203C443C6054F3
:102D1000486C50486C5048686050746850746C4CF3
:102D20007478507C784C74805478805878845C78BF
:102D30008460708460688860689468709C6C78981F
:102D4000687488586C683848582834784844703C0F
:102D50002C7C4428C08460D0906CD09070C080647B
:102D6000743828C4887C9C686070342C84402CB8EB
:102D70006C50C474589C5034904020B46440D0844B
:102D80005CD08860DC9870E8A880F0B890E8B894CF
:102D9000E0B490DCB894E0BC9CE0BC9CE8B494E85F
:102DA000B490E8B490E8B890E8B890E4B490E4B097
:102DB00090E8B090F0B490C48464A06040B47450C3
:102DC000E4A884ECB08CE8B48CE8B48CE0F0F8E0D3
:102DD000F0F8E4F4FCE8F8FCE8F8FCECF8FCECF8BB
:102DE000FCECF8FCF0F8FCF0F8FCF0F8FCF0F8FC77
:102DF000F0F8FCF0F8FCF0F8FCECF8FCECFCF8E87F
:102E0000F8F8F0F8F8F4F4FCF4F4FCF4F4FCF0F462
:102E1000FCE8F8F8E8F8F8E8F8F8E8F8F8E8F8F87E
:102E2000ECF8FCECF4FCECF4FCECF4FCECF4FCEC66
:102E3000F4FCECF4FCE8F4FCE8F4FCE8F4FCE8F462
:102E4000FCE8F4FCE8F4FCE8F0FCE4F0FCE4F0FC62
:102E5000E4F0FCE4F0FCE4F0FCE4F0FCE4F0FCE47E
:102E6000F0FCE4F0FCE4F0FCE4F0FCE4F0FCE4F062
:102E7000FCE4F0FCE4F0FCE4F0FCE4F0FCE4F0FC46
:102E8000E4F0FCE4F0FCE4F0FCE4F0FCE8F0FCE44A
:102E9000F0FCE4F0FCE0F4FCE0F4FCE4F0FCE8F02E
:102EA000FCE8F0FCE8F0FCE4F0F8E8F0F8E8F0F812
:102EB000E0F0F8ECF0F4DCBCB4905C4C9C5C40CCF2
:102EC0008C70F4C8A8ECC8ACE8C8ACECC8ACECC8D2
:102ED000ACF4D0B4F4D4B8F0D8B8F0D4BCF0D0BCD2
:102EE000F8D0BCF4C8B0ECC0A0E8C09CECC0A0F81E
:102EF000CCACECC0A0ECC09CE8BC98E8BC98E8BCAA
:102F000098E4C09CE8C8ACAC94783C281C04000051
:102F100014102420204020285420306418306418D5
:102F200034681834681834681C34681C34601C34E5
:102F30005C1C30541C305424385C2038601C305CDD
:102F40002034602030601C2C6024305C30345430DD
:102F5000304C342C4C383048343438281C1C34184D
:102F60001470444488585CD4B8BCE4F0F0ECF4F835
:102F7000ECD4E080484C7C3018C4704CD89068D4B5
:102F8000906CD08C74D08C70D89474DC9C78F0AC3D
:102F900084D08C6C702C18A87C74ECE8F0E0F0FC09
:102FA000D8ECFCE0F0FCE4F0FCE8F0FCECF0FCEC2D
:102FB000F0FCECF0FCF0F4FCF0F4F8F0F4F8F0F4D1
:102FC000F8F0F4F8F4F8FCE8ECF4F4F8FCD8E0F0ED
:102FD00050546C0008242C3454383C6048486C48E9
:102FE000446C4C486C544C705850705C5070645039
:102FF000706850707858787C587478546C78506841
:10300000805868845C6488606488686C745864481C
:103010002C3C442838805868B88C908450487438C8
:1030200020BC7C58DC9870E09C78DC987C9C5844F0
:103030005C1808803C24A05C44DC9074E49878AC74
:10304000603C883C18A05834C8805CD89470E0A0DC
:103050007CE8AC8CECB490ECB894ECB494E4B4940C
:10306000E8B894ECBC9CECBC9CE4B494ECBC98E850
:10307000B894E8B890E8B890E8B890E4B490E8B0B4
:103080008CECB090ECAC8CC48464B47450A46444F4
:10309000D49474ECB08CECB48CE8B488DCF0F8E038
:1030A000F0F8E4F4FCE8F4FCE8F4FCE8F8FCECF4F8
:1030B000FCECF4FCECF8FCECF8FCECF8FCECF8FCB8
:1030C000ECF8FCECF8FCECF8FCECF8F8E8F8F8E8C4
:1030D000F8F8ECF8F8F0F4FCF4F4FCF4F4FCECF898
:1030E000FCE8F8FCE8F8FCE8F8F8E8F8F8ECF4F8A4
:1030F000ECF4F8ECF4FCECF4FCECF4FCECF4FCEC9C
:10310000F4FCECF4FCE8F4FCE8F4FCE8F4FCE8F48F
:10311000FCE8F4FCE8F0FCE4F0FCE4F0FCE4F0FC97
:10312000E4F0FCE4F0FCE4F0FCE4F0FCE4F0FCE4AB
:10313000F0FCE4F0FCE4F0FCE4F0FCE4F0FCE4F08F
:10314000FCE4F0FCE4F0FCE4F0FCE4F0FCE4F0FC73
:10315000E4F0FCE4F0FCE4F0FCE4F0FCE8F0FCE477
:10316000F0FCE4F0FCE4F4FCE4F4FCE4F4FCE8F04F
:10317000FCE8F0FCE8F4FCE8F0F8E8F0F8E8F0F837
:10318000E4F0F8F0ECECD4B0A4905844A05C40CC4F
:103190009070F8CCACECC8ACE4C4A8ECC8ACE8C403
:1031A000ACF4D0B4F4D4B8F4D8BCF0D4BCF4D4BCEF
:1031B000F8D0BCF4CCB0ECC0A0E8C09CECC0A0F847
:1031C000D0ACECC0A0ECC0A0E8BC9CE4BC9CE4C0CB
:1031D000A0E0C4A8AC94803424180400001C1C286F
:1031E0002028401C28502434641C34681834681883
:1031F000386C1838681834641834641C3864203407
:10320000601C345C20345C20345C1830581C305C0A
:103210002438642038601C345C24386028305038EE
:103220003C5838385430304438404834343428140A
:10323000184420207C4C48744C48CCC8C0E8ECE8CA
:10324000FCF0FCC4A0A85C1C089C5030D8906CD446
:103250009070D09070D08870D89074D8906CECA892
:103260007CF0AC84884028804C40E4D8DCE0ECF86A
:10327000DCF0FCDCF0FCE0ECFCE8F0FCE8F0FCE866
:10328000F0FCECF0FCECF0FCF0F0FCF0F0F8F0F00E
:10329000F8F0F0F8F0F0FCFCFCFCB0B4C8202840DA
:1032A000040C282C38582C386038406840406C4456
:1032B000446C4C486C4C486C504C6C54506C5C5496
:1032C0006C64546C6850686C50686C4C60705064EE
:1032D000846070846474644C58442C3830203064AA
:1032E0005460C4A4B0D8B0B88C5854743424B070AE
:1032F00050D4946CE09C74DC9874D89478A860489E
:10330000BC7458DC9478F4A884C47850843C149C31
:10331000542CB87450D49470E4A480E4AC8CE8B419
:1033200094ECB898ECBC9CE8B898E8B898ECB898DD
:10333000ECB898E8B894ECB494ECB894E8B894E499
:10334000B890E4B890E4B890E4B490E4B08CE4AC05
:1033500088E8AC8CE8AC88C48464C48460A8644405
:10336000C0805CF0B088E8B088E8AC84DCF0F8E0BD
:10337000F0F8E0F0FCE4F4FCE8F4FCE8F4FCE8F439
:10338000FCE8F4FCECF4FCECF4FCECF8FCECF8FCF1
:10339000ECF8FCECF4F8ECF8FCECF8FCE4F8F8E4FD
:1033A000F8F8ECF4FCF0F4FCF4F0FCF0F4FCECF4D1
:1033B000FCE8F8FCE8F8FCE0F4F4E8F4F4ECF4F4ED
:1033C000F0F4FCF4F8FCE8ECF8ECF4FCECF4FCECC5
:1033D000F4FCECF4FCECF4FCE8F4FCE8F4FCE8F4B9
:1033E000FCE8F0FCE4F0FCE4F0FCE4F0FCE4F0FCCD
:1033F000E4F0FCE4F0FCE4F0FCE4F0FCE4F0FCE4D9
:10340000F0FCE4F0FCE4F0FCE4F0FCE4F0FCE4F4B8
:10341000FCE4F4FCE4F0FCE4F0FCE4F0FCE4F0FC9C
:10342000E4F0FCE4F0FCE4F0FCE4F4FCE8F0FCE4A0
:10343000F0FCE4F4FCE4F4FCE0F4F8E4F4FCECF07C
:10344000FCECF0FCE8F4FCE8F4FCE8F0F8F0F8FC44
:10345000E4ECF4F8F0F0B89484985C44A06044D0B4
:103460009474ECC0A0ECCCB0E8C4A8E8C4ACECC840
:10347000ACF4D0B4F4D4B8F4D8BCF0D4BCF4D4BC1C
:10348000F8D0BCF4CCB0F0C4A4ECC09CE8C09CF074
:10349000C4A0FCD0B0E4BC9CE8C0A0E0C0A0E0C4E4
:1034A000ACC4A89830201810080C1C182820244000
:1034B0001C2C4C2434601830601C38681838601498
:1034C000385C18385C1C38601C345C1C345C1C3460
:1034D0005C20386020346020345C2034582034581C
:1034E000203454203454203854243854283458304C
:1034F000385434384C3438443838443C3C48343000
:103500003C20101C54302C805448785040DCC4BC03
:10351000F0F0F0F4E8EC8854506C2410C47858D4DF
:103520008C68D49070DC9474D48868DC906CE4A0CF
:1035300070F0B084C880605C2414C8B0B0E8ECF4CB
:10354000D8ECFCE4F4FCE0ECF8E8F0FCE8F4FCE097
:10355000ECFCECF4FCE8F0FCECF0FCF0F0FCF0F03F
:10356000FCF4F0FCF0F0FC808098080C2808103087
:1035700030385C2C3C602C3C682C38643C3C644CFF
:10358000487048446C444064504C6C5450705450E3
:10359000645C546458485464505C785C688064741B
:1035A000644C6030203830284464607CB4A8BCF09F
:1035B000D4E0D0A0A4784038783420B46C54D894A7
:1035C00074E4A480E0A480E4A480DC9878E094749F
:1035D000E8A07CDC9870B070488C4C24B87858CC4B
:1035E0008C74E4A88CECB094ECB498ECB898ECB87B
:1035F00098E8BC98E8BC9CE8BC98E8BC98E8BC9803
:10360000E8BC94E8BC94E8B890E8B890E4BC90E4D6
:10361000B890E0B48CE0B48CE4B48CE4B088E4AC52
:1036200088ECB08CE8A888C48060CC8868BC7C58E2
:10363000B06C48E8A880F0B48CDCA074DCF0F8E052
:10364000F0F8E0F0FCE4F4FCE4F4FCE8F4FCE8F46A
:10365000FCE8F4FCE8F4FCECF4FCECF4FCECF4FC2A
:10366000ECF4FCECF4FCECF4F8E8F8FCE4F8F8E436
:10367000F8FCECF4FCF0F4FCF0F0FCECF0FCE8F40A
:10368000FCE4F4FCE4F8FCF0FCFCECF4F4F4F8FCEE
:10369000E8E4ECE4E4ECE4ECF8ECF4FCECF4FCEC52
:1036A000F4FCECF4FCE8F4FCE8F4FCE8F4FCE8F0EE
:1036B000FCE8F0FCE4F0FCE4F0FCE4F0FCE4F0FCFA
:1036C000E4F0FCE4F0FCE4F0FCE4F0FCE4F0FCE406
:1036D000F0FCE4F0FCE4F0FCE4F0FCE4F0FCE4F0EA
:1036E000FCE4F0FCE4F0FCE4F0FCE4F0FCE4F0FCCE
:1036F000E4F0FCE4F0FCE4F0FCE4F4FCE8F0FCE4CE
:10370000F0FCE4F0FCE4F4FCE0F4F8E4F4FCECF0AD
:10371000FCECF0FCE8F4FCE8F4FCE8F0F8F0F4FC75
:10372000E8F0F4F8ECECB088789C5C44A05C40D005
:103730009474F0C4A4ECC8ACE8C4A8E8C4ACECC869
:10374000ACF4D0B4F4D4B8F4D8BCF0D4BCF0D0BC51
:10375000F4D0BCF4C8B0ECC4A4ECC09CE8BC9CECB5
:10376000C4A0ECC4A0E4C09CE8C4A8E4C8ACCCB439
:10377000A4504038180C14140C2020244428305431
:1037800020305C2034601834601834601C3C6018B1
:1037900038581C38582038581C345820385C243885
:1037A000641C345C1C305C1C345C20345824345859
:1037B0002438542438502038502034542C385C2875
:1037C0003450303844383C443C38443C384838382D
:1037D0004C34303C200C087454408C58447C544089
:1037E000E0D4CCF8ECECE8C0C4642C24844424D8A5
:1037F0009470D0906CCC8C6CE09478D08464D49429
:1038000068ECB084E8A080804430846864E4E0E43C
:10381000E4F0FCD4E8F8E8F0FCE4ECF8E0F0FCDCE0
:10382000F0FCDCECF8E0F0FCECF4FCE0E8F8F4F49C
:10383000FCE0E0F45C607800001C1014342C385C70
:10384000202C54283864283C682C40683C40683858
:10385000385C484468544C704C4464504464584C40
:10386000645040546C606C7468745850582C243008
:10387000382C407C748CC0BCD8E4D8F0DCC4D0A018
:1038800078786830287C3820C07458E49878E4A4AC
:1038900080E8AC88E4AC88E0A880D8946CE09870AC
:1038A000E49C74C08054AC744CC4906CD8A084E484
:1038B000AC90ECB89CECBC9CECB89CECBC9CECBC1C
:1038C0009CE8BC9CE8BC9CE8BC9CE8BC98E8BC9824
:1038D000E8BC98E8BC94E8BC94E8B894E4B890E0FC
:1038E000B88CE0B48CE0B48CE4B48CE4B08CE4AC80
:1038F00088ECB08CE4A480C48060D4906CC88460F0
:10390000B06C48E09C74ECA880CC8860E0F0F8E0F3
:10391000F0FCE4F0F8E4F4FCE4F4FCE4F4FCE8F497
:10392000FCE8F4FCE8F4FCE8F4FCE8F4FCE8F4FC63
:10393000E8F4FCE8F4FCE8F4FCE4F8FCE4F8F8E46F
:10394000F8FCECF4FCECF0FCECF0FCECF0FCE8F443
:10395000FCE4F4FCE8F8FCE4ECF0E8E8ECFCF4FC53
:10396000D4CCD488848CE4E8F4ECF4FCECF4FCECE7
:10397000F4FCECF4FCECF4FCE8F4FCE8F4FCE8F017
:10398000FCE8F0FCE4F0FCE4F0FCE4F0FCE4F0FC27
:10399000E4F0FCE4F0FCE4F0FCE4F0FCE4F0FCE433
:1039A000F0FCE4F0FCE4F0FCE4F0FCE4F0FCE4F017
:1039B000FCE4F0FCE4F0FCE4F0FCE4F0FCE0F0FCFF
:1039C000E0F0FCE4F0FCE4F0FCE4F0FCE8F0FCE403
:1039D000F0FCE4F0FCE4F0FCE4F4F8E4F4F8ECF0DF
:1039E000FCECF0FCE8F0FCE8F4FCECF0F8ECF0FCAB
:1039F000ECF0F8F8E8E8A47464A05C44A05C3CD463
:103A00009474F4C4A4E8C4A8E8C4A8E8C4ACE8C4A6
:103A1000ACF4CCB4F4D4B8F4D8BCF4D4BCF0D0BC7E
:103A2000F4D0BCF0C8B0ECC0A0ECC09CE8BC9CE8F2
:103A3000BC9CF0C8A4E4C4A4E0C8ACDCC4B474600A
:103A40005C080004100C241C2040242C58283460EE
:103A50002034601C3460203C641C386018305C28C2
:103A60003C681C305820305824385C1C30582034B6
:103A700060203C6424386420345C2034582434585A
:103A800028345824305824345C28345C2838582C86
:103A9000384C343C4C3C3C483C38443C3844403C3A
:103AA00050403C5020202028180C986C547C4C34FA
:103AB000906C58F4D4D0FCE8ECC0989858200C983E
:103AC0005C3CD4987CD09074D48C78E09880D49866
:103AD00078D8A07CF4B898B4806C542C28D0C0C896
:103AE000E8ECFCE0ECFCE4ECF8E4F0F8DCF0F8D80E
:103AF000F4F8DCF4FCDCF0FCDCF0FCECF8FCD8E4E2
:103B0000FC44506800001C10183828345828345CD5
:103B10002434602C3C68243868283C6834406C406D
:103B2000446C44406844385C4830505438586C50B9
:103B30006C7C647C58506824283C303C508490A0B5
:103B4000CCD0DCE8E0ECD8BCC8B08C9064302C6CF5
:103B50003020945038C88060E49C78E4A480E0ACC5
:103B600084E4B088DCA880D8A078E09C74E09870E9
:103B7000D08C64C48460CC9878E4B494ECB898F0A9
:103B8000C09CF0C09CECBC98E8BC98ECBC9CECC021
:103B90009CECBC9CECBC9CECBC9CE8BC9CECBC9C39
:103BA000ECBC9CECBC9CECB898E8B898E4B890E00D
:103BB000B88CE0B48CE0B48CE4B08CE4B08CE8B0A9
:103BC00088ECB08CD89874C48460D49070D4906819
:103BD000B46C48D48C68E09874B87448E0F0FCE0A9
:103BE000F0F8E4F0FCE4F4FCE4F4FCE4F4FCE8F4C5
:103BF000FCE8F4FCE8F4FCE8F4FCE8F4FCE8F4FC91
:103C0000E8F4FCE8F4FCE8F8FCE4F8FCE4F8F8E498
:103C1000F8FCECF4FCECF4FCECF4FCECF4FCE4F864
:103C2000FCE4F8FCE4F4F4F0F4F8F4ECF0F8E8EC7C
:103C3000887880908490ECF0F8E8F4F8ECF4FCECF0
:103C4000F4FCECF4FCECF4FCE8F4FCE8F4FCE8F044
:103C5000FCE8F0FCE4F0FCE4F0FCE4F0FCE4F0FC54
:103C6000E4F0FCE4F0FCE4F0FCE4F0FCE4F0FCE460
:103C7000F0FCE4F0FCE4F0FCE4F0FCE4F0FCE4F044
:103C8000FCE4F0FCE4F0FCE4F0FCE0F0FCE0F0FC30
:103C9000E0F0FCE4F0FCE4F0FCE4F0FCE8F0FCE82C
:103CA000F0FCE4F0FCE4F0FCE4F4F8E8F0F8E8F010
:103CB000FCECF0FCE4F0FCE8F4FCECF4FCECF0F8D8
:103CC000F0F4FCF8E8E49C6858A46044A05C3CD4A0
:103CD0009474F4C8A8E8C4A8E8C4ACE8C4ACE8C4C8
:103CE000A8F0CCB0F4D4B8F4D8BCF4D4BCF0D0BCB8
:103CF000F8CCB8F0C8ACECC0A0ECC09CECBC98E828
:103D0000BC98F0C8A8E0C0A4E4CCB894847C1408A3
:103D10000C0C081C1C203C24305424305C1C3060EB
:103D20001C30601C34602038601C345C20346020FF
:103D30003058343C60282C4C1C2040202440081073
:103D40002C08102C0C1430181C38202440282C4827
:103D50002C30502C345828345C20305824344C30CB
:103D6000384C3840503C3C483C3844403C48443C4B
:103D70004C3C384840444818140C5C3C28B07C64E7
:103D8000683820B4887CFCE0E8F4D8DCA8746C6067
:103D90002410B47864D49484C47C70CC887CC084AF
:103DA00070C49078CC9480D8A494784C4C8464707F
:103DB000F0E8FCF0F0FCE8E4F8E4E4F4E0F0F4DC33
:103DC000F4F8DCF0F8E0F4FCE0F4FCD0E0F440506F
:103DD0006800001C0C183C30406424345C20345CC7
:103DE000283C6420305C283C682438642C386430DB
:103DF000386038345844385860486474587460489F
:103E00006038243C4038509898B0D4DCECE0E0ECCA
:103E1000D8CCD0A88C8878444068302094543CACEE
:103E20006C4CD4906CE8A880E8A880E8AC84E8B03A
:103E300088E0AC84D8A078D89870DC9C70D894685E
:103E4000CC8C68E0A884ECBCA0E0B498E8B894EC12
:103E5000BC94E8BC94E8BC94E8BC94ECC098ECC07A
:103E60009CE8BC9CECC09CECBC9CECBCA0ECBC9C5E
:103E7000ECBC9CECB89CECB898E8B898E4B890E03E
:103E8000B88CE4B48CE4B48CE4B08CE8B08CE8B0CA
:103E90008CE8AC88CC8C68C88864D4946CD4906C62
:103EA000BC744CC87C58CC805CAC6038E4F0FCE45A
:103EB000F4FCE4F4FCE4F4FCE8F4FCE8F4FCE8F4DE
:103EC000FCE8F4FCE8F4FCE8F4FCE8F8FCE8F4FCBA
:103ED000E8F4FCE4F4FCE4F4FCE4F8FCE4F8F8E4D2
:103EE000F8F8E8F4FCECF4FCE8F4FCE8F4FCE4F8A2
:103EF000FCE4F8FCE8F4F4F4F4F4FCF4F8BCA8A84E
:103F00005C444CE4D4DCF4F4FCECF4F8ECF4F8ECB1
:103F1000F4F8ECF4FCECF4FCE8F4FCE8F4F8E8F475
:103F2000FCE8F4FCE4F4FCE4F0FCE4F0FCE4F0FC79
:103F3000E4F0FCE4F0FCE4F0FCE4F0FCE4F0FCE48D
:103F4000F0FCE4F0FCE4F0FCE4F0FCE4F0FCE4F071
:103F5000FCE4F0FCE4F0FCE0F0FCE0F0FCE0F0FC61
:103F6000E0F0FCE0F0FCE4F0FCE4F0FCE8F0FCE85D
:103F7000F0FCE4F0FCE4F0FCE4F0F8E8F0F8E8F041
:103F8000FCECF0FCE4F0FCE4F4FCECF4FCECF0F809
:103F9000F4F4FCF8E8E49C6454A86044A45C40D0C9
:103FA0009070F8C8A8E8C4A8E8C4ACECC8ACE8C4F1
:103FB000A8F0CCB0F4D4B8F4D4B8F4D4BCF0D0BCED
:103FC000F4CCB8F0C4ACE8C0A0ECC09CECBC98E861
:103FD000BC9CE0BCA0DCC0A8C8B4A830242400006D
:103FE00008181C34202C4C2030582034601C3060C1
:103FF0001C34602034601C30581C30582030542C45
:104000003450201C30180C181C080C2004082810F0
:1040100014341C1C2C14141C04081000001C081060
:10402000241C2C2828402830542C38582C34443454
:104030003848383C503C384C403C48443C44443C74
:1040400040403C404444503830382408049C706060
:10405000A0745860301CC8A8A8FCD4DCE4B0B470CC
:104060003030581414682424682024581418541428
:10407000144C0C0C50140C4C100C480C1430001048
:1040800070506C987C9CD8C0DCECDCF0F0ECF4EC6C
:10409000F0F4E8ECF8E0E8F8DCE4F8505C780010C4
:1040A000301024442438601C30581C305C203460AC
:1040B0002034602034602034602838603038603824
:1040C0003C604444645C5474545068302C40484410
:1040D000549C9CA8E4DCECF0E0ECDCC0C4A4787850
:1040E0007C443C844030A0543CB06444C4845CD4E0
:1040F000986CE0A87CE0AC84E4B088E8B088E8A8DC
:1041000084E8A07CE49874DC906CD48868D49470C3
:10411000E0A884E8B898E8BC9CE8BC9CE8B894F0B7
:10412000BC94F0BC94ECBC98ECBC9CE8BC9CE8BC97
:104130009CE4BC9CE8C0A0E8C0A0E8BC9CE8BC9C97
:10414000ECBC98ECBC94E8B890E8B890E8B890E47F
:10415000B88CE4B48CE4B48CE4B088E8B48CECB4EF
:104160008CE4A884C48460D0906CD4906CD4906C9F
:10417000C47854BC7048B46840A45430E4F4FCE4FF
:10418000F4FCE4F4FCE4F4FCE8F4FCE8F4FCE8F40B
:10419000FCE8F4FCE8F4FCE4F4FCE8F4FCE4F4FCF3
:1041A000E4F4FCE0F4FCE4F4FCE4F4F8E0F4F8E417
:1041B000F4F8E8F4FCE8F4FCE4F4FCE4F4FCE0F8E3
:1041C000FCE4F8F8ECF8F4F0ECE8F4E0E0745458AF
:1041D0008C7074FCECF0F4F4F8ECF4F8ECF4F8EC1B
:1041E000F4F8ECF4FCECF4FCECF4FCECF4FCE8F497
:1041F000FCE8F4FCE8F4FCE8F4FCE4F0FCE4F0FC9B
:10420000E4F0FCE4F0FCE4F0FCE4F0FCE4F0FCE4BA
:10421000F0FCE4F0FCE4F0FCE4F0FCE4F0FCE4F09E
:10422000FCE4F0FCE4F0FCE4F0FCE0F0FCE0F0FC8A
:10423000E0F0FCE4F0FCE4F0FCE4F0FCE8F0FCE886
:10424000F0FCE4F0FCE4F0FCE4F4F4E8F0F4E8F072
:10425000FCE8F0FCE4F4FCE4F4FCECF4FCECF0F836
:10426000F0F4FCFCECE8A06C58A46044A86044C8DE
:104270008C6CF4C8A8E8C4A8E8C4ACE8C4ACE8C432
:10428000ACF0CCB0F4D4B8F4D4B8F4D4BCF4D0BC12
:10429000F4CCB8ECC4A8E8BC9CE8BC9CE8BC98E8AA
:1042A000BC9CE0BCA4E0C4B4705C580400041014CE
:1042B000241824402030501830582034601C3460BA
:1042C0001C305C24346020305C24345828304C1C72
:1042D0001828180C0C5C4038906C5CA47864BC8C7A
:1042E00078B88874BC8C78AC7C68805444482018BA
:1042F000200808180C1824243C2C344C38384C3C2A
:104300003C483C38483C3C48403C44403C40403CB5
:104310003C4840443C3440483C4C342024583430E1
:10432000C4948080503C5028206C404060242C6C09
:10433000202C68141C7020247828306C202C782CB9
:1043400038782C34742C28742C286C202468203065
:104350004C0C243C0420380C205430408C707CBC25
:10436000A8B4E4D0E0F8ECFC787490080C2C101C95
:10437000401C305820346020386428406C18305C71
:104380001C305C2C3C68243460303C64383C5C401D
:10439000445C40405C2C283C302C40888490E0D425
:1043A000DCF4E4E4C8ACA8906C6470382C84403031
:1043B000A85C44B46444C47450E0986CE8A878ECF9
:1043C000B484E4B484DCB084E4B48CE8B088E0A0C5
:1043D0007CDC9470E49874D48868D89470E4A888DD
:1043E000E8B494E4B890E4B898ECC09CECBC98F0C5
:1043F000BC98F0C09CF0C09CECBC9CECBCA0E8C09D
:10440000A0E8C0A0E8C0A0E8BC9CE8BC9CE8C098BC
:10441000E8BC98E8BC94E8BC90E8B890E8BC90E8A8
:10442000B890E8B890E8B48CE4B088ECB490E8B008
:104430008CD8A078C08460D49470D4906CD49068E8
:10444000C87C58B0643CA4542CAC5C38E8F8FCE858
:10445000F8FCE8F4FCE8F4FCE8F4FCE8F4FCE8F42C
:10446000FCE8F4FCE4F4FCE8F4FCE8F4FCE4F4FC20
:10447000E4F4FCE4F4FCE4F4FCE4F8FCE4F8F4E434
:10448000F4F4E8F4F8E8F4FCE4F4FCE0F4FCE0F81C
:10449000F8E0F8F4E8F0ECFCF8F8C4A8A8583434D4
:1044A000B49498FCF0F4F8F8F8ECF4F4ECF8F8ECC8
:1044B000F8FCECF8FCECF8FCECF4FCECF4FCECF4B0
:1044C000FCECF4FCE8F4FCE8F4FCE8F4FCE4F4FCB8
:1044D000E4F4FCE4F0FCE4F0FCE4F0FCE4F0FCE4E4
:1044E000F0FCE4F0FCE4F0FCE4F0FCE4F0FCE4F0CC
:1044F000FCE4F0FCE4F0FCE4F0FCE0F0FCE0F0FCB8
:10450000E0F0FCE4F0FCE4F0FCE4F0FCE8F0FCE8B3
:10451000F0FCE4F0FCE4F0FCE4F4F4E8F0F4E8F09F
:10452000FCE8F0FCE4F4FCE4F4FCECF4FCECF0FC5F
:10453000F0F0F8FCECE8A87460A0583CAC6444C00F
:104540008464F4C4A8E8C4A8E8C4ACE8C4ACECC46F
:10455000ACECC8ACF4D4B8F4D4B8F4D4BCF4D4BC47
:10456000F8CCB8ECC0A8E4BC9CE8BC98E8B894E8E7
:10457000BC9CE8C4ACC0A49C1C0C10040010182007
:104580003420304C1C34581C345C1C345C1C3860A7
:1045900020305C20345C28346024284C14101C200B
:1045A0000C0C907064CC9C88CC9070DC9C78D89477
:1045B00070D4906CD4906CD0906CDC9C7CD0988043
:1045C00094685C4428241C1018201C2C3830484067
:1045D000384C4040443C403C4040403C3C3C3C3CEF
:1045E0003C4840444C3C4850384844303C40282CDF
:1045F000A47C70A478684010006C342888404494EF
:1046000040409C3838A03C3C9C44449840449434FE
:104610003C983C409840349840309834309834343A
:10462000943440883440742C345818204408144082
:104630000C2064384C60405C24102C20183C20284E
:10464000502C3C642038641834601C34602038647A
:104650001C305C20305C2C3C6428345824304C14D2
:10466000182C24243478747CDCCCD0FCE4E0D0A872
:10467000A0946050783824904C30B06848B86C4CA6
:10468000B8704CD09064E8AC80E4A478ECAC84E4DE
:10469000A884E4AC84E8B488E4B088D8A078D09446
:1046A00070D89874D49474D09070E4A884F0BC94BA
:1046B000E4B88CE4B890ECC098E8B890E8C098E80A
:1046C000BC9CE8BC9CE8C09CECC0A0ECBCA0ECBCD2
:1046D000A0ECBC9CECBCA0ECBC9CE8BC9CE8BC9CEA
:1046E000E8C098E8C098E4BC98E4BC94E8BC90E8C2
:1046F000B890E8B890E8B490E8B08CECB490E4AC32
:1047000084CC906CC88C68D09470D4946CD8906C25
:10471000C47854AC5C38A85430C8744CE8F8FCE851
:10472000F8FCE8F8FCE8F4FCE8F4FCE8F4FCE8F455
:10473000FCE8F4FCE8F8FCE8F8FCE8F8FCE8F8FC35
:10474000E4F8FCE4F4FCE4F8FCE4F8FCE4F8F8E455
:10475000F8F8E8F4FCE8F4FCE4F4FCE4F4FCE0F839
:10476000FCE4F4F4F0F4F0F8ECE4987470582C2CB9
:10477000C8A8ACFCF4F4F0F0ECF0F8F8ECF8F8ECC5
:10478000F8FCECF8FCECF8FCECF8FCECF8FCECF8D1
:10479000FCECF8FCE8F4FCE8F4FCE8F4FCE8F4FCDD
:1047A000E4F0FCE4F0FCE4F0FCE4F0FCE4F0FCE415
:1047B000F0FCE4F0FCE4F0FCE4F0FCE4F0FCE4F0F9
:1047C000FCE4F0FCE4F0FCE4F0FCE4F0FCE0F0FCE1
:1047D000E4F0FCE4F0FCE4F0FCE4F0FCE8F0FCE8DD
:1047E000F0FCE4F0FCE4F0FCE4F4F8E4F0F8E8F0C9
:1047F000FCE8F0FCE8F4FCE4F4FCECF4FCECF0F88D
:10480000ECF0F8FCECECAC786898543CAC6444BC3C
:104810007C5CF4C4A4ECC4A8E8C4ACE8C4ACECC4AC
:10482000ACECC8A8F4D4B4F4D4B8F4D4BCF4D4BC7C
:10483000F8D0B4ECC4A8E4B898E8BC98E8BC98E810
:10484000BC9CE4BCAC887068080004080C201828E4
:10485000442034541C345420385C143058203860C0
:1048600020345C2430542C3054181028200C0C9C1C
:104870007868CC9880CC8C6CD49068D48C60D88CC0
:1048800064DC9068DC8C68DC9068D08C64CC8C68CC
:10489000D49C80C4988478584C240C102C18284040
:1048A00034444444443C403C404040444044443C04
:1048B000404438404C34404C344448384438202438
:1048C0008C6860B488785828185C24188034308C40
:1048D0003030902824942C288C2C2C94343498300C
:1048E000349C3438943428A03C30A03428A434308C
:1048F000A434389C3438903434943C408834407C20
:10490000304058142840041C28001C2C1034382C2B
:10491000542828542834602434641C305C1C345CD3
:10492000283C60243858182448101834141C2C6C67
:104930006C74CCC8CCFCE8E8D4B4AC8C5C507C3C47
:1049400024985034BC6C4CC47450C0744CCC845CFF
:10495000E4A87CE4AC80DCA878E8B484E8A884EC23
:10496000AC88F0B08CE8AC84DCA074D89C74D89887
:1049700074CC906CD09474DCA484E4B48CE8B890CB
:10498000E8BC94ECBC90ECBC90F0C098E8C09CE40F
:10499000C09CE4BC9CE8C09CECC0A0ECC09CE8BC03
:1049A0009CE8BC98ECBC9CECBC9CECC09CECC09C17
:1049B000E8C09CE8C098E4BC98E8BC98E8B894E4E7
:1049C000B490ECB894ECB890E8B48CECB490E0A857
:1049D00084C48864D49470D09068D4946CD8906C5B
:1049E000BC744CA85C34B0603CE08C68ECF4FCE82F
:1049F000F4FCE8F4FCE8F4FCE8F4FCE8F4FCE8F887
:104A0000FCE8F8FCE4F4FCE8F8FCE8F8FCE8F8FC66
:104A1000E8F8FCE4F4FCE8F4FCE8F4FCE4F4FCE47E
:104A2000F8FCE8F8FCE8F4FCE8F4F8E8F4F8E4F45E
:104A3000FCE4F4F8F4F4F0E4D0C4743C348C545046
:104A4000C8B4B0F8F4F8F4F8F8ECF4F4ECF8FCECD2
:104A5000F8FCECF8FCECF8FCECF8FCECF8FCECF8FE
:104A6000FCECF8FCECF4F8ECF4FCECF4FCE8F4FC02
:104A7000E8F0FCE4F0FCE4F0FCE4F0FCE0F0FCE046
:104A8000F0FCE0F0FCE0F0FCE0F0FCE0F0FCE4F036
:104A9000FCE4F0FCE0F0FCE0F0FCE0F0F8E0F0F822
:104AA000E0F0FCE0F0FCE4F0FCE4F0FCECF4FCE012
:104AB000E8F0E8F4FCE0F0FCE0F4FCE0F4FCE4F402
:104AC000FCE4F4FCE0F0FCE4F0FCF0F4F8ECECF4D2
:104AD000ECF0FCF8F0F4B894888C5038AC6844B82A
:104AE0007450F0BC9CECC4A8E8C4B4E8C4B0ECC4F6
:104AF000ACECC8A8F4D0B0F8D4B8F4D4B8F4D0B8BA
:104B0000F4D0B4ECC4A4E4B898E8BC98E8BC98E449
:104B1000BC9CE0C0AC44302C00000C1420381C2C91
:104B2000501C305820345820345C1C34641C3864C9
:104B3000182C582C3454201424200408987464C071
:104B40008C70D89470D88C64D49064D49064D890CD
:104B500068D88C68DC9070D88C68D49064D49468E1
:104B6000D08C64D0906CD89C809C6C583010102CE9
:104B7000202444404448484C4844485850584838F9
:104B8000404C38445038445C4854645054543C3889
:104B90006C4C40B8948470483C400C046C241C78E5
:104BA00024207C201C7C1C18802020842424882025
:104BB000248420208C2824902824942C289C302C79
:104BC0009830309C30349C34389C383C9C343C9C2D
:104BD000343C9838448834446C24384C0C303408C5
:104BE000302C0C3C302454303460243054283C5C4D
:104BF000182C480C1C300C182C484C5CBCBCC0FC5D
:104C0000F0ECE0C8C4906860743C309C5840BC6CC8
:104C100050C87854C07450CC8460DC9C7CE4A88874
:104C2000E4AC88E4B088E4B080E8B080E8A880F024
:104C3000AC88F0AC84E4A078DC9470D89470D894FC
:104C400070D49470D49C78E8B890ECBC98E4B89098
:104C5000ECBC98ECBC98E8B894ECBC98E8BC9CE838
:104C6000C09CE8C09CE8C09CE8C09CECC09CE8BC30
:104C70009CE8BC98ECC09CECC098ECBC98ECBC9850
:104C8000ECC098E8BC98E8BC98E8BC98E4B894E814
:104C9000BC98E4B894E8B490ECB894E4AC88D498A8
:104CA00074CC9068D09068D49068D49068D8946C94
:104CB000AC643CAC6440DC906CD48C64ECF4FCECF4
:104CC000F4FCE8F4FCE8F4FCE8F4FCE8F4FCE8F4B8
:104CD000FCE8F4FCE4F4FCE8F8FCE8F8FCE8F8FC98
:104CE000E8F4FCE8F4FCE8F4FCE8F4FCE4F4FCE4AC
:104CF000F4FCE4F4FCE8F4FCECF4F8E8F4F8E4F494
:104D0000FCE8F0F8F8F4ECC0A4948C4C40985C54A7
:104D1000C4B0B0F4F4F8F0F8F8F0F8F8ECF8FCEC03
:104D2000F8FCECF8FCECF8FCECF8FCECF8FCECF82B
:104D3000FCECF8FCECF4F8ECF4FCECF4FCE8F4FC2F
:104D4000E8F0FCE8F0FCE8F0FCE4F0FCE0F0FCE06B
:104D5000F0FCE0F0FCE0F0FCE0F0FCE0F0FCE0F067
:104D6000FCE4F0FCE0F0FCE0F0FCE0F0FCE0F0FC47
:104D7000E0F0FCE4F0FCE4F0FCE4F0F8E0ECF4E853
:104D8000F0FCE8F4FCDCF0FCE4F8FCDCF0FCDCEC2F
:104D9000FCE0F0FCE0F0FCE4F0FCECF0F4F0F0F40B
:104DA000E8F0FCF0ECF8CCB0A4804C34B06848AC2F
:104DB0006844ECB898F0C4ACECC4B4E8C4B4E8C43B
:104DC000A8E8C4A4F4D0B0F8D4B4F4D0BCF4D0B8FB
:104DD000F4D0B0ECC8A4E4BC98E8B898E8B898E47B
:104DE000BCA0C0A49028181404081410203C182C4F
:104DF000501C345C24345C1C2C581C386418305C07
:104E0000283C6024244014000080584CC49078D082
:104E10009470D89068D88860D48C60D49064D8900E
:104E20006CD88C70D4886CD48868D49468CC8C5C32
:104E3000D48C60DC9068CC845CD4987C8C685824DA
:104E40000C083C30305048504C44485C4C5468503E
:104E50005868545C6C586068585C6854546C544C86
:104E6000604030AC8474906860440C087024207CEE
:104E700024247C20207C1C207C18207C181C80187A
:104E80001C841C2080181C80181C80181C841C1C6E
:104E90008820249024289428309C2C34A030389CDE
:104EA0003030943030903438943C488C38506C20FA
:104EB0004048083028002838204C28284C18284022
:104EC0000C1C2C182430848894F8ECF0F4E0D8AC56
:104ED0008C786C3C2C8C503CC07860C07454C87882
:104EE00054D08058DC9470E09C78E0A488E0A88CD2
:104EF000E0AC8CE4B08CE8B088E8B084ECB084E836
:104F0000A880E49C78E09870DC9070D8906CD8947D
:104F100070D49874E8B48CE4B48CE4B894E8BC9889
:104F2000E8B894E8B894F0BC9CF0C09CE4B898E46D
:104F3000BC98E8BC98E8C09CECC09CECC09CECC061
:104F40009CECC09CECC098ECC098ECBC98ECBC9875
:104F5000ECC098ECBC98E8BC94E8BC98E8BC98E835
:104F6000BC98E4B490E8B894ECB894DCA480CC90FD
:104F70006CD09068D09068D4906CD49068D48C64D5
:104F8000AC6840C07C54D49068D8906CE8F8FCE8D9
:104F9000F4FCE8F4FCE8F4FCE8F4FCE4F4FCE4F4ED
:104FA000FCE4F4FCE4F4FCE4F4FCE8F8FCE8F8FCD1
:104FB000E8F4FCE4F4FCE8F4FCE4F4FCE4F8FCE4DD
:104FC000F4FCE4F0FCE8F4FCECF4FCE8F4FCE8F0BD
:104FD000FCECF0F8F8F0E8906C60B06C5CA46458FD
:104FE000C4ACA8F4F4F8ECF4F4F0F8FCECF8FCE849
:104FF000F8FCE8F8FCE8F8FCE8F4FCE8F4FCE8F479
:10500000FCE8F4FCE8F4FCE8F4FCE8F4FCE8F4FC6C
:10501000E4F4FCE4F0FCE4F0FCE4F0FCE0F0FCE0A0
:10502000F0FCE0F0FCE0F0FCE0F0FCE0F0FCE0F094
:10503000FCE0F0FCE0F0FCE0F0FCE0F0FCE4F0FC74
:10504000E4F0FCE4F0FCE4F0FCE4F0FCE0ECF8E874
:10505000F4FCE4F0FCDCECF8E4F4FCDCF0F8E4F064
:10506000F8E4F4FCE4F0FCE4F0FCE8ECF4F0F4FC2C
:10507000E4ECFCECECF8E8D0C87C4C38AC6848A414
:10508000603CE0A484F4C4ACECC4B4E8C4B4E8C4A8
:10509000A8E8C4A4F0CCACF4D4B4F0D4BCF0D4BC34
:1050A000F4D0B0ECC8A4E4B898E8B898E8B89CE8A4
:1050B000C0A8987C700C0000101428182444182CE8
:1050C0005420385C2034601C305C1C346020346018
:1050D000243450100C184C302CBC907CD0987CCCD4
:1050E000906CD08C64D88C64D49064D49064D88C48
:1050F0006CD88C6CD48868D49068D09064D0906060
:10510000D48C60DC946CD08C68D89C80D49C8C74DB
:105110004C442C0C085C48445C484864505068502F
:10512000546850546C58586858546C585470584CC3
:10513000603C30986C60A07064501010701C207C33
:105140001C24801C28801C28882028881C2884185F
:1051500024841C20841C2484182080181C801C207B
:10516000841C24881C24881C28882024982C309C8B
:105170003838943C3888383488343090343898340F
:10518000409030446C203C380824200C2C10102C0B
:105190001C2434B8B8C8FCF4FCE4C0BC9058448467
:1051A0004420BC7854C4805CC47C54D0845CD88CCB
:1051B00064E4A074E4A47CE4A480E0A884E0AC8867
:1051C000E4AC8CE8B090E8B090E8AC8CE4A480DC6F
:1051D0009870D4906CD8946CD8906CD4906CD8980B
:1051E00074E0A480F0B894E8B890E8BC94E8BC946B
:1051F000E8B894ECC09CF0C09CE4B490E4B894E4AB
:10520000B898E8BC9CECC09CECC09CECC09CECC08A
:105210009CECC09CECC09CE8BC9CE8BC98E8BC98AA
:10522000E8BC98E8BC98E8BC98E8BC98ECC09CE462
:10523000B894E4B894ECBC98E8B08CD49C74C88C56
:1052400068D0906CD4946CD49068D8946CC8805C0E
:10525000B8744CD49068D49068D8946CE8F4FCE8A6
:10526000F4FCE8F4FCE8F4FCE8F4FCE4F4FCE4F41A
:10527000FCE4F4FCE4F4FCE4F4FCE8F4FCE8F4FC06
:10528000E8F4FCE4F4FCE4F4FCE4F4FCE8F4FCE40E
:10529000F0FCE4F0FCE8F4FCECF4FCE8F0F8E8F0F6
:1052A000FCF4F0F8ECDCD4744C3CD4907CAC685842
:1052B000BCA09CFCF8F8ECF0F4ECF8FCE8F8FCE896
:1052C000F4FCE8F4FCE8F4FCE8F4FCE8F4FCE8F4B2
:1052D000FCE8F4FCE8F4FCE8F4FCE8F4FCE8F4FC9A
:1052E000E4F0FCE4F0FCE4F0FCE4F0FCE0F0FCDCD6
:1052F000F0FCE0F0FCE0F0FCE0F0FCE0F0FCE0F0C2
:10530000FCE0F0FCE0F0FCE0F0FCE4F0FCE4F0FC9D
:10531000E4F0FCE4F0FCE4F0FCE0F0FCE4F0FCE49D
:10532000F0FCE0ECF8E4F0FCE4F0FCE0F0F8E8F489
:10533000FCE4F0F8E4F0FCE4F0FCE4ECF4E8F0FC6D
:10534000E0ECFCE8ECFCF8E4E0906454A05C40ACD9
:105350006040D09070F4C0A4E8C0ACE4C4B0E4C035
:10536000A8E8C8A8F0CCACF4D4B8F0D4BCF0D4BC55
:10537000F4D0B4ECC4A4E4B898E8B898E4B89CE8D5
:10538000C0AC6C5850040004181C341C2C4C1C2C51
:105390005020345C20345C20345C1C345C2438584D
:1053A000181C34180C14A07C70C49478C88C70C875
:1053B0008864D09068D49468D09064D48C64D88C7D
:1053C00068D88C68D48C68D49468D08C60D4946489
:1053D000D49064D4906CD09074C88C74C48878C80D
:1053E0009488582C2444241C5C403C645048745CD1
:1053F0005C64504C6454506858506C5C506C544819
:10540000684C40785044A8746C5C1818741C208454
:10541000202C801C287C1420801824882028841CA0
:1054200024801820801C24801C20801C207C1C1CB4
:105430007C1C207C1C207C1C20801C24801C1C804C
:1054400024207C30247C34288034248834209430F8
:105450002498302C88303474303C3C1C2C100414BC
:1054600038303CC0B4C0B09098744040A45C44C88C
:105470007450D4805CC87C50D48860DC946CE4A008
:1054800078E4A47CD89C74DCA078E4A880E8B0849C
:10549000ECB08CE8AC8CE4A888E0A080D89470D400
:1054A000946CD4946CD8946CD4946CD49470E0A420
:1054B0007CECB48CE8B48CF0BC98E8B894E4B4907C
:1054C000F0C09CECC09CE0B08CDCB08CE8BC98E8F0
:1054D000BC98ECC09CECC09CE8BC9CE8BC98E8BCC8
:1054E0009CECC09CE8BC9CE8BC98E8BC98E8BC98E4
:1054F000E8BC98E8BC98E8BC98E8BC98ECBC9CE890
:10550000B898ECBC98E8B894DCA884CC9470CC90A3
:105510006CD49470D89470D49068DC9470BC78503B
:10552000CC8860D8946CD49068D49068E8F4FCE897
:10553000F4FCE8F4FCE8F4FCE4F4FCE4F4FCE0F44F
:10554000F8E0F4F8E4F4FCE4F4FCE4F4FCE4F4FC47
:10555000E4F4FCE4F4FCE4F4FCE4F4FCE8F4FCE43F
:10556000F0FCE4F0FCE8F4FCE8F0FCE8F0F8E8F02B
:10557000FCF8F0F4CCB4A8744834ECA890B06C58A3
:10558000B09084FCF8F8E8F0F8E8F4FCE8F8FCE8FF
:10559000F8FCE8F8FCE8F8FCE8F8FCE8F8FCE8F8C7
:1055A000FCE8F4FCE4F4FCE4F4FCE4F4FCE4F4FCD7
:1055B000E4F0FCE4F0FCE4F0FCE4F0FCE0F0FCE0FF
:1055C000F0FCE0F0FCDCECFCE0F0FCE0F0FCE0F0F7
:1055D000FCE0F0FCE0F0FCE0F0FCE0F0FCE0F0FCD3
:1055E000E4F0FCE4F0FCE0F0FCE0F0FCE0ECFCE4D7
:1055F000F0FCE8F0FCE4ECF8E4ECF8E8F0FCE8F0AF
:10560000F8E0ECF4E4F0FCE0F0FCE8F0F8E4ECF8AE
:10561000E0F0FCE8ECFCF4E8ECB490808C4C30B4A6
:105620006848C07C5CF4B89CE8C0ACE4C4B0E4C09A
:10563000A4E8C4A8ECC8ACF0D4B4ECD4BCECD4BCA2
:10564000F4D0B4F0C4A4E4B894E4B898E4B89CE00E
:10565000BCA84C3838040410141C3818284C1C2CD6
:10566000501C30582038601C345C20385C202C489A
:10567000100C1854403CBC947CC89474D0906CD0EE
:105680009068D0946CCC9468CC8C60D08C64D890AA
:105690006CD88C6CD49064CC8C60D49064D49064BE
:1056A000D8946CCC8C6CC48870D09884D09884CCFE
:1056B0009484A07060300C005C4038644C48745C8A
:1056C0005C6C58546C5C546C5C5064544C6C5C5016
:1056D000685044583C30946C644C100C6C181C801E
:1056E0001C288420288020248020248020248020BE
:1056F000207C202078201C7C20207C24207C2420DE
:1057000078201C742018741C18741C1880241C88A1
:10571000382898583CB07858C48C64BC8058A85C31
:105720003C904024883C287C3C3060342C3C201C3D
:105730001C0804240C0C603C44B07878D08070D4F1
:105740007C60C87454E0906CE8A078E09C78E0A09D
:105750007CD49878DCA47CE4A880E8B080ECB480A9
:10576000ECAC7CE4A474DC9874D89470D49068D8C1
:10577000946CD89870D4986CD49470D89C74E4AC21
:1057800084F0B890ECB490ECB890ECB890ECBC9885
:10579000F0C09CD8AC88D0A484E8BC98ECC09CEC49
:1057A000C09CECC09CECC09CE8BC98E8BC98E8BCF1
:1057B00098E8BC9CE8BC98E8BC98E4BC98E4BC9829
:1057C000E8BC98E8BC98E8BC9CECBC9CECB898F0B1
:1057D000C09CF0BC98E0AC8CD09874CC946CD09405
:1057E00070D49470D4946CD4946CD4906CC07C5865
:1057F000D8946CD49068D49068D08C64E8F4FCE8B9
:10580000F4FCE4F4FCE4F4FCE4F4FCE4F4FCE4F480
:10581000FCE0F4F8E4F4FCE4F4FCE4F4FCE4F4FC70
:10582000E4F4FCE4F4FCE4F4FCE4F4FCE8F0FCE86C
:10583000F4FCE8F4FCE4F0FCE4F0FCE8F0FCECF050
:10584000FCF8ECF0A4887C885840F8B094B87860F4
:105850009C786CFCF0F0ECF0FCE4F4FCE8F4FCE880
:10586000F4FCE8F4FCE8F4FCE8F4FCE8F4FCE8F40C
:10587000FCE4F4FCE4F4FCE4F4FCE4F4FCE4F0FC0C
:10588000E4F0FCE0F0FCE0F0FCE0F0FCE0F0FCE038
:10589000F0FCDCECFCDCECFCDCECFCE0F0FCE0F034
:1058A000FCE0F0FCE0F0FCE0F0FCE0F0FCE0F0FC00
:1058B000E0F0FCE0F0FCE0F0FCE4F0FCE8F0FCE8F8
:1058C000ECF8E8E8F4E4E8F0E4ECF8E8F0FCE0E810
:1058D000F4E4F0FCE0F0FCE0ECFCE8F0FCDCE8F8E0
:1058E000E0F0FCE4F0FCF0E8F0D8B8B0844830B464
:1058F0006848BC704CECAC8CECC4ACE8C8B0E4C0FC
:10590000A4E4C0A4E8C8A8F0D0B4ECD8BCECD8C0DB
:10591000F8D0B4F0C4A4E4B894E4B898E8BCA0D437
:10592000B0A43024280C1020101C3818284820302F
:10593000502034581C345C2034602034581C2438E7
:1059400014080C9C7C70D0A084CC906CD8906CD443
:105950009068CC9468C89468CC9068D4906CD890C7
:105960006CD48C64D09064D09060D49064D49064F3
:10597000D49470CC9074D49888BC8878BC8474C457
:105980009080C49480583020482820705854604C2F
:105990004C6C585470585468504C68584C6C585063
:1059A0006854505C403C543028480C087824287CCB
:1059B000202074181C741818741C186C18106814A3
:1059C0000C6C1C106C1C0C6C2010702414702818AB
:1059D0007C34208C4834A45C48B46C58D88C74DC7B
:1059E0009878DCA47CDCB07CE4B884ECC48CF0BC9B
:1059F00090E8B488D09874BC8868A0745C906C54AB
:105A0000684838301004340C0C885454C47C6CD46E
:105A1000846CE09474E89C78D89470E4A07CDCA05A
:105A20007CDCA080ECB090E8B088E8B080E4AC7496
:105A3000DCA06CD89868D89468DC946CD8946CD846
:105A40009470D4986CD0946CD49C74E0A880E8B422
:105A50008CECB890F0B894ECB490F0B894ECB894A6
:105A6000D8A884D0A07CDCB490ECC0A0ECC09CECA6
:105A7000C09CECC09CECC09CE8BC9CE8BC98E8BC1A
:105A80009CECC09CE8BC98E8BC98E4BC98E4BC984A
:105A9000E8BC98E8BC9CE8BC9CECBC9CECBC9CF4CE
:105AA000C0A0ECB894D8A080CC9070CC9070D49466
:105AB00070D0906CD0906CD89470CC8864CC886492
:105AC000D8946CD49068D08C64D48C68E8F4FCE4EE
:105AD000F4FCE4F4FCE4F4FCE4F4F8E4F4FCE4F4B2
