:020000040800F2
:10000000A00C00209D010008AD2F0008772D0008EE
:1000100000000000000000000000000000000000E0
:10002000000000000000000000000000B12F0008E8
:100030000000000000000000AF2F0008FD2F0008A6
:10004000CD010008CD010008CD010008CD01000858
:10005000CD010008CD010008CD010008CD01000848
:10006000CD010008050C0008CD010008CD010008F5
:10007000CD080008CD010008CD010008653000085A
:10008000CD0100080000000000000000CD010008C4
:1000900000000000CD01000855300008CD01000827
:1000A00000000000CD010008CD010008CD010008CE
:1000B000CD01000800000000590B0008CD01000828
:1000C00000F002F800F03EF80CA030C80838241800
:1000D0002D18A246671EAB4654465D46AC4201D180
:1000E00000F030F87E460F3E0FCCB6460126334274
:1000F00000D0FB1AA246AB4633431847A438000091
:10010000C4380000103A02D378C878C1FAD8520730
:1001100001D330C830C101D504680C6070470000BD
:100120000023002400250026103A01D378C1FBD813
:10013000520700D330C100D50B6070471FB51FBDFB
:1001400010B510BD00F060FB1146FFF7F7FF03F09C
:1001500051F900F078FB03B4FFF7F2FF03BC00F0A5
:10016000ADFB000070B505460C46164602E00FCC0C
:100170000FC5103E102EFAD2082E02D303CC03C5B1
:10018000083E042E07D301CC01C5361F03E02178B9
:100190002970641C6D1C761EF9D270BD0F4880F367
:1001A00008880F480168090E0E4A914205D10E4891
:1001B0000E4901600E480F4901600F4880470F4803
:1001C0000047FEE7FEE7FEE7FEE7FEE7FEE700008A
:1001D0000B480C490C4A0D4B70470000A00C002046
:1001E000040000001F000000181002400100000081
:1001F000000001400000000053300008C10000086A
:10020000A0060020A00C0020A0080020A0080020CC
:1002100010B5202A04DB0846203AD040002110BD4A
:100220000B462024D340D040A21A914008431946DF
:1002300010BDFEB5054610460C46184373D0AE46B9
:100240008C460020AD1A01469C4167D366460027C4
:1002500001243D46B61A9D4102D313463A46212455
:10026000654676462F04360C3E432D0CB61A9D414A
:1002700004D3150C1B042B43120410346546764638
:100280002F06360A3E432D0AB61A9D4104D3150E99
:100290001B022B4312020834654676462F073609A7
:1002A0003E432D09B61A9D4104D3150F1B012B4364
:1002B0001201241D65467646AF07B6083E43AD08D9
:1002C000B61A9D4104D3950F9B002B439200A41CAA
:1002D00065467646EF0776083E436D08B61A9D419F
:1002E0001AD392185B41641C16E0001876466546E6
:1002F0004941B71A9D410191009009D36046B11A56
:1003000098418E468446009801990025401C694119
:10031000DD0752082A435B08641EE6D57246634631
:1003200003B0F0BDFFE700200146C046C0462A46A4
:100330002346F5E7F8B5042A2CD3830712D00B78AF
:10034000491C0370401C521E83070BD00B78491CBC
:100350000370401C521E830704D00B78491C0370A5
:10036000401C521E8B079B0F05D0C91ADF002023AB
:10037000DE1B08C90AE0FFF7F5FEF8BD1D4608C9F7
:10038000FD401C46B4402C4310C0121F042AF5D275
:10039000F308C91A521EF0D40B78491C0370401C94
:1003A000521EEAD40B78491C0370401C012AE4D485
:1003B00009780170F8BD01E004C0091F0429FBD2CF
:1003C0008B0701D50280801CC90700D002707047DE
:1003D00000290BD0C30702D00270401C491E02291D
:1003E00004D3830702D50280801C891EE3E7002224
:1003F000EEE70022DFE7002203098B422CD3030A39
:100400008B4211D300239C464EE003460B433CD461
:10041000002243088B4231D303098B421CD3030AC9
:100420008B4201D394463FE0C3098B4201D3CB01F9
:10043000C01A524183098B4201D38B01C01A524129
:1004400043098B4201D34B01C01A524103098B422D
:1004500001D30B01C01A5241C3088B4201D3CB0018
:10046000C01A524183088B4201D38B00C01A5241FB
:1004700043088B4201D34B00C01A5241411A00D2AB
:1004800001465241104670475DE0CA0F00D0494214
:10049000031000D34042534000229C4603098B4284
:1004A0002DD3030A8B4212D3FC22890112BA030A0C
:1004B0008B420CD3890192118B4208D3890192118E
:1004C0008B4204D389013AD0921100E08909C30913
:1004D0008B4201D3CB01C01A524183098B4201D315
:1004E0008B01C01A524143098B4201D34B01C01A00
:1004F000524103098B4201D30B01C01A5241C30878
:100500008B4201D3CB00C01A524183088B4201D3E6
:100510008B00C01A5241D9D243088B4201D34B0001
:10052000C01A5241411A00D20146634652415B1043
:10053000104601D34042002B00D549427047634624
:100540005B1000D3404201B50020C046C04602BD4A
:100550007047704770470000F0B5FF252D04C609AD
:10056000C209FF2704462E400137CB093E434840CD
:100570002A402B400746002A6BD0002B69D0AA42A4
:1005800067D0AB4265D0002800DA32460125ED0580
:1005900029432C4309022002090AD21A4B0C7F245A
:1005A000E31A434C000A7C44E35C7D2424041219C2
:1005B00014145B00A218884201D3521C00E04000D2
:1005C00049420C465C4324115C43DB016415E3188B
:1005D000040A5C43C502200D0C4644436419250AF5
:1005E0005D432303EC0C0D46654300030019EB1833
:1005F0004C42A34201D35B18401CD4052018002BA9
:1006000007D05B00C91804D3401C002901D1400861
:1006100040003F2189048A4209D3002A08DC1106E0
:10062000090F04D0032149074018C00FC007F0BDCF
:1006300001224100120689187F2252069142F6D209
:1006400005214907C84201D59010F0BDFF20C00523
:10065000F0BD002F00DA32461648AA4207D2AB425C
:1006600005D21902090E17D0F80FC007F0BDFF25FB
:1006700063002D06AB42F9D84900A942F6D8AB4237
:1006800001D1A942F2D0A94201D1002101E06100CB
:100690004908D0050843F0BD1102090EFBD0FF2028
:1006A0000243D005F0BD0A460146104654E700005B
:1006B000B63300000000C07F10B501469E24000242
:1006C000CA15A307002A02D01843002A04DBA21A85
:1006D000002A0CDDD04010BD1206120E01D14000E0
:1006E0004008A21A03D4D04040420028F3DDFF2284
:1006F00048001206904201D9002010BDC817C0431F
:10070000584010BD1F22030C02D10F2200041CD040
:10071000030E01D10002083A030F01D10001121F9C
:10072000830F01D18000921E002801DB4000521E81
:10073000D2055118021251181922904004D3491CB5
:10074000002801D14908490008467047C10FC90770
:1007500000D04042012292071143D3E701218907CB
:10076000D0E7000010B5FF231B0644009C421DD8B3
:100770004C009C421AD80346124A0B4307D4401A35
:1007800002D3EFF3008010BDEFF3008010BD081A14
:1007900006D2EFF3008001219043C907084302E02D
:1007A000EFF30080904380F3008810BD0D231B04FD
:1007B0001A4204D01146002000F006F810BD00F0E7
:1007C0001BF810BD00000090C80212D54803400F6E
:1007D000002804D0C803C043012188407047EFF3CC
:1007E00000800001000903210907084380F3008805
:1007F000704700207047000010B5024800F02BF849
:1008000010BD00000000C07F754600F053F8AE46F2
:10081000050069465346C008C000854618B020B59B
:10082000FFF7D6FC60BC00274908B6460026C0C5C5
:10083000C0C5C0C5C0C5C0C5C0C5C0C5C0C5403D98
:1008400049008D46704710B50446C046C046204654
:10085000FFF781FC10BD10B50C461107090F0929DF
:1008600004D00A290AD008290CD104E01146082036
:10087000FFF7AAFF06E0510606D501E0510601D5B3
:100880000120C007214610BDD10607D50101090985
:10089000CC084907000E0006044309E0410F20027E
:1008A0004907000A0143200E00061D22D1410143E1
:1008B0000846E7E700487047400600200149182035
:1008C000ABBEFEE7260002007047000010B50248EC
:1008D00000F035FB10BD00009C04002010B501465F
:1008E000406A826B50231A420AD1816B0122520264
:1008F000114381630168CA681205920F05D020E098
:10090000006B026B0846904710BD827E002A18D10A
:100910000A68120715D58A6853070122002B09DBE4
:100920004B680C24A3434B60816B13029943114322
:10093000816306E0816B202319438163C16B1143FE
:10094000C16300F0F9FA10BD10B5406A816B402216
:1009500011438163C16B04221143C16300F0EEFABD
:1009600010BD10B5406A00F0E8FA10BDF8B50446B5
:1009700000200090206881688907890F012905D12E
:100980000168C90731D1C16809042ED48168184AA9
:1009900010261140012500291AD181682943816060
:1009A000154814490068FFF726FD00E0401E00903E
:1009B0000028FBD101F0D8FA074611E001F0D4FA83
:1009C000C01B02280CD920680068C043C00707D0AC
:1009D000A06B3043A063E06B2843E0630120F8BDC7
:1009E00020680068C043C007E8D10020F8BD0000BF
:1009F0001700008040420F004800002000B58BB077
:100A0000002101200291039105910691049100912A
:100A100001910790099108906946064800F0C6FCCC
:100A2000044801F036F80221024800F045FC0BB002
:100A300000BD00002005002007B50321090288B091
:100A4000401800900021082004900391029108AB07
:100A50000B48DB79037008AB9B79437008AB5B797B
:100A6000837008AB1B79C370027141718171C171D0
:100A7000024606AB6946034800F031FC0BB000BDEE
:100A8000140000202005002003B5032187B00902CF
:100A9000401800900021082004900391029108AAB8
:100AA0000B48D278027008AA9278427008AA52784D
:100AB000827008AA1278C270017141718171C1718E
:100AC000024606AB6946034800F009FC09B000BDC8
:100AD0002C00002020050020032200B512028018FF
:100AE00087B00090082200200492094A03900B0A64
:100AF0000290137051709070D0701071507190719D
:100B0000D07106AB6946034800F0E9FB07B000BDB1
:100B1000240000202005002000B50322120287B027
:100B200080180090082200200492094A0390029045
:100B3000117050709070D070107150719071D071B0
:100B400006AB6946034800F0CAFB07B000BD0000D1
:100B50001C0000202005002010B5024800F016FD02
:100B600010BD000020050020F8B50A4604460168C3
:100B7000234D104602F070FE0646616802F06CFEDE
:100B8000009066603146A06802F072FDA060E968DE
:100B900002F036FE02D2E968A1600AE00127E868A7
:100BA000FF077840A16802F02BFE02D2E868784087
:100BB000A0606069009902F0CBFD0746A16820693A
:100BC00002F0C6FD05463146E06802F0C1FD294647
:100BD00002F04EFD394602F04BFDA061E16902F0E2
:100BE0000FFEE0690AD30125ED076840A16902F014
:100BF00007FE01D3A069F8BDE0696840A061F8BDB7
:100C00006C04002010B5024800F076FF10BD000013
:100C1000DC04002010B50446006805494018142182
:100C2000FFF7E9FB800020640248E06310BD00008C
:100C3000F8FFFDBF0000024030B5056C0124AC4058
:100C4000C56B6C60046863604368102B036803D055
:100C500099600068C26030BD9A600068C16030BDB4
:100C600072B6FEE706490020C86106480169042201
:100C70001143016101694022114301617047000085
:100C80002006002000200240064A0021D1610649CA
:100C90000A6902231A430A61486108694022104325
:100CA00008617047200600200020024010B5054B67
:100CB0000022DA61044A136901242343136101808D
:100CC00010BD0000200600200020024010B50B4A95
:100CD0000020D168CB060A4904D5C869022318430D
:100CE000C8611020D3685B0705D5CB690124234375
:100CF000CB6104210843D06010BD000000200240F9
:100D00002006002070B5054601F02EF90646104C6D
:100D10000AE0681C08D0002D04D001F025F9801BE2
:100D2000A84201D9032070BDE068C007F1D1E06896
:100D3000800601D52020E060E068C00602D4E068AB
:100D4000400703D5FFF7C2FF012070BD002070BD32
:100D500000200240F8B5054604462035287D0026CF
:100D6000012808D001202875206881688907890F2B
:100D7000012908D101E00220F8BD0168C9073CD172
:100D8000C168090439D4A16BFF22013291430222C8
:100D90001143A163C1688907890F0091C16889085F
:100DA0008900C1602068816892071143816001F069
:100DB000DBF8074612E001F0D7F8C01B02280DD976
:100DC00020688068002809DAA06B0221884310217E
:100DD0000843A063002028750120F8BD20688068C2
:100DE0000028E8DB2068C168009A1143C160A06B4D
:100DF00080088000401CA06304E0A06B2021084311
:100E0000A0630126002028753046F8BDF8B50025FE
:100E1000044620340095227D012A3BD00122227510
:100E200003689E68760776D43F4F4E68BE4254D022
:100E30009E6A0F78BA4016439E620123C26A1B075E
:100E40009A421FD0012A1DD0022A1BD0032A19D092
:100E5000042A17D0052A15D0062A13D0072A11D044
:100E600002688B6856697607760FB3420AD05369D9
:100E7000DB08DB005361006842690B7A5B075B0F9C
:100E80001A4342610868102806D0112804D012289D
:100E900002D045E00220F8BD244A9368102809D00A
:100EA00011280AD001200006034393600868102827
:100EB00006D035E00120C005F6E701208005F3E704
:100EC0001C481B490068FFF796FA0A21484300E0D6
:100ED000401E00900028FBD122E0986A0E78B240B4
:100EE000904398620868102803D0112801D0122876
:100EF00016D10E498A68102807D0112808D0012081
:100F0000000682438A600BE005E00120C005F8E797
:100F100001208005F5E7816B2022114381630125C3
:100F2000002020752846F8BD011000000027014070
:100F300040420F0048000020704770477047F8B5E6
:100F40000446006805684668690701D5710703D43F
:100F500029072ED531072CD5A16BC90604D4A16B66
:100F6000012252021143A163C1680C270905890FB0
:100F7000002919D1A17E002916D1290714D581682D
:100F80004A070121002A08DB4268BA434260A06B8D
:100F90000A0290430843A06306E0A06B202210439E
:100FA000A063E06B0843E0632046FFF7C5FF2068BD
:100FB000076028060CD530060AD5A06B012109046C
:100FC0000843A063204600F0D7F82168802008601D
:100FD000E80614D5F00612D5A06A1025012803D022
:100FE0002068C068C00708D0E06B02210843E063B6
:100FF000206805602046FFF7A1FF20680560F8BD66
:10100000F8B500260446002805D0A06B25462035FB
:10101000002802D007E00120F8BD0020E063287519
:10102000204600F0ABF8A06B1022C006002870DB51
:101030002068816849076CD4A16B1301994302238E
:101040001943A16381688907890F012905D10168C6
:10105000C9070FD1C16809040CD4C168182399438A
:10106000A3681943C1602068016963688900890821
:10107000194301612068C1683D4B1940C160207E61
:10108000617E8003C9030843A17E4B031843A36A12
:10109000012B02D001231B0300E000231843E36867
:1010A00018432369022B09D0002318432B79E57ECE
:1010B0005B0018430123012D02D00AE00423F4E76A
:1010C000002927D0A16B20252943A163E16B194397
:1010D000E163E1690D46FF3DC23D02D0256A294327
:1010E00008432168CD680543CD600125E16A2D07DD
:1010F000A94213D0012911D002290FD003290DD004
:1011000004290BD0052909D0062907D0072905D0C5
:1011100010E028E0012109040843DAE721684D695D
:10112000ED08ED004D6121684D69A78D7F077F0FA8
:101130003D434D612168C9680E4D2940814207D168
:101140000020E063A06B80088000401CA06308E0E2
:10115000A06B022188431043A063E06B1843E06357
:1011600001263046F8BDA06B1043A063F8E70000ED
:101170001902FEFFE7FF3F837047000070B586B09D
:10118000054614216846FFF734F91F49286888424C
:1011900038D11E498A69401502438A618A69024032
:1011A00005924A69000202434A61496900260140EA
:1011B00005911020009003200190092069460296B5
:1011C000C00600F005FE1248124C41C48020266083
:1011D00060604000A0608000E060202066612061C7
:1011E0000C48083C00F0D6FC002801D0FFF738FD81
:1011F0002C63002201210C20656200F047FF0C20C7
:1012000000F038FF06B070BD00240140001002401D
:1012100008000240DC040020F7B504460068002501
:10122000806840073DD426462036307D01280AD00C
:1012300001273775607E012807D02046FFF796FB0F
:10124000050002D02EE00220FEBDA06B164908402A
:10125000FF2101310843A0630020E0633075216B5A
:1012600012488862216B1248C862216B11480863DA
:1012700021681C20086020684168102211434160E9
:101280002068C1683943C1602168206B4031029BEE
:10129000019A00F0A9FC2068816804221143816052
:1012A00000E002252846FEBDFEF1FFFFDD08000834
:1012B00063090008490900082022125C012A08D0AD
:1012C000022A06D0416A01229204114341620120A0
:1012D0007047006842690A43426100207047F0B5D8
:1012E0002024255C0468A468012D05D0022D03D0BC
:1012F000416A0122920455E02501AD0F01D1E500BC
:101300004DD5A4010125A40F2E46A6401E608B6872
:10131000002B14D0CE6833434E68F60033432601C9
:10132000FF3607688136BB5123011C46FF3407682E
:101330000E6985343E51097D012904D009E00B88EE
:10134000CE685B05EAE701680E59FF2701373E4387
:101350000E51D479117924062143947956792404C5
:101360003602344321431C46FF3406688D34315124
:10137000D4781178240621439478527824041202F8
:10138000144321431A46FF3204688932A150006891
:10139000FF338133C1582943C1500020F0BD416A59
:1013A00001225205114341620120F0BD30B52022D7
:1013B000125C0368012A08D0022A06D0416A012281
:1013C000920411434162012030BDDA1DFF32FA322E
:1013D00014680120044314600C7DE406E40EA04070
:1013E000D4698443D461CC69002C1AD1D468844375
:1013F000D4608C898D882404ADB22C434D69ED00F6
:10140000ED18FF35FF3502352C640C890D88240456
:10141000ADB22C434D69ED00ED18FF35FF350235B7
:101420006C64CC69012C1AD1D4680443D4600C8854
:101430008D882404ADB22C434D69ED00ED18FF35C5
:10144000FF3502352C640C898D892404ADB22C4300
:101450004D69ED00EB18FF33FF3302335C648B6999
:10146000002B53680BD0034353600B69002B536967
:1014700007D003435361096A012904D006E083437E
:10148000F2E78343F6E7D1690143D1611068400870
:1014900040001060002030BD7047F0B52024245C6F
:1014A000012C06D0022C04D0416A0122920411437F
:1014B00029E0012464050568002920D02D69AD07C5
:1014C0001FD00C012546FF350668B1357659042733
:1014D0003E4096600668765918D0F6085660066851
:1014E000755902263540D5602546FF350668B53565
:1014F00077593F073F0F082F0BD308260CE0ED6804
:10150000DDE7416A214341620120F0BD760D16609E
:10151000E5E776593607360F1661066876593604C0
:10152000360E9661066875592D0C55612246FF32BC
:101530000568B932AD581D700568AD582D0A5D704B
:101540000568AD582D0C9D700568AA58FF34120E21
:10155000DA700268BD3412591A7102681259120AFF
:101560005A7102681259120C9A7102681259120EBD
:10157000DA7120220068002904D001691143016159
:101580000020F0BDC1681143C160F9E7F0B5054620
:10159000006885B046690024416801918768C16888
:1015A00003910169029181690091F10748D0F9071F
:1015B00014D001218160B80703D5284600F096FABF
:1015C0000CE0780702D50124E40207E0380702D5D1
:1015D0000124240302E0284600F087FAF80517D515
:1015E000FF20296801308860B80503D5284600F03F
:1015F0007FFA0DE0780502D50120400303E03805AD
:1016000003D501208003044302E0284600F06FFA6E
:10161000F80315D50120296800048860B90303D5B3
:10162000284600F067FA0BE0790302D50120C003D9
:1016300001E0390301D5044302E0284600F059FADD
:1016400030071027002806DA0398C00603D5780172
:1016500004432868C760700708D50398000705D5BC
:1016600029680820C860284600F04CF9B00706D564
:101670002868C068800702D0284600F045F9700647
:1016800007D50298C00604D50120800204432868CB
:101690000761B00608D50298000705D5296808201B
:1016A0000861284600F0F2F9F00606D528680069BE
:1016B000800702D0284600F0EAF9B00307D5019868
:1016C000C00604D528684760284600F0E1F9F00319
:1016D00008D50198000705D52968082048602846E4
:1016E00000F009FA30043CD5019841070420002994
:1016F00035DAF10504D50099C90701D001210C4361
:10170000B10504D50099890701D502210C43710563
:1017100003D50099490700D5044331051FD5009929
:101720004906490F1BD0009A70210A40402A11D067
:1017300006DC102A09D0202A09D0302A0BD108E073
:10174000502A18D0602A06D117E0082202E03C4354
:1017500001E0202214432A6893698B43936129682E
:101760004860002C05D0686A204368622846FFF76D
:1017700093FE05B0F0BD8022ECE7FF220132E9E7DD
:10178000F8B5040005D0254620352878002802D079
:1017900004E00120F8BD204600F07AF820680168D6
:1017A00001221143016000F0DFFB012706467F04A0
:1017B00004E000F0D9FB801B0A2811D8206840689B
:1017C000C007F6D02068016802229143016000F052
:1017D000CBFB06460AE000F0C7FB801B0A2805D9B0
:1017E000606A3843606205202870D2E7206840684C
:1017F0008007F0D4217E8020012921680A683BD02F
:1018000082430A60617E4020012921680A6835D040
:1018100082430A60A17E2020012921680A682FD016
:1018200082430A60E07E102101282068026829D0E6
:101830000A430260207F082101282068026823D023
:101840008A430260617F0420012921680A681DD053
:1018500082430A60E168A068626908432169114314
:1018600008436168491E08432168C861002060621E
:10187000012028700020F8BD0243C2E70243C8E7F8
:101880000243CEE78A43D4E70A43DAE70243E0E7BC
:1018900010B586B0044614216846FEF7AAFD174924
:1018A0002068884227D11648C269012149060A43A7
:1018B000C261C2690A400592426909120A43426143
:1018C0004069084005900320C0020090022001906A
:1018D0000020029003200390042004900920694610
:1018E000C00600F075FA002203211E2000F0CEFB96
:1018F0001E2000F0BFFB06B010BD000000640040D9
:101900000010024070470000F0B55C4A01688DB0DD
:10191000914269D15A4B04AA0021FFF7BEFD052070
:10192000049A584C0002564E131A6178283E5448C7
:101930008B427DD102780225411C130001F022FD6B
:1019400015540C0F14191E252C313654545454546C
:10195000543B40454A5654004078607043E0401C78
:1019600001F040FD60603EE0401C01F03BFDA060E6
:1019700039E0401C01F036FDE06034E04878097839
:101980000002084340BA20822DE04878097800021E
:10199000084340BA608226E0401C01F023FD6061EC
:1019A00021E0401C01F01EFDA0611CE0401C01F084
:1019B00019FDE06117E0401C01F014FD206212E007
:1019C000401C01F00FFD60620DE0401C01F00AFDBB
:1019D000A06208E04078002801D0012100E0002149
:1019E00028482030017325700DB0F0BD401C01F077
:1019F000F9FC7060666905463146A06901F02CFF6C
:101A00000290608A0B90278AC01BFEF79FFE019010
:101A10003146284601F020FF019901F099FE029914
:101A2000FEF79AFD05463846FEF798FE294600E087
:101A30001BE001F01DFE144D064628600B98FEF7D2
:101A40008DFE314601F05AFE03D8608AFEF786FE0D
:101A50002860208AFEF782FE296801F0D1FEC3D8F3
:101A6000208AFEF77BFE2860BEE74B23DB00D21AFC
:101A70008A42B9D100783080B6E7000000640040A7
:101A8000340000206C0400204C0000207047704798
:101A9000704770B50546044620352878012805D0E2
:101AA000606A0121C9040843606216E002202870C0
:101AB0002068016849084900016000F055FA0646AF
:101AC0000DE000F051FA801B0A2808D9606A012154
:101AD00049040843606205202870012070BD206819
:101AE0004068C007EDD1606270BD704770477047B5
:101AF0007047704770477047F0B4C16B0D6801685C
:101B00000C680422066C1346B3402B420DD06307C9
:101B10000BD50B689B0602D40B6893430B60016CDA
:101B20008A40C16B4A60C16A19E00227B740024689
:101B30002F4001232032002F15D0A70713D50C68A2
:101B4000A40604D40C680A25AC430C605370036CE3
:101B500002219940C36B596000211170816A0029EC
:101B600016D0F0BC08470827B7402F4210D02407F2
:101B70000ED50C680E25AC430C60046C1946A140D0
:101B8000C46B61608363537000211170016BE6E7E1
:101B9000F0BC704770B5040021D0022120462030EF
:101BA00005464170226811680E48A36801406068CC
:101BB00026691843E3683343184363691843A369EC
:101BC0001843E3691843084310602046FFF722F8E2
:101BD0000021A163012068702970084670BD0120B2
:101BE00070BD00000FC0FFFFF8B504468C462030E2
:101BF00001780025012909D00126067041780027C7
:101C0000012905D0077002252846F8BD0220F8BD3D
:101C100002214170A76320680168490849000160FA
:101C200061462046FFF708F8E06A0028206801684E
:101C300002D00E22114306E00A22114301602068FF
:101C4000016804229143016020680168314301600A
:101C5000DAE7000070B5044600F086F90546601C1E
:101C600002D004480078241800F07EF9401BA042FE
:101C7000FAD370BD3C000020F8B5054623480F4656
:101C8000017E012601290BD0012101762868204C14
:101C9000012807D02046FFF735F8002813D030E0A0
:101CA0000220F8BD2046FFF72DF8002829D1FEF7C5
:101CB000D9FF2046FFF726F8064616480169042298
:101CC000914301611DE00020C04338606C6812E060
:101CD0002046FEF7D9FF0E48FFF714F806460D48D8
:101CE000026902218A430261002E01D03C6008E0B3
:101CF000012080022418A868810268680818A042A0
:101D0000E6D80248002101763046F8BD20060020C2
:101D100050C30000002002400348016980221143A3
:101D2000016100207047000000200240F0B51FB4A0
:101D300007461A480024017E15461E46012907D091
:101D4000012101761648FEF7DDFF002803D020E0D0
:101D5000022005B0F0BD012F02D0022F00D00427D1
:101D6000220128463146FEF753FA81B201986200FB
:101D70001018FEF79BFF0A48FEF7C4FF09490A69DD
:101D8000520852000A61002803D1641CE4B2BC422C
:101D9000E6D3024900220A76DBE700002006002095
:101DA00050C3000000200240064900200A691206C4
:101DB00007D5054A4A60054A4A600969090600D5FF
:101DC000012070470020024023016745AB89EFCD19
:101DD000F8B5002303240125B5E02E469E40B44605
:101DE00032407CD00E79B607B60F012E01D0022EFC
:101DF00017D186682746B6465E00B74000967646FD
:101E0000BE43B646CF68009EB740764637438760EC
:101E100046686746BE430F79FF06FF0F9F40374372
:101E200047600E79F643B6070ED0C6682746B4461B
:101E30005E00B646B7406646BE43B4468F687646F7
:101E4000B74066463743C7600E79B607B60F022E15
:101E500014D1DE08B60036180096366A5F07B4461D
:101E6000FE0E0F27B646B7406646BE43B4460F691E
:101E70007646B74066463743009E37620668274677
:101E8000B4465E00B646B7406646BE430F79B446D8
:101E9000BF07BF0F7646B7406646374307604E68B8
:101EA000B603B60F4ED02B4FBE692E43BE61BE693E
:101EB0009F08F607F60F284EBF00BE190096B668B9
:101EC0000F27B4469E07360FB646B7406646BE4358
:101ED0000927FF06B446B84202D100270BE031E0E3
:101EE0001E4FB84201D1012705E01D4FB84201D174
:101EF000022700E005277646B74066463743009E36
:101F0000B760184EB6684F689643FF0200D5164377
:101F1000144FBE60FE684F689643BF0200D516435B
:101F2000104FFE607E684F689643BF0300D516438E
:101F30000C4F7E603E684F689643FF0300D5164302
:101F4000084A16605B1C0A681646DE4000D044E76B
:101F5000F8BD0000001002400000014000040048ED
:101F600000080048000401400148806870470000F4
:101F70003C0000200248816802788918816070471F
:101F80003C00002010B50648016810221143016092
:101F9000032000F007F800F053F8002010BD000007
:101FA0000020024030B505461F4887B082690121F4
:101FB00089040A43826180690840009005A901A84C
:101FC00000F0F0F80498002815D000F007F9400060
:101FD0001649FEF710FA411E1648154A0260164AC5
:101FE000C2604160002101618160816100F06AFB93
:101FF000040003D015E000F0F1F8E9E70D4800F027
:10200000ABFB04000DD1162000F034F8042D07D2EC
:1020100000222946162000F039F80848056000E043
:102020000124204607B030BD0010024040420F009E
:1020300000480140D8050020E703000040000020D0
:1020400008B50A4881690122114381618169114003
:102050000091C26901040A43C261C069084000904E
:102060000348016810221143016008BD00100240BE
:1020700000000140002805DBC106C90E0120884090
:10208000014908607047000000E100E010B501F070
:1020900087F910BDF8B50F4606005ED03C4D2868A4
:1020A000C007C00FB84209D2286840084000384332
:1020B00028602868C007C00FB8424ED13068354C40
:1020C00081070CD5400704D5606807210902084341
:1020D00060606068F0218843B168084360603078D0
:1020E000C0072BD07068012810D0022810D0032818
:1020F00011D02168890700292FDA616889088900D1
:1021000001436160FFF730FF009010E0216803E0B9
:1021100021688901EFE7616B8903ECE7FFF724FF92
:102120000099411A1C48814201D90320F8BD60681A
:102130000C210840716889008842EFD12868C007E7
:10214000C00FB8420BD928684008400038432860C7
:102150002868C007C00FB84201D00120F8BD307810
:10216000400706D56068072109028843F1680843E3
:10217000606000F043F86168084A0906090F515C85
:10218000C840074908600320FFF70CFF0020F8BD96
:102190000020024000100240881300004839000867
:1021A0004800002010B5072202600A4A53689B07C6
:1021B0009B0F43605368F0242340836052680723D9
:1021C0001B021A40C26004480068C007C00F0860C4
:1021D00010BD0000001002400020024004480549E4
:1021E00000684968044A4905490F515CC840704776
:1021F00048000020001002405839000870B5154A08
:1022000051680C200B4603401348042B05D0134D96
:10221000082B03D00C2B00D1284670BD8B02104C2C
:102220001B0FE45CD26A0E4B1207120F1033C90366
:102230009A5C890F022901D0032901D0002301E013
:10224000002328460021FDF7F4FF214601F082F823
:1022500070BD00000010024000127A00006CDC0229
:1022600028390008FEB5040070D02078F94EFA4DE8
:10227000C00748D068680007800F01281FD0686831
:102280000007800F022804D16868C003800F02286D
:1022900015D06168012919D001208004002901D0DE
:1022A000052917D02968B14329602968814329602D
:1022B000606800281BD0FFF757FE074613E0286828
:1022C000800320D560680028CED01CE02868304309
:1022D0002860EDE7296801432960F7E7FFF744FE2E
:1022E000C01B642870D828688003F7D50BE0FFF77F
:1022F0003BFE074604E0FFF737FEC01B6428F1D819
:1023000028688003F7D4207880073FD568680007E5
:10231000800F14D068680007800F022804D1686815
:10232000C003800F01280AD0E068002828681ED06A
:10233000012108432860FFF717FE07460CE02868D4
:1023400080070CD5E068012800D108E080E1FFF7A4
:102350000BFEC01B0228C5D828688007F7D528685F
:10236000F82188432169C900084328600EE040082D
:1023700040002860FFF7F8FD074604E0FFF7F4FD92
:10238000C01B0228AED828688007F7D42078000741
:1023900023D5E0690028686A0FD0012108436862EC
:1023A000FFF7E2FD074604E0FFF7DEFDC01B022851
:1023B00098D8686A8007F7D50FE040084000686247
:1023C000FFF7D2FD074605E0C3E0FFF7CDFDC01BD8
:1023D000022887D8686A8007F7D420780427400746
:1023E000002861DA00200190E869C00008D4E9699A
:1023F000B8060143E961E9690140012000910190BB
:1024000096480168C90511D401688215114301601D
:10241000FFF7AAFD009005E0FFF7A6FD0099401A1E
:10242000642898D88D480068C005F5D5A0680128B3
:102430000AD0002801D0052811D0286A40084000A1
:102440002862286AB84302E0286A0121084328620A
:10245000A068002812D0FFF787FD00900AE0286AE4
:1024600038432862F0E7FFF77FFD0099411A7C4866
:1024700081426ED8286A8007F5D50DE0FFF774FD1C
:10248000009006E0FFF770FD0099411A7448814200
:102490005FD8286A8007F5D40198002804D0E9693C
:1024A000012000078143E9612078C00635D56069C5
:1024B00001280CD0401D686B24D038436863686BDA
:1024C000400840006863FFF74FFD074622E0686B55
:1024D00038436863686B012108436863FFF744FD74
:1024E000074604E0FFF740FDC01B022831D8686BA7
:1024F0008007F7D5686BF8218843A169C9000843B4
:1025000068630AE0B8436863F4E7FFF72DFDC01B7A
:1025100002281ED8686B8007F7D42078800637D54C
:1025200068680007800F032814D068680007800FD0
:10253000022804D16868C003800F03280AD0206AEB
:102540000028686B16D030436863FFF70DFD064620
:102550000CE062E0686B80031AD5206A012877D10D
:1025600016E0FFF701FD801B022856D8686B800338
:10257000F7D50DE0B0436863FFF7F6FC064604E0CC
:10258000FFF7F2FC801B022847D8686B8003F7D462
:10259000606A002866D069680907890F022942D05D
:1025A000012636060228286805D0B0432860FFF7C8
:1025B000DBFC044633E0B0432860FFF7D5FC074658
:1025C00004E0FFF7D1FCC01B022826D82868800150
:1025D000F7D4E86A216B000900010843E862A16AA8
:1025E000E06A084369687B22D2039143084368602C
:1025F000286830432860FFF7B7FC044604E0FFF783
:10260000B3FC001B022808D828688001F7D529E010
:10261000FFF7AAFC001B022801D90320FEBD286891
:102620008001F5D41EE00128F8D06868E96A032229
:10263000D203A36A02409A420AD10907226B090F0A
:10264000914205D10F2189040840E16A884209D0EE
:102650000120FEBD0000010000100240007000409B
:10266000881300000020F4E770477047F0B5024679
:102670002032137F012B1ED00125157702235377BB
:1026800006687468B3687027BC430F682743776097
:1026900000680A4CA04205D0AC07A04202D0084C0A
:1026A000A04204D180244968A3431943816055772F
:1026B00000201077F0BD0220F0BD0000002C01408A
:1026C0000004004070B5040005D025462035687F21
:1026D000002802D006E0012070BD002028772046A7
:1026E00000F014F802206877211D206800F0C2FC79
:1026F00001204034A071A877E87720706070A07046
:10270000E070207160716877002070BD08B501220B
:10271000016892070E4891420FD1C169012211430D
:10272000C161C06901211040009000220F20FFF715
:10273000ADFC0F20FFF79EFC08BD064A9142FBD17D
:10274000C26902210A43C261C0690840009008BD05
:102750000010024000040040014620314A7F012A57
:1027600001D00120704702224A770268D368012114
:102770000B43D3600068094A904205D08A07904213
:1027800002D0074A904204D182685207520F062AAB
:1027900002D002680A43026000207047002C01400A
:1027A00000040040F8B5054604462035287F002681
:1027B000012817D0012028770220687722689068C6
:1027C0007727FF23B8431B0298439060086850287E
:1027D00038D00EDC20284FD006DC00284CD0102842
:1027E0001ED149E00220F8BD302845D0402817D13D
:1027F0003AE060282ED0702819D001221203801AE6
:102800000FD090420CD1CB684A688968206800F0EC
:1028100088FC20688168012292031143816000E0F6
:10282000012601206877002028773046F8BDCB6864
:102830004A688968206800F074FC21688868384319
:102840008860EEE7CA684968206800F05FFD5021A3
:10285000206806E0CA684968206800F068FD6021C9
:10286000206800F069FCDCE7CA684968206800F06D
:102870004DFD40212068F4E7226801461046F0E74C
:102880007047F8B504460068C66805690027A907BF
:10289000002913DAB10711D5F91E01610120207753
:1028A000206880698007204602D0FFF7E9FF04E036
:1028B00000F0A4F8204600F02FF92777680716D516
:1028C000700714D504202168C043086102202077D6
:1028D000206880698005800F204602D0FFF7D0FF76
:1028E00004E000F08BF8204600F016F9277728075F
:1028F00015D5300713D508202168C043086104208E
:1029000020772068C0698007204602D0FFF7B8FF13
:1029100004E000F073F8204600F0FEF82777E806A0
:1029200016D5F00614D510202168C0430861082090
:1029300020772068C0698005800F204602D0FFF70D
:102940009FFF04E000F05AF8204600F0E5F82777F2
:10295000E80708D0F00706D001202168C0430861CD
:10296000204600F02BF9280608D5300606D5802031
:102970002168C04308612046FFF776FE680608D547
:10298000700606D540202168C0430861204600F04B
:10299000F1F9A80608D5B00606D520202168C04365
:1029A00008612046FFF761FEF8BD000010B586B053
:1029B000044614216846FDF71CFD0E492068884234
:1029C00015D10D48426949130A43426140690840E4
:1029D0000590C020009002200190002002900390FA
:1029E0000120049009206946C006FFF7F1F906B0FE
:1029F00010BD000000040040001002407047F8B510
:102A0000064604462036307F00270D4601280ED0AA
:102A100001203077002A0CD0042A1BD0082A2FD09E
:102A20000C2A3ED00127002030773846F8BD02201E
:102A3000F8BD206800F088FB2068816908221143F6
:102A400081612068826904218A43826120688169EA
:102A50002A6912E0206800F0B3FB20688269012136
:102A6000C9020A438261206881690122920291436E
:102A70008161206881692A69120211438161D2E76C
:102A8000206800F0D7FB2068C16908221143C161AA
:102A90002068C26904218A43C2612068C1692A6929
:102AA00012E0206800F002FC2068C1690122D20215
:102AB0001143C1612068C269012189028A43C26150
:102AC0002068C1692A6912021143C161ABE770B580
:102AD000040005D025462035687F002802D006E096
:102AE000012070BD00202877204600F014F8022055
:102AF0006877211D206800F0BDFA01204034A071E4
:102B0000A877E87720706070A070E0702071607125
:102B10006877002070BD70477047000010B504460C
:102B20000222203000290AD004290DD0204640304E
:102B300008290ED04378012B10D0012010BD837FCF
:102B4000012BFAD182770AE0C37F012BF5D1C2773E
:102B500005E00378012BF0D1027000E04270012201
:102B6000206800F0D1FA114A2068904205D010493F
:102B7000884202D00F49884204D1416C0123DB0313
:102B80001943416420680121904205D08A07904290
:102B900002D0094A904204D182685207520F062A95
:102BA00002D002680A430260002010BD002C0140E0
:102BB000004401400048014000040040FEB50446C6
:102BC00000686449884201D1FFF7D4F901212068E7
:102BD000890788426FD101225F496048FEF71CFBDC
:102BE0005D4D2888FDF7BAFD01465D48FDF7BCFF45
:102BF000FDF762FD01B25B480180594800F0DAF947
:102C0000594C208A0290FDF7A9FD0646608A019082
:102C1000FDF7A4FD314600F01FFE07462888FDF7AA
:102C20009DFD314600F018FE06466569A0692946FB
:102C3000009000F011FE314600F08AFD3946FDF7A4
:102C40008BFC294600F014FD4649484E4860014679
:102C5000328820462030130000F094FB0E08101636
:102C60001D262E353E454C535A616870027B6078B4
:102C7000322358433138FDF7DFFE5FE061783222BE
:102C8000481E5043401C57E060783222401E50439B
:102C9000801C616805E060783222401E5043C01CF1
:102CA000A168FDF7F1FE49E060783222401E5043F2
:102CB000001DE168F5E74BE060783221401E484393
:102CC000401D029905E060783221401E4843801D76
:102CD0000199FDF701FF31E060783221401E484341
:102CE0002946C01DDDE760783221401E4843083088
:102CF0000099D6E760783222401E50430930E169DE
:102D0000CFE760783222401E50430A30216AC8E77C
:102D100060783222401E50430B30616AC1E7607810
:102D20003222401E50430C30A16ABAE7017B607822
:102D30003222401E50430D30FDF7EEFE3088002851
:102D400001D0002030800A4901200968C043086191
:102D5000FEBD000000480140080000209C04002047
:102D60004C000020000000206C0400200C0000201B
:102D7000480500207047FEE73EB500211748009146
:102D800001910291144A4160026003468160012270
:102D900004240C3316C3017641768276FF23C17674
:102DA000C233C36103460162203319718262FEF7A8
:102DB00027F9002801D0FDF753FF012000030190FF
:102DC00000040290009469460448FEF71FF80028AA
:102DD00001D0FDF745FF3EBD002401409C040020CA
:102DE00010B50F480D490160062141600021032202
:102DF0008160920402610122C16012054261017684
:102E0000012242768276C17601774177FEF7B8FCDF
:102E1000002801D0FDF724FF10BD00000064004031
:102E20002005002008B5084841690122114341618D
:102E3000406910400022009011460920FFF726F952
:102E40000920FFF717F908BD0010024008B5054832
:102E50004269012149040A434261406908400090E7
:102E600008BD00000010024010B586B00024009498
:102E7000012117480194029403940494890705944E
:102E80000160FF21E03184604160FF210461F43181
:102E90008461C160FFF716FC002801D0FDF7E0FE59
:102EA00001200003009069460948FFF77BFC0028D9
:102EB00001D0FDF7D5FE049404A905480594FFF759
:102EC000D5FB002801D0FDF7CBFE06B010BD0000F9
:102ED0004805002010B58EB000240794089409948A
:102EE0000A940B941C2168460C94FDF782FA23493E
:102EF000234812C00460846022490461416008389C
:102F0000FFF7E0FB002801D0FDF7AAFE0120000337
:102F1000079007A91A48FFF745FC002801D0FDF7E4
:102F20009FFE1748FFF7D3FD002801D0FDF798FE5C
:102F30000B940BA912480C94FFF798FB002801D0C2
:102F4000FDF78EFE602000900194029400226946F5
:102F500004940B48FFF753FD002801D0FDF780FED5
:102F6000042269460648FFF74AFD002801D0FDF714
:102F700077FE0348FFF71AFD0EB010BD00040040B5
:102F800090050020E703000006480749C269CA60AF
:102F9000426A0A61826A4A6142680A608068C8615E
:102FA000704700006C0400204C000020FEE77047D2
:102FB0007047000010B50F480022047B0E48012C1A
:102FC000036803D09A630068426310BD7D24E40067
:102FD000002906DB9A63A14200DD214600684163B7
:102FE00010BD5A637D22D200D14200DB4C42006802
:102FF000846310BD8C04002090050020704710B53C
:1030000092B034216846FDF7F4F900240F94302083
:10301000009001200D9408900590109410200E94BB
:10302000069009946846FFF71DF9002801D072B692
:10303000FEE707200D9003200E900F9401211094BD
:103040000DA8FFF727F8002801D072B6FEE712B0EE
:1030500010BD704710B50248FFF713FC10BD00000B
:10306000D805002010B50248FFF70BFC10BD00008A
:1030700048050020F0B502681E4B0124A4071E4D30
:10308000984203D0A04201D0A84203D17026B24397
:103090004E683243194E1A4F98420AD0A04208D0C7
:1030A000A84206D0174CA04203D0B04201D0B8428B
:1030B00004D103242402A243CC6822438024A243E7
:1030C0004C69224302608A68C2620A68826298423E
:1030D00003D0B04201D0B84201D109690163012196
:1030E00041610169C90703D00169490849000161CB
:1030F000F0BD0000002C01400004004000440140ED
:10310000004801400020004010B5CB06DB0E012135
:10311000046A99408C430462016A9A401143016237
:1031200010BD30B58468FF252D021B021343AC434C
:103130000B432343836030BD826870239A430A4364
:1031400007210A4382607047F0B5056A026A520897
:1031500052000262436882697024A24392080C689C
:1031600092001443022295438A68134E2A43114D5C
:10317000A84204D0B04202D0104FB84206D108276E
:10318000BA43CF681743042297433A46A84204D073
:10319000B04202D0094DA84206D103252D02AB430F
:1031A0004D691D438B692B434360846149684163CA
:1031B0000262F0BD002C0140004401400048014083
:1031C00070B5046A026A10239A43026243688269F6
:1031D00073252D02AA430D682D0215432022944326
:1031E0008A6812012243104CA04208D11446CA68D2
:1031F0008026B443120122434024A24305E00B4C35
:10320000A04202D00A4CA04208D10324A402A34346
:103210004C69A4001C438B699B0023434360856178
:1032200049688163026270BD002C01400044014086
:103230000048014070B5056A026AFF2301339A43D2
:1032400002624268C3697024A3439B080C689B0018
:103250001C4301235B029D438B681B022B43104DD3
:10326000A84208D11D46CB68C614B5431B022B43A8
:103270000515AB4305E00B4DA84202D00A4DA8420C
:1032800008D103252D03AA434D692D0115438A69F1
:1032900012012A434260C4614968C163036270BD80
:1032A000002C0140004401400048014030B5046A50
:1032B000026A01231B039A4302624368C2697325B1
:1032C0002D02AA430D682D02154301225203944397
:1032D0008A68120322430A4CA04205D0094CA0423E
:1032E00002D0094CA04205D10124A403A3434C6998
:1032F000A40123434360C56149680164026230BD93
:10330000002C0140004401400048014030B5036AF0
:10331000046A6408640004628469F025AC43120105
:1033200022430A24A3430B438261036230BD30B5BC
:10333000046A036A1025AB43036283690F252D03DA
:103340001203AB431A43A0239C430901214382612A
:10335000016230BDF8B5040C8BB2264682B25E43E2
:103360000D0C1046370C5843360480190021794162
:1033700016466E43370C36048019794126466E4353
:103380008919F8BD30B47446641E2578641CAB42BC
:1033900000D21D46635D5B00E31830BC1847000097
:1033A0008307FF22DB0E9A408907090E9940002807
:1033B00008DB830809489B001B18186890430843E2
:1033C000186070470007000F0838830804489B0006
:1033D0001B18D86990430843D861704700E400E0A7
:1033E00000ED00E008B5014604226846FCF7A2FFA4
:1033F000009808BDFEF7C6FDFFF701FEFFF726FDAA
:10340000FFF710FDFFF7B8FCFFF7EAFCFFF762FDDE
:10341000FFF72AFDFDF7F2FA1A48FDF79BFC01229F
:1034200019491848FDF7F8FE00211848FFF776FB08
:1034300004211648FFF772FB144900200A68506304
:10344000096888631249801E096808611048FFF7FF
:1034500083F9104D284600F021F80F4C2078012800
:1034600001D000F0BFF8FFF78FFD01262078022879
:1034700003D12670284600F0DBF80A20FEF7EAFBAD
:10348000F4E700009C0400200800002090050020C4
:1034900048050020006000086C04002010B58CB0C6
:1034A00000216B4602885A545C18120A891C89B2A2
:1034B000801C62703029F5D3302219460248FCF78F
:1034C00051FE0CB010BD00006C04002030B500238C
:1034D00005E004885D005B1C4C539BB2801C93424A
:1034E000F7D330BDF7B586B01F210698C90644183A
:1034F0000120C0031546844259D2FEF755FC0698B8
:10350000A70A8005C60D01204002841BA54200D8F1
:103510002C460120B902C006081801225202254992
:103520000090FFF7D3FF0020234907E03218530033
:10353000204AD25A8A4203D1401C80B2A042F5D31D
:10354000A0422ED20020019001200390009802900A
:1035500004A901A8FEF790FB002008E007994200AB
:103560008A5A81194B001349401CCA5280B2A042AA
:10357000F4D3012252020F49009800F01FF8A5422F
:1035800013D007996000411807910699002640184A
:103590000690281B012485B264027F1CA542B8D87E
:1035A000B6E7224607990698E7E7FEF7B5FB09B0AC
:1035B000F0BD00006C000020FFFF0000F8B51646CB
:1035C0000F460546002409E060003A5A00232946C8
:1035D0000120FEF7ABFB641CA4B2AD1CB442F3D3D4
:1035E000F8BD00000B4800210170012242700A4A18
:1035F00042600A4A82600A4AC2601E220282094A66
:103600004282094A826141611203C261074A4262F1
:10361000816270476C04002000E0BD440000484413
:1036200000007A44640A000000003443CDCC4C3ED4
:1036300070B505468EB0C00716D130220B496846DA
:10364000FCF790FD00246E46311948780978000295
:10365000084369460886281901220CA9FFF742FF92
:10366000A41CA4B2302CEFD30EB070BD6C040020AB
:1036700070B501250400ED074C4020D4441A01D256
:10368000001B0919C60D4B00F2B2FF2A29D01B0EF0
:103690002CD000020C02D31A2C43DC40284305191D
:1036A00010D2280A02D3401C6D0611D0761EF605F2
:1036B0008019FF2A00DA70BDC00DC00570BD6940D9
:1036C00000F0D0F801200543C541521C761CE8E704
:1036D00064089C40C90161408900E7D10124A043EE
:1036E000E4E71B0E440200D0034870BD002AFCD161
:1036F000C00FC00770BD00BF0000C07F01230200E3
:10370000DB050A430DD4DA4203D49A4207D4884237
:103710007047D84214D4D94212D4884270478042AC
:103720007047DA4203D59A42F9D5814270475B006F
:103730004200DA4204D24A00DA4201D281427047A2
:1037400010B5024AFDF70EF810BD00BF09001604BF
:1037500070B5420064414B005C41120E39D01B0E23
:1037600038D0FF2A3CD0FF2B3AD040024902400A11
:10377000490A060045184E43000A090AD218484370
:10378000ED017F3A0104731A4019190C4318990F7F
:1037900004D001215B0849075B1A521CD80904D3E5
:1037A000401CF50301D19D0607D0FF2A08D2D5059C
:1037B00006D0E4072043401970BD0125A843F4E773
:1037C000002A01DCE00770BD2402FF202043C00571
:1037D00070BD1B0EFF2A03D0FF2B01D0E00770BD88
:1037E000FF2645003606B54206D84D00B54203D83F
:1037F000D218FF2A00D0E7E7004870BD0000C07F64
:1038000001230A00DB0502430DD4DA4203D49A42B5
:1038100007D481427047D94214D4D84212D481428D
:10382000704789427047DA4203D59A42F9D58842F7
:1038300070475B004A00DA4204D24200DA4201D209
:10384000884270474840414010B5024A4840FCF762
:1038500089FF10BD0900160470B501250400ED07AD
:103860004C4022D4441A02D26C40001B0919C60DE8
:103870004B00F2B2FF2A4BD01B0E50D000020C02BC
:10388000D31A2C43DC40A843051B05D5AD0019D342
:103890006D08761E521E37D0F605280A01D280190F
:1038A00070BD70416D0603D070BD6940FFF7E6FE44
:1038B0009C4009026140490001D0401E70BD0124B6
:1038C000A04370BD6D081DD001202B0C01D12D042B
:1038D00010302B0E01D12D0208302B0F01D12D01FC
:1038E000001DAB0F01D1AD00801CEB0F01D16D00AD
:1038F000401C6D00361A121A680AF5054019012A93
:1039000002DB70BD002070BDC036300AC00770BD3C
:103910001B0E440201D1FF2B00D1024870BD002ACA
:10392000F0D070BD0000C07F02030405060708093F
:103930000A0B0C0D0E0F10100102030405060708F8
:10394000090A0B0C0D0E0F10000000000000000013
:103950000102030406070809000000000102030435
:103960008182838485868788898B8C8D8E8F9192C6
:1039700093959697999A9C9D9FA0A2A3A5A7A8AA64
:10398000ACAEB0B2B3B5B7B9BCBEC0C2C5C7C9CC86
:10399000CED1D4D7D9DCDFE2E6E9ECF0F3F7FAFEDA
:1039A000C0390008000000204C000000040100089D
:1039B0000C3A00084C000020540C000020010008C4
:1039C00000000000000000000000000000000000F7
:1039D00000000000000000000000000000000000E7
:1039E00000000000000000000000000000000000D7
:1039F00000000000000000000000000001000000C6
:0C3A0000040000000000000000127A002A
:04000005080000C12E
:00000001FF
